{
  "contractName": "MysteryStaking",
  "abi": [
    {
      "inputs": [],
      "stateMutability": "nonpayable",
      "type": "constructor"
    },
    {
      "anonymous": false,
      "inputs": [
        {
          "indexed": false,
          "internalType": "address",
          "name": "sender",
          "type": "address"
        },
        {
          "indexed": false,
          "internalType": "uint256",
          "name": "amt",
          "type": "uint256"
        }
      ],
      "name": "GetMYST",
      "type": "event"
    },
    {
      "anonymous": false,
      "inputs": [
        {
          "indexed": false,
          "internalType": "address",
          "name": "sender",
          "type": "address"
        },
        {
          "indexed": false,
          "internalType": "uint256",
          "name": "amt",
          "type": "uint256"
        }
      ],
      "name": "RewardsClaimed",
      "type": "event"
    },
    {
      "anonymous": false,
      "inputs": [
        {
          "indexed": false,
          "internalType": "address",
          "name": "sender",
          "type": "address"
        },
        {
          "indexed": false,
          "internalType": "uint256",
          "name": "amt",
          "type": "uint256"
        }
      ],
      "name": "TokenSent",
      "type": "event"
    },
    {
      "anonymous": false,
      "inputs": [
        {
          "indexed": false,
          "internalType": "address",
          "name": "sender",
          "type": "address"
        },
        {
          "indexed": false,
          "internalType": "uint256",
          "name": "amt",
          "type": "uint256"
        }
      ],
      "name": "TokenStaked",
      "type": "event"
    },
    {
      "anonymous": false,
      "inputs": [
        {
          "indexed": false,
          "internalType": "address",
          "name": "sender",
          "type": "address"
        },
        {
          "indexed": false,
          "internalType": "uint256",
          "name": "amt",
          "type": "uint256"
        }
      ],
      "name": "TokenUnstaked",
      "type": "event"
    },
    {
      "anonymous": false,
      "inputs": [
        {
          "indexed": false,
          "internalType": "address",
          "name": "to",
          "type": "address"
        },
        {
          "indexed": false,
          "internalType": "uint256",
          "name": "amount",
          "type": "uint256"
        }
      ],
      "name": "Transfer",
      "type": "event"
    },
    {
      "inputs": [],
      "name": "getMYST",
      "outputs": [
        {
          "internalType": "uint256",
          "name": "",
          "type": "uint256"
        }
      ],
      "stateMutability": "payable",
      "type": "function"
    },
    {
      "inputs": [
        {
          "internalType": "uint256",
          "name": "amt",
          "type": "uint256"
        }
      ],
      "name": "stakeTokens",
      "outputs": [],
      "stateMutability": "nonpayable",
      "type": "function"
    },
    {
      "inputs": [
        {
          "internalType": "uint256",
          "name": "amt",
          "type": "uint256"
        }
      ],
      "name": "unstakeTokens",
      "outputs": [],
      "stateMutability": "nonpayable",
      "type": "function"
    },
    {
      "inputs": [],
      "name": "claimRewards",
      "outputs": [],
      "stateMutability": "nonpayable",
      "type": "function"
    },
    {
      "inputs": [],
      "name": "getTotalPool",
      "outputs": [
        {
          "internalType": "uint256",
          "name": "",
          "type": "uint256"
        }
      ],
      "stateMutability": "view",
      "type": "function"
    },
    {
      "inputs": [
        {
          "internalType": "address",
          "name": "user",
          "type": "address"
        }
      ],
      "name": "getTokenBalance",
      "outputs": [
        {
          "internalType": "uint256",
          "name": "",
          "type": "uint256"
        }
      ],
      "stateMutability": "view",
      "type": "function"
    },
    {
      "inputs": [
        {
          "internalType": "address",
          "name": "user",
          "type": "address"
        }
      ],
      "name": "getStakedBalance",
      "outputs": [
        {
          "internalType": "uint256",
          "name": "",
          "type": "uint256"
        }
      ],
      "stateMutability": "view",
      "type": "function"
    },
    {
      "inputs": [
        {
          "internalType": "address",
          "name": "user",
          "type": "address"
        }
      ],
      "name": "getRewardsEarned",
      "outputs": [
        {
          "internalType": "uint256",
          "name": "",
          "type": "uint256"
        }
      ],
      "stateMutability": "view",
      "type": "function"
    },
    {
      "inputs": [],
      "name": "getERCInstance",
      "outputs": [
        {
          "internalType": "contract ERC20",
          "name": "",
          "type": "address"
        }
      ],
      "stateMutability": "view",
      "type": "function"
    }
  ],
  "bytecode": "0x608060405234801561001057600080fd5b5060405161001d906100cf565b604051809103906000f080158015610039573d6000803e3d6000fd5b506000806101000a81548173ffffffffffffffffffffffffffffffffffffffff021916908373ffffffffffffffffffffffffffffffffffffffff16021790555033600160006101000a81548173ffffffffffffffffffffffffffffffffffffffff021916908373ffffffffffffffffffffffffffffffffffffffff1602179055506000600281905550603c6003819055506100dc565b6113e280611a5b83390190565b611970806100eb6000396000f3fe6080604052600436106100865760003560e01c80633aecd0e3116100595780633aecd0e314610128578063608e4dd0146101655780637547c7a31461018e57806375f4d677146101b7578063fe7b2560146101e257610086565b8063105d6e631461008b57806331c40bc8146100b6578063372500ab146100d45780633a02a42d146100eb575b600080fd5b34801561009757600080fd5b506100a061021f565b6040516100ad919061134b565b60405180910390f35b6100be610248565b6040516100cb919061137f565b60405180910390f35b3480156100e057600080fd5b506100e9610387565b005b3480156100f757600080fd5b50610112600480360381019061010d91906113dd565b610613565b60405161011f919061137f565b60405180910390f35b34801561013457600080fd5b5061014f600480360381019061014a91906113dd565b61065c565b60405161015c919061137f565b60405180910390f35b34801561017157600080fd5b5061018c60048036038101906101879190611436565b610700565b005b34801561019a57600080fd5b506101b560048036038101906101b09190611436565b6109b5565b005b3480156101c357600080fd5b506101cc610ee8565b6040516101d9919061137f565b60405180910390f35b3480156101ee57600080fd5b50610209600480360381019061020491906113dd565b610ef2565b604051610216919061137f565b60405180910390f35b60008060009054906101000a900473ffffffffffffffffffffffffffffffffffffffff16905090565b6000662386f26fc10000341015610294576040517f08c379a000000000000000000000000000000000000000000000000000000000815260040161028b906114e6565b60405180910390fd5b6000662386f26fc10000346102a99190611564565b905060008054906101000a900473ffffffffffffffffffffffffffffffffffffffff1673ffffffffffffffffffffffffffffffffffffffff166340c10f1933836040518363ffffffff1660e01b81526004016103069291906115a4565b6020604051808303816000875af1158015610325573d6000803e3d6000fd5b505050506040513d601f19601f820116820180604052508101906103499190611605565b507f03e67dfd6a9906d73f5a5c1a6f068b6c012943391792dbfcbc1e1b50509280e8338260405161037b9291906115a4565b60405180910390a15090565b600860003373ffffffffffffffffffffffffffffffffffffffff1673ffffffffffffffffffffffffffffffffffffffff16815260200190815260200160002060009054906101000a900460ff16610413576040517f08c379a000000000000000000000000000000000000000000000000000000000815260040161040a906116a4565b60405180910390fd5b6000600760003373ffffffffffffffffffffffffffffffffffffffff1673ffffffffffffffffffffffffffffffffffffffff1681526020019081526020016000205411610495576040517f08c379a000000000000000000000000000000000000000000000000000000000815260040161048c90611710565b60405180910390fd5b61049e33610f45565b600760003373ffffffffffffffffffffffffffffffffffffffff1673ffffffffffffffffffffffffffffffffffffffff16815260200190815260200160002060008282546104ec9190611730565b925050819055506103e8426105019190611564565b600660003373ffffffffffffffffffffffffffffffffffffffff1673ffffffffffffffffffffffffffffffffffffffff168152602001908152602001600020819055506000600760003373ffffffffffffffffffffffffffffffffffffffff1673ffffffffffffffffffffffffffffffffffffffff168152602001908152602001600020549050610592338261102e565b6000600760003373ffffffffffffffffffffffffffffffffffffffff1673ffffffffffffffffffffffffffffffffffffffff168152602001908152602001600020819055507ffc30cddea38e2bf4d6ea7d3f9ed3b6ad7f176419f4963bd81318067a4aee73fe33826040516106089291906115a4565b60405180910390a150565b6000600560008373ffffffffffffffffffffffffffffffffffffffff1673ffffffffffffffffffffffffffffffffffffffff168152602001908152602001600020549050919050565b60008060009054906101000a900473ffffffffffffffffffffffffffffffffffffffff1673ffffffffffffffffffffffffffffffffffffffff166370a08231836040518263ffffffff1660e01b81526004016106b89190611786565b602060405180830381865afa1580156106d5573d6000803e3d6000fd5b505050506040513d601f19601f820116820180604052508101906106f991906117b6565b9050919050565b600860003373ffffffffffffffffffffffffffffffffffffffff1673ffffffffffffffffffffffffffffffffffffffff16815260200190815260200160002060009054906101000a900460ff1661078c576040517f08c379a0000000000000000000000000000000000000000000000000000000008152600401610783906116a4565b60405180910390fd5b80600560003373ffffffffffffffffffffffffffffffffffffffff1673ffffffffffffffffffffffffffffffffffffffff16815260200190815260200160002054101561080e576040517f08c379a000000000000000000000000000000000000000000000000000000000815260040161080590611855565b60405180910390fd5b6108173361110a565b610821338261102e565b80600260008282546108339190611875565b9250508190555080600560003373ffffffffffffffffffffffffffffffffffffffff1673ffffffffffffffffffffffffffffffffffffffff1681526020019081526020016000205403610922576000600860003373ffffffffffffffffffffffffffffffffffffffff1673ffffffffffffffffffffffffffffffffffffffff16815260200190815260200160002060006101000a81548160ff0219169083151502179055506000600560003373ffffffffffffffffffffffffffffffffffffffff1673ffffffffffffffffffffffffffffffffffffffff16815260200190815260200160002081905550610979565b80600560003373ffffffffffffffffffffffffffffffffffffffff1673ffffffffffffffffffffffffffffffffffffffff16815260200190815260200160002060008282546109719190611875565b925050819055505b7ff0dbb2abe50e936f0d3720a39c0debe7706007b2c50286a913f24298e9be36ba33826040516109aa9291906115a4565b60405180910390a150565b600860003373ffffffffffffffffffffffffffffffffffffffff1673ffffffffffffffffffffffffffffffffffffffff16815260200190815260200160002060009054906101000a900460ff1615610c5c57610a1033610f45565b600760003373ffffffffffffffffffffffffffffffffffffffff1673ffffffffffffffffffffffffffffffffffffffff1681526020019081526020016000206000828254610a5e9190611730565b925050819055506103e842610a739190611564565b600660003373ffffffffffffffffffffffffffffffffffffffff1673ffffffffffffffffffffffffffffffffffffffff1681526020019081526020016000208190555060008054906101000a900473ffffffffffffffffffffffffffffffffffffffff1673ffffffffffffffffffffffffffffffffffffffff166323b872dd3330846040518463ffffffff1660e01b8152600401610b13939291906118a9565b6020604051808303816000875af1158015610b32573d6000803e3d6000fd5b505050506040513d601f19601f82011682018060405250810190610b569190611605565b5080600560003373ffffffffffffffffffffffffffffffffffffffff1673ffffffffffffffffffffffffffffffffffffffff1681526020019081526020016000206000828254610ba69190611730565b925050819055506001600860003373ffffffffffffffffffffffffffffffffffffffff1673ffffffffffffffffffffffffffffffffffffffff16815260200190815260200160002060006101000a81548160ff0219169083151502179055508060026000828254610c179190611730565b925050819055507f1fdab8a8457aaf782e4b6217d6ffa6f5006eda7e50922dd092b2e1524275d7743382604051610c4f9291906115a4565b60405180910390a1610ee5565b60008054906101000a900473ffffffffffffffffffffffffffffffffffffffff1673ffffffffffffffffffffffffffffffffffffffff166323b872dd3330846040518463ffffffff1660e01b8152600401610cb9939291906118a9565b6020604051808303816000875af1158015610cd8573d6000803e3d6000fd5b505050506040513d601f19601f82011682018060405250810190610cfc9190611605565b506004339080600181540180825580915050600190039060005260206000200160009091909190916101000a81548173ffffffffffffffffffffffffffffffffffffffff021916908373ffffffffffffffffffffffffffffffffffffffff1602179055506000600760003373ffffffffffffffffffffffffffffffffffffffff1673ffffffffffffffffffffffffffffffffffffffff168152602001908152602001600020819055506103e842610db39190611564565b600660003373ffffffffffffffffffffffffffffffffffffffff1673ffffffffffffffffffffffffffffffffffffffff1681526020019081526020016000208190555080600560003373ffffffffffffffffffffffffffffffffffffffff1673ffffffffffffffffffffffffffffffffffffffff168152602001908152602001600020819055506001600860003373ffffffffffffffffffffffffffffffffffffffff1673ffffffffffffffffffffffffffffffffffffffff16815260200190815260200160002060006101000a81548160ff0219169083151502179055508060026000828254610ea49190611730565b925050819055507f1fdab8a8457aaf782e4b6217d6ffa6f5006eda7e50922dd092b2e1524275d7743382604051610edc9291906115a4565b60405180910390a15b50565b6000600254905090565b6000610efd82610f45565b50600760008373ffffffffffffffffffffffffffffffffffffffff1673ffffffffffffffffffffffffffffffffffffffff168152602001908152602001600020549050919050565b6000603c601861016d6064600354610f5d9190611564565b610f679190611564565b610f719190611564565b610f7b9190611564565b600560008473ffffffffffffffffffffffffffffffffffffffff1673ffffffffffffffffffffffffffffffffffffffff16815260200190815260200160002054600660008573ffffffffffffffffffffffffffffffffffffffff1673ffffffffffffffffffffffffffffffffffffffff168152602001908152602001600020546103e8426110099190611564565b6110139190611875565b61101d91906118e0565b61102791906118e0565b9050919050565b60008054906101000a900473ffffffffffffffffffffffffffffffffffffffff1673ffffffffffffffffffffffffffffffffffffffff1663a9059cbb83836040518363ffffffff1660e01b81526004016110899291906115a4565b6020604051808303816000875af11580156110a8573d6000803e3d6000fd5b505050506040513d601f19601f820116820180604052508101906110cc9190611605565b507f69ca02dd4edd7bf0a4abb9ed3b7af3f14778db5d61921c7dc7cd545266326de282826040516110fe9291906115a4565b60405180910390a15050565b6000600760008373ffffffffffffffffffffffffffffffffffffffff1673ffffffffffffffffffffffffffffffffffffffff168152602001908152602001600020541161118c576040517f08c379a000000000000000000000000000000000000000000000000000000000815260040161118390611710565b60405180910390fd5b61119581610f45565b600760008373ffffffffffffffffffffffffffffffffffffffff1673ffffffffffffffffffffffffffffffffffffffff16815260200190815260200160002060008282546111e39190611730565b925050819055506103e8426111f89190611564565b600660008373ffffffffffffffffffffffffffffffffffffffff1673ffffffffffffffffffffffffffffffffffffffff1681526020019081526020016000208190555061128481600760008473ffffffffffffffffffffffffffffffffffffffff1673ffffffffffffffffffffffffffffffffffffffff1681526020019081526020016000205461102e565b6000600760008373ffffffffffffffffffffffffffffffffffffffff1673ffffffffffffffffffffffffffffffffffffffff1681526020019081526020016000208190555050565b600073ffffffffffffffffffffffffffffffffffffffff82169050919050565b6000819050919050565b600061131161130c611307846112cc565b6112ec565b6112cc565b9050919050565b6000611323826112f6565b9050919050565b600061133582611318565b9050919050565b6113458161132a565b82525050565b6000602082019050611360600083018461133c565b92915050565b6000819050919050565b61137981611366565b82525050565b60006020820190506113946000830184611370565b92915050565b600080fd5b60006113aa826112cc565b9050919050565b6113ba8161139f565b81146113c557600080fd5b50565b6000813590506113d7816113b1565b92915050565b6000602082840312156113f3576113f261139a565b5b6000611401848285016113c8565b91505092915050565b61141381611366565b811461141e57600080fd5b50565b6000813590506114308161140a565b92915050565b60006020828403121561144c5761144b61139a565b5b600061145a84828501611421565b91505092915050565b600082825260208201905092915050565b7f4174206c6561737420302e3031455448206e656564656420746f20676574204d60008201527f5953540000000000000000000000000000000000000000000000000000000000602082015250565b60006114d0602383611463565b91506114db82611474565b604082019050919050565b600060208201905081810360008301526114ff816114c3565b9050919050565b7f4e487b7100000000000000000000000000000000000000000000000000000000600052601260045260246000fd5b7f4e487b7100000000000000000000000000000000000000000000000000000000600052601160045260246000fd5b600061156f82611366565b915061157a83611366565b92508261158a57611589611506565b5b828204905092915050565b61159e8161139f565b82525050565b60006040820190506115b96000830185611595565b6115c66020830184611370565b9392505050565b60008115159050919050565b6115e2816115cd565b81146115ed57600080fd5b50565b6000815190506115ff816115d9565b92915050565b60006020828403121561161b5761161a61139a565b5b6000611629848285016115f0565b91505092915050565b7f596f7520646f206e6f74206861766520616e7920746f6b656e73207374616b6560008201527f6421000000000000000000000000000000000000000000000000000000000000602082015250565b600061168e602283611463565b915061169982611632565b604082019050919050565b600060208201905081810360008301526116bd81611681565b9050919050565b7f596f7520646f206e6f74206861766520616e7920726577617264732100000000600082015250565b60006116fa601c83611463565b9150611705826116c4565b602082019050919050565b60006020820190508181036000830152611729816116ed565b9050919050565b600061173b82611366565b915061174683611366565b9250827fffffffffffffffffffffffffffffffffffffffffffffffffffffffffffffffff0382111561177b5761177a611535565b5b828201905092915050565b600060208201905061179b6000830184611595565b92915050565b6000815190506117b08161140a565b92915050565b6000602082840312156117cc576117cb61139a565b5b60006117da848285016117a1565b91505092915050565b7f416d6f756e7420746f20756e7374616b652065786365656473207374616b696e60008201527f672062616c616e63652100000000000000000000000000000000000000000000602082015250565b600061183f602a83611463565b915061184a826117e3565b604082019050919050565b6000602082019050818103600083015261186e81611832565b9050919050565b600061188082611366565b915061188b83611366565b92508282101561189e5761189d611535565b5b828203905092915050565b60006060820190506118be6000830186611595565b6118cb6020830185611595565b6118d86040830184611370565b949350505050565b60006118eb82611366565b91506118f683611366565b9250817fffffffffffffffffffffffffffffffffffffffffffffffffffffffffffffffff048311821515161561192f5761192e611535565b5b82820290509291505056fea2646970667358221220daa764526b17f6270a2b209f6cf7b26252c737490bb2b75cdd89348bed65567264736f6c634300080d0033608060405260008060006101000a81548160ff02191690831515021790555033600060016101000a81548173ffffffffffffffffffffffffffffffffffffffff021916908373ffffffffffffffffffffffffffffffffffffffff16021790555034801561006b57600080fd5b506113678061007b6000396000f3fe608060405234801561001057600080fd5b50600436106100f55760003560e01c806347055321116100975780638da5cb5b116100665780638da5cb5b1461029e57806395d89b41146102bc578063a9059cbb146102da578063dd62ed3e1461030a576100f5565b8063470553211461020257806370a08231146102325780637d64bcb414610262578063893d20e814610280576100f5565b806318160ddd116100d357806318160ddd1461016657806323b872dd14610184578063313ce567146101b457806340c10f19146101d2576100f5565b806305d2035b146100fa57806306fdde0314610118578063095ea7b314610136575b600080fd5b61010261033a565b60405161010f9190610eba565b60405180910390f35b61012061034b565b60405161012d9190610f6e565b60405180910390f35b610150600480360381019061014b9190611029565b610384565b60405161015d9190610eba565b60405180910390f35b61016e610476565b60405161017b9190611078565b60405180910390f35b61019e60048036038101906101999190611093565b610480565b6040516101ab9190610eba565b60405180910390f35b6101bc6106d6565b6040516101c99190611102565b60405180910390f35b6101ec60048036038101906101e79190611029565b6106db565b6040516101f99190610eba565b60405180910390f35b61021c60048036038101906102179190611029565b6108bc565b6040516102299190610eba565b60405180910390f35b61024c6004803603810190610247919061111d565b610a1a565b6040516102599190611078565b60405180910390f35b61026a610a63565b6040516102779190610eba565b60405180910390f35b610288610b23565b6040516102959190611159565b60405180910390f35b6102a6610b4c565b6040516102b39190611159565b60405180910390f35b6102c4610b72565b6040516102d19190610f6e565b60405180910390f35b6102f460048036038101906102ef9190611029565b610bab565b6040516103019190610eba565b60405180910390f35b610324600480360381019061031f9190611174565b610dca565b6040516103319190611078565b60405180910390f35b60008054906101000a900460ff1681565b6040518060400160405280600781526020017f4d5953544552590000000000000000000000000000000000000000000000000081525081565b600081600160003373ffffffffffffffffffffffffffffffffffffffff1673ffffffffffffffffffffffffffffffffffffffff16815260200190815260200160002060008573ffffffffffffffffffffffffffffffffffffffff1673ffffffffffffffffffffffffffffffffffffffff168152602001908152602001600020819055508273ffffffffffffffffffffffffffffffffffffffff163373ffffffffffffffffffffffffffffffffffffffff167f8c5be1e5ebec7d5bd14f71427d1e84f3dd0314c0f7b2291e5b200ac8c7c3b925846040516104649190611078565b60405180910390a36001905092915050565b6000600354905090565b60008073ffffffffffffffffffffffffffffffffffffffff168373ffffffffffffffffffffffffffffffffffffffff16036104ba57600080fd5b600260008573ffffffffffffffffffffffffffffffffffffffff1673ffffffffffffffffffffffffffffffffffffffff1681526020019081526020016000205482111561053c576040517f08c379a000000000000000000000000000000000000000000000000000000000815260040161053390611200565b60405180910390fd5b61058e82600260008773ffffffffffffffffffffffffffffffffffffffff1673ffffffffffffffffffffffffffffffffffffffff16815260200190815260200160002054610e5190919063ffffffff16565b600260008673ffffffffffffffffffffffffffffffffffffffff1673ffffffffffffffffffffffffffffffffffffffff1681526020019081526020016000208190555061062382600260008673ffffffffffffffffffffffffffffffffffffffff1673ffffffffffffffffffffffffffffffffffffffff16815260200190815260200160002054610e7890919063ffffffff16565b600260008573ffffffffffffffffffffffffffffffffffffffff1673ffffffffffffffffffffffffffffffffffffffff168152602001908152602001600020819055508273ffffffffffffffffffffffffffffffffffffffff168473ffffffffffffffffffffffffffffffffffffffff167fddf252ad1be2c89b69c2b068fc378daa952ba7f163c4a11628f55a4df523b3ef846040516106c39190611078565b60405180910390a3600190509392505050565b601281565b60008060019054906101000a900473ffffffffffffffffffffffffffffffffffffffff1673ffffffffffffffffffffffffffffffffffffffff163373ffffffffffffffffffffffffffffffffffffffff161461073657600080fd5b60008054906101000a900460ff161561074e57600080fd5b61076382600354610e7890919063ffffffff16565b6003819055506107bb82600260008673ffffffffffffffffffffffffffffffffffffffff1673ffffffffffffffffffffffffffffffffffffffff16815260200190815260200160002054610e7890919063ffffffff16565b600260008573ffffffffffffffffffffffffffffffffffffffff1673ffffffffffffffffffffffffffffffffffffffff168152602001908152602001600020819055508273ffffffffffffffffffffffffffffffffffffffff167f0f6798a560793a54c3bcfe86a93cde1e73087d944c0ea20544137d4121396885836040516108449190611078565b60405180910390a28273ffffffffffffffffffffffffffffffffffffffff16600073ffffffffffffffffffffffffffffffffffffffff167fddf252ad1be2c89b69c2b068fc378daa952ba7f163c4a11628f55a4df523b3ef846040516108aa9190611078565b60405180910390a36001905092915050565b60008073ffffffffffffffffffffffffffffffffffffffff168373ffffffffffffffffffffffffffffffffffffffff16036108f657600080fd5b600260008473ffffffffffffffffffffffffffffffffffffffff1673ffffffffffffffffffffffffffffffffffffffff1681526020019081526020016000205482111561094257600080fd5b61099482600260008673ffffffffffffffffffffffffffffffffffffffff1673ffffffffffffffffffffffffffffffffffffffff16815260200190815260200160002054610e5190919063ffffffff16565b600260008573ffffffffffffffffffffffffffffffffffffffff1673ffffffffffffffffffffffffffffffffffffffff168152602001908152602001600020819055507f552fbac1e76e2ad75646085903caa7aa075610312aa258dd51df35c78902c7748383604051610a08929190611220565b60405180910390a16001905092915050565b6000600260008373ffffffffffffffffffffffffffffffffffffffff1673ffffffffffffffffffffffffffffffffffffffff168152602001908152602001600020549050919050565b60008060019054906101000a900473ffffffffffffffffffffffffffffffffffffffff1673ffffffffffffffffffffffffffffffffffffffff163373ffffffffffffffffffffffffffffffffffffffff1614610abe57600080fd5b60008054906101000a900460ff1615610ad657600080fd5b60016000806101000a81548160ff0219169083151502179055507fae5184fba832cb2b1f702aca6117b8d265eaf03ad33eb133f19dde0f5920fa0860405160405180910390a16001905090565b60008060019054906101000a900473ffffffffffffffffffffffffffffffffffffffff16905090565b600060019054906101000a900473ffffffffffffffffffffffffffffffffffffffff1681565b6040518060400160405280600481526020017f4d5953540000000000000000000000000000000000000000000000000000000081525081565b60008073ffffffffffffffffffffffffffffffffffffffff168373ffffffffffffffffffffffffffffffffffffffff1603610be557600080fd5b600260003373ffffffffffffffffffffffffffffffffffffffff1673ffffffffffffffffffffffffffffffffffffffff16815260200190815260200160002054821115610c3157600080fd5b610c8382600260003373ffffffffffffffffffffffffffffffffffffffff1673ffffffffffffffffffffffffffffffffffffffff16815260200190815260200160002054610e5190919063ffffffff16565b600260003373ffffffffffffffffffffffffffffffffffffffff1673ffffffffffffffffffffffffffffffffffffffff16815260200190815260200160002081905550610d1882600260008673ffffffffffffffffffffffffffffffffffffffff1673ffffffffffffffffffffffffffffffffffffffff16815260200190815260200160002054610e7890919063ffffffff16565b600260008573ffffffffffffffffffffffffffffffffffffffff1673ffffffffffffffffffffffffffffffffffffffff168152602001908152602001600020819055508273ffffffffffffffffffffffffffffffffffffffff163373ffffffffffffffffffffffffffffffffffffffff167fddf252ad1be2c89b69c2b068fc378daa952ba7f163c4a11628f55a4df523b3ef84604051610db89190611078565b60405180910390a36001905092915050565b6000600160008473ffffffffffffffffffffffffffffffffffffffff1673ffffffffffffffffffffffffffffffffffffffff16815260200190815260200160002060008373ffffffffffffffffffffffffffffffffffffffff1673ffffffffffffffffffffffffffffffffffffffff16815260200190815260200160002054905092915050565b600082821115610e6457610e63611249565b5b8183610e7091906112a7565b905092915050565b60008183610e8691906112db565b905082811015610e9957610e98611249565b5b92915050565b60008115159050919050565b610eb481610e9f565b82525050565b6000602082019050610ecf6000830184610eab565b92915050565b600081519050919050565b600082825260208201905092915050565b60005b83811015610f0f578082015181840152602081019050610ef4565b83811115610f1e576000848401525b50505050565b6000601f19601f8301169050919050565b6000610f4082610ed5565b610f4a8185610ee0565b9350610f5a818560208601610ef1565b610f6381610f24565b840191505092915050565b60006020820190508181036000830152610f888184610f35565b905092915050565b600080fd5b600073ffffffffffffffffffffffffffffffffffffffff82169050919050565b6000610fc082610f95565b9050919050565b610fd081610fb5565b8114610fdb57600080fd5b50565b600081359050610fed81610fc7565b92915050565b6000819050919050565b61100681610ff3565b811461101157600080fd5b50565b60008135905061102381610ffd565b92915050565b600080604083850312156110405761103f610f90565b5b600061104e85828601610fde565b925050602061105f85828601611014565b9150509250929050565b61107281610ff3565b82525050565b600060208201905061108d6000830184611069565b92915050565b6000806000606084860312156110ac576110ab610f90565b5b60006110ba86828701610fde565b93505060206110cb86828701610fde565b92505060406110dc86828701611014565b9150509250925092565b600060ff82169050919050565b6110fc816110e6565b82525050565b600060208201905061111760008301846110f3565b92915050565b60006020828403121561113357611132610f90565b5b600061114184828501610fde565b91505092915050565b61115381610fb5565b82525050565b600060208201905061116e600083018461114a565b92915050565b6000806040838503121561118b5761118a610f90565b5b600061119985828601610fde565b92505060206111aa85828601610fde565b9150509250929050565b7f42616c616e63652046726f6d204c6f7700000000000000000000000000000000600082015250565b60006111ea601083610ee0565b91506111f5826111b4565b602082019050919050565b60006020820190508181036000830152611219816111dd565b9050919050565b6000604082019050611235600083018561114a565b6112426020830184611069565b9392505050565b7f4e487b7100000000000000000000000000000000000000000000000000000000600052600160045260246000fd5b7f4e487b7100000000000000000000000000000000000000000000000000000000600052601160045260246000fd5b60006112b282610ff3565b91506112bd83610ff3565b9250828210156112d0576112cf611278565b5b828203905092915050565b60006112e682610ff3565b91506112f183610ff3565b9250827fffffffffffffffffffffffffffffffffffffffffffffffffffffffffffffffff0382111561132657611325611278565b5b82820190509291505056fea26469706673582212201ba8121a535af177c02867b2273871a16c5f6b73602f97453391b570040ac32964736f6c634300080d0033",
  "immutableReferences": {},
  "source": "pragma solidity >=0.5.0;\r\n\r\nimport \"./ERC20.sol\";\r\n\r\ncontract MysteryStaking {\r\n    ERC20 mystToken;\r\n    address owner;\r\n\r\n    uint256 totalPool; //total amount of PTs in the pool\r\n    uint256 poolAPY; // percentage APY of the pool\r\n    address[] stakers; //List of addresses that staked\r\n    mapping(address => uint256) stakingBalance; // How much each address staked\r\n    mapping(address => uint256) lastRewardCalcTime; // Start of staking for the address in unix timestamp\r\n    mapping(address => uint256) rewardsEarned; // How much they earn in rewards\r\n    mapping(address => bool) isStaking;\r\n\r\n    constructor() public {\r\n        mystToken = new ERC20();\r\n        owner = msg.sender;\r\n        totalPool = 0;\r\n        poolAPY = 60; // 60% a year\r\n    }\r\n\r\n    event Transfer(address to, uint256 amount);\r\n    event TokenSent(address sender, uint256 amt);\r\n    event GetMYST(address sender, uint256 amt);\r\n    event TokenStaked(address sender, uint256 amt);\r\n    event RewardsClaimed(address sender, uint256 amt);\r\n    event TokenUnstaked(address sender, uint256 amt);\r\n\r\n    function getMYST() public payable returns (uint256) {\r\n        require(msg.value >= 1E16, \"At least 0.01ETH needed to get MYST\");\r\n        uint256 val = msg.value / 1E16;\r\n        mystToken.mint(msg.sender, val);\r\n        emit GetMYST(msg.sender, val);\r\n    }\r\n\r\n    function transferMYST(address to, uint256 amount) private {\r\n        mystToken.transfer(to, amount);\r\n        emit Transfer(to, amount);\r\n    }\r\n\r\n    function stakeTokens(uint256 amt) public {\r\n        //send MYST to the pool\r\n        if (isStaking[msg.sender]) {\r\n            rewardsEarned[msg.sender] += calculateRewards(msg.sender);\r\n            lastRewardCalcTime[msg.sender] = block.timestamp / 1000;\r\n            mystToken.transferFrom(msg.sender, address(this), amt);\r\n            stakingBalance[msg.sender] += amt;\r\n            isStaking[msg.sender] = true;\r\n            totalPool += amt;\r\n            emit TokenStaked(msg.sender, amt);\r\n        } else {\r\n            mystToken.transferFrom(msg.sender, address(this), amt);\r\n            stakers.push(msg.sender);\r\n            rewardsEarned[msg.sender] = 0;\r\n            lastRewardCalcTime[msg.sender] = block.timestamp / 1000;\r\n            stakingBalance[msg.sender] = amt;\r\n            isStaking[msg.sender] = true;\r\n            totalPool += amt;\r\n            emit TokenStaked(msg.sender, amt);\r\n        }\r\n    }\r\n\r\n    function unstakeTokens(uint256 amt) public {\r\n        require(isStaking[msg.sender], \"You do not have any tokens staked!\");\r\n        require(\r\n            stakingBalance[msg.sender] >= amt,\r\n            \"Amount to unstake exceeds staking balance!\"\r\n        );\r\n        unstakeClaimRewards(msg.sender);\r\n        transferMYST(msg.sender, amt);\r\n        totalPool -= amt;\r\n        if (stakingBalance[msg.sender] == amt) {\r\n            isStaking[msg.sender] = false;\r\n            stakingBalance[msg.sender] = 0;\r\n        } else {\r\n            stakingBalance[msg.sender] -= amt;\r\n        }\r\n        emit TokenUnstaked(msg.sender, amt);\r\n    }\r\n\r\n    function claimRewards() public {\r\n        require(isStaking[msg.sender], \"You do not have any tokens staked!\");\r\n        require(rewardsEarned[msg.sender] > 0, \"You do not have any rewards!\");\r\n        rewardsEarned[msg.sender] += calculateRewards(msg.sender);\r\n        lastRewardCalcTime[msg.sender] = block.timestamp / 1000;\r\n        uint256 amt = rewardsEarned[msg.sender];\r\n        transferMYST(msg.sender, amt);\r\n        rewardsEarned[msg.sender] = 0;\r\n        emit RewardsClaimed(msg.sender, amt);\r\n    }\r\n\r\n    function unstakeClaimRewards(address sender) private {\r\n        require(rewardsEarned[sender] > 0, \"You do not have any rewards!\");\r\n        rewardsEarned[sender] += calculateRewards(sender);\r\n        lastRewardCalcTime[sender] = block.timestamp / 1000;\r\n        transferMYST(sender, rewardsEarned[sender]);\r\n        rewardsEarned[sender] = 0;\r\n    }\r\n\r\n    function calculateRewards(address sender) internal view returns (uint256) {\r\n        return\r\n            (block.timestamp / 1000 - lastRewardCalcTime[sender]) *\r\n            stakingBalance[sender] *\r\n            (poolAPY / 100 / 365 / 24 / 60);\r\n        //checks for NFT and add more APY here.\r\n    }\r\n\r\n    //getter functions for testing\r\n    function getTotalPool() public view returns (uint256) {\r\n        return totalPool;\r\n    }\r\n\r\n    function getTokenBalance(address user) public view returns (uint256) {\r\n        return mystToken.balanceOf(user);\r\n    }\r\n\r\n    function getStakedBalance(address user) public view returns (uint256) {\r\n        return stakingBalance[user];\r\n    }\r\n\r\n    function getRewardsEarned(address user) public view returns (uint256) {\r\n        calculateRewards(user);\r\n        return rewardsEarned[user];\r\n    }\r\n\r\n    function getERCInstance() public view returns (ERC20) {\r\n        return mystToken;\r\n    }\r\n}\r\n",
  "sourcePath": "C:\\Users\\viole\\mysterio\\contracts\\MysteryStaking.sol",
  "compiler": {
    "name": "solc",
    "version": "0.8.13+commit.abaa5c0e.Emscripten.clang"
  },
  "schemaVersion": "3.4.4",
  "updatedAt": "2022-04-03T09:22:13.102Z",
  "devdoc": {
    "kind": "dev",
    "methods": {},
    "version": 1
  },
  "userdoc": {
    "kind": "user",
    "methods": {},
    "version": 1
  }
}