{
  "contractName": "MysteryBox",
  "abi": [
    {
      "inputs": [
        {
          "internalType": "contract OwnedNFTs",
          "name": "ownedNFT",
          "type": "address"
        },
        {
          "internalType": "contract MysteryStaking",
          "name": "mysterystaking",
          "type": "address"
        },
        {
          "internalType": "contract MysteryNFT",
          "name": "mysteryNFT",
          "type": "address"
        }
      ],
      "stateMutability": "nonpayable",
      "type": "constructor"
    },
    {
      "anonymous": false,
      "inputs": [
        {
          "indexed": false,
          "internalType": "uint256",
          "name": "boxId",
          "type": "uint256"
        },
        {
          "indexed": false,
          "internalType": "uint8",
          "name": "tier",
          "type": "uint8"
        }
      ],
      "name": "boxMade",
      "type": "event"
    },
    {
      "anonymous": false,
      "inputs": [
        {
          "indexed": false,
          "internalType": "address",
          "name": "purchaser",
          "type": "address"
        }
      ],
      "name": "boxOpen",
      "type": "event"
    },
    {
      "anonymous": false,
      "inputs": [
        {
          "indexed": false,
          "internalType": "address",
          "name": "purchaser",
          "type": "address"
        }
      ],
      "name": "transferMade",
      "type": "event"
    },
    {
      "inputs": [
        {
          "internalType": "uint8",
          "name": "tier",
          "type": "uint8"
        },
        {
          "internalType": "address",
          "name": "purchaser",
          "type": "address"
        }
      ],
      "name": "transfer",
      "outputs": [],
      "stateMutability": "payable",
      "type": "function"
    },
    {
      "inputs": [
        {
          "internalType": "uint256",
          "name": "boxID",
          "type": "uint256"
        }
      ],
      "name": "openBox",
      "outputs": [
        {
          "internalType": "contract ERC721[]",
          "name": "",
          "type": "address[]"
        }
      ],
      "stateMutability": "nonpayable",
      "type": "function"
    },
    {
      "inputs": [],
      "name": "checkBoxesIds",
      "outputs": [
        {
          "components": [
            {
              "internalType": "uint256",
              "name": "id",
              "type": "uint256"
            },
            {
              "internalType": "address",
              "name": "purchaser",
              "type": "address"
            },
            {
              "components": [
                {
                  "internalType": "address",
                  "name": "parentContract",
                  "type": "address"
                },
                {
                  "internalType": "uint256",
                  "name": "price",
                  "type": "uint256"
                },
                {
                  "internalType": "uint256",
                  "name": "tokenId",
                  "type": "uint256"
                },
                {
                  "internalType": "bool",
                  "name": "isValued",
                  "type": "bool"
                }
              ],
              "internalType": "struct MysteryBox.nft[]",
              "name": "nfts",
              "type": "tuple[]"
            },
            {
              "internalType": "uint8",
              "name": "tier",
              "type": "uint8"
            },
            {
              "internalType": "bool",
              "name": "isOpen",
              "type": "bool"
            },
            {
              "internalType": "uint256[]",
              "name": "nftIds",
              "type": "uint256[]"
            }
          ],
          "internalType": "struct MysteryBox.Box[]",
          "name": "",
          "type": "tuple[]"
        }
      ],
      "stateMutability": "view",
      "type": "function"
    },
    {
      "inputs": [],
      "name": "getOwnedInstance",
      "outputs": [
        {
          "internalType": "uint256",
          "name": "",
          "type": "uint256"
        }
      ],
      "stateMutability": "view",
      "type": "function"
    }
  ],
  "bytecode": "0x60806040523480156200001157600080fd5b5060405162003abb38038062003abb83398181016040528101906200003791906200020a565b826000806101000a81548173ffffffffffffffffffffffffffffffffffffffff021916908373ffffffffffffffffffffffffffffffffffffffff16021790555081600160006101000a81548173ffffffffffffffffffffffffffffffffffffffff021916908373ffffffffffffffffffffffffffffffffffffffff16021790555080600260006101000a81548173ffffffffffffffffffffffffffffffffffffffff021916908373ffffffffffffffffffffffffffffffffffffffff16021790555050505062000266565b600080fd5b600073ffffffffffffffffffffffffffffffffffffffff82169050919050565b6000620001348262000107565b9050919050565b6000620001488262000127565b9050919050565b6200015a816200013b565b81146200016657600080fd5b50565b6000815190506200017a816200014f565b92915050565b60006200018d8262000127565b9050919050565b6200019f8162000180565b8114620001ab57600080fd5b50565b600081519050620001bf8162000194565b92915050565b6000620001d28262000127565b9050919050565b620001e481620001c5565b8114620001f057600080fd5b50565b6000815190506200020481620001d9565b92915050565b60008060006060848603121562000226576200022562000102565b5b6000620002368682870162000169565b93505060206200024986828701620001ae565b92505060406200025c86828701620001f3565b9150509250925092565b61384580620002766000396000f3fe60806040526004361061003f5760003560e01c80631138ce641461004457806327b375341461006f5780635eaeffd81461008b578063b1e5e2b7146100b6575b600080fd5b34801561005057600080fd5b506100596100f3565b6040516100669190612d46565b60405180910390f35b61008960048036038101906100849190612dc5565b6103e8565b005b34801561009757600080fd5b506100a0610b24565b6040516100ad9190612e14565b60405180910390f35b3480156100c257600080fd5b506100dd60048036038101906100d89190612e5b565b610bc7565b6040516100ea9190612f96565b60405180910390f35b60606000600360003373ffffffffffffffffffffffffffffffffffffffff1673ffffffffffffffffffffffffffffffffffffffff168152602001908152602001600020805490501161017a576040517f08c379a000000000000000000000000000000000000000000000000000000000815260040161017190613015565b60405180910390fd5b600360003373ffffffffffffffffffffffffffffffffffffffff1673ffffffffffffffffffffffffffffffffffffffff168152602001908152602001600020805480602002602001604051908101604052809291908181526020016000905b828210156103df57838290600052602060002090600502016040518060c0016040529081600082015481526020016001820160009054906101000a900473ffffffffffffffffffffffffffffffffffffffff1673ffffffffffffffffffffffffffffffffffffffff1673ffffffffffffffffffffffffffffffffffffffff16815260200160028201805480602002602001604051908101604052809291908181526020016000905b8282101561033857838290600052602060002090600402016040518060800160405290816000820160009054906101000a900473ffffffffffffffffffffffffffffffffffffffff1673ffffffffffffffffffffffffffffffffffffffff1673ffffffffffffffffffffffffffffffffffffffff16815260200160018201548152602001600282015481526020016003820160009054906101000a900460ff16151515158152505081526020019060010190610281565b5050505081526020016003820160009054906101000a900460ff1660ff1660ff1681526020016003820160019054906101000a900460ff16151515158152602001600482018054806020026020016040519081016040528092919081815260200182805480156103c757602002820191906000526020600020905b8154815260200190600101908083116103b3575b505050505081525050815260200190600101906101d9565b50505050905090565b60008260ff16036106545766b1a2bc2ec5000034101561043d576040517f08c379a0000000000000000000000000000000000000000000000000000000008152600401610434906130a7565b60405180910390fd5b60006104498383611373565b90506000600360003373ffffffffffffffffffffffffffffffffffffffff1673ffffffffffffffffffffffffffffffffffffffff168152602001908152602001600020905080600460008481526020019081526020016000209080600181540180825580915050600190039060005260206000209060050201600090919091909150600082015481600001556001820160009054906101000a900473ffffffffffffffffffffffffffffffffffffffff168160010160006101000a81548173ffffffffffffffffffffffffffffffffffffffff021916908373ffffffffffffffffffffffffffffffffffffffff16021790555060028201816002019080546105529291906125ba565b506003820160009054906101000a900460ff168160030160006101000a81548160ff021916908360ff1602179055506003820160019054906101000a900460ff168160030160016101000a81548160ff02191690831515021790555060048201816004019080546105c49291906126ba565b50505080600360003373ffffffffffffffffffffffffffffffffffffffff1673ffffffffffffffffffffffffffffffffffffffff16815260200190815260200160002090805461061592919061270c565b507fa5fddfcc13d26ad51fbfd106263f3ff73e656d5dc414f0f8dad98fdb15a5cc2f8360405161064591906130d6565b60405180910390a15050610b20565b60018260ff16036108c15767016345785d8a00003410156106aa576040517f08c379a00000000000000000000000000000000000000000000000000000000081526004016106a190613163565b60405180910390fd5b60006106b68383611373565b90506000600360003373ffffffffffffffffffffffffffffffffffffffff1673ffffffffffffffffffffffffffffffffffffffff168152602001908152602001600020905080600460008481526020019081526020016000209080600181540180825580915050600190039060005260206000209060050201600090919091909150600082015481600001556001820160009054906101000a900473ffffffffffffffffffffffffffffffffffffffff168160010160006101000a81548173ffffffffffffffffffffffffffffffffffffffff021916908373ffffffffffffffffffffffffffffffffffffffff16021790555060028201816002019080546107bf9291906125ba565b506003820160009054906101000a900460ff168160030160006101000a81548160ff021916908360ff1602179055506003820160019054906101000a900460ff168160030160016101000a81548160ff02191690831515021790555060048201816004019080546108319291906126ba565b50505080600360003373ffffffffffffffffffffffffffffffffffffffff1673ffffffffffffffffffffffffffffffffffffffff16815260200190815260200160002090805461088292919061270c565b507fa5fddfcc13d26ad51fbfd106263f3ff73e656d5dc414f0f8dad98fdb15a5cc2f836040516108b291906130d6565b60405180910390a15050610b1f565b670214e8348c4f000034101561090c576040517f08c379a0000000000000000000000000000000000000000000000000000000008152600401610903906131f5565b60405180910390fd5b60006109188383611373565b90506000600360003373ffffffffffffffffffffffffffffffffffffffff1673ffffffffffffffffffffffffffffffffffffffff168152602001908152602001600020905080600460008481526020019081526020016000209080600181540180825580915050600190039060005260206000209060050201600090919091909150600082015481600001556001820160009054906101000a900473ffffffffffffffffffffffffffffffffffffffff168160010160006101000a81548173ffffffffffffffffffffffffffffffffffffffff021916908373ffffffffffffffffffffffffffffffffffffffff1602179055506002820181600201908054610a219291906125ba565b506003820160009054906101000a900460ff168160030160006101000a81548160ff021916908360ff1602179055506003820160019054906101000a900460ff168160030160016101000a81548160ff0219169083151502179055506004820181600401908054610a939291906126ba565b50505080600360003373ffffffffffffffffffffffffffffffffffffffff1673ffffffffffffffffffffffffffffffffffffffff168152602001908152602001600020908054610ae492919061270c565b507fa5fddfcc13d26ad51fbfd106263f3ff73e656d5dc414f0f8dad98fdb15a5cc2f83604051610b1491906130d6565b60405180910390a150505b5b5050565b60008060009054906101000a900473ffffffffffffffffffffffffffffffffffffffff1673ffffffffffffffffffffffffffffffffffffffff166393f64d0360006040518263ffffffff1660e01b8152600401610b819190613224565b602060405180830381865afa158015610b9e573d6000803e3d6000fd5b505050506040513d601f19601f82011682018060405250810190610bc29190613254565b905090565b60603373ffffffffffffffffffffffffffffffffffffffff166004600084815260200190815260200160002060010160009054906101000a900473ffffffffffffffffffffffffffffffffffffffff1673ffffffffffffffffffffffffffffffffffffffff1614610c6d576040517f08c379a0000000000000000000000000000000000000000000000000000000008152600401610c64906132cd565b60405180910390fd5b600015156004600084815260200190815260200160002060030160019054906101000a900460ff16151514610cd7576040517f08c379a0000000000000000000000000000000000000000000000000000000008152600401610cce90613339565b60405180910390fd5b6000600460008481526020019081526020016000206040518060c0016040529081600082015481526020016001820160009054906101000a900473ffffffffffffffffffffffffffffffffffffffff1673ffffffffffffffffffffffffffffffffffffffff1673ffffffffffffffffffffffffffffffffffffffff16815260200160028201805480602002602001604051908101604052809291908181526020016000905b82821015610e3357838290600052602060002090600402016040518060800160405290816000820160009054906101000a900473ffffffffffffffffffffffffffffffffffffffff1673ffffffffffffffffffffffffffffffffffffffff1673ffffffffffffffffffffffffffffffffffffffff16815260200160018201548152602001600282015481526020016003820160009054906101000a900460ff16151515158152505081526020019060010190610d7c565b5050505081526020016003820160009054906101000a900460ff1660ff1660ff1681526020016003820160019054906101000a900460ff1615151515815260200160048201805480602002602001604051908101604052809291908181526020018280548015610ec257602002820191906000526020600020905b815481526020019060010190808311610eae575b505050505081525050905060608060005b83604001515181101561124f57600073ffffffffffffffffffffffffffffffffffffffff1684604001518281518110610f0f57610f0e613359565b5b60200260200101516000015173ffffffffffffffffffffffffffffffffffffffff16031561124f5783604001518181518110610f4e57610f4d613359565b5b60200260200101516000015173ffffffffffffffffffffffffffffffffffffffff1663a22cb4653360016040518363ffffffff1660e01b8152600401610f95929190613388565b600060405180830381600087803b158015610faf57600080fd5b505af1158015610fc3573d6000803e3d6000fd5b5050505083604001518181518110610fde57610fdd613359565b5b60200260200101516000015173ffffffffffffffffffffffffffffffffffffffff166323b872dd30338760400151858151811061101e5761101d613359565b5b6020026020010151604001516040518463ffffffff1660e01b8152600401611048939291906133b1565b600060405180830381600087803b15801561106257600080fd5b505af1158015611076573d6000803e3d6000fd5b505050508360400151818151811061109157611090613359565b5b6020026020010151600001518282815181106110b0576110af613359565b5b602002602001019073ffffffffffffffffffffffffffffffffffffffff16908173ffffffffffffffffffffffffffffffffffffffff16815250508360400151818151811061110157611100613359565b5b6020026020010151600001518382815181106111205761111f613359565b5b602002602001019073ffffffffffffffffffffffffffffffffffffffff16908173ffffffffffffffffffffffffffffffffffffffff168152505060008054906101000a900473ffffffffffffffffffffffffffffffffffffffff1673ffffffffffffffffffffffffffffffffffffffff1663d5f615c68560a0015183815181106111ad576111ac613359565b5b6020026020010151866040015184815181106111cc576111cb613359565b5b6020026020010151606001516040518363ffffffff1660e01b81526004016111f59291906133e8565b6080604051808303816000875af1158015611214573d6000803e3d6000fd5b505050506040513d601f19601f820116820180604052508101906112389190613452565b505050508080611247906134e8565b915050610ed3565b50600260009054906101000a900473ffffffffffffffffffffffffffffffffffffffff1673ffffffffffffffffffffffffffffffffffffffff1663cca68d876004600088815260200190815260200160002060030160009054906101000a900460ff16836040518363ffffffff1660e01b81526004016112d09291906135dd565b600060405180830381600087803b1580156112ea57600080fd5b505af11580156112fe573d6000803e3d6000fd5b5050505060016004600087815260200190815260200160002060030160016101000a81548160ff0219169083151502179055507f0f257e0f082da60157afea269e03d81955110c684b56e8ded0868505728f410f3360405161136091906130d6565b60405180910390a1819350505050919050565b600060056000815480929190611388906134e8565b9190505550600080600061139a61252f565b9050600080808860ff16036113c557666a94d74f4300009050605f83106113c057600191505b611406565b60018860ff16036113ec5766e6ed27d66680009050604683106113e757600191505b611405565b67016345785d8a000090506028831061140457600191505b5b5b5b806fffffffffffffffffffffffffffffffff1684101561240c5760018260ff1603611c2a5760008060009054906101000a900473ffffffffffffffffffffffffffffffffffffffff1673ffffffffffffffffffffffffffffffffffffffff1663366ad83e60016040518263ffffffff1660e01b81526004016114899190613224565b602060405180830381865afa1580156114a6573d6000803e3d6000fd5b505050506040513d601f19601f820116820180604052508101906114ca9190613254565b036114e25781806114da9061360d565b925050611407565b600061158760008054906101000a900473ffffffffffffffffffffffffffffffffffffffff1673ffffffffffffffffffffffffffffffffffffffff166393f64d0360016040518263ffffffff1660e01b81526004016115419190613224565b602060405180830381865afa15801561155e573d6000803e3d6000fd5b505050506040513d601f19601f820116820180604052508101906115829190613254565b61256e565b90505b600073ffffffffffffffffffffffffffffffffffffffff1660008054906101000a900473ffffffffffffffffffffffffffffffffffffffff1673ffffffffffffffffffffffffffffffffffffffff1663a9a9f9fc8360016040518363ffffffff1660e01b81526004016115fe9291906133e8565b602060405180830381865afa15801561161b573d6000803e3d6000fd5b505050506040513d601f19601f8201168201806040525081019061163f9190613636565b73ffffffffffffffffffffffffffffffffffffffff16036117c25760008060008054906101000a900473ffffffffffffffffffffffffffffffffffffffff1673ffffffffffffffffffffffffffffffffffffffff166393f64d0360016040518263ffffffff1660e01b81526004016116b79190613224565b602060405180830381865afa1580156116d4573d6000803e3d6000fd5b505050506040513d601f19601f820116820180604052508101906116f89190613254565b1461179d5760008054906101000a900473ffffffffffffffffffffffffffffffffffffffff1673ffffffffffffffffffffffffffffffffffffffff166393f64d0360016040518263ffffffff1660e01b81526004016117579190613224565b602060405180830381865afa158015611774573d6000803e3d6000fd5b505050506040513d601f19601f820116820180604052508101906117989190613254565b6117a0565b60015b9050806001836117b09190613663565b6117ba91906136e8565b91505061158a565b60008060009054906101000a900473ffffffffffffffffffffffffffffffffffffffff1673ffffffffffffffffffffffffffffffffffffffff16635705b61a8360016040518363ffffffff1660e01b81526004016118219291906133e8565b602060405180830381865afa15801561183e573d6000803e3d6000fd5b505050506040513d601f19601f820116820180604052508101906118629190613254565b9050868061186f90613727565b975050808661187e9190613663565b955060008054906101000a900473ffffffffffffffffffffffffffffffffffffffff1673ffffffffffffffffffffffffffffffffffffffff166314e4ff788360016040518363ffffffff1660e01b81526004016118dc9291906133e8565b600060405180830381600087803b1580156118f657600080fd5b505af115801561190a573d6000803e3d6000fd5b5050505083806119199061360d565b945050600460006005548152602001908152602001600020600201604051806080016040528060008054906101000a900473ffffffffffffffffffffffffffffffffffffffff1673ffffffffffffffffffffffffffffffffffffffff1663a9a9f9fc8660016040518363ffffffff1660e01b815260040161199b9291906133e8565b602060405180830381865afa1580156119b8573d6000803e3d6000fd5b505050506040513d601f19601f820116820180604052508101906119dc9190613636565b73ffffffffffffffffffffffffffffffffffffffff16815260200160008054906101000a900473ffffffffffffffffffffffffffffffffffffffff1673ffffffffffffffffffffffffffffffffffffffff16635705b61a8660016040518363ffffffff1660e01b8152600401611a539291906133e8565b602060405180830381865afa158015611a70573d6000803e3d6000fd5b505050506040513d601f19601f82011682018060405250810190611a949190613254565b815260200160008054906101000a900473ffffffffffffffffffffffffffffffffffffffff1673ffffffffffffffffffffffffffffffffffffffff1663201043078660016040518363ffffffff1660e01b8152600401611af59291906133e8565b602060405180830381865afa158015611b12573d6000803e3d6000fd5b505050506040513d601f19601f82011682018060405250810190611b369190613254565b815260200160011515815250908060018154018082558091505060019003906000526020600020906004020160009091909190915060008201518160000160006101000a81548173ffffffffffffffffffffffffffffffffffffffff021916908373ffffffffffffffffffffffffffffffffffffffff160217905550602082015181600101556040820151816002015560608201518160030160006101000a81548160ff021916908315150217905550505060046000600554815260200190815260200160002060040182908060018154018082558091505060019003906000526020600020016000909190919091505550505b60008060009054906101000a900473ffffffffffffffffffffffffffffffffffffffff1673ffffffffffffffffffffffffffffffffffffffff1663366ad83e60006040518263ffffffff1660e01b8152600401611c879190613224565b602060405180830381865afa158015611ca4573d6000803e3d6000fd5b505050506040513d601f19601f82011682018060405250810190611cc89190613254565b031561240c576000611d7360008054906101000a900473ffffffffffffffffffffffffffffffffffffffff1673ffffffffffffffffffffffffffffffffffffffff166393f64d0360006040518263ffffffff1660e01b8152600401611d2d9190613224565b602060405180830381865afa158015611d4a573d6000803e3d6000fd5b505050506040513d601f19601f82011682018060405250810190611d6e9190613254565b61256e565b90505b600073ffffffffffffffffffffffffffffffffffffffff1660008054906101000a900473ffffffffffffffffffffffffffffffffffffffff1673ffffffffffffffffffffffffffffffffffffffff1663a9a9f9fc8360006040518363ffffffff1660e01b8152600401611dea9291906133e8565b602060405180830381865afa158015611e07573d6000803e3d6000fd5b505050506040513d601f19601f82011682018060405250810190611e2b9190613636565b73ffffffffffffffffffffffffffffffffffffffff1603611fae5760008060008054906101000a900473ffffffffffffffffffffffffffffffffffffffff1673ffffffffffffffffffffffffffffffffffffffff166393f64d0360006040518263ffffffff1660e01b8152600401611ea39190613224565b602060405180830381865afa158015611ec0573d6000803e3d6000fd5b505050506040513d601f19601f82011682018060405250810190611ee49190613254565b14611f895760008054906101000a900473ffffffffffffffffffffffffffffffffffffffff1673ffffffffffffffffffffffffffffffffffffffff166393f64d0360006040518263ffffffff1660e01b8152600401611f439190613224565b602060405180830381865afa158015611f60573d6000803e3d6000fd5b505050506040513d601f19601f82011682018060405250810190611f849190613254565b611f8c565b60015b905080600183611f9c9190613663565b611fa691906136e8565b915050611d76565b60008060009054906101000a900473ffffffffffffffffffffffffffffffffffffffff1673ffffffffffffffffffffffffffffffffffffffff16635705b61a8360006040518363ffffffff1660e01b815260040161200d9291906133e8565b602060405180830381865afa15801561202a573d6000803e3d6000fd5b505050506040513d601f19601f8201168201806040525081019061204e9190613254565b9050868061205b90613727565b975050808661206a9190613663565b955060008054906101000a900473ffffffffffffffffffffffffffffffffffffffff1673ffffffffffffffffffffffffffffffffffffffff166314e4ff788360006040518363ffffffff1660e01b81526004016120c89291906133e8565b600060405180830381600087803b1580156120e257600080fd5b505af11580156120f6573d6000803e3d6000fd5b50505050600460006005548152602001908152602001600020600201604051806080016040528060008054906101000a900473ffffffffffffffffffffffffffffffffffffffff1673ffffffffffffffffffffffffffffffffffffffff1663a9a9f9fc8660006040518363ffffffff1660e01b81526004016121799291906133e8565b602060405180830381865afa158015612196573d6000803e3d6000fd5b505050506040513d601f19601f820116820180604052508101906121ba9190613636565b73ffffffffffffffffffffffffffffffffffffffff16815260200160008054906101000a900473ffffffffffffffffffffffffffffffffffffffff1673ffffffffffffffffffffffffffffffffffffffff16635705b61a8660006040518363ffffffff1660e01b81526004016122319291906133e8565b602060405180830381865afa15801561224e573d6000803e3d6000fd5b505050506040513d601f19601f820116820180604052508101906122729190613254565b815260200160008054906101000a900473ffffffffffffffffffffffffffffffffffffffff1673ffffffffffffffffffffffffffffffffffffffff1663201043078660006040518363ffffffff1660e01b81526004016122d39291906133e8565b602060405180830381865afa1580156122f0573d6000803e3d6000fd5b505050506040513d601f19601f820116820180604052508101906123149190613254565b815260200160001515815250908060018154018082558091505060019003906000526020600020906004020160009091909190915060008201518160000160006101000a81548173ffffffffffffffffffffffffffffffffffffffff021916908373ffffffffffffffffffffffffffffffffffffffff160217905550602082015181600101556040820151816002015560608201518160030160006101000a81548160ff02191690831515021790555050506004600060055481526020019081526020016000206004018290806001815401808255809150506001900390600052602060002001600090919091909150555050611407565b600554600460006005548152602001908152602001600020600001819055508660046000600554815260200190815260200160002060010160006101000a81548173ffffffffffffffffffffffffffffffffffffffff021916908373ffffffffffffffffffffffffffffffffffffffff1602179055508760046000600554815260200190815260200160002060030160006101000a81548160ff021916908360ff160217905550600060046000600554815260200190815260200160002060030160016101000a81548160ff0219169083151502179055507ffa4028e02cab79854d323d6c7016d9e493939f43aeeb9d7c1d5ab4264490e81e60055489604051612517929190613751565b60405180910390a16005549550505050505092915050565b6000606442336040516020016125469291906137e3565b6040516020818303038152906040528051906020012060001c61256991906136e8565b905090565b600080820361257c57600191505b8142336040516020016125909291906137e3565b6040516020818303038152906040528051906020012060001c6125b391906136e8565b9050919050565b8280548282559060005260206000209060040281019282156126a95760005260206000209160040282015b828111156126a85782826000820160009054906101000a900473ffffffffffffffffffffffffffffffffffffffff168160000160006101000a81548173ffffffffffffffffffffffffffffffffffffffff021916908373ffffffffffffffffffffffffffffffffffffffff16021790555060018201548160010155600282015481600201556003820160009054906101000a900460ff168160030160006101000a81548160ff0219169083151502179055505050916004019190600401906125e5565b5b5090506126b6919061285e565b5090565b8280548282559060005260206000209081019282156126fb5760005260206000209182015b828111156126fa5782548255916001019190600101906126df565b5b50905061270891906128c0565b5090565b82805482825590600052602060002090600502810192821561284d5760005260206000209160050282015b8281111561284c578282600082015481600001556001820160009054906101000a900473ffffffffffffffffffffffffffffffffffffffff168160010160006101000a81548173ffffffffffffffffffffffffffffffffffffffff021916908373ffffffffffffffffffffffffffffffffffffffff16021790555060028201816002019080546127c89291906125ba565b506003820160009054906101000a900460ff168160030160006101000a81548160ff021916908360ff1602179055506003820160019054906101000a900460ff168160030160016101000a81548160ff021916908315150217905550600482018160040190805461283a9291906126ba565b50505091600501919060050190612737565b5b50905061285a91906128dd565b5090565b5b808211156128bc57600080820160006101000a81549073ffffffffffffffffffffffffffffffffffffffff0219169055600182016000905560028201600090556003820160006101000a81549060ff02191690555060040161285f565b5090565b5b808211156128d95760008160009055506001016128c1565b5090565b5b80821115612967576000808201600090556001820160006101000a81549073ffffffffffffffffffffffffffffffffffffffff0219169055600282016000612926919061296b565b6003820160006101000a81549060ff02191690556003820160016101000a81549060ff021916905560048201600061295e919061298f565b506005016128de565b5090565b508054600082556004029060005260206000209081019061298c919061285e565b50565b50805460008255906000526020600020908101906129ad91906128c0565b50565b600081519050919050565b600082825260208201905092915050565b6000819050602082019050919050565b6000819050919050565b6129ef816129dc565b82525050565b600073ffffffffffffffffffffffffffffffffffffffff82169050919050565b6000612a20826129f5565b9050919050565b612a3081612a15565b82525050565b600081519050919050565b600082825260208201905092915050565b6000819050602082019050919050565b60008115159050919050565b612a7781612a62565b82525050565b608082016000820151612a936000850182612a27565b506020820151612aa660208501826129e6565b506040820151612ab960408501826129e6565b506060820151612acc6060850182612a6e565b50505050565b6000612ade8383612a7d565b60808301905092915050565b6000602082019050919050565b6000612b0282612a36565b612b0c8185612a41565b9350612b1783612a52565b8060005b83811015612b48578151612b2f8882612ad2565b9750612b3a83612aea565b925050600181019050612b1b565b5085935050505092915050565b600060ff82169050919050565b612b6b81612b55565b82525050565b600081519050919050565b600082825260208201905092915050565b6000819050602082019050919050565b6000612ba983836129e6565b60208301905092915050565b6000602082019050919050565b6000612bcd82612b71565b612bd78185612b7c565b9350612be283612b8d565b8060005b83811015612c13578151612bfa8882612b9d565b9750612c0583612bb5565b925050600181019050612be6565b5085935050505092915050565b600060c083016000830151612c3860008601826129e6565b506020830151612c4b6020860182612a27565b5060408301518482036040860152612c638282612af7565b9150506060830151612c786060860182612b62565b506080830151612c8b6080860182612a6e565b5060a083015184820360a0860152612ca38282612bc2565b9150508091505092915050565b6000612cbc8383612c20565b905092915050565b6000602082019050919050565b6000612cdc826129b0565b612ce681856129bb565b935083602082028501612cf8856129cc565b8060005b85811015612d345784840389528151612d158582612cb0565b9450612d2083612cc4565b925060208a01995050600181019050612cfc565b50829750879550505050505092915050565b60006020820190508181036000830152612d608184612cd1565b905092915050565b600080fd5b612d7681612b55565b8114612d8157600080fd5b50565b600081359050612d9381612d6d565b92915050565b612da281612a15565b8114612dad57600080fd5b50565b600081359050612dbf81612d99565b92915050565b60008060408385031215612ddc57612ddb612d68565b5b6000612dea85828601612d84565b9250506020612dfb85828601612db0565b9150509250929050565b612e0e816129dc565b82525050565b6000602082019050612e296000830184612e05565b92915050565b612e38816129dc565b8114612e4357600080fd5b50565b600081359050612e5581612e2f565b92915050565b600060208284031215612e7157612e70612d68565b5b6000612e7f84828501612e46565b91505092915050565b600081519050919050565b600082825260208201905092915050565b6000819050602082019050919050565b6000819050919050565b6000612ed9612ed4612ecf846129f5565b612eb4565b6129f5565b9050919050565b6000612eeb82612ebe565b9050919050565b6000612efd82612ee0565b9050919050565b612f0d81612ef2565b82525050565b6000612f1f8383612f04565b60208301905092915050565b6000602082019050919050565b6000612f4382612e88565b612f4d8185612e93565b9350612f5883612ea4565b8060005b83811015612f89578151612f708882612f13565b9750612f7b83612f2b565b925050600181019050612f5c565b5085935050505092915050565b60006020820190508181036000830152612fb08184612f38565b905092915050565b600082825260208201905092915050565b7f796f7520646f206e6f74206f776e20616e7920626f7865730000000000000000600082015250565b6000612fff601883612fb8565b915061300a82612fc9565b602082019050919050565b6000602082019050818103600083015261302e81612ff2565b9050919050565b7f302e3035206574686572206973206e656564656420746f206d616b652074686560008201527f20626173696320626f7800000000000000000000000000000000000000000000602082015250565b6000613091602a83612fb8565b915061309c82613035565b604082019050919050565b600060208201905081810360008301526130c081613084565b9050919050565b6130d081612a15565b82525050565b60006020820190506130eb60008301846130c7565b92915050565b7f302e31206574686572206973206e656564656420746f206d616b65207468652060008201527f7072656d69756d20626f78000000000000000000000000000000000000000000602082015250565b600061314d602b83612fb8565b9150613158826130f1565b604082019050919050565b6000602082019050818103600083015261317c81613140565b9050919050565b7f302e3135206574686572206973206e656564656420746f206d616b652074686560008201527f206d7973746572696f757320626f780000000000000000000000000000000000602082015250565b60006131df602f83612fb8565b91506131ea82613183565b604082019050919050565b6000602082019050818103600083015261320e816131d2565b9050919050565b61321e81612a62565b82525050565b60006020820190506132396000830184613215565b92915050565b60008151905061324e81612e2f565b92915050565b60006020828403121561326a57613269612d68565b5b60006132788482850161323f565b91505092915050565b7f7468697320626f7820646f6573206e6f742062656c6f6e6720746f20796f7500600082015250565b60006132b7601f83612fb8565b91506132c282613281565b602082019050919050565b600060208201905081810360008301526132e6816132aa565b9050919050565b7f626f782068617320616c7265616479206265656e206f70656e65640000000000600082015250565b6000613323601b83612fb8565b915061332e826132ed565b602082019050919050565b6000602082019050818103600083015261335281613316565b9050919050565b7f4e487b7100000000000000000000000000000000000000000000000000000000600052603260045260246000fd5b600060408201905061339d60008301856130c7565b6133aa6020830184613215565b9392505050565b60006060820190506133c660008301866130c7565b6133d360208301856130c7565b6133e06040830184612e05565b949350505050565b60006040820190506133fd6000830185612e05565b61340a6020830184613215565b9392505050565b60008151905061342081612d99565b92915050565b61342f81612a62565b811461343a57600080fd5b50565b60008151905061344c81613426565b92915050565b6000806000806080858703121561346c5761346b612d68565b5b600061347a87828801613411565b945050602061348b8782880161323f565b935050604061349c8782880161323f565b92505060606134ad8782880161343d565b91505092959194509250565b7f4e487b7100000000000000000000000000000000000000000000000000000000600052601160045260246000fd5b60006134f3826129dc565b91507fffffffffffffffffffffffffffffffffffffffffffffffffffffffffffffffff8203613525576135246134b9565b5b600182019050919050565b61353981612b55565b82525050565b600081519050919050565b6000819050602082019050919050565b60006135668383612a27565b60208301905092915050565b6000602082019050919050565b600061358a8261353f565b6135948185612e93565b935061359f8361354a565b8060005b838110156135d05781516135b7888261355a565b97506135c283613572565b9250506001810190506135a3565b5085935050505092915050565b60006040820190506135f26000830185613530565b8181036020830152613604818461357f565b90509392505050565b600061361882612b55565b91506000820361362b5761362a6134b9565b5b600182039050919050565b60006020828403121561364c5761364b612d68565b5b600061365a84828501613411565b91505092915050565b600061366e826129dc565b9150613679836129dc565b9250827fffffffffffffffffffffffffffffffffffffffffffffffffffffffffffffffff038211156136ae576136ad6134b9565b5b828201905092915050565b7f4e487b7100000000000000000000000000000000000000000000000000000000600052601260045260246000fd5b60006136f3826129dc565b91506136fe836129dc565b92508261370e5761370d6136b9565b5b828206905092915050565b600061ffff82169050919050565b600061373282613719565b915061ffff8203613746576137456134b9565b5b600182019050919050565b60006040820190506137666000830185612e05565b6137736020830184613530565b9392505050565b6000819050919050565b613795613790826129dc565b61377a565b82525050565b60008160601b9050919050565b60006137b38261379b565b9050919050565b60006137c5826137a8565b9050919050565b6137dd6137d882612a15565b6137ba565b82525050565b60006137ef8285613784565b6020820191506137ff82846137cc565b601482019150819050939250505056fea2646970667358221220d2abc7fff0529a85f33b959b58f668e7cd5720d49ca6a2df1c8d94f98de35f9a64736f6c634300080d0033",
  "immutableReferences": {},
  "source": "// SPDX-License-Identifier: MIT\r\npragma solidity ^0.8.0;\r\nimport \"@openzeppelin/contracts/token/ERC721/ERC721.sol\";\r\nimport \"./ownedNFTs.sol\";\r\nimport \"./MysteryStaking.sol\";\r\nimport \"./MysteryNFT.sol\";\r\n\r\ncontract MysteryBox {\r\n    OwnedNFTs ownedNFTInstance;\r\n    MysteryStaking mysterystakingInstance;\r\n    MysteryNFT mysteryNFTInstance;\r\n\r\n    struct Box {\r\n        uint256 id;\r\n        address purchaser;\r\n        nft[] nfts;\r\n        uint8 tier;\r\n        bool isOpen;\r\n        uint256[] nftIds;\r\n    }\r\n\r\n    struct nft {\r\n        address parentContract;\r\n        uint256 price;\r\n        uint256 tokenId;\r\n        bool isValued;\r\n    }\r\n\r\n    mapping(address => Box[]) ownedBoxes;\r\n    mapping(uint256 => Box) boxList;\r\n    uint256 nextBoxId;\r\n\r\n    constructor(\r\n        OwnedNFTs ownedNFT,\r\n        MysteryStaking mysterystaking,\r\n        MysteryNFT mysteryNFT\r\n    ) {\r\n        ownedNFTInstance = ownedNFT;\r\n        mysterystakingInstance = mysterystaking;\r\n        mysteryNFTInstance = mysteryNFT;\r\n    }\r\n\r\n    event boxMade(uint256 boxId, uint8 tier);\r\n    event transferMade(address purchaser);\r\n    event boxOpen(address purchaser);\r\n\r\n    function makeBox(uint8 tier, address purchaser) private returns (uint256) {\r\n        nextBoxId++;\r\n        uint16 boxNFTid = 0;\r\n        uint256 minVal = 0;\r\n        uint256 rareInt = rngRarity();\r\n\r\n        uint8 rareNFT = 0;\r\n        uint128 boxMinPrice;\r\n        if (tier == 0) {\r\n            boxMinPrice = 0.03 ether;\r\n            if (rareInt >= 95) {\r\n                rareNFT = 1;\r\n            }\r\n        } else if (tier == 1) {\r\n            boxMinPrice = 0.065 ether;\r\n            if (rareInt >= 70) {\r\n                rareNFT = 1;\r\n            }\r\n        } else {\r\n            boxMinPrice = 0.1 ether;\r\n            if (rareInt >= 40) {\r\n                rareNFT = 1;\r\n            }\r\n        }\r\n\r\n        // fill up the box with nfts though rng\r\n        while (minVal < boxMinPrice) {\r\n            if (rareNFT == 1) {\r\n                // rare NFT draw\r\n                if (ownedNFTInstance.getSize(true) == 0) {\r\n                    rareNFT--;\r\n                    continue; // no more rare to draw, skip to normal NFTs\r\n                }\r\n                uint256 rngNumR = rngNFT(\r\n                    ownedNFTInstance.indexUpperBound(true)\r\n                );\r\n                while (\r\n                    ownedNFTInstance.getParentContract(rngNumR, true) ==\r\n                    address(0)\r\n                ) {\r\n                    uint256 sizeValued = ownedNFTInstance.indexUpperBound(\r\n                        true\r\n                    ) == 0\r\n                        ? 1\r\n                        : ownedNFTInstance.indexUpperBound(true);\r\n                    rngNumR = (rngNumR + 1) % sizeValued;\r\n                }\r\n                uint256 priceOfNFTDrawnR = ownedNFTInstance.getPrice(\r\n                    rngNumR,\r\n                    true\r\n                );\r\n                boxNFTid++;\r\n                // update minval\r\n                minVal += priceOfNFTDrawnR;\r\n                ownedNFTInstance.sold(rngNumR, true);\r\n                rareNFT--;\r\n                boxList[nextBoxId].nfts.push(\r\n                    nft(\r\n                        ownedNFTInstance.getParentContract(rngNumR, true),\r\n                        ownedNFTInstance.getPrice(rngNumR, true),\r\n                        ownedNFTInstance.getTokenId(rngNumR, true),\r\n                        true\r\n                    )\r\n                );\r\n                boxList[nextBoxId].nftIds.push(rngNumR);\r\n            }\r\n            if (ownedNFTInstance.getSize(false) == 0) {\r\n                break; // no more NFTs to fill, break infinite loop\r\n            }\r\n            // filling up the box with other NFTs\r\n            uint256 rngNum = rngNFT(ownedNFTInstance.indexUpperBound(false));\r\n            while (\r\n                ownedNFTInstance.getParentContract(rngNum, false) == address(0)\r\n            ) {\r\n                uint256 size = ownedNFTInstance.indexUpperBound(false) == 0\r\n                    ? 1\r\n                    : ownedNFTInstance.indexUpperBound(false);\r\n                rngNum = (rngNum + 1) % size;\r\n            }\r\n            uint256 priceOfNFTDrawn = ownedNFTInstance.getPrice(rngNum, false);\r\n            boxNFTid++;\r\n\r\n            // update minval\r\n            minVal += priceOfNFTDrawn;\r\n            ownedNFTInstance.sold(rngNum, false);\r\n            boxList[nextBoxId].nfts.push(\r\n                nft(\r\n                    ownedNFTInstance.getParentContract(rngNum, false),\r\n                    ownedNFTInstance.getPrice(rngNum, false),\r\n                    ownedNFTInstance.getTokenId(rngNum, false),\r\n                    false\r\n                )\r\n            );\r\n            boxList[nextBoxId].nftIds.push(rngNum);\r\n        }\r\n\r\n        // add box to boxList\r\n        boxList[nextBoxId].id = nextBoxId;\r\n        boxList[nextBoxId].purchaser = purchaser;\r\n        boxList[nextBoxId].tier = tier;\r\n        boxList[nextBoxId].isOpen = false;\r\n\r\n        emit boxMade(nextBoxId, tier);\r\n        return nextBoxId;\r\n    }\r\n\r\n    function transfer(uint8 tier, address purchaser) public payable {\r\n        // Do require checks on msg.value\r\n        if (tier == 0) {\r\n            require(\r\n                msg.value >= 0.05 ether,\r\n                \"0.05 ether is needed to make the basic box\"\r\n            );\r\n            uint256 newBoxId = makeBox(tier, purchaser);\r\n            Box[] storage listOfBoxes = ownedBoxes[msg.sender];\r\n            listOfBoxes.push(boxList[newBoxId]);\r\n            ownedBoxes[msg.sender] = listOfBoxes;\r\n            emit transferMade(purchaser);\r\n        } else if (tier == 1) {\r\n            require(\r\n                msg.value >= 0.10 ether,\r\n                \"0.1 ether is needed to make the premium box\"\r\n            );\r\n            uint256 newBoxId = makeBox(tier, purchaser);\r\n            Box[] storage listOfBoxes = ownedBoxes[msg.sender];\r\n            listOfBoxes.push(boxList[newBoxId]);\r\n            ownedBoxes[msg.sender] = listOfBoxes;\r\n            emit transferMade(purchaser);\r\n        } else {\r\n            require(\r\n                msg.value >= 0.15 ether,\r\n                \"0.15 ether is needed to make the mysterious box\"\r\n            );\r\n            uint256 newBoxId = makeBox(tier, purchaser);\r\n            Box[] storage listOfBoxes = ownedBoxes[msg.sender];\r\n            listOfBoxes.push(boxList[newBoxId]);\r\n            ownedBoxes[msg.sender] = listOfBoxes;\r\n            emit transferMade(purchaser);\r\n        }\r\n    }\r\n\r\n    function openBox(uint256 boxID) public returns (ERC721[] memory) {\r\n        require(\r\n            boxList[boxID].purchaser == msg.sender,\r\n            \"this box does not belong to you\"\r\n        );\r\n        require(boxList[boxID].isOpen == false, \"box has already been opened\");\r\n        // transfers all NFTs in the box\r\n        Box memory yourBox = boxList[boxID];\r\n        ERC721[] memory nftAddresses;\r\n        address[] memory mystNFTminting;\r\n        for (uint256 i = 0; i < yourBox.nfts.length; i++) {\r\n            if (yourBox.nfts[i].parentContract == address(0)) {\r\n                break;\r\n            }\r\n            ERC721(yourBox.nfts[i].parentContract).setApprovalForAll(\r\n                msg.sender,\r\n                true\r\n            );\r\n            ERC721(yourBox.nfts[i].parentContract).transferFrom(\r\n                address(this),\r\n                msg.sender,\r\n                yourBox.nfts[i].tokenId\r\n            );\r\n            mystNFTminting[i] = yourBox.nfts[i].parentContract;\r\n            nftAddresses[i] = ERC721(yourBox.nfts[i].parentContract);\r\n            ownedNFTInstance.remove(\r\n                yourBox.nftIds[i],\r\n                yourBox.nfts[i].isValued\r\n            );\r\n        }\r\n        mysteryNFTInstance.mint(boxList[boxID].tier, mystNFTminting);\r\n        boxList[boxID].isOpen = true;\r\n        emit boxOpen(msg.sender);\r\n        return nftAddresses;\r\n    }\r\n\r\n    function checkBoxesIds() public view returns (Box[] memory) {\r\n        require(ownedBoxes[msg.sender].length > 0, \"you do not own any boxes\");\r\n        return ownedBoxes[msg.sender];\r\n    }\r\n\r\n    function rngNFT(uint256 size) private view returns (uint256) {\r\n        if (size == 0) {\r\n            size = 1;\r\n        }\r\n        return\r\n            uint256(keccak256(abi.encodePacked(block.timestamp, msg.sender))) %\r\n            size;\r\n    }\r\n\r\n    function rngRarity() private view returns (uint256) {\r\n        return\r\n            uint256(keccak256(abi.encodePacked(block.timestamp, msg.sender))) %\r\n            100;\r\n    }\r\n\r\n    function getOwnedInstance() public view returns (uint256) {\r\n        return ownedNFTInstance.indexUpperBound(false);\r\n    }\r\n}\r\n",
  "sourcePath": "C:\\Users\\Bryan\\Desktop\\Year 3\\Sem 2\\IS4302\\final proj\\contracts\\MysteryBox.sol",
  "compiler": {
    "name": "solc",
    "version": "0.8.13+commit.abaa5c0e.Emscripten.clang"
  },
  "schemaVersion": "3.4.4",
  "updatedAt": "2022-03-31T06:45:31.422Z",
  "devdoc": {
    "kind": "dev",
    "methods": {},
    "version": 1
  },
  "userdoc": {
    "kind": "user",
    "methods": {},
    "version": 1
  }
}