{
  "contractName": "MysteryBox",
  "abi": [
    {
      "inputs": [
        {
          "internalType": "contract OwnedNFTs",
          "name": "ownedNFT",
          "type": "address"
        }
      ],
      "stateMutability": "nonpayable",
      "type": "constructor"
    },
    {
      "anonymous": false,
      "inputs": [
        {
          "indexed": false,
          "internalType": "uint256",
          "name": "boxId",
          "type": "uint256"
        },
        {
          "indexed": false,
          "internalType": "uint8",
          "name": "tier",
          "type": "uint8"
        }
      ],
      "name": "boxMade",
      "type": "event"
    },
    {
      "anonymous": false,
      "inputs": [
        {
          "indexed": false,
          "internalType": "address",
          "name": "purchaser",
          "type": "address"
        }
      ],
      "name": "boxOpen",
      "type": "event"
    },
    {
      "anonymous": false,
      "inputs": [
        {
          "indexed": false,
          "internalType": "address",
          "name": "purchaser",
          "type": "address"
        }
      ],
      "name": "transferMade",
      "type": "event"
    },
    {
      "inputs": [
        {
          "internalType": "uint8",
          "name": "tier",
          "type": "uint8"
        },
        {
          "internalType": "address",
          "name": "purchaser",
          "type": "address"
        }
      ],
      "name": "makeBox",
      "outputs": [
        {
          "internalType": "uint256",
          "name": "",
          "type": "uint256"
        }
      ],
      "stateMutability": "payable",
      "type": "function",
      "payable": true
    },
    {
      "inputs": [
        {
          "internalType": "uint8",
          "name": "tier",
          "type": "uint8"
        },
        {
          "internalType": "address",
          "name": "purchaser",
          "type": "address"
        }
      ],
      "name": "transfer",
      "outputs": [],
      "stateMutability": "payable",
      "type": "function",
      "payable": true
    },
    {
      "inputs": [
        {
          "internalType": "uint256",
          "name": "boxID",
          "type": "uint256"
        }
      ],
      "name": "openBox",
      "outputs": [
        {
          "internalType": "contract ERC721[]",
          "name": "",
          "type": "address[]"
        }
      ],
      "stateMutability": "nonpayable",
      "type": "function"
    },
    {
      "inputs": [],
      "name": "checkBoxesIds",
      "outputs": [
        {
          "components": [
            {
              "internalType": "uint256",
              "name": "id",
              "type": "uint256"
            },
            {
              "internalType": "address",
              "name": "purchaser",
              "type": "address"
            },
            {
              "components": [
                {
                  "internalType": "address",
                  "name": "parentContract",
                  "type": "address"
                },
                {
                  "internalType": "uint256",
                  "name": "price",
                  "type": "uint256"
                },
                {
                  "internalType": "uint256",
                  "name": "tokenId",
                  "type": "uint256"
                },
                {
                  "internalType": "bool",
                  "name": "isValued",
                  "type": "bool"
                }
              ],
              "internalType": "struct MysteryBox.nft[]",
              "name": "nfts",
              "type": "tuple[]"
            },
            {
              "internalType": "uint8",
              "name": "tier",
              "type": "uint8"
            },
            {
              "internalType": "bool",
              "name": "isOpen",
              "type": "bool"
            },
            {
              "internalType": "uint256[]",
              "name": "nftIds",
              "type": "uint256[]"
            }
          ],
          "internalType": "struct MysteryBox.Box[]",
          "name": "",
          "type": "tuple[]"
        }
      ],
      "stateMutability": "view",
      "type": "function",
      "constant": true
    },
    {
      "inputs": [],
      "name": "getOwnedInstance",
      "outputs": [
        {
          "internalType": "uint256",
          "name": "",
          "type": "uint256"
        }
      ],
      "stateMutability": "view",
      "type": "function",
      "constant": true
    }
  ],
  "bytecode": "0x60806040523480156200001157600080fd5b506040516200365c3803806200365c8339818101604052810190620000379190620000fc565b806000806101000a81548173ffffffffffffffffffffffffffffffffffffffff021916908373ffffffffffffffffffffffffffffffffffffffff160217905550506200012e565b600080fd5b600073ffffffffffffffffffffffffffffffffffffffff82169050919050565b6000620000b08262000083565b9050919050565b6000620000c482620000a3565b9050919050565b620000d681620000b7565b8114620000e257600080fd5b50565b600081519050620000f681620000cb565b92915050565b6000602082840312156200011557620001146200007e565b5b60006200012584828501620000e5565b91505092915050565b61351e806200013e6000396000f3fe60806040526004361061004a5760003560e01c80631138ce641461004f57806327b375341461007a5780635eaeffd814610096578063b1e5e2b7146100c1578063bb9ed8f2146100fe575b600080fd5b34801561005b57600080fd5b5061006461012e565b6040516100719190612b16565b60405180910390f35b610094600480360381019061008f9190612b95565b610423565b005b3480156100a257600080fd5b506100ab610b65565b6040516100b89190612be4565b60405180910390f35b3480156100cd57600080fd5b506100e860048036038101906100e39190612c2b565b610c08565b6040516100f59190612d66565b60405180910390f35b61011860048036038101906101139190612b95565b611135565b6040516101259190612be4565b60405180910390f35b60606000600360003373ffffffffffffffffffffffffffffffffffffffff1673ffffffffffffffffffffffffffffffffffffffff16815260200190815260200160002080549050116101b5576040517f08c379a00000000000000000000000000000000000000000000000000000000081526004016101ac90612de5565b60405180910390fd5b600360003373ffffffffffffffffffffffffffffffffffffffff1673ffffffffffffffffffffffffffffffffffffffff168152602001908152602001600020805480602002602001604051908101604052809291908181526020016000905b8282101561041a57838290600052602060002090600502016040518060c0016040529081600082015481526020016001820160009054906101000a900473ffffffffffffffffffffffffffffffffffffffff1673ffffffffffffffffffffffffffffffffffffffff1673ffffffffffffffffffffffffffffffffffffffff16815260200160028201805480602002602001604051908101604052809291908181526020016000905b8282101561037357838290600052602060002090600402016040518060800160405290816000820160009054906101000a900473ffffffffffffffffffffffffffffffffffffffff1673ffffffffffffffffffffffffffffffffffffffff1673ffffffffffffffffffffffffffffffffffffffff16815260200160018201548152602001600282015481526020016003820160009054906101000a900460ff161515151581525050815260200190600101906102bc565b5050505081526020016003820160009054906101000a900460ff1660ff1660ff1681526020016003820160019054906101000a900460ff161515151581526020016004820180548060200260200160405190810160405280929190818152602001828054801561040257602002820191906000526020600020905b8154815260200190600101908083116103ee575b50505050508152505081526020019060010190610214565b50505050905090565b60008260ff16036106915766b1a2bc2ec50000341015610478576040517f08c379a000000000000000000000000000000000000000000000000000000000815260040161046f90612e77565b60405180910390fd5b60006104848383611135565b90506000600360003373ffffffffffffffffffffffffffffffffffffffff1673ffffffffffffffffffffffffffffffffffffffff1681526020019081526020016000209050600081805490509050600460008481526020019081526020016000208282815481106104f8576104f7612e97565b5b9060005260206000209060050201600082015481600001556001820160009054906101000a900473ffffffffffffffffffffffffffffffffffffffff168160010160006101000a81548173ffffffffffffffffffffffffffffffffffffffff021916908373ffffffffffffffffffffffffffffffffffffffff160217905550600282018160020190805461058d929190612238565b506003820160009054906101000a900460ff168160030160006101000a81548160ff021916908360ff1602179055506003820160019054906101000a900460ff168160030160016101000a81548160ff02191690831515021790555060048201816004019080546105ff929190612338565b5090505081600360003373ffffffffffffffffffffffffffffffffffffffff1673ffffffffffffffffffffffffffffffffffffffff16815260200190815260200160002090805461065192919061238a565b507fa5fddfcc13d26ad51fbfd106263f3ff73e656d5dc414f0f8dad98fdb15a5cc2f846040516106819190612ed5565b60405180910390a1505050610b61565b60018260ff16036109005767016345785d8a00003410156106e7576040517f08c379a00000000000000000000000000000000000000000000000000000000081526004016106de90612f62565b60405180910390fd5b60006106f38383611135565b90506000600360003373ffffffffffffffffffffffffffffffffffffffff1673ffffffffffffffffffffffffffffffffffffffff16815260200190815260200160002090506000818054905090506004600084815260200190815260200160002082828154811061076757610766612e97565b5b9060005260206000209060050201600082015481600001556001820160009054906101000a900473ffffffffffffffffffffffffffffffffffffffff168160010160006101000a81548173ffffffffffffffffffffffffffffffffffffffff021916908373ffffffffffffffffffffffffffffffffffffffff16021790555060028201816002019080546107fc929190612238565b506003820160009054906101000a900460ff168160030160006101000a81548160ff021916908360ff1602179055506003820160019054906101000a900460ff168160030160016101000a81548160ff021916908315150217905550600482018160040190805461086e929190612338565b5090505081600360003373ffffffffffffffffffffffffffffffffffffffff1673ffffffffffffffffffffffffffffffffffffffff1681526020019081526020016000209080546108c092919061238a565b507fa5fddfcc13d26ad51fbfd106263f3ff73e656d5dc414f0f8dad98fdb15a5cc2f846040516108f09190612ed5565b60405180910390a1505050610b60565b670214e8348c4f000034101561094b576040517f08c379a000000000000000000000000000000000000000000000000000000000815260040161094290612ff4565b60405180910390fd5b60006109578383611135565b90506000600360003373ffffffffffffffffffffffffffffffffffffffff1673ffffffffffffffffffffffffffffffffffffffff1681526020019081526020016000209050600081805490509050600460008481526020019081526020016000208282815481106109cb576109ca612e97565b5b9060005260206000209060050201600082015481600001556001820160009054906101000a900473ffffffffffffffffffffffffffffffffffffffff168160010160006101000a81548173ffffffffffffffffffffffffffffffffffffffff021916908373ffffffffffffffffffffffffffffffffffffffff1602179055506002820181600201908054610a60929190612238565b506003820160009054906101000a900460ff168160030160006101000a81548160ff021916908360ff1602179055506003820160019054906101000a900460ff168160030160016101000a81548160ff0219169083151502179055506004820181600401908054610ad2929190612338565b5090505081600360003373ffffffffffffffffffffffffffffffffffffffff1673ffffffffffffffffffffffffffffffffffffffff168152602001908152602001600020908054610b2492919061238a565b507fa5fddfcc13d26ad51fbfd106263f3ff73e656d5dc414f0f8dad98fdb15a5cc2f84604051610b549190612ed5565b60405180910390a15050505b5b5050565b60008060009054906101000a900473ffffffffffffffffffffffffffffffffffffffff1673ffffffffffffffffffffffffffffffffffffffff1663366ad83e60006040518263ffffffff1660e01b8152600401610bc29190613023565b602060405180830381865afa158015610bdf573d6000803e3d6000fd5b505050506040513d601f19601f82011682018060405250810190610c039190613053565b905090565b60603373ffffffffffffffffffffffffffffffffffffffff166004600084815260200190815260200160002060010160009054906101000a900473ffffffffffffffffffffffffffffffffffffffff1673ffffffffffffffffffffffffffffffffffffffff1614610cae576040517f08c379a0000000000000000000000000000000000000000000000000000000008152600401610ca5906130cc565b60405180910390fd5b6000600460008481526020019081526020016000206040518060c0016040529081600082015481526020016001820160009054906101000a900473ffffffffffffffffffffffffffffffffffffffff1673ffffffffffffffffffffffffffffffffffffffff1673ffffffffffffffffffffffffffffffffffffffff16815260200160028201805480602002602001604051908101604052809291908181526020016000905b82821015610e0a57838290600052602060002090600402016040518060800160405290816000820160009054906101000a900473ffffffffffffffffffffffffffffffffffffffff1673ffffffffffffffffffffffffffffffffffffffff1673ffffffffffffffffffffffffffffffffffffffff16815260200160018201548152602001600282015481526020016003820160009054906101000a900460ff16151515158152505081526020019060010190610d53565b5050505081526020016003820160009054906101000a900460ff1660ff1660ff1681526020016003820160019054906101000a900460ff1615151515815260200160048201805480602002602001604051908101604052809291908181526020018280548015610e9957602002820191906000526020600020905b815481526020019060010190808311610e85575b5050505050815250509050600015158160800151151514610eef576040517f08c379a0000000000000000000000000000000000000000000000000000000008152600401610ee690613138565b60405180910390fd5b606060005b8260400151518110156111195782604001518181518110610f1857610f17612e97565b5b60200260200101516000015173ffffffffffffffffffffffffffffffffffffffff166323b872dd303386604001518581518110610f5857610f57612e97565b5b6020026020010151604001516040518463ffffffff1660e01b8152600401610f8293929190613158565b600060405180830381600087803b158015610f9c57600080fd5b505af1158015610fb0573d6000803e3d6000fd5b5050505082604001518181518110610fcb57610fca612e97565b5b602002602001015160000151828281518110610fea57610fe9612e97565b5b602002602001019073ffffffffffffffffffffffffffffffffffffffff16908173ffffffffffffffffffffffffffffffffffffffff168152505060008054906101000a900473ffffffffffffffffffffffffffffffffffffffff1673ffffffffffffffffffffffffffffffffffffffff1663d5f615c68460a00151838151811061107757611076612e97565b5b60200260200101518560400151848151811061109657611095612e97565b5b6020026020010151606001516040518363ffffffff1660e01b81526004016110bf92919061318f565b6080604051808303816000875af11580156110de573d6000803e3d6000fd5b505050506040513d601f19601f8201168201806040525081019061110291906131f9565b5050505080806111119061328f565b915050610ef4565b5060018260800190151590811515815250508092505050919050565b60006005600081548092919061114a9061328f565b9190505550600080600061115c6121ad565b9050600080808860ff160361118757666a94d74f4300009050605f831061118257600191505b6111c8565b60018860ff16036111ae5766e6ed27d66680009050604683106111a957600191505b6111c7565b67016345785d8a00009050602883106111c657600191505b5b5b5b806fffffffffffffffffffffffffffffffff1684101561201c5760018260ff160361190a57600061129360008054906101000a900473ffffffffffffffffffffffffffffffffffffffff1673ffffffffffffffffffffffffffffffffffffffff1663366ad83e60016040518263ffffffff1660e01b815260040161124d9190613023565b602060405180830381865afa15801561126a573d6000803e3d6000fd5b505050506040513d601f19601f8201168201806040525081019061128e9190613053565b6121ec565b90505b600073ffffffffffffffffffffffffffffffffffffffff1660008054906101000a900473ffffffffffffffffffffffffffffffffffffffff1673ffffffffffffffffffffffffffffffffffffffff1663a9a9f9fc8360016040518363ffffffff1660e01b815260040161130a92919061318f565b602060405180830381865afa158015611327573d6000803e3d6000fd5b505050506040513d601f19601f8201168201806040525081019061134b91906132d7565b73ffffffffffffffffffffffffffffffffffffffff16036114ce5760008060008054906101000a900473ffffffffffffffffffffffffffffffffffffffff1673ffffffffffffffffffffffffffffffffffffffff1663366ad83e60016040518263ffffffff1660e01b81526004016113c39190613023565b602060405180830381865afa1580156113e0573d6000803e3d6000fd5b505050506040513d601f19601f820116820180604052508101906114049190613053565b146114a95760008054906101000a900473ffffffffffffffffffffffffffffffffffffffff1673ffffffffffffffffffffffffffffffffffffffff1663366ad83e60016040518263ffffffff1660e01b81526004016114639190613023565b602060405180830381865afa158015611480573d6000803e3d6000fd5b505050506040513d601f19601f820116820180604052508101906114a49190613053565b6114ac565b60015b9050806001836114bc9190613304565b6114c69190613389565b915050611296565b60008060009054906101000a900473ffffffffffffffffffffffffffffffffffffffff1673ffffffffffffffffffffffffffffffffffffffff16635705b61a8360016040518363ffffffff1660e01b815260040161152d92919061318f565b602060405180830381865afa15801561154a573d6000803e3d6000fd5b505050506040513d601f19601f8201168201806040525081019061156e9190613053565b9050868061157b906133c8565b9750506001604051806080016040528060008054906101000a900473ffffffffffffffffffffffffffffffffffffffff1673ffffffffffffffffffffffffffffffffffffffff1663a9a9f9fc8660016040518363ffffffff1660e01b81526004016115e792919061318f565b602060405180830381865afa158015611604573d6000803e3d6000fd5b505050506040513d601f19601f8201168201806040525081019061162891906132d7565b73ffffffffffffffffffffffffffffffffffffffff16815260200160008054906101000a900473ffffffffffffffffffffffffffffffffffffffff1673ffffffffffffffffffffffffffffffffffffffff16635705b61a8660016040518363ffffffff1660e01b815260040161169f92919061318f565b602060405180830381865afa1580156116bc573d6000803e3d6000fd5b505050506040513d601f19601f820116820180604052508101906116e09190613053565b815260200160008054906101000a900473ffffffffffffffffffffffffffffffffffffffff1673ffffffffffffffffffffffffffffffffffffffff1663201043078660016040518363ffffffff1660e01b815260040161174192919061318f565b602060405180830381865afa15801561175e573d6000803e3d6000fd5b505050506040513d601f19601f820116820180604052508101906117829190613053565b815260200160011515815250908060018154018082558091505060019003906000526020600020906004020160009091909190915060008201518160000160006101000a81548173ffffffffffffffffffffffffffffffffffffffff021916908373ffffffffffffffffffffffffffffffffffffffff160217905550602082015181600101556040820151816002015560608201518160030160006101000a81548160ff021916908315150217905550505080866118409190613304565b955060008054906101000a900473ffffffffffffffffffffffffffffffffffffffff1673ffffffffffffffffffffffffffffffffffffffff166314e4ff788360016040518363ffffffff1660e01b815260040161189e92919061318f565b600060405180830381600087803b1580156118b857600080fd5b505af11580156118cc573d6000803e3d6000fd5b5050505060028290806001815401808255809150506001900390600052602060002001600090919091909150558380611904906133f2565b94505050505b60006119af60008054906101000a900473ffffffffffffffffffffffffffffffffffffffff1673ffffffffffffffffffffffffffffffffffffffff1663366ad83e60006040518263ffffffff1660e01b81526004016119699190613023565b602060405180830381865afa158015611986573d6000803e3d6000fd5b505050506040513d601f19601f820116820180604052508101906119aa9190613053565b6121ec565b90505b600073ffffffffffffffffffffffffffffffffffffffff1660008054906101000a900473ffffffffffffffffffffffffffffffffffffffff1673ffffffffffffffffffffffffffffffffffffffff1663a9a9f9fc8360006040518363ffffffff1660e01b8152600401611a2692919061318f565b602060405180830381865afa158015611a43573d6000803e3d6000fd5b505050506040513d601f19601f82011682018060405250810190611a6791906132d7565b73ffffffffffffffffffffffffffffffffffffffff1603611bea5760008060008054906101000a900473ffffffffffffffffffffffffffffffffffffffff1673ffffffffffffffffffffffffffffffffffffffff1663366ad83e60006040518263ffffffff1660e01b8152600401611adf9190613023565b602060405180830381865afa158015611afc573d6000803e3d6000fd5b505050506040513d601f19601f82011682018060405250810190611b209190613053565b14611bc55760008054906101000a900473ffffffffffffffffffffffffffffffffffffffff1673ffffffffffffffffffffffffffffffffffffffff1663366ad83e60006040518263ffffffff1660e01b8152600401611b7f9190613023565b602060405180830381865afa158015611b9c573d6000803e3d6000fd5b505050506040513d601f19601f82011682018060405250810190611bc09190613053565b611bc8565b60015b905080600183611bd89190613304565b611be29190613389565b9150506119b2565b60008060009054906101000a900473ffffffffffffffffffffffffffffffffffffffff1673ffffffffffffffffffffffffffffffffffffffff16635705b61a8360006040518363ffffffff1660e01b8152600401611c4992919061318f565b602060405180830381865afa158015611c66573d6000803e3d6000fd5b505050506040513d601f19601f82011682018060405250810190611c8a9190613053565b90508680611c97906133c8565b9750506001604051806080016040528060008054906101000a900473ffffffffffffffffffffffffffffffffffffffff1673ffffffffffffffffffffffffffffffffffffffff1663a9a9f9fc8660006040518363ffffffff1660e01b8152600401611d0392919061318f565b602060405180830381865afa158015611d20573d6000803e3d6000fd5b505050506040513d601f19601f82011682018060405250810190611d4491906132d7565b73ffffffffffffffffffffffffffffffffffffffff16815260200160008054906101000a900473ffffffffffffffffffffffffffffffffffffffff1673ffffffffffffffffffffffffffffffffffffffff16635705b61a8660006040518363ffffffff1660e01b8152600401611dbb92919061318f565b602060405180830381865afa158015611dd8573d6000803e3d6000fd5b505050506040513d601f19601f82011682018060405250810190611dfc9190613053565b815260200160008054906101000a900473ffffffffffffffffffffffffffffffffffffffff1673ffffffffffffffffffffffffffffffffffffffff1663201043078660006040518363ffffffff1660e01b8152600401611e5d92919061318f565b602060405180830381865afa158015611e7a573d6000803e3d6000fd5b505050506040513d601f19601f82011682018060405250810190611e9e9190613053565b815260200160001515815250908060018154018082558091505060019003906000526020600020906004020160009091909190915060008201518160000160006101000a81548173ffffffffffffffffffffffffffffffffffffffff021916908373ffffffffffffffffffffffffffffffffffffffff160217905550602082015181600101556040820151816002015560608201518160030160006101000a81548160ff02191690831515021790555050508086611f5c9190613304565b955060008054906101000a900473ffffffffffffffffffffffffffffffffffffffff1673ffffffffffffffffffffffffffffffffffffffff166314e4ff788360006040518363ffffffff1660e01b8152600401611fba92919061318f565b600060405180830381600087803b158015611fd457600080fd5b505af1158015611fe8573d6000803e3d6000fd5b50505050600282908060018154018082558091505060019003906000526020600020016000909190919091505550506111c9565b600554600460006005548152602001908152602001600020600001819055508660046000600554815260200190815260200160002060010160006101000a81548173ffffffffffffffffffffffffffffffffffffffff021916908373ffffffffffffffffffffffffffffffffffffffff16021790555060016004600060055481526020019081526020016000206002019080546120ba9291906124dc565b508760046000600554815260200190815260200160002060030160006101000a81548160ff021916908360ff160217905550600060046000600554815260200190815260200160002060030160016101000a81548160ff02191690831515021790555060026004600060055481526020019081526020016000206004019080546121459291906125dc565b5060016000612154919061262e565b600260006121629190612652565b7ffa4028e02cab79854d323d6c7016d9e493939f43aeeb9d7c1d5ab4264490e81e6005548960405161219592919061342a565b60405180910390a16005549550505050505092915050565b6000606442336040516020016121c49291906134bc565b6040516020818303038152906040528051906020012060001c6121e79190613389565b905090565b60008082036121fa57600191505b81423360405160200161220e9291906134bc565b6040516020818303038152906040528051906020012060001c6122319190613389565b9050919050565b8280548282559060005260206000209060040281019282156123275760005260206000209160040282015b828111156123265782826000820160009054906101000a900473ffffffffffffffffffffffffffffffffffffffff168160000160006101000a81548173ffffffffffffffffffffffffffffffffffffffff021916908373ffffffffffffffffffffffffffffffffffffffff16021790555060018201548160010155600282015481600201556003820160009054906101000a900460ff168160030160006101000a81548160ff021916908315150217905550505091600401919060040190612263565b5b5090506123349190612673565b5090565b8280548282559060005260206000209081019282156123795760005260206000209182015b8281111561237857825482559160010191906001019061235d565b5b50905061238691906126d5565b5090565b8280548282559060005260206000209060050281019282156124cb5760005260206000209160050282015b828111156124ca578282600082015481600001556001820160009054906101000a900473ffffffffffffffffffffffffffffffffffffffff168160010160006101000a81548173ffffffffffffffffffffffffffffffffffffffff021916908373ffffffffffffffffffffffffffffffffffffffff1602179055506002820181600201908054612446929190612238565b506003820160009054906101000a900460ff168160030160006101000a81548160ff021916908360ff1602179055506003820160019054906101000a900460ff168160030160016101000a81548160ff02191690831515021790555060048201816004019080546124b8929190612338565b505050916005019190600501906123b5565b5b5090506124d891906126f2565b5090565b8280548282559060005260206000209060040281019282156125cb5760005260206000209160040282015b828111156125ca5782826000820160009054906101000a900473ffffffffffffffffffffffffffffffffffffffff168160000160006101000a81548173ffffffffffffffffffffffffffffffffffffffff021916908373ffffffffffffffffffffffffffffffffffffffff16021790555060018201548160010155600282015481600201556003820160009054906101000a900460ff168160030160006101000a81548160ff021916908315150217905550505091600401919060040190612507565b5b5090506125d89190612673565b5090565b82805482825590600052602060002090810192821561261d5760005260206000209182015b8281111561261c578254825591600101919060010190612601565b5b50905061262a91906126d5565b5090565b508054600082556004029060005260206000209081019061264f9190612673565b50565b508054600082559060005260206000209081019061267091906126d5565b50565b5b808211156126d157600080820160006101000a81549073ffffffffffffffffffffffffffffffffffffffff0219169055600182016000905560028201600090556003820160006101000a81549060ff021916905550600401612674565b5090565b5b808211156126ee5760008160009055506001016126d6565b5090565b5b8082111561277c576000808201600090556001820160006101000a81549073ffffffffffffffffffffffffffffffffffffffff021916905560028201600061273b919061262e565b6003820160006101000a81549060ff02191690556003820160016101000a81549060ff02191690556004820160006127739190612652565b506005016126f3565b5090565b600081519050919050565b600082825260208201905092915050565b6000819050602082019050919050565b6000819050919050565b6127bf816127ac565b82525050565b600073ffffffffffffffffffffffffffffffffffffffff82169050919050565b60006127f0826127c5565b9050919050565b612800816127e5565b82525050565b600081519050919050565b600082825260208201905092915050565b6000819050602082019050919050565b60008115159050919050565b61284781612832565b82525050565b60808201600082015161286360008501826127f7565b50602082015161287660208501826127b6565b50604082015161288960408501826127b6565b50606082015161289c606085018261283e565b50505050565b60006128ae838361284d565b60808301905092915050565b6000602082019050919050565b60006128d282612806565b6128dc8185612811565b93506128e783612822565b8060005b838110156129185781516128ff88826128a2565b975061290a836128ba565b9250506001810190506128eb565b5085935050505092915050565b600060ff82169050919050565b61293b81612925565b82525050565b600081519050919050565b600082825260208201905092915050565b6000819050602082019050919050565b600061297983836127b6565b60208301905092915050565b6000602082019050919050565b600061299d82612941565b6129a7818561294c565b93506129b28361295d565b8060005b838110156129e35781516129ca888261296d565b97506129d583612985565b9250506001810190506129b6565b5085935050505092915050565b600060c083016000830151612a0860008601826127b6565b506020830151612a1b60208601826127f7565b5060408301518482036040860152612a3382826128c7565b9150506060830151612a486060860182612932565b506080830151612a5b608086018261283e565b5060a083015184820360a0860152612a738282612992565b9150508091505092915050565b6000612a8c83836129f0565b905092915050565b6000602082019050919050565b6000612aac82612780565b612ab6818561278b565b935083602082028501612ac88561279c565b8060005b85811015612b045784840389528151612ae58582612a80565b9450612af083612a94565b925060208a01995050600181019050612acc565b50829750879550505050505092915050565b60006020820190508181036000830152612b308184612aa1565b905092915050565b600080fd5b612b4681612925565b8114612b5157600080fd5b50565b600081359050612b6381612b3d565b92915050565b612b72816127e5565b8114612b7d57600080fd5b50565b600081359050612b8f81612b69565b92915050565b60008060408385031215612bac57612bab612b38565b5b6000612bba85828601612b54565b9250506020612bcb85828601612b80565b9150509250929050565b612bde816127ac565b82525050565b6000602082019050612bf96000830184612bd5565b92915050565b612c08816127ac565b8114612c1357600080fd5b50565b600081359050612c2581612bff565b92915050565b600060208284031215612c4157612c40612b38565b5b6000612c4f84828501612c16565b91505092915050565b600081519050919050565b600082825260208201905092915050565b6000819050602082019050919050565b6000819050919050565b6000612ca9612ca4612c9f846127c5565b612c84565b6127c5565b9050919050565b6000612cbb82612c8e565b9050919050565b6000612ccd82612cb0565b9050919050565b612cdd81612cc2565b82525050565b6000612cef8383612cd4565b60208301905092915050565b6000602082019050919050565b6000612d1382612c58565b612d1d8185612c63565b9350612d2883612c74565b8060005b83811015612d59578151612d408882612ce3565b9750612d4b83612cfb565b925050600181019050612d2c565b5085935050505092915050565b60006020820190508181036000830152612d808184612d08565b905092915050565b600082825260208201905092915050565b7f796f7520646f206e6f74206f776e20616e7920626f7865730000000000000000600082015250565b6000612dcf601883612d88565b9150612dda82612d99565b602082019050919050565b60006020820190508181036000830152612dfe81612dc2565b9050919050565b7f302e3035206574686572206973206e656564656420746f206d616b652074686560008201527f20626173696320626f7800000000000000000000000000000000000000000000602082015250565b6000612e61602a83612d88565b9150612e6c82612e05565b604082019050919050565b60006020820190508181036000830152612e9081612e54565b9050919050565b7f4e487b7100000000000000000000000000000000000000000000000000000000600052603260045260246000fd5b612ecf816127e5565b82525050565b6000602082019050612eea6000830184612ec6565b92915050565b7f302e31206574686572206973206e656564656420746f206d616b65207468652060008201527f7072656d69756d20626f78000000000000000000000000000000000000000000602082015250565b6000612f4c602b83612d88565b9150612f5782612ef0565b604082019050919050565b60006020820190508181036000830152612f7b81612f3f565b9050919050565b7f302e3135206574686572206973206e656564656420746f206d616b652074686560008201527f206d7973746572696f757320626f780000000000000000000000000000000000602082015250565b6000612fde602f83612d88565b9150612fe982612f82565b604082019050919050565b6000602082019050818103600083015261300d81612fd1565b9050919050565b61301d81612832565b82525050565b60006020820190506130386000830184613014565b92915050565b60008151905061304d81612bff565b92915050565b60006020828403121561306957613068612b38565b5b60006130778482850161303e565b91505092915050565b7f7468697320626f7820646f6573206e6f742062656c6f6e6720746f20796f7500600082015250565b60006130b6601f83612d88565b91506130c182613080565b602082019050919050565b600060208201905081810360008301526130e5816130a9565b9050919050565b7f626f782068617320616c7265616479206265656e206f70656e65640000000000600082015250565b6000613122601b83612d88565b915061312d826130ec565b602082019050919050565b6000602082019050818103600083015261315181613115565b9050919050565b600060608201905061316d6000830186612ec6565b61317a6020830185612ec6565b6131876040830184612bd5565b949350505050565b60006040820190506131a46000830185612bd5565b6131b16020830184613014565b9392505050565b6000815190506131c781612b69565b92915050565b6131d681612832565b81146131e157600080fd5b50565b6000815190506131f3816131cd565b92915050565b6000806000806080858703121561321357613212612b38565b5b6000613221878288016131b8565b94505060206132328782880161303e565b93505060406132438782880161303e565b9250506060613254878288016131e4565b91505092959194509250565b7f4e487b7100000000000000000000000000000000000000000000000000000000600052601160045260246000fd5b600061329a826127ac565b91507fffffffffffffffffffffffffffffffffffffffffffffffffffffffffffffffff82036132cc576132cb613260565b5b600182019050919050565b6000602082840312156132ed576132ec612b38565b5b60006132fb848285016131b8565b91505092915050565b600061330f826127ac565b915061331a836127ac565b9250827fffffffffffffffffffffffffffffffffffffffffffffffffffffffffffffffff0382111561334f5761334e613260565b5b828201905092915050565b7f4e487b7100000000000000000000000000000000000000000000000000000000600052601260045260246000fd5b6000613394826127ac565b915061339f836127ac565b9250826133af576133ae61335a565b5b828206905092915050565b600061ffff82169050919050565b60006133d3826133ba565b915061ffff82036133e7576133e6613260565b5b600182019050919050565b60006133fd82612925565b9150600082036134105761340f613260565b5b600182039050919050565b61342481612925565b82525050565b600060408201905061343f6000830185612bd5565b61344c602083018461341b565b9392505050565b6000819050919050565b61346e613469826127ac565b613453565b82525050565b60008160601b9050919050565b600061348c82613474565b9050919050565b600061349e82613481565b9050919050565b6134b66134b1826127e5565b613493565b82525050565b60006134c8828561345d565b6020820191506134d882846134a5565b601482019150819050939250505056fea26469706673582212202b27b5d2e6127882f47b83eb11b744a06247087d64f81c84ed98efe119defcb264736f6c634300080d0033",
  "immutableReferences": {},
  "source": "// SPDX-License-Identifier: MIT\r\npragma solidity ^0.8.0;\r\nimport \"@openzeppelin/contracts/token/ERC721/ERC721.sol\";\r\nimport \"./ownedNFTs.sol\";\r\n\r\ncontract MysteryBox {\r\n    OwnedNFTs ownedNFTInstance;\r\n    //enum tierPrices {\r\n    //    basic,\r\n    //    premium,\r\n    //    mysterious\r\n    //}\r\n\r\n    struct Box {\r\n        uint256 id;\r\n        address purchaser;\r\n        nft[] nfts;\r\n        uint8 tier;\r\n        bool isOpen;\r\n        uint256[] nftIds;\r\n    }\r\n\r\n    struct nft {\r\n        address parentContract;\r\n        uint256 price;\r\n        uint256 tokenId;\r\n        bool isValued;\r\n    }\r\n    nft[] boxNFTList;\r\n    uint256[] BoxnftIds;\r\n\r\n    mapping(address => Box[]) ownedBoxes;\r\n    mapping(uint256 => Box) boxList;\r\n    uint256 nextBoxId;\r\n\r\n    constructor(OwnedNFTs ownedNFT) {\r\n        ownedNFTInstance = ownedNFT;\r\n    }\r\n\r\n    event boxMade(uint256 boxId, uint8 tier);\r\n    event transferMade(address purchaser);\r\n    event boxOpen(address purchaser);\r\n\r\n    function makeBox(uint8 tier, address purchaser)\r\n        public\r\n        payable\r\n        returns (uint256)\r\n    {\r\n        nextBoxId++;\r\n        uint16 boxNFTid = 0;\r\n        uint256 minVal = 0;\r\n        uint256 rareInt = rngRarity();\r\n\r\n        uint8 rareNFT = 0;\r\n        uint128 boxMinPrice;\r\n        //uint128 boxMaxPrice;\r\n        if (tier == 0) {\r\n            boxMinPrice = 0.03 ether;\r\n            //boxMaxPrice = 0.035 ether;\r\n            if (rareInt >= 95) {\r\n                rareNFT = 1;\r\n            }\r\n        } else if (tier == 1) {\r\n            boxMinPrice = 0.065 ether;\r\n            //boxMaxPrice = 0.080 ether;\r\n            if (rareInt >= 70) {\r\n                rareNFT = 1;\r\n            }\r\n        } else {\r\n            boxMinPrice = 0.1 ether;\r\n            //boxMaxPrice = 0.125 ether;\r\n            if (rareInt >= 40) {\r\n                rareNFT = 1;\r\n            }\r\n        }\r\n\r\n        // fill up the box with nfts though rng\r\n        while (minVal < boxMinPrice) {\r\n            if (rareNFT == 1) {\r\n                // rare NFT draw, which might exceed max value\r\n                uint256 rngNumR = rngNFT(ownedNFTInstance.getSize(true));\r\n                while (\r\n                    ownedNFTInstance.getParentContract(rngNumR, true) ==\r\n                    address(0)\r\n                ) {\r\n                    uint256 sizeValued = ownedNFTInstance.getSize(true) == 0\r\n                        ? 1\r\n                        : ownedNFTInstance.getSize(true);\r\n                    rngNumR = (rngNumR + 1) % sizeValued;\r\n                }\r\n                uint256 priceOfNFTDrawnR = ownedNFTInstance.getPrice(\r\n                    rngNumR,\r\n                    true\r\n                );\r\n                boxNFTid++;\r\n\r\n                boxNFTList.push(\r\n                    nft(\r\n                        ownedNFTInstance.getParentContract(rngNumR, true),\r\n                        ownedNFTInstance.getPrice(rngNumR, true),\r\n                        ownedNFTInstance.getTokenId(rngNumR, true),\r\n                        true\r\n                    )\r\n                );\r\n                // update minval\r\n                minVal += priceOfNFTDrawnR;\r\n                ownedNFTInstance.sold(rngNumR, true);\r\n                BoxnftIds.push(rngNumR);\r\n                rareNFT--;\r\n            }\r\n\r\n            // filling up the box with other NFTs\r\n            uint256 rngNum = rngNFT(ownedNFTInstance.getSize(false));\r\n            while (\r\n                ownedNFTInstance.getParentContract(rngNum, false) == address(0)\r\n            ) {\r\n                uint256 size = ownedNFTInstance.getSize(false) == 0\r\n                    ? 1\r\n                    : ownedNFTInstance.getSize(false);\r\n                rngNum = (rngNum + 1) % size;\r\n            }\r\n            uint256 priceOfNFTDrawn = ownedNFTInstance.getPrice(rngNum, false);\r\n            boxNFTid++;\r\n\r\n            boxNFTList.push(\r\n                nft(\r\n                    ownedNFTInstance.getParentContract(rngNum, false),\r\n                    ownedNFTInstance.getPrice(rngNum, false),\r\n                    ownedNFTInstance.getTokenId(rngNum, false),\r\n                    false\r\n                )\r\n            );\r\n            // update minval\r\n            minVal += priceOfNFTDrawn;\r\n            ownedNFTInstance.sold(rngNum, false);\r\n            BoxnftIds.push(rngNum);\r\n        }\r\n\r\n        // add box to boxList\r\n        boxList[nextBoxId].id = nextBoxId;\r\n        boxList[nextBoxId].purchaser = purchaser;\r\n        boxList[nextBoxId].nfts = boxNFTList;\r\n        boxList[nextBoxId].tier = tier;\r\n        boxList[nextBoxId].isOpen = false;\r\n        boxList[nextBoxId].nftIds = BoxnftIds;\r\n\r\n        delete boxNFTList;\r\n        delete BoxnftIds;\r\n        emit boxMade(nextBoxId, tier);\r\n        return nextBoxId;\r\n    }\r\n\r\n    function transfer(uint8 tier, address purchaser) public payable {\r\n        // Do require checks on msg.value\r\n        if (tier == 0) {\r\n            require(\r\n                msg.value >= 0.05 ether,\r\n                \"0.05 ether is needed to make the basic box\"\r\n            );\r\n            uint256 newBoxId = makeBox(tier, purchaser);\r\n            Box[] storage listOfBoxes = ownedBoxes[msg.sender];\r\n            uint256 length = listOfBoxes.length;\r\n            listOfBoxes[length] = boxList[newBoxId];\r\n            ownedBoxes[msg.sender] = listOfBoxes;\r\n            emit transferMade(purchaser);\r\n        } else if (tier == 1) {\r\n            require(\r\n                msg.value >= 0.10 ether,\r\n                \"0.1 ether is needed to make the premium box\"\r\n            );\r\n            uint256 newBoxId = makeBox(tier, purchaser);\r\n            Box[] storage listOfBoxes = ownedBoxes[msg.sender];\r\n            uint256 length = listOfBoxes.length;\r\n            listOfBoxes[length] = boxList[newBoxId];\r\n            ownedBoxes[msg.sender] = listOfBoxes;\r\n            emit transferMade(purchaser);\r\n        } else {\r\n            require(\r\n                msg.value >= 0.15 ether,\r\n                \"0.15 ether is needed to make the mysterious box\"\r\n            );\r\n            uint256 newBoxId = makeBox(tier, purchaser);\r\n            Box[] storage listOfBoxes = ownedBoxes[msg.sender];\r\n            uint256 length = listOfBoxes.length;\r\n            listOfBoxes[length] = boxList[newBoxId];\r\n            ownedBoxes[msg.sender] = listOfBoxes;\r\n            emit transferMade(purchaser);\r\n        }\r\n    }\r\n\r\n    function openBox(uint256 boxID) public returns (ERC721[] memory) {\r\n        require(\r\n            boxList[boxID].purchaser == msg.sender,\r\n            \"this box does not belong to you\"\r\n        );\r\n        // transfers all NFTs in the box\r\n        Box memory yourBox = boxList[boxID];\r\n        require(yourBox.isOpen == false, \"box has already been opened\");\r\n        ERC721[] memory nfts;\r\n        for (uint256 i = 0; i < yourBox.nfts.length; i++) {\r\n            // need to check if there needs to be owner for this contract\r\n            // check how to get nft id for transferring\r\n            ERC721(yourBox.nfts[i].parentContract).transferFrom(\r\n                address(this),\r\n                msg.sender,\r\n                yourBox.nfts[i].tokenId\r\n            );\r\n            nfts[i] = ERC721(yourBox.nfts[i].parentContract);\r\n            ownedNFTInstance.remove(\r\n                yourBox.nftIds[i],\r\n                yourBox.nfts[i].isValued\r\n            );\r\n        }\r\n        yourBox.isOpen = true;\r\n        return nfts;\r\n    }\r\n\r\n    function checkBoxesIds() public view returns (Box[] memory) {\r\n        require(ownedBoxes[msg.sender].length > 0, \"you do not own any boxes\");\r\n        return ownedBoxes[msg.sender];\r\n    }\r\n\r\n    function rngNFT(uint256 size) private view returns (uint256) {\r\n        if (size == 0) {\r\n            size = 1;\r\n        }\r\n        return\r\n            uint256(keccak256(abi.encodePacked(block.timestamp, msg.sender))) %\r\n            size;\r\n    }\r\n\r\n    function rngRarity() private view returns (uint256) {\r\n        return\r\n            uint256(keccak256(abi.encodePacked(block.timestamp, msg.sender))) %\r\n            100;\r\n    }\r\n\r\n    function getOwnedInstance() public view returns (uint256) {\r\n        return ownedNFTInstance.getSize(false);\r\n    }\r\n}\r\n",
  "sourcePath": "C:\\Users\\Bryan\\Desktop\\Year 3\\Sem 2\\IS4302\\final proj\\contracts\\MysteryBox.sol",
  "compiler": {
    "name": "solc",
    "version": "0.8.13+commit.abaa5c0e.Emscripten.clang"
  },
  "schemaVersion": "3.4.4",
  "updatedAt": "2022-03-26T15:26:30.148Z",
  "networkType": "ethereum",
  "devdoc": {
    "kind": "dev",
    "methods": {},
    "version": 1
  },
  "userdoc": {
    "kind": "user",
    "methods": {},
    "version": 1
  }
}