{
  "contractName": "MysteryNFT",
  "abi": [
    {
      "inputs": [],
      "stateMutability": "nonpayable",
      "type": "constructor"
    },
    {
      "anonymous": false,
      "inputs": [
        {
          "indexed": true,
          "internalType": "address",
          "name": "owner",
          "type": "address"
        },
        {
          "indexed": true,
          "internalType": "address",
          "name": "approved",
          "type": "address"
        },
        {
          "indexed": true,
          "internalType": "uint256",
          "name": "tokenId",
          "type": "uint256"
        }
      ],
      "name": "Approval",
      "type": "event"
    },
    {
      "anonymous": false,
      "inputs": [
        {
          "indexed": true,
          "internalType": "address",
          "name": "owner",
          "type": "address"
        },
        {
          "indexed": true,
          "internalType": "address",
          "name": "operator",
          "type": "address"
        },
        {
          "indexed": false,
          "internalType": "bool",
          "name": "approved",
          "type": "bool"
        }
      ],
      "name": "ApprovalForAll",
      "type": "event"
    },
    {
      "anonymous": false,
      "inputs": [
        {
          "indexed": true,
          "internalType": "address",
          "name": "from",
          "type": "address"
        },
        {
          "indexed": true,
          "internalType": "address",
          "name": "to",
          "type": "address"
        },
        {
          "indexed": true,
          "internalType": "uint256",
          "name": "tokenId",
          "type": "uint256"
        }
      ],
      "name": "Transfer",
      "type": "event"
    },
    {
      "inputs": [
        {
          "internalType": "address",
          "name": "to",
          "type": "address"
        },
        {
          "internalType": "uint256",
          "name": "tokenId",
          "type": "uint256"
        }
      ],
      "name": "approve",
      "outputs": [],
      "stateMutability": "nonpayable",
      "type": "function"
    },
    {
      "inputs": [
        {
          "internalType": "address",
          "name": "owner",
          "type": "address"
        }
      ],
      "name": "balanceOf",
      "outputs": [
        {
          "internalType": "uint256",
          "name": "",
          "type": "uint256"
        }
      ],
      "stateMutability": "view",
      "type": "function"
    },
    {
      "inputs": [
        {
          "internalType": "uint256",
          "name": "tokenId",
          "type": "uint256"
        }
      ],
      "name": "getApproved",
      "outputs": [
        {
          "internalType": "address",
          "name": "",
          "type": "address"
        }
      ],
      "stateMutability": "view",
      "type": "function"
    },
    {
      "inputs": [
        {
          "internalType": "address",
          "name": "owner",
          "type": "address"
        },
        {
          "internalType": "address",
          "name": "operator",
          "type": "address"
        }
      ],
      "name": "isApprovedForAll",
      "outputs": [
        {
          "internalType": "bool",
          "name": "",
          "type": "bool"
        }
      ],
      "stateMutability": "view",
      "type": "function"
    },
    {
      "inputs": [],
      "name": "name",
      "outputs": [
        {
          "internalType": "string",
          "name": "",
          "type": "string"
        }
      ],
      "stateMutability": "view",
      "type": "function"
    },
    {
      "inputs": [
        {
          "internalType": "uint256",
          "name": "tokenId",
          "type": "uint256"
        }
      ],
      "name": "ownerOf",
      "outputs": [
        {
          "internalType": "address",
          "name": "",
          "type": "address"
        }
      ],
      "stateMutability": "view",
      "type": "function"
    },
    {
      "inputs": [
        {
          "internalType": "address",
          "name": "from",
          "type": "address"
        },
        {
          "internalType": "address",
          "name": "to",
          "type": "address"
        },
        {
          "internalType": "uint256",
          "name": "tokenId",
          "type": "uint256"
        }
      ],
      "name": "safeTransferFrom",
      "outputs": [],
      "stateMutability": "nonpayable",
      "type": "function"
    },
    {
      "inputs": [
        {
          "internalType": "address",
          "name": "from",
          "type": "address"
        },
        {
          "internalType": "address",
          "name": "to",
          "type": "address"
        },
        {
          "internalType": "uint256",
          "name": "tokenId",
          "type": "uint256"
        },
        {
          "internalType": "bytes",
          "name": "_data",
          "type": "bytes"
        }
      ],
      "name": "safeTransferFrom",
      "outputs": [],
      "stateMutability": "nonpayable",
      "type": "function"
    },
    {
      "inputs": [
        {
          "internalType": "address",
          "name": "operator",
          "type": "address"
        },
        {
          "internalType": "bool",
          "name": "approved",
          "type": "bool"
        }
      ],
      "name": "setApprovalForAll",
      "outputs": [],
      "stateMutability": "nonpayable",
      "type": "function"
    },
    {
      "inputs": [
        {
          "internalType": "bytes4",
          "name": "interfaceId",
          "type": "bytes4"
        }
      ],
      "name": "supportsInterface",
      "outputs": [
        {
          "internalType": "bool",
          "name": "",
          "type": "bool"
        }
      ],
      "stateMutability": "view",
      "type": "function"
    },
    {
      "inputs": [],
      "name": "symbol",
      "outputs": [
        {
          "internalType": "string",
          "name": "",
          "type": "string"
        }
      ],
      "stateMutability": "view",
      "type": "function"
    },
    {
      "inputs": [
        {
          "internalType": "uint256",
          "name": "index",
          "type": "uint256"
        }
      ],
      "name": "tokenByIndex",
      "outputs": [
        {
          "internalType": "uint256",
          "name": "",
          "type": "uint256"
        }
      ],
      "stateMutability": "view",
      "type": "function"
    },
    {
      "inputs": [
        {
          "internalType": "address",
          "name": "owner",
          "type": "address"
        },
        {
          "internalType": "uint256",
          "name": "index",
          "type": "uint256"
        }
      ],
      "name": "tokenOfOwnerByIndex",
      "outputs": [
        {
          "internalType": "uint256",
          "name": "",
          "type": "uint256"
        }
      ],
      "stateMutability": "view",
      "type": "function"
    },
    {
      "inputs": [
        {
          "internalType": "uint256",
          "name": "tokenId",
          "type": "uint256"
        }
      ],
      "name": "tokenURI",
      "outputs": [
        {
          "internalType": "string",
          "name": "",
          "type": "string"
        }
      ],
      "stateMutability": "view",
      "type": "function"
    },
    {
      "inputs": [
        {
          "internalType": "uint256",
          "name": "",
          "type": "uint256"
        }
      ],
      "name": "tokens",
      "outputs": [
        {
          "internalType": "uint256",
          "name": "",
          "type": "uint256"
        }
      ],
      "stateMutability": "view",
      "type": "function"
    },
    {
      "inputs": [],
      "name": "totalSupply",
      "outputs": [
        {
          "internalType": "uint256",
          "name": "",
          "type": "uint256"
        }
      ],
      "stateMutability": "view",
      "type": "function"
    },
    {
      "inputs": [
        {
          "internalType": "address",
          "name": "from",
          "type": "address"
        },
        {
          "internalType": "address",
          "name": "to",
          "type": "address"
        },
        {
          "internalType": "uint256",
          "name": "tokenId",
          "type": "uint256"
        }
      ],
      "name": "transferFrom",
      "outputs": [],
      "stateMutability": "nonpayable",
      "type": "function"
    },
    {
      "inputs": [
        {
          "internalType": "uint8",
          "name": "rarity",
          "type": "uint8"
        },
        {
          "internalType": "address[]",
          "name": "addresses",
          "type": "address[]"
        }
      ],
      "name": "mint",
      "outputs": [],
      "stateMutability": "nonpayable",
      "type": "function"
    },
    {
      "inputs": [
        {
          "internalType": "uint256",
          "name": "id",
          "type": "uint256"
        }
      ],
      "name": "getRarity",
      "outputs": [
        {
          "internalType": "uint8",
          "name": "",
          "type": "uint8"
        }
      ],
      "stateMutability": "view",
      "type": "function"
    },
    {
      "inputs": [
        {
          "internalType": "uint256",
          "name": "id",
          "type": "uint256"
        }
      ],
      "name": "getContents",
      "outputs": [
        {
          "internalType": "address[]",
          "name": "",
          "type": "address[]"
        }
      ],
      "stateMutability": "view",
      "type": "function"
    }
  ],
  "bytecode": "0x60806040523480156200001157600080fd5b506040518060400160405280600a81526020017f4d7973746572794e4654000000000000000000000000000000000000000000008152506040518060400160405280600781526020017f4d5953544e465400000000000000000000000000000000000000000000000000815250816000908051906020019062000096929190620000c0565b508060019080519060200190620000af929190620000c0565b5050506000600b81905550620001d4565b828054620000ce906200019f565b90600052602060002090601f016020900481019282620000f257600085556200013e565b82601f106200010d57805160ff19168380011785556200013e565b828001600101855582156200013e579182015b828111156200013d57825182559160200191906001019062000120565b5b5090506200014d919062000151565b5090565b5b808211156200016c57600081600090555060010162000152565b5090565b7f4e487b7100000000000000000000000000000000000000000000000000000000600052602260045260246000fd5b60006002820490506001821680620001b857607f821691505b602082108103620001ce57620001cd62000170565b5b50919050565b6133fc80620001e46000396000f3fe608060405234801561001057600080fd5b506004361061012c5760003560e01c80634f64b2be116100ad578063a22cb46511610071578063a22cb4651461038f578063b88d4fde146103ab578063c87b56dd146103c7578063cca68d87146103f7578063e985e9c5146104135761012c565b80634f64b2be146102b15780634f6ccce7146102e15780636352211e1461031157806370a082311461034157806395d89b41146103715761012c565b806323b872dd116100f457806323b872dd146101e95780632f745c591461020557806335074fc51461023557806342842e0e1461026557806348758697146102815761012c565b806301ffc9a71461013157806306fdde0314610161578063081812fc1461017f578063095ea7b3146101af57806318160ddd146101cb575b600080fd5b61014b60048036038101906101469190611fc7565b610443565b604051610158919061200f565b60405180910390f35b6101696104bd565b60405161017691906120c3565b60405180910390f35b6101996004803603810190610194919061211b565b61054f565b6040516101a69190612189565b60405180910390f35b6101c960048036038101906101c491906121d0565b6105d4565b005b6101d36106eb565b6040516101e0919061221f565b60405180910390f35b61020360048036038101906101fe919061223a565b6106f8565b005b61021f600480360381019061021a91906121d0565b610758565b60405161022c919061221f565b60405180910390f35b61024f600480360381019061024a919061211b565b6107fd565b60405161025c919061234b565b60405180910390f35b61027f600480360381019061027a919061223a565b6108ae565b005b61029b6004803603810190610296919061211b565b6108ce565b6040516102a89190612389565b60405180910390f35b6102cb60048036038101906102c6919061211b565b610908565b6040516102d8919061221f565b60405180910390f35b6102fb60048036038101906102f6919061211b565b61092c565b604051610308919061221f565b60405180910390f35b61032b6004803603810190610326919061211b565b61099d565b6040516103389190612189565b60405180910390f35b61035b600480360381019061035691906123a4565b610a4e565b604051610368919061221f565b60405180910390f35b610379610b05565b60405161038691906120c3565b60405180910390f35b6103a960048036038101906103a491906123fd565b610b97565b005b6103c560048036038101906103c09190612572565b610bad565b005b6103e160048036038101906103dc919061211b565b610c0f565b6040516103ee91906120c3565b60405180910390f35b610411600480360381019061040c91906126e9565b610cb6565b005b61042d60048036038101906104289190612745565b610d7f565b60405161043a919061200f565b60405180910390f35b60007f780e9d63000000000000000000000000000000000000000000000000000000007bffffffffffffffffffffffffffffffffffffffffffffffffffffffff1916827bffffffffffffffffffffffffffffffffffffffffffffffffffffffff191614806104b657506104b582610e13565b5b9050919050565b6060600080546104cc906127b4565b80601f01602080910402602001604051908101604052809291908181526020018280546104f8906127b4565b80156105455780601f1061051a57610100808354040283529160200191610545565b820191906000526020600020905b81548152906001019060200180831161052857829003601f168201915b5050505050905090565b600061055a82610ef5565b610599576040517f08c379a000000000000000000000000000000000000000000000000000000000815260040161059090612857565b60405180910390fd5b6004600083815260200190815260200160002060009054906101000a900473ffffffffffffffffffffffffffffffffffffffff169050919050565b60006105df8261099d565b90508073ffffffffffffffffffffffffffffffffffffffff168373ffffffffffffffffffffffffffffffffffffffff160361064f576040517f08c379a0000000000000000000000000000000000000000000000000000000008152600401610646906128e9565b60405180910390fd5b8073ffffffffffffffffffffffffffffffffffffffff1661066e610f61565b73ffffffffffffffffffffffffffffffffffffffff16148061069d575061069c81610697610f61565b610d7f565b5b6106dc576040517f08c379a00000000000000000000000000000000000000000000000000000000081526004016106d39061297b565b60405180910390fd5b6106e68383610f69565b505050565b6000600880549050905090565b610709610703610f61565b82611022565b610748576040517f08c379a000000000000000000000000000000000000000000000000000000000815260040161073f90612a0d565b60405180910390fd5b610753838383611100565b505050565b600061076383610a4e565b82106107a4576040517f08c379a000000000000000000000000000000000000000000000000000000000815260040161079b90612a9f565b60405180910390fd5b600660008473ffffffffffffffffffffffffffffffffffffffff1673ffffffffffffffffffffffffffffffffffffffff168152602001908152602001600020600083815260200190815260200160002054905092915050565b606081600b548110156108a857600c60008481526020019081526020016000206001018054806020026020016040519081016040528092919081815260200182805480156108a057602002820191906000526020600020905b8160009054906101000a900473ffffffffffffffffffffffffffffffffffffffff1673ffffffffffffffffffffffffffffffffffffffff1681526020019060010190808311610856575b505050505091505b50919050565b6108c983838360405180602001604052806000815250610bad565b505050565b600081600b5481101561090257600c600084815260200190815260200160002060000160009054906101000a900460ff1691505b50919050565b600a818154811061091857600080fd5b906000526020600020016000915090505481565b60006109366106eb565b8210610977576040517f08c379a000000000000000000000000000000000000000000000000000000000815260040161096e90612b31565b60405180910390fd5b6008828154811061098b5761098a612b51565b5b90600052602060002001549050919050565b6000806002600084815260200190815260200160002060009054906101000a900473ffffffffffffffffffffffffffffffffffffffff169050600073ffffffffffffffffffffffffffffffffffffffff168173ffffffffffffffffffffffffffffffffffffffff1603610a45576040517f08c379a0000000000000000000000000000000000000000000000000000000008152600401610a3c90612bf2565b60405180910390fd5b80915050919050565b60008073ffffffffffffffffffffffffffffffffffffffff168273ffffffffffffffffffffffffffffffffffffffff1603610abe576040517f08c379a0000000000000000000000000000000000000000000000000000000008152600401610ab590612c84565b60405180910390fd5b600360008373ffffffffffffffffffffffffffffffffffffffff1673ffffffffffffffffffffffffffffffffffffffff168152602001908152602001600020549050919050565b606060018054610b14906127b4565b80601f0160208091040260200160405190810160405280929190818152602001828054610b40906127b4565b8015610b8d5780601f10610b6257610100808354040283529160200191610b8d565b820191906000526020600020905b815481529060010190602001808311610b7057829003601f168201915b5050505050905090565b610ba9610ba2610f61565b8383611366565b5050565b610bbe610bb8610f61565b83611022565b610bfd576040517f08c379a0000000000000000000000000000000000000000000000000000000008152600401610bf490612a0d565b60405180910390fd5b610c09848484846114d2565b50505050565b6060610c1a82610ef5565b610c59576040517f08c379a0000000000000000000000000000000000000000000000000000000008152600401610c5090612d16565b60405180910390fd5b6000610c6361152e565b90506000815111610c835760405180602001604052806000815250610cae565b80610c8d84611545565b604051602001610c9e929190612d72565b6040516020818303038152906040525b915050919050565b600a600b549080600181540180825580915050600190039060005260206000200160009091909190915055600060405180604001604052808460ff16815260200183815250905080600c6000600b54815260200190815260200160002060008201518160000160006101000a81548160ff021916908360ff1602179055506020820151816001019080519060200190610d50929190611eb4565b50905050610d6033600b546116a5565b6001600b6000828254610d739190612dc5565b92505081905550505050565b6000600560008473ffffffffffffffffffffffffffffffffffffffff1673ffffffffffffffffffffffffffffffffffffffff16815260200190815260200160002060008373ffffffffffffffffffffffffffffffffffffffff1673ffffffffffffffffffffffffffffffffffffffff16815260200190815260200160002060009054906101000a900460ff16905092915050565b60007f80ac58cd000000000000000000000000000000000000000000000000000000007bffffffffffffffffffffffffffffffffffffffffffffffffffffffff1916827bffffffffffffffffffffffffffffffffffffffffffffffffffffffff19161480610ede57507f5b5e139f000000000000000000000000000000000000000000000000000000007bffffffffffffffffffffffffffffffffffffffffffffffffffffffff1916827bffffffffffffffffffffffffffffffffffffffffffffffffffffffff1916145b80610eee5750610eed8261187e565b5b9050919050565b60008073ffffffffffffffffffffffffffffffffffffffff166002600084815260200190815260200160002060009054906101000a900473ffffffffffffffffffffffffffffffffffffffff1673ffffffffffffffffffffffffffffffffffffffff1614159050919050565b600033905090565b816004600083815260200190815260200160002060006101000a81548173ffffffffffffffffffffffffffffffffffffffff021916908373ffffffffffffffffffffffffffffffffffffffff160217905550808273ffffffffffffffffffffffffffffffffffffffff16610fdc8361099d565b73ffffffffffffffffffffffffffffffffffffffff167f8c5be1e5ebec7d5bd14f71427d1e84f3dd0314c0f7b2291e5b200ac8c7c3b92560405160405180910390a45050565b600061102d82610ef5565b61106c576040517f08c379a000000000000000000000000000000000000000000000000000000000815260040161106390612e8d565b60405180910390fd5b60006110778361099d565b90508073ffffffffffffffffffffffffffffffffffffffff168473ffffffffffffffffffffffffffffffffffffffff1614806110e657508373ffffffffffffffffffffffffffffffffffffffff166110ce8461054f565b73ffffffffffffffffffffffffffffffffffffffff16145b806110f757506110f68185610d7f565b5b91505092915050565b8273ffffffffffffffffffffffffffffffffffffffff166111208261099d565b73ffffffffffffffffffffffffffffffffffffffff1614611176576040517f08c379a000000000000000000000000000000000000000000000000000000000815260040161116d90612f1f565b60405180910390fd5b600073ffffffffffffffffffffffffffffffffffffffff168273ffffffffffffffffffffffffffffffffffffffff16036111e5576040517f08c379a00000000000000000000000000000000000000000000000000000000081526004016111dc90612fb1565b60405180910390fd5b6111f08383836118e8565b6111fb600082610f69565b6001600360008573ffffffffffffffffffffffffffffffffffffffff1673ffffffffffffffffffffffffffffffffffffffff168152602001908152602001600020600082825461124b9190612fd1565b925050819055506001600360008473ffffffffffffffffffffffffffffffffffffffff1673ffffffffffffffffffffffffffffffffffffffff16815260200190815260200160002060008282546112a29190612dc5565b92505081905550816002600083815260200190815260200160002060006101000a81548173ffffffffffffffffffffffffffffffffffffffff021916908373ffffffffffffffffffffffffffffffffffffffff160217905550808273ffffffffffffffffffffffffffffffffffffffff168473ffffffffffffffffffffffffffffffffffffffff167fddf252ad1be2c89b69c2b068fc378daa952ba7f163c4a11628f55a4df523b3ef60405160405180910390a46113618383836119fa565b505050565b8173ffffffffffffffffffffffffffffffffffffffff168373ffffffffffffffffffffffffffffffffffffffff16036113d4576040517f08c379a00000000000000000000000000000000000000000000000000000000081526004016113cb90613051565b60405180910390fd5b80600560008573ffffffffffffffffffffffffffffffffffffffff1673ffffffffffffffffffffffffffffffffffffffff16815260200190815260200160002060008473ffffffffffffffffffffffffffffffffffffffff1673ffffffffffffffffffffffffffffffffffffffff16815260200190815260200160002060006101000a81548160ff0219169083151502179055508173ffffffffffffffffffffffffffffffffffffffff168373ffffffffffffffffffffffffffffffffffffffff167f17307eab39ab6107e8899845ad3d59bd9653f200f220920489ca2b5937696c31836040516114c5919061200f565b60405180910390a3505050565b6114dd848484611100565b6114e9848484846119ff565b611528576040517f08c379a000000000000000000000000000000000000000000000000000000000815260040161151f906130e3565b60405180910390fd5b50505050565b606060405180602001604052806000815250905090565b60606000820361158c576040518060400160405280600181526020017f300000000000000000000000000000000000000000000000000000000000000081525090506116a0565b600082905060005b600082146115be5780806115a790613103565b915050600a826115b7919061317a565b9150611594565b60008167ffffffffffffffff8111156115da576115d9612447565b5b6040519080825280601f01601f19166020018201604052801561160c5781602001600182028036833780820191505090505b5090505b60008514611699576001826116259190612fd1565b9150600a8561163491906131ab565b60306116409190612dc5565b60f81b81838151811061165657611655612b51565b5b60200101907effffffffffffffffffffffffffffffffffffffffffffffffffffffffffffff1916908160001a905350600a85611692919061317a565b9450611610565b8093505050505b919050565b600073ffffffffffffffffffffffffffffffffffffffff168273ffffffffffffffffffffffffffffffffffffffff1603611714576040517f08c379a000000000000000000000000000000000000000000000000000000000815260040161170b90613228565b60405180910390fd5b61171d81610ef5565b1561175d576040517f08c379a000000000000000000000000000000000000000000000000000000000815260040161175490613294565b60405180910390fd5b611769600083836118e8565b6001600360008473ffffffffffffffffffffffffffffffffffffffff1673ffffffffffffffffffffffffffffffffffffffff16815260200190815260200160002060008282546117b99190612dc5565b92505081905550816002600083815260200190815260200160002060006101000a81548173ffffffffffffffffffffffffffffffffffffffff021916908373ffffffffffffffffffffffffffffffffffffffff160217905550808273ffffffffffffffffffffffffffffffffffffffff16600073ffffffffffffffffffffffffffffffffffffffff167fddf252ad1be2c89b69c2b068fc378daa952ba7f163c4a11628f55a4df523b3ef60405160405180910390a461187a600083836119fa565b5050565b60007f01ffc9a7000000000000000000000000000000000000000000000000000000007bffffffffffffffffffffffffffffffffffffffffffffffffffffffff1916827bffffffffffffffffffffffffffffffffffffffffffffffffffffffff1916149050919050565b6118f3838383611b86565b600073ffffffffffffffffffffffffffffffffffffffff168373ffffffffffffffffffffffffffffffffffffffff16036119355761193081611b8b565b611974565b8173ffffffffffffffffffffffffffffffffffffffff168373ffffffffffffffffffffffffffffffffffffffff1614611973576119728382611bd4565b5b5b600073ffffffffffffffffffffffffffffffffffffffff168273ffffffffffffffffffffffffffffffffffffffff16036119b6576119b181611d41565b6119f5565b8273ffffffffffffffffffffffffffffffffffffffff168273ffffffffffffffffffffffffffffffffffffffff16146119f4576119f38282611e12565b5b5b505050565b505050565b6000611a208473ffffffffffffffffffffffffffffffffffffffff16611e91565b15611b79578373ffffffffffffffffffffffffffffffffffffffff1663150b7a02611a49610f61565b8786866040518563ffffffff1660e01b8152600401611a6b9493929190613309565b6020604051808303816000875af1925050508015611aa757506040513d601f19601f82011682018060405250810190611aa4919061336a565b60015b611b29573d8060008114611ad7576040519150601f19603f3d011682016040523d82523d6000602084013e611adc565b606091505b506000815103611b21576040517f08c379a0000000000000000000000000000000000000000000000000000000008152600401611b18906130e3565b60405180910390fd5b805181602001fd5b63150b7a0260e01b7bffffffffffffffffffffffffffffffffffffffffffffffffffffffff1916817bffffffffffffffffffffffffffffffffffffffffffffffffffffffff191614915050611b7e565b600190505b949350505050565b505050565b6008805490506009600083815260200190815260200160002081905550600881908060018154018082558091505060019003906000526020600020016000909190919091505550565b60006001611be184610a4e565b611beb9190612fd1565b9050600060076000848152602001908152602001600020549050818114611cd0576000600660008673ffffffffffffffffffffffffffffffffffffffff1673ffffffffffffffffffffffffffffffffffffffff168152602001908152602001600020600084815260200190815260200160002054905080600660008773ffffffffffffffffffffffffffffffffffffffff1673ffffffffffffffffffffffffffffffffffffffff168152602001908152602001600020600084815260200190815260200160002081905550816007600083815260200190815260200160002081905550505b6007600084815260200190815260200160002060009055600660008573ffffffffffffffffffffffffffffffffffffffff1673ffffffffffffffffffffffffffffffffffffffff16815260200190815260200160002060008381526020019081526020016000206000905550505050565b60006001600880549050611d559190612fd1565b9050600060096000848152602001908152602001600020549050600060088381548110611d8557611d84612b51565b5b906000526020600020015490508060088381548110611da757611da6612b51565b5b906000526020600020018190555081600960008381526020019081526020016000208190555060096000858152602001908152602001600020600090556008805480611df657611df5613397565b5b6001900381819060005260206000200160009055905550505050565b6000611e1d83610a4e565b905081600660008573ffffffffffffffffffffffffffffffffffffffff1673ffffffffffffffffffffffffffffffffffffffff168152602001908152602001600020600083815260200190815260200160002081905550806007600084815260200190815260200160002081905550505050565b6000808273ffffffffffffffffffffffffffffffffffffffff163b119050919050565b828054828255906000526020600020908101928215611f2d579160200282015b82811115611f2c5782518260006101000a81548173ffffffffffffffffffffffffffffffffffffffff021916908373ffffffffffffffffffffffffffffffffffffffff16021790555091602001919060010190611ed4565b5b509050611f3a9190611f3e565b5090565b5b80821115611f57576000816000905550600101611f3f565b5090565b6000604051905090565b600080fd5b600080fd5b60007fffffffff0000000000000000000000000000000000000000000000000000000082169050919050565b611fa481611f6f565b8114611faf57600080fd5b50565b600081359050611fc181611f9b565b92915050565b600060208284031215611fdd57611fdc611f65565b5b6000611feb84828501611fb2565b91505092915050565b60008115159050919050565b61200981611ff4565b82525050565b60006020820190506120246000830184612000565b92915050565b600081519050919050565b600082825260208201905092915050565b60005b83811015612064578082015181840152602081019050612049565b83811115612073576000848401525b50505050565b6000601f19601f8301169050919050565b60006120958261202a565b61209f8185612035565b93506120af818560208601612046565b6120b881612079565b840191505092915050565b600060208201905081810360008301526120dd818461208a565b905092915050565b6000819050919050565b6120f8816120e5565b811461210357600080fd5b50565b600081359050612115816120ef565b92915050565b60006020828403121561213157612130611f65565b5b600061213f84828501612106565b91505092915050565b600073ffffffffffffffffffffffffffffffffffffffff82169050919050565b600061217382612148565b9050919050565b61218381612168565b82525050565b600060208201905061219e600083018461217a565b92915050565b6121ad81612168565b81146121b857600080fd5b50565b6000813590506121ca816121a4565b92915050565b600080604083850312156121e7576121e6611f65565b5b60006121f5858286016121bb565b925050602061220685828601612106565b9150509250929050565b612219816120e5565b82525050565b60006020820190506122346000830184612210565b92915050565b60008060006060848603121561225357612252611f65565b5b6000612261868287016121bb565b9350506020612272868287016121bb565b925050604061228386828701612106565b9150509250925092565b600081519050919050565b600082825260208201905092915050565b6000819050602082019050919050565b6122c281612168565b82525050565b60006122d483836122b9565b60208301905092915050565b6000602082019050919050565b60006122f88261228d565b6123028185612298565b935061230d836122a9565b8060005b8381101561233e57815161232588826122c8565b9750612330836122e0565b925050600181019050612311565b5085935050505092915050565b6000602082019050818103600083015261236581846122ed565b905092915050565b600060ff82169050919050565b6123838161236d565b82525050565b600060208201905061239e600083018461237a565b92915050565b6000602082840312156123ba576123b9611f65565b5b60006123c8848285016121bb565b91505092915050565b6123da81611ff4565b81146123e557600080fd5b50565b6000813590506123f7816123d1565b92915050565b6000806040838503121561241457612413611f65565b5b6000612422858286016121bb565b9250506020612433858286016123e8565b9150509250929050565b600080fd5b600080fd5b7f4e487b7100000000000000000000000000000000000000000000000000000000600052604160045260246000fd5b61247f82612079565b810181811067ffffffffffffffff8211171561249e5761249d612447565b5b80604052505050565b60006124b1611f5b565b90506124bd8282612476565b919050565b600067ffffffffffffffff8211156124dd576124dc612447565b5b6124e682612079565b9050602081019050919050565b82818337600083830152505050565b6000612515612510846124c2565b6124a7565b90508281526020810184848401111561253157612530612442565b5b61253c8482856124f3565b509392505050565b600082601f8301126125595761255861243d565b5b8135612569848260208601612502565b91505092915050565b6000806000806080858703121561258c5761258b611f65565b5b600061259a878288016121bb565b94505060206125ab878288016121bb565b93505060406125bc87828801612106565b925050606085013567ffffffffffffffff8111156125dd576125dc611f6a565b5b6125e987828801612544565b91505092959194509250565b6125fe8161236d565b811461260957600080fd5b50565b60008135905061261b816125f5565b92915050565b600067ffffffffffffffff82111561263c5761263b612447565b5b602082029050602081019050919050565b600080fd5b600061266561266084612621565b6124a7565b905080838252602082019050602084028301858111156126885761268761264d565b5b835b818110156126b1578061269d88826121bb565b84526020840193505060208101905061268a565b5050509392505050565b600082601f8301126126d0576126cf61243d565b5b81356126e0848260208601612652565b91505092915050565b60008060408385031215612700576126ff611f65565b5b600061270e8582860161260c565b925050602083013567ffffffffffffffff81111561272f5761272e611f6a565b5b61273b858286016126bb565b9150509250929050565b6000806040838503121561275c5761275b611f65565b5b600061276a858286016121bb565b925050602061277b858286016121bb565b9150509250929050565b7f4e487b7100000000000000000000000000000000000000000000000000000000600052602260045260246000fd5b600060028204905060018216806127cc57607f821691505b6020821081036127df576127de612785565b5b50919050565b7f4552433732313a20617070726f76656420717565727920666f72206e6f6e657860008201527f697374656e7420746f6b656e0000000000000000000000000000000000000000602082015250565b6000612841602c83612035565b915061284c826127e5565b604082019050919050565b6000602082019050818103600083015261287081612834565b9050919050565b7f4552433732313a20617070726f76616c20746f2063757272656e74206f776e6560008201527f7200000000000000000000000000000000000000000000000000000000000000602082015250565b60006128d3602183612035565b91506128de82612877565b604082019050919050565b60006020820190508181036000830152612902816128c6565b9050919050565b7f4552433732313a20617070726f76652063616c6c6572206973206e6f74206f7760008201527f6e6572206e6f7220617070726f76656420666f7220616c6c0000000000000000602082015250565b6000612965603883612035565b915061297082612909565b604082019050919050565b6000602082019050818103600083015261299481612958565b9050919050565b7f4552433732313a207472616e736665722063616c6c6572206973206e6f74206f60008201527f776e6572206e6f7220617070726f766564000000000000000000000000000000602082015250565b60006129f7603183612035565b9150612a028261299b565b604082019050919050565b60006020820190508181036000830152612a26816129ea565b9050919050565b7f455243373231456e756d657261626c653a206f776e657220696e646578206f7560008201527f74206f6620626f756e6473000000000000000000000000000000000000000000602082015250565b6000612a89602b83612035565b9150612a9482612a2d565b604082019050919050565b60006020820190508181036000830152612ab881612a7c565b9050919050565b7f455243373231456e756d657261626c653a20676c6f62616c20696e646578206f60008201527f7574206f6620626f756e64730000000000000000000000000000000000000000602082015250565b6000612b1b602c83612035565b9150612b2682612abf565b604082019050919050565b60006020820190508181036000830152612b4a81612b0e565b9050919050565b7f4e487b7100000000000000000000000000000000000000000000000000000000600052603260045260246000fd5b7f4552433732313a206f776e657220717565727920666f72206e6f6e657869737460008201527f656e7420746f6b656e0000000000000000000000000000000000000000000000602082015250565b6000612bdc602983612035565b9150612be782612b80565b604082019050919050565b60006020820190508181036000830152612c0b81612bcf565b9050919050565b7f4552433732313a2062616c616e636520717565727920666f7220746865207a6560008201527f726f206164647265737300000000000000000000000000000000000000000000602082015250565b6000612c6e602a83612035565b9150612c7982612c12565b604082019050919050565b60006020820190508181036000830152612c9d81612c61565b9050919050565b7f4552433732314d657461646174613a2055524920717565727920666f72206e6f60008201527f6e6578697374656e7420746f6b656e0000000000000000000000000000000000602082015250565b6000612d00602f83612035565b9150612d0b82612ca4565b604082019050919050565b60006020820190508181036000830152612d2f81612cf3565b9050919050565b600081905092915050565b6000612d4c8261202a565b612d568185612d36565b9350612d66818560208601612046565b80840191505092915050565b6000612d7e8285612d41565b9150612d8a8284612d41565b91508190509392505050565b7f4e487b7100000000000000000000000000000000000000000000000000000000600052601160045260246000fd5b6000612dd0826120e5565b9150612ddb836120e5565b9250827fffffffffffffffffffffffffffffffffffffffffffffffffffffffffffffffff03821115612e1057612e0f612d96565b5b828201905092915050565b7f4552433732313a206f70657261746f7220717565727920666f72206e6f6e657860008201527f697374656e7420746f6b656e0000000000000000000000000000000000000000602082015250565b6000612e77602c83612035565b9150612e8282612e1b565b604082019050919050565b60006020820190508181036000830152612ea681612e6a565b9050919050565b7f4552433732313a207472616e736665722066726f6d20696e636f72726563742060008201527f6f776e6572000000000000000000000000000000000000000000000000000000602082015250565b6000612f09602583612035565b9150612f1482612ead565b604082019050919050565b60006020820190508181036000830152612f3881612efc565b9050919050565b7f4552433732313a207472616e7366657220746f20746865207a65726f2061646460008201527f7265737300000000000000000000000000000000000000000000000000000000602082015250565b6000612f9b602483612035565b9150612fa682612f3f565b604082019050919050565b60006020820190508181036000830152612fca81612f8e565b9050919050565b6000612fdc826120e5565b9150612fe7836120e5565b925082821015612ffa57612ff9612d96565b5b828203905092915050565b7f4552433732313a20617070726f766520746f2063616c6c657200000000000000600082015250565b600061303b601983612035565b915061304682613005565b602082019050919050565b6000602082019050818103600083015261306a8161302e565b9050919050565b7f4552433732313a207472616e7366657220746f206e6f6e20455243373231526560008201527f63656976657220696d706c656d656e7465720000000000000000000000000000602082015250565b60006130cd603283612035565b91506130d882613071565b604082019050919050565b600060208201905081810360008301526130fc816130c0565b9050919050565b600061310e826120e5565b91507fffffffffffffffffffffffffffffffffffffffffffffffffffffffffffffffff82036131405761313f612d96565b5b600182019050919050565b7f4e487b7100000000000000000000000000000000000000000000000000000000600052601260045260246000fd5b6000613185826120e5565b9150613190836120e5565b9250826131a05761319f61314b565b5b828204905092915050565b60006131b6826120e5565b91506131c1836120e5565b9250826131d1576131d061314b565b5b828206905092915050565b7f4552433732313a206d696e7420746f20746865207a65726f2061646472657373600082015250565b6000613212602083612035565b915061321d826131dc565b602082019050919050565b6000602082019050818103600083015261324181613205565b9050919050565b7f4552433732313a20746f6b656e20616c7265616479206d696e74656400000000600082015250565b600061327e601c83612035565b915061328982613248565b602082019050919050565b600060208201905081810360008301526132ad81613271565b9050919050565b600081519050919050565b600082825260208201905092915050565b60006132db826132b4565b6132e581856132bf565b93506132f5818560208601612046565b6132fe81612079565b840191505092915050565b600060808201905061331e600083018761217a565b61332b602083018661217a565b6133386040830185612210565b818103606083015261334a81846132d0565b905095945050505050565b60008151905061336481611f9b565b92915050565b6000602082840312156133805761337f611f65565b5b600061338e84828501613355565b91505092915050565b7f4e487b7100000000000000000000000000000000000000000000000000000000600052603160045260246000fdfea264697066735822122054c1a26f5629555fbb782760ad279682c8e2c8321be0a7828c15cb791ef08a8964736f6c634300080d0033",
  "immutableReferences": {},
  "source": "// SPDX-License-Identifier: MIT\r\npragma solidity >=0.4.20;\r\n\r\n\r\nimport \"@openzeppelin/contracts/token/ERC721/extensions/ERC721Enumerable.sol\";\r\n\r\ncontract MysteryNFT is ERC721Enumerable{\r\n    uint256[] public tokens;\r\n    uint256 tokenId;\r\n    mapping(uint256 => MystNFT) metadata; \r\n\r\n    constructor() ERC721(\"MysteryNFT\", \"MYSTNFT\"){\r\n        tokenId=0;\r\n    }\r\n\r\n    struct MystNFT{\r\n        uint8 rarity;\r\n        address[] contents;\r\n    }\r\n\r\n\r\n    function mint(uint8 rarity, address[] memory addresses) public {\r\n        tokens.push(tokenId);\r\n        MystNFT memory data = MystNFT(rarity, addresses);\r\n        metadata[tokenId] = data;\r\n        _mint(msg.sender, tokenId);\r\n        tokenId+=1;\r\n    }\r\n\r\n    modifier numberExists(uint256 id){\r\n        if (id<tokenId){\r\n            _;\r\n        }\r\n    }\r\n\r\n    function getRarity(uint256 id) public view numberExists(id) returns (uint8){\r\n        return metadata[id].rarity;\r\n    }\r\n\r\n    function getContents(uint256 id) public view numberExists(id) returns (address[] memory){\r\n        return metadata[id].contents;\r\n    }\r\n}",
  "sourcePath": "C:\\Users\\viole\\mysterio\\contracts\\MysteryNFT.sol",
  "compiler": {
    "name": "solc",
    "version": "0.8.13+commit.abaa5c0e.Emscripten.clang"
  },
  "schemaVersion": "3.4.4",
  "updatedAt": "2022-04-03T09:22:13.082Z",
  "devdoc": {
    "kind": "dev",
    "methods": {
      "approve(address,uint256)": {
        "details": "See {IERC721-approve}."
      },
      "balanceOf(address)": {
        "details": "See {IERC721-balanceOf}."
      },
      "getApproved(uint256)": {
        "details": "See {IERC721-getApproved}."
      },
      "isApprovedForAll(address,address)": {
        "details": "See {IERC721-isApprovedForAll}."
      },
      "name()": {
        "details": "See {IERC721Metadata-name}."
      },
      "ownerOf(uint256)": {
        "details": "See {IERC721-ownerOf}."
      },
      "safeTransferFrom(address,address,uint256)": {
        "details": "See {IERC721-safeTransferFrom}."
      },
      "safeTransferFrom(address,address,uint256,bytes)": {
        "details": "See {IERC721-safeTransferFrom}."
      },
      "setApprovalForAll(address,bool)": {
        "details": "See {IERC721-setApprovalForAll}."
      },
      "supportsInterface(bytes4)": {
        "details": "See {IERC165-supportsInterface}."
      },
      "symbol()": {
        "details": "See {IERC721Metadata-symbol}."
      },
      "tokenByIndex(uint256)": {
        "details": "See {IERC721Enumerable-tokenByIndex}."
      },
      "tokenOfOwnerByIndex(address,uint256)": {
        "details": "See {IERC721Enumerable-tokenOfOwnerByIndex}."
      },
      "tokenURI(uint256)": {
        "details": "See {IERC721Metadata-tokenURI}."
      },
      "totalSupply()": {
        "details": "See {IERC721Enumerable-totalSupply}."
      },
      "transferFrom(address,address,uint256)": {
        "details": "See {IERC721-transferFrom}."
      }
    },
    "version": 1
  },
  "userdoc": {
    "kind": "user",
    "methods": {},
    "version": 1
  }
}