{
  "contractName": "MysteryNFT",
  "abi": [
    {
      "inputs": [],
      "stateMutability": "nonpayable",
      "type": "constructor"
    },
    {
      "anonymous": false,
      "inputs": [
        {
          "indexed": true,
          "internalType": "address",
          "name": "owner",
          "type": "address"
        },
        {
          "indexed": true,
          "internalType": "address",
          "name": "approved",
          "type": "address"
        },
        {
          "indexed": true,
          "internalType": "uint256",
          "name": "tokenId",
          "type": "uint256"
        }
      ],
      "name": "Approval",
      "type": "event"
    },
    {
      "anonymous": false,
      "inputs": [
        {
          "indexed": true,
          "internalType": "address",
          "name": "owner",
          "type": "address"
        },
        {
          "indexed": true,
          "internalType": "address",
          "name": "operator",
          "type": "address"
        },
        {
          "indexed": false,
          "internalType": "bool",
          "name": "approved",
          "type": "bool"
        }
      ],
      "name": "ApprovalForAll",
      "type": "event"
    },
    {
      "anonymous": false,
      "inputs": [
        {
          "indexed": true,
          "internalType": "address",
          "name": "from",
          "type": "address"
        },
        {
          "indexed": true,
          "internalType": "address",
          "name": "to",
          "type": "address"
        },
        {
          "indexed": true,
          "internalType": "uint256",
          "name": "tokenId",
          "type": "uint256"
        }
      ],
      "name": "Transfer",
      "type": "event"
    },
    {
      "inputs": [
        {
          "internalType": "address",
          "name": "to",
          "type": "address"
        },
        {
          "internalType": "uint256",
          "name": "tokenId",
          "type": "uint256"
        }
      ],
      "name": "approve",
      "outputs": [],
      "stateMutability": "nonpayable",
      "type": "function"
    },
    {
      "inputs": [
        {
          "internalType": "address",
          "name": "owner",
          "type": "address"
        }
      ],
      "name": "balanceOf",
      "outputs": [
        {
          "internalType": "uint256",
          "name": "",
          "type": "uint256"
        }
      ],
      "stateMutability": "view",
      "type": "function"
    },
    {
      "inputs": [
        {
          "internalType": "uint256",
          "name": "tokenId",
          "type": "uint256"
        }
      ],
      "name": "getApproved",
      "outputs": [
        {
          "internalType": "address",
          "name": "",
          "type": "address"
        }
      ],
      "stateMutability": "view",
      "type": "function"
    },
    {
      "inputs": [
        {
          "internalType": "address",
          "name": "owner",
          "type": "address"
        },
        {
          "internalType": "address",
          "name": "operator",
          "type": "address"
        }
      ],
      "name": "isApprovedForAll",
      "outputs": [
        {
          "internalType": "bool",
          "name": "",
          "type": "bool"
        }
      ],
      "stateMutability": "view",
      "type": "function"
    },
    {
      "inputs": [],
      "name": "name",
      "outputs": [
        {
          "internalType": "string",
          "name": "",
          "type": "string"
        }
      ],
      "stateMutability": "view",
      "type": "function"
    },
    {
      "inputs": [
        {
          "internalType": "uint256",
          "name": "tokenId",
          "type": "uint256"
        }
      ],
      "name": "ownerOf",
      "outputs": [
        {
          "internalType": "address",
          "name": "",
          "type": "address"
        }
      ],
      "stateMutability": "view",
      "type": "function"
    },
    {
      "inputs": [
        {
          "internalType": "address",
          "name": "from",
          "type": "address"
        },
        {
          "internalType": "address",
          "name": "to",
          "type": "address"
        },
        {
          "internalType": "uint256",
          "name": "tokenId",
          "type": "uint256"
        }
      ],
      "name": "safeTransferFrom",
      "outputs": [],
      "stateMutability": "nonpayable",
      "type": "function"
    },
    {
      "inputs": [
        {
          "internalType": "address",
          "name": "from",
          "type": "address"
        },
        {
          "internalType": "address",
          "name": "to",
          "type": "address"
        },
        {
          "internalType": "uint256",
          "name": "tokenId",
          "type": "uint256"
        },
        {
          "internalType": "bytes",
          "name": "_data",
          "type": "bytes"
        }
      ],
      "name": "safeTransferFrom",
      "outputs": [],
      "stateMutability": "nonpayable",
      "type": "function"
    },
    {
      "inputs": [
        {
          "internalType": "address",
          "name": "operator",
          "type": "address"
        },
        {
          "internalType": "bool",
          "name": "approved",
          "type": "bool"
        }
      ],
      "name": "setApprovalForAll",
      "outputs": [],
      "stateMutability": "nonpayable",
      "type": "function"
    },
    {
      "inputs": [
        {
          "internalType": "bytes4",
          "name": "interfaceId",
          "type": "bytes4"
        }
      ],
      "name": "supportsInterface",
      "outputs": [
        {
          "internalType": "bool",
          "name": "",
          "type": "bool"
        }
      ],
      "stateMutability": "view",
      "type": "function"
    },
    {
      "inputs": [],
      "name": "symbol",
      "outputs": [
        {
          "internalType": "string",
          "name": "",
          "type": "string"
        }
      ],
      "stateMutability": "view",
      "type": "function"
    },
    {
      "inputs": [
        {
          "internalType": "uint256",
          "name": "index",
          "type": "uint256"
        }
      ],
      "name": "tokenByIndex",
      "outputs": [
        {
          "internalType": "uint256",
          "name": "",
          "type": "uint256"
        }
      ],
      "stateMutability": "view",
      "type": "function"
    },
    {
      "inputs": [
        {
          "internalType": "uint256",
          "name": "",
          "type": "uint256"
        }
      ],
      "name": "tokenId",
      "outputs": [
        {
          "internalType": "uint256",
          "name": "",
          "type": "uint256"
        }
      ],
      "stateMutability": "view",
      "type": "function"
    },
    {
      "inputs": [
        {
          "internalType": "address",
          "name": "owner",
          "type": "address"
        },
        {
          "internalType": "uint256",
          "name": "index",
          "type": "uint256"
        }
      ],
      "name": "tokenOfOwnerByIndex",
      "outputs": [
        {
          "internalType": "uint256",
          "name": "",
          "type": "uint256"
        }
      ],
      "stateMutability": "view",
      "type": "function"
    },
    {
      "inputs": [
        {
          "internalType": "uint256",
          "name": "tokenId",
          "type": "uint256"
        }
      ],
      "name": "tokenURI",
      "outputs": [
        {
          "internalType": "string",
          "name": "",
          "type": "string"
        }
      ],
      "stateMutability": "view",
      "type": "function"
    },
    {
      "inputs": [],
      "name": "totalSupply",
      "outputs": [
        {
          "internalType": "uint256",
          "name": "",
          "type": "uint256"
        }
      ],
      "stateMutability": "view",
      "type": "function"
    },
    {
      "inputs": [
        {
          "internalType": "address",
          "name": "from",
          "type": "address"
        },
        {
          "internalType": "address",
          "name": "to",
          "type": "address"
        },
        {
          "internalType": "uint256",
          "name": "tokenId",
          "type": "uint256"
        }
      ],
      "name": "transferFrom",
      "outputs": [],
      "stateMutability": "nonpayable",
      "type": "function"
    },
    {
      "inputs": [
        {
          "internalType": "uint256",
          "name": "num",
          "type": "uint256"
        }
      ],
      "name": "mint",
      "outputs": [],
      "stateMutability": "nonpayable",
      "type": "function"
    },
    {
      "inputs": [
        {
          "internalType": "uint8",
          "name": "rarity",
          "type": "uint8"
        },
        {
          "internalType": "string[]",
          "name": "words",
          "type": "string[]"
        }
      ],
      "name": "generateId",
      "outputs": [
        {
          "internalType": "bytes",
          "name": "",
          "type": "bytes"
        }
      ],
      "stateMutability": "pure",
      "type": "function"
    }
  ],
  "bytecode": "0x60806040523480156200001157600080fd5b506040518060400160405280600a81526020017f4d7973746572794e4654000000000000000000000000000000000000000000008152506040518060400160405280600781526020017f4d5953544e465400000000000000000000000000000000000000000000000000815250816000908051906020019062000096929190620000b8565b508060019080519060200190620000af929190620000b8565b505050620001cc565b828054620000c69062000197565b90600052602060002090601f016020900481019282620000ea576000855562000136565b82601f106200010557805160ff191683800117855562000136565b8280016001018555821562000136579182015b828111156200013557825182559160200191906001019062000118565b5b50905062000145919062000149565b5090565b5b80821115620001645760008160009055506001016200014a565b5090565b7f4e487b7100000000000000000000000000000000000000000000000000000000600052602260045260246000fd5b60006002820490506001821680620001b057607f821691505b602082108103620001c657620001c562000168565b5b50919050565b61328d80620001dc6000396000f3fe608060405234801561001057600080fd5b50600436106101215760003560e01c80636352211e116100ad578063a22cb46511610071578063a22cb46514610340578063b88d4fde1461035c578063c87b56dd14610378578063e985e9c5146103a8578063fb5b29b2146103d857610121565b80636352211e1461027657806370a08231146102a65780637dcb0e5f146102d657806395d89b4114610306578063a0712d681461032457610121565b806318160ddd116100f457806318160ddd146101c057806323b872dd146101de5780632f745c59146101fa57806342842e0e1461022a5780634f6ccce71461024657610121565b806301ffc9a71461012657806306fdde0314610156578063081812fc14610174578063095ea7b3146101a4575b600080fd5b610140600480360381019061013b9190611e5a565b610408565b60405161014d9190611ea2565b60405180910390f35b61015e610482565b60405161016b9190611f56565b60405180910390f35b61018e60048036038101906101899190611fae565b610514565b60405161019b919061201c565b60405180910390f35b6101be60048036038101906101b99190612063565b610599565b005b6101c86106b0565b6040516101d591906120b2565b60405180910390f35b6101f860048036038101906101f391906120cd565b6106bd565b005b610214600480360381019061020f9190612063565b61071d565b60405161022191906120b2565b60405180910390f35b610244600480360381019061023f91906120cd565b6107c2565b005b610260600480360381019061025b9190611fae565b6107e2565b60405161026d91906120b2565b60405180910390f35b610290600480360381019061028b9190611fae565b610853565b60405161029d919061201c565b60405180910390f35b6102c060048036038101906102bb9190612120565b610904565b6040516102cd91906120b2565b60405180910390f35b6102f060048036038101906102eb9190611fae565b6109bb565b6040516102fd91906120b2565b60405180910390f35b61030e6109df565b60405161031b9190611f56565b60405180910390f35b61033e60048036038101906103399190611fae565b610a71565b005b61035a60048036038101906103559190612179565b610afe565b005b610376600480360381019061037191906122ee565b610b14565b005b610392600480360381019061038d9190611fae565b610b76565b60405161039f9190611f56565b60405180910390f35b6103c260048036038101906103bd9190612371565b610c1d565b6040516103cf9190611ea2565b60405180910390f35b6103f260048036038101906103ed919061244a565b610cb1565b6040516103ff91906124ff565b60405180910390f35b60007f780e9d63000000000000000000000000000000000000000000000000000000007bffffffffffffffffffffffffffffffffffffffffffffffffffffffff1916827bffffffffffffffffffffffffffffffffffffffffffffffffffffffff1916148061047b575061047a82610d4d565b5b9050919050565b60606000805461049190612550565b80601f01602080910402602001604051908101604052809291908181526020018280546104bd90612550565b801561050a5780601f106104df5761010080835404028352916020019161050a565b820191906000526020600020905b8154815290600101906020018083116104ed57829003601f168201915b5050505050905090565b600061051f82610e2f565b61055e576040517f08c379a0000000000000000000000000000000000000000000000000000000008152600401610555906125f3565b60405180910390fd5b6004600083815260200190815260200160002060009054906101000a900473ffffffffffffffffffffffffffffffffffffffff169050919050565b60006105a482610853565b90508073ffffffffffffffffffffffffffffffffffffffff168373ffffffffffffffffffffffffffffffffffffffff1603610614576040517f08c379a000000000000000000000000000000000000000000000000000000000815260040161060b90612685565b60405180910390fd5b8073ffffffffffffffffffffffffffffffffffffffff16610633610e9b565b73ffffffffffffffffffffffffffffffffffffffff16148061066257506106618161065c610e9b565b610c1d565b5b6106a1576040517f08c379a000000000000000000000000000000000000000000000000000000000815260040161069890612717565b60405180910390fd5b6106ab8383610ea3565b505050565b6000600880549050905090565b6106ce6106c8610e9b565b82610f5c565b61070d576040517f08c379a0000000000000000000000000000000000000000000000000000000008152600401610704906127a9565b60405180910390fd5b61071883838361103a565b505050565b600061072883610904565b8210610769576040517f08c379a00000000000000000000000000000000000000000000000000000000081526004016107609061283b565b60405180910390fd5b600660008473ffffffffffffffffffffffffffffffffffffffff1673ffffffffffffffffffffffffffffffffffffffff168152602001908152602001600020600083815260200190815260200160002054905092915050565b6107dd83838360405180602001604052806000815250610b14565b505050565b60006107ec6106b0565b821061082d576040517f08c379a0000000000000000000000000000000000000000000000000000000008152600401610824906128cd565b60405180910390fd5b60088281548110610841576108406128ed565b5b90600052602060002001549050919050565b6000806002600084815260200190815260200160002060009054906101000a900473ffffffffffffffffffffffffffffffffffffffff169050600073ffffffffffffffffffffffffffffffffffffffff168173ffffffffffffffffffffffffffffffffffffffff16036108fb576040517f08c379a00000000000000000000000000000000000000000000000000000000081526004016108f29061298e565b60405180910390fd5b80915050919050565b60008073ffffffffffffffffffffffffffffffffffffffff168273ffffffffffffffffffffffffffffffffffffffff1603610974576040517f08c379a000000000000000000000000000000000000000000000000000000000815260040161096b90612a20565b60405180910390fd5b600360008373ffffffffffffffffffffffffffffffffffffffff1673ffffffffffffffffffffffffffffffffffffffff168152602001908152602001600020549050919050565b600a81815481106109cb57600080fd5b906000526020600020016000915090505481565b6060600180546109ee90612550565b80601f0160208091040260200160405190810160405280929190818152602001828054610a1a90612550565b8015610a675780601f10610a3c57610100808354040283529160200191610a67565b820191906000526020600020905b815481529060010190602001808311610a4a57829003601f168201915b5050505050905090565b600b600082815260200190815260200160002060009054906101000a900460ff1615610a9c57600080fd5b600a8190806001815401808255809150506001900390600052602060002001600090919091909150556001600b600083815260200190815260200160002060006101000a81548160ff021916908315150217905550610afb33826112a0565b50565b610b10610b09610e9b565b8383611479565b5050565b610b25610b1f610e9b565b83610f5c565b610b64576040517f08c379a0000000000000000000000000000000000000000000000000000000008152600401610b5b906127a9565b60405180910390fd5b610b70848484846115e5565b50505050565b6060610b8182610e2f565b610bc0576040517f08c379a0000000000000000000000000000000000000000000000000000000008152600401610bb790612ab2565b60405180910390fd5b6000610bca611641565b90506000815111610bea5760405180602001604052806000815250610c15565b80610bf484611658565b604051602001610c05929190612b0e565b6040516020818303038152906040525b915050919050565b6000600560008473ffffffffffffffffffffffffffffffffffffffff1673ffffffffffffffffffffffffffffffffffffffff16815260200190815260200160002060008373ffffffffffffffffffffffffffffffffffffffff1673ffffffffffffffffffffffffffffffffffffffff16815260200190815260200160002060009054906101000a900460ff16905092915050565b6060600084604051602001610cc69190612b68565b604051602081830303815290604052905060005b84849050811015610d415781858583818110610cf957610cf86128ed565b5b9050602002810190610d0b9190612b92565b604051602001610d1d93929190612c56565b60405160208183030381529060405291508080610d3990612cab565b915050610cda565b50809150509392505050565b60007f80ac58cd000000000000000000000000000000000000000000000000000000007bffffffffffffffffffffffffffffffffffffffffffffffffffffffff1916827bffffffffffffffffffffffffffffffffffffffffffffffffffffffff19161480610e1857507f5b5e139f000000000000000000000000000000000000000000000000000000007bffffffffffffffffffffffffffffffffffffffffffffffffffffffff1916827bffffffffffffffffffffffffffffffffffffffffffffffffffffffff1916145b80610e285750610e27826117b8565b5b9050919050565b60008073ffffffffffffffffffffffffffffffffffffffff166002600084815260200190815260200160002060009054906101000a900473ffffffffffffffffffffffffffffffffffffffff1673ffffffffffffffffffffffffffffffffffffffff1614159050919050565b600033905090565b816004600083815260200190815260200160002060006101000a81548173ffffffffffffffffffffffffffffffffffffffff021916908373ffffffffffffffffffffffffffffffffffffffff160217905550808273ffffffffffffffffffffffffffffffffffffffff16610f1683610853565b73ffffffffffffffffffffffffffffffffffffffff167f8c5be1e5ebec7d5bd14f71427d1e84f3dd0314c0f7b2291e5b200ac8c7c3b92560405160405180910390a45050565b6000610f6782610e2f565b610fa6576040517f08c379a0000000000000000000000000000000000000000000000000000000008152600401610f9d90612d65565b60405180910390fd5b6000610fb183610853565b90508073ffffffffffffffffffffffffffffffffffffffff168473ffffffffffffffffffffffffffffffffffffffff16148061102057508373ffffffffffffffffffffffffffffffffffffffff1661100884610514565b73ffffffffffffffffffffffffffffffffffffffff16145b8061103157506110308185610c1d565b5b91505092915050565b8273ffffffffffffffffffffffffffffffffffffffff1661105a82610853565b73ffffffffffffffffffffffffffffffffffffffff16146110b0576040517f08c379a00000000000000000000000000000000000000000000000000000000081526004016110a790612df7565b60405180910390fd5b600073ffffffffffffffffffffffffffffffffffffffff168273ffffffffffffffffffffffffffffffffffffffff160361111f576040517f08c379a000000000000000000000000000000000000000000000000000000000815260040161111690612e89565b60405180910390fd5b61112a838383611822565b611135600082610ea3565b6001600360008573ffffffffffffffffffffffffffffffffffffffff1673ffffffffffffffffffffffffffffffffffffffff16815260200190815260200160002060008282546111859190612ea9565b925050819055506001600360008473ffffffffffffffffffffffffffffffffffffffff1673ffffffffffffffffffffffffffffffffffffffff16815260200190815260200160002060008282546111dc9190612edd565b92505081905550816002600083815260200190815260200160002060006101000a81548173ffffffffffffffffffffffffffffffffffffffff021916908373ffffffffffffffffffffffffffffffffffffffff160217905550808273ffffffffffffffffffffffffffffffffffffffff168473ffffffffffffffffffffffffffffffffffffffff167fddf252ad1be2c89b69c2b068fc378daa952ba7f163c4a11628f55a4df523b3ef60405160405180910390a461129b838383611934565b505050565b600073ffffffffffffffffffffffffffffffffffffffff168273ffffffffffffffffffffffffffffffffffffffff160361130f576040517f08c379a000000000000000000000000000000000000000000000000000000000815260040161130690612f7f565b60405180910390fd5b61131881610e2f565b15611358576040517f08c379a000000000000000000000000000000000000000000000000000000000815260040161134f90612feb565b60405180910390fd5b61136460008383611822565b6001600360008473ffffffffffffffffffffffffffffffffffffffff1673ffffffffffffffffffffffffffffffffffffffff16815260200190815260200160002060008282546113b49190612edd565b92505081905550816002600083815260200190815260200160002060006101000a81548173ffffffffffffffffffffffffffffffffffffffff021916908373ffffffffffffffffffffffffffffffffffffffff160217905550808273ffffffffffffffffffffffffffffffffffffffff16600073ffffffffffffffffffffffffffffffffffffffff167fddf252ad1be2c89b69c2b068fc378daa952ba7f163c4a11628f55a4df523b3ef60405160405180910390a461147560008383611934565b5050565b8173ffffffffffffffffffffffffffffffffffffffff168373ffffffffffffffffffffffffffffffffffffffff16036114e7576040517f08c379a00000000000000000000000000000000000000000000000000000000081526004016114de90613057565b60405180910390fd5b80600560008573ffffffffffffffffffffffffffffffffffffffff1673ffffffffffffffffffffffffffffffffffffffff16815260200190815260200160002060008473ffffffffffffffffffffffffffffffffffffffff1673ffffffffffffffffffffffffffffffffffffffff16815260200190815260200160002060006101000a81548160ff0219169083151502179055508173ffffffffffffffffffffffffffffffffffffffff168373ffffffffffffffffffffffffffffffffffffffff167f17307eab39ab6107e8899845ad3d59bd9653f200f220920489ca2b5937696c31836040516115d89190611ea2565b60405180910390a3505050565b6115f084848461103a565b6115fc84848484611939565b61163b576040517f08c379a0000000000000000000000000000000000000000000000000000000008152600401611632906130e9565b60405180910390fd5b50505050565b606060405180602001604052806000815250905090565b60606000820361169f576040518060400160405280600181526020017f300000000000000000000000000000000000000000000000000000000000000081525090506117b3565b600082905060005b600082146116d15780806116ba90612cab565b915050600a826116ca9190613138565b91506116a7565b60008167ffffffffffffffff8111156116ed576116ec6121c3565b5b6040519080825280601f01601f19166020018201604052801561171f5781602001600182028036833780820191505090505b5090505b600085146117ac576001826117389190612ea9565b9150600a856117479190613169565b60306117539190612edd565b60f81b818381518110611769576117686128ed565b5b60200101907effffffffffffffffffffffffffffffffffffffffffffffffffffffffffffff1916908160001a905350600a856117a59190613138565b9450611723565b8093505050505b919050565b60007f01ffc9a7000000000000000000000000000000000000000000000000000000007bffffffffffffffffffffffffffffffffffffffffffffffffffffffff1916827bffffffffffffffffffffffffffffffffffffffffffffffffffffffff1916149050919050565b61182d838383611ac0565b600073ffffffffffffffffffffffffffffffffffffffff168373ffffffffffffffffffffffffffffffffffffffff160361186f5761186a81611ac5565b6118ae565b8173ffffffffffffffffffffffffffffffffffffffff168373ffffffffffffffffffffffffffffffffffffffff16146118ad576118ac8382611b0e565b5b5b600073ffffffffffffffffffffffffffffffffffffffff168273ffffffffffffffffffffffffffffffffffffffff16036118f0576118eb81611c7b565b61192f565b8273ffffffffffffffffffffffffffffffffffffffff168273ffffffffffffffffffffffffffffffffffffffff161461192e5761192d8282611d4c565b5b5b505050565b505050565b600061195a8473ffffffffffffffffffffffffffffffffffffffff16611dcb565b15611ab3578373ffffffffffffffffffffffffffffffffffffffff1663150b7a02611983610e9b565b8786866040518563ffffffff1660e01b81526004016119a5949392919061319a565b6020604051808303816000875af19250505080156119e157506040513d601f19601f820116820180604052508101906119de91906131fb565b60015b611a63573d8060008114611a11576040519150601f19603f3d011682016040523d82523d6000602084013e611a16565b606091505b506000815103611a5b576040517f08c379a0000000000000000000000000000000000000000000000000000000008152600401611a52906130e9565b60405180910390fd5b805181602001fd5b63150b7a0260e01b7bffffffffffffffffffffffffffffffffffffffffffffffffffffffff1916817bffffffffffffffffffffffffffffffffffffffffffffffffffffffff191614915050611ab8565b600190505b949350505050565b505050565b6008805490506009600083815260200190815260200160002081905550600881908060018154018082558091505060019003906000526020600020016000909190919091505550565b60006001611b1b84610904565b611b259190612ea9565b9050600060076000848152602001908152602001600020549050818114611c0a576000600660008673ffffffffffffffffffffffffffffffffffffffff1673ffffffffffffffffffffffffffffffffffffffff168152602001908152602001600020600084815260200190815260200160002054905080600660008773ffffffffffffffffffffffffffffffffffffffff1673ffffffffffffffffffffffffffffffffffffffff168152602001908152602001600020600084815260200190815260200160002081905550816007600083815260200190815260200160002081905550505b6007600084815260200190815260200160002060009055600660008573ffffffffffffffffffffffffffffffffffffffff1673ffffffffffffffffffffffffffffffffffffffff16815260200190815260200160002060008381526020019081526020016000206000905550505050565b60006001600880549050611c8f9190612ea9565b9050600060096000848152602001908152602001600020549050600060088381548110611cbf57611cbe6128ed565b5b906000526020600020015490508060088381548110611ce157611ce06128ed565b5b906000526020600020018190555081600960008381526020019081526020016000208190555060096000858152602001908152602001600020600090556008805480611d3057611d2f613228565b5b6001900381819060005260206000200160009055905550505050565b6000611d5783610904565b905081600660008573ffffffffffffffffffffffffffffffffffffffff1673ffffffffffffffffffffffffffffffffffffffff168152602001908152602001600020600083815260200190815260200160002081905550806007600084815260200190815260200160002081905550505050565b6000808273ffffffffffffffffffffffffffffffffffffffff163b119050919050565b6000604051905090565b600080fd5b600080fd5b60007fffffffff0000000000000000000000000000000000000000000000000000000082169050919050565b611e3781611e02565b8114611e4257600080fd5b50565b600081359050611e5481611e2e565b92915050565b600060208284031215611e7057611e6f611df8565b5b6000611e7e84828501611e45565b91505092915050565b60008115159050919050565b611e9c81611e87565b82525050565b6000602082019050611eb76000830184611e93565b92915050565b600081519050919050565b600082825260208201905092915050565b60005b83811015611ef7578082015181840152602081019050611edc565b83811115611f06576000848401525b50505050565b6000601f19601f8301169050919050565b6000611f2882611ebd565b611f328185611ec8565b9350611f42818560208601611ed9565b611f4b81611f0c565b840191505092915050565b60006020820190508181036000830152611f708184611f1d565b905092915050565b6000819050919050565b611f8b81611f78565b8114611f9657600080fd5b50565b600081359050611fa881611f82565b92915050565b600060208284031215611fc457611fc3611df8565b5b6000611fd284828501611f99565b91505092915050565b600073ffffffffffffffffffffffffffffffffffffffff82169050919050565b600061200682611fdb565b9050919050565b61201681611ffb565b82525050565b6000602082019050612031600083018461200d565b92915050565b61204081611ffb565b811461204b57600080fd5b50565b60008135905061205d81612037565b92915050565b6000806040838503121561207a57612079611df8565b5b60006120888582860161204e565b925050602061209985828601611f99565b9150509250929050565b6120ac81611f78565b82525050565b60006020820190506120c760008301846120a3565b92915050565b6000806000606084860312156120e6576120e5611df8565b5b60006120f48682870161204e565b93505060206121058682870161204e565b925050604061211686828701611f99565b9150509250925092565b60006020828403121561213657612135611df8565b5b60006121448482850161204e565b91505092915050565b61215681611e87565b811461216157600080fd5b50565b6000813590506121738161214d565b92915050565b600080604083850312156121905761218f611df8565b5b600061219e8582860161204e565b92505060206121af85828601612164565b9150509250929050565b600080fd5b600080fd5b7f4e487b7100000000000000000000000000000000000000000000000000000000600052604160045260246000fd5b6121fb82611f0c565b810181811067ffffffffffffffff8211171561221a576122196121c3565b5b80604052505050565b600061222d611dee565b905061223982826121f2565b919050565b600067ffffffffffffffff821115612259576122586121c3565b5b61226282611f0c565b9050602081019050919050565b82818337600083830152505050565b600061229161228c8461223e565b612223565b9050828152602081018484840111156122ad576122ac6121be565b5b6122b884828561226f565b509392505050565b600082601f8301126122d5576122d46121b9565b5b81356122e584826020860161227e565b91505092915050565b6000806000806080858703121561230857612307611df8565b5b60006123168782880161204e565b94505060206123278782880161204e565b935050604061233887828801611f99565b925050606085013567ffffffffffffffff81111561235957612358611dfd565b5b612365878288016122c0565b91505092959194509250565b6000806040838503121561238857612387611df8565b5b60006123968582860161204e565b92505060206123a78582860161204e565b9150509250929050565b600060ff82169050919050565b6123c7816123b1565b81146123d257600080fd5b50565b6000813590506123e4816123be565b92915050565b600080fd5b600080fd5b60008083601f84011261240a576124096121b9565b5b8235905067ffffffffffffffff811115612427576124266123ea565b5b602083019150836020820283011115612443576124426123ef565b5b9250929050565b60008060006040848603121561246357612462611df8565b5b6000612471868287016123d5565b935050602084013567ffffffffffffffff81111561249257612491611dfd565b5b61249e868287016123f4565b92509250509250925092565b600081519050919050565b600082825260208201905092915050565b60006124d1826124aa565b6124db81856124b5565b93506124eb818560208601611ed9565b6124f481611f0c565b840191505092915050565b6000602082019050818103600083015261251981846124c6565b905092915050565b7f4e487b7100000000000000000000000000000000000000000000000000000000600052602260045260246000fd5b6000600282049050600182168061256857607f821691505b60208210810361257b5761257a612521565b5b50919050565b7f4552433732313a20617070726f76656420717565727920666f72206e6f6e657860008201527f697374656e7420746f6b656e0000000000000000000000000000000000000000602082015250565b60006125dd602c83611ec8565b91506125e882612581565b604082019050919050565b6000602082019050818103600083015261260c816125d0565b9050919050565b7f4552433732313a20617070726f76616c20746f2063757272656e74206f776e6560008201527f7200000000000000000000000000000000000000000000000000000000000000602082015250565b600061266f602183611ec8565b915061267a82612613565b604082019050919050565b6000602082019050818103600083015261269e81612662565b9050919050565b7f4552433732313a20617070726f76652063616c6c6572206973206e6f74206f7760008201527f6e6572206e6f7220617070726f76656420666f7220616c6c0000000000000000602082015250565b6000612701603883611ec8565b915061270c826126a5565b604082019050919050565b60006020820190508181036000830152612730816126f4565b9050919050565b7f4552433732313a207472616e736665722063616c6c6572206973206e6f74206f60008201527f776e6572206e6f7220617070726f766564000000000000000000000000000000602082015250565b6000612793603183611ec8565b915061279e82612737565b604082019050919050565b600060208201905081810360008301526127c281612786565b9050919050565b7f455243373231456e756d657261626c653a206f776e657220696e646578206f7560008201527f74206f6620626f756e6473000000000000000000000000000000000000000000602082015250565b6000612825602b83611ec8565b9150612830826127c9565b604082019050919050565b6000602082019050818103600083015261285481612818565b9050919050565b7f455243373231456e756d657261626c653a20676c6f62616c20696e646578206f60008201527f7574206f6620626f756e64730000000000000000000000000000000000000000602082015250565b60006128b7602c83611ec8565b91506128c28261285b565b604082019050919050565b600060208201905081810360008301526128e6816128aa565b9050919050565b7f4e487b7100000000000000000000000000000000000000000000000000000000600052603260045260246000fd5b7f4552433732313a206f776e657220717565727920666f72206e6f6e657869737460008201527f656e7420746f6b656e0000000000000000000000000000000000000000000000602082015250565b6000612978602983611ec8565b91506129838261291c565b604082019050919050565b600060208201905081810360008301526129a78161296b565b9050919050565b7f4552433732313a2062616c616e636520717565727920666f7220746865207a6560008201527f726f206164647265737300000000000000000000000000000000000000000000602082015250565b6000612a0a602a83611ec8565b9150612a15826129ae565b604082019050919050565b60006020820190508181036000830152612a39816129fd565b9050919050565b7f4552433732314d657461646174613a2055524920717565727920666f72206e6f60008201527f6e6578697374656e7420746f6b656e0000000000000000000000000000000000602082015250565b6000612a9c602f83611ec8565b9150612aa782612a40565b604082019050919050565b60006020820190508181036000830152612acb81612a8f565b9050919050565b600081905092915050565b6000612ae882611ebd565b612af28185612ad2565b9350612b02818560208601611ed9565b80840191505092915050565b6000612b1a8285612add565b9150612b268284612add565b91508190509392505050565b60008160f81b9050919050565b6000612b4a82612b32565b9050919050565b612b62612b5d826123b1565b612b3f565b82525050565b6000612b748284612b51565b60018201915081905092915050565b600080fd5b600080fd5b600080fd5b60008083356001602003843603038112612baf57612bae612b83565b5b80840192508235915067ffffffffffffffff821115612bd157612bd0612b88565b5b602083019250600182023603831315612bed57612bec612b8d565b5b509250929050565b600081905092915050565b6000612c0b826124aa565b612c158185612bf5565b9350612c25818560208601611ed9565b80840191505092915050565b6000612c3d8385612ad2565b9350612c4a83858461226f565b82840190509392505050565b6000612c628286612c00565b9150612c6f828486612c31565b9150819050949350505050565b7f4e487b7100000000000000000000000000000000000000000000000000000000600052601160045260246000fd5b6000612cb682611f78565b91507fffffffffffffffffffffffffffffffffffffffffffffffffffffffffffffffff8203612ce857612ce7612c7c565b5b600182019050919050565b7f4552433732313a206f70657261746f7220717565727920666f72206e6f6e657860008201527f697374656e7420746f6b656e0000000000000000000000000000000000000000602082015250565b6000612d4f602c83611ec8565b9150612d5a82612cf3565b604082019050919050565b60006020820190508181036000830152612d7e81612d42565b9050919050565b7f4552433732313a207472616e736665722066726f6d20696e636f72726563742060008201527f6f776e6572000000000000000000000000000000000000000000000000000000602082015250565b6000612de1602583611ec8565b9150612dec82612d85565b604082019050919050565b60006020820190508181036000830152612e1081612dd4565b9050919050565b7f4552433732313a207472616e7366657220746f20746865207a65726f2061646460008201527f7265737300000000000000000000000000000000000000000000000000000000602082015250565b6000612e73602483611ec8565b9150612e7e82612e17565b604082019050919050565b60006020820190508181036000830152612ea281612e66565b9050919050565b6000612eb482611f78565b9150612ebf83611f78565b925082821015612ed257612ed1612c7c565b5b828203905092915050565b6000612ee882611f78565b9150612ef383611f78565b9250827fffffffffffffffffffffffffffffffffffffffffffffffffffffffffffffffff03821115612f2857612f27612c7c565b5b828201905092915050565b7f4552433732313a206d696e7420746f20746865207a65726f2061646472657373600082015250565b6000612f69602083611ec8565b9150612f7482612f33565b602082019050919050565b60006020820190508181036000830152612f9881612f5c565b9050919050565b7f4552433732313a20746f6b656e20616c7265616479206d696e74656400000000600082015250565b6000612fd5601c83611ec8565b9150612fe082612f9f565b602082019050919050565b6000602082019050818103600083015261300481612fc8565b9050919050565b7f4552433732313a20617070726f766520746f2063616c6c657200000000000000600082015250565b6000613041601983611ec8565b915061304c8261300b565b602082019050919050565b6000602082019050818103600083015261307081613034565b9050919050565b7f4552433732313a207472616e7366657220746f206e6f6e20455243373231526560008201527f63656976657220696d706c656d656e7465720000000000000000000000000000602082015250565b60006130d3603283611ec8565b91506130de82613077565b604082019050919050565b60006020820190508181036000830152613102816130c6565b9050919050565b7f4e487b7100000000000000000000000000000000000000000000000000000000600052601260045260246000fd5b600061314382611f78565b915061314e83611f78565b92508261315e5761315d613109565b5b828204905092915050565b600061317482611f78565b915061317f83611f78565b92508261318f5761318e613109565b5b828206905092915050565b60006080820190506131af600083018761200d565b6131bc602083018661200d565b6131c960408301856120a3565b81810360608301526131db81846124c6565b905095945050505050565b6000815190506131f581611e2e565b92915050565b60006020828403121561321157613210611df8565b5b600061321f848285016131e6565b91505092915050565b7f4e487b7100000000000000000000000000000000000000000000000000000000600052603160045260246000fdfea2646970667358221220fc84d1e8b60927756372048f7e9cb2096656a0fbaabc9650d5ba9d328014ba6164736f6c634300080d0033",
  "immutableReferences": {},
  "source": "// SPDX-License-Identifier: MIT\r\npragma solidity >=0.4.20;\r\n\r\n\r\nimport \"@openzeppelin/contracts/token/ERC721/extensions/ERC721Enumerable.sol\";\r\n\r\ncontract MysteryNFT is ERC721Enumerable{\r\n    // bytes32[] public tokens;\r\n    // mapping(bytes32 => bool) exists;\r\n    uint256[] public tokenId; \r\n    mapping(uint256 => bool) exists;\r\n\r\n    constructor() ERC721(\"MysteryNFT\", \"MYSTNFT\"){\r\n    }\r\n\r\n    //params: maybe generate hash for token based on inputs and rarity?\r\n    function mint(uint256 num) public{\r\n        // bytes32 joined = bytes32(this.generateId(rarity, inputs));\r\n        // bytes32 id = keccak256(joined);\r\n        // tokens.push(joined);\r\n        // exists[joined] = true;\r\n        // _mint(msg.sender, uint256(joined));\r\n        require(!exists[num]);\r\n        tokenId.push(num);\r\n        exists[num]=true;\r\n        _mint(msg.sender, num);\r\n    }\r\n\r\n    function generateId(uint8 rarity, string[] calldata words) external pure returns (bytes memory) {\r\n        bytes memory output = abi.encodePacked(rarity);\r\n        for (uint256 i = 0; i < words.length; i++) {\r\n            output = abi.encodePacked(output, words[i]);\r\n        }\r\n        return output;\r\n    }\r\n}",
  "sourcePath": "C:\\Users\\jiaju\\Desktop\\Projects\\React Projects\\myster\\contracts\\MysteryNFT.sol",
  "compiler": {
    "name": "solc",
    "version": "0.8.13+commit.abaa5c0e.Emscripten.clang"
  },
  "schemaVersion": "3.4.4",
  "updatedAt": "2022-03-25T09:32:36.224Z",
  "devdoc": {
    "kind": "dev",
    "methods": {
      "approve(address,uint256)": {
        "details": "See {IERC721-approve}."
      },
      "balanceOf(address)": {
        "details": "See {IERC721-balanceOf}."
      },
      "getApproved(uint256)": {
        "details": "See {IERC721-getApproved}."
      },
      "isApprovedForAll(address,address)": {
        "details": "See {IERC721-isApprovedForAll}."
      },
      "name()": {
        "details": "See {IERC721Metadata-name}."
      },
      "ownerOf(uint256)": {
        "details": "See {IERC721-ownerOf}."
      },
      "safeTransferFrom(address,address,uint256)": {
        "details": "See {IERC721-safeTransferFrom}."
      },
      "safeTransferFrom(address,address,uint256,bytes)": {
        "details": "See {IERC721-safeTransferFrom}."
      },
      "setApprovalForAll(address,bool)": {
        "details": "See {IERC721-setApprovalForAll}."
      },
      "supportsInterface(bytes4)": {
        "details": "See {IERC165-supportsInterface}."
      },
      "symbol()": {
        "details": "See {IERC721Metadata-symbol}."
      },
      "tokenByIndex(uint256)": {
        "details": "See {IERC721Enumerable-tokenByIndex}."
      },
      "tokenOfOwnerByIndex(address,uint256)": {
        "details": "See {IERC721Enumerable-tokenOfOwnerByIndex}."
      },
      "tokenURI(uint256)": {
        "details": "See {IERC721Metadata-tokenURI}."
      },
      "totalSupply()": {
        "details": "See {IERC721Enumerable-totalSupply}."
      },
      "transferFrom(address,address,uint256)": {
        "details": "See {IERC721-transferFrom}."
      }
    },
    "version": 1
  },
  "userdoc": {
    "kind": "user",
    "methods": {},
    "version": 1
  }
}