{
  "contractName": "MysteryBox",
  "abi": [
    {
      "inputs": [
        {
          "internalType": "contract OwnedNFTs",
          "name": "ownedNFT",
          "type": "address"
        }
      ],
      "stateMutability": "nonpayable",
      "type": "constructor"
    },
    {
      "anonymous": false,
      "inputs": [
        {
          "indexed": false,
          "internalType": "uint256",
          "name": "boxId",
          "type": "uint256"
        },
        {
          "indexed": false,
          "internalType": "enum MysteryBox.tierPrices",
          "name": "tier",
          "type": "uint8"
        }
      ],
      "name": "boxMade",
      "type": "event"
    },
    {
      "anonymous": false,
      "inputs": [
        {
          "indexed": false,
          "internalType": "address",
          "name": "purchaser",
          "type": "address"
        }
      ],
      "name": "boxOpen",
      "type": "event"
    },
    {
      "anonymous": false,
      "inputs": [
        {
          "indexed": false,
          "internalType": "address",
          "name": "purchaser",
          "type": "address"
        }
      ],
      "name": "transferMade",
      "type": "event"
    },
    {
      "inputs": [
        {
          "internalType": "enum MysteryBox.tierPrices",
          "name": "tier",
          "type": "uint8"
        },
        {
          "internalType": "address",
          "name": "purchaser",
          "type": "address"
        }
      ],
      "name": "transfer",
      "outputs": [],
      "stateMutability": "payable",
      "type": "function",
      "payable": true
    },
    {
      "inputs": [
        {
          "internalType": "uint256",
          "name": "boxID",
          "type": "uint256"
        }
      ],
      "name": "openBox",
      "outputs": [
        {
          "internalType": "contract ERC721[]",
          "name": "",
          "type": "address[]"
        }
      ],
      "stateMutability": "nonpayable",
      "type": "function"
    },
    {
      "inputs": [],
      "name": "checkBoxesIds",
      "outputs": [
        {
          "components": [
            {
              "internalType": "uint256",
              "name": "id",
              "type": "uint256"
            },
            {
              "internalType": "address",
              "name": "purchaser",
              "type": "address"
            },
            {
              "components": [
                {
                  "internalType": "address",
                  "name": "parentContract",
                  "type": "address"
                },
                {
                  "internalType": "uint256",
                  "name": "price",
                  "type": "uint256"
                },
                {
                  "internalType": "uint256",
                  "name": "tokenId",
                  "type": "uint256"
                }
              ],
              "internalType": "struct MysteryBox.nft[]",
              "name": "nfts",
              "type": "tuple[]"
            },
            {
              "internalType": "enum MysteryBox.tierPrices",
              "name": "tier",
              "type": "uint8"
            },
            {
              "internalType": "bool",
              "name": "isOpen",
              "type": "bool"
            },
            {
              "internalType": "uint256[]",
              "name": "nftIds",
              "type": "uint256[]"
            }
          ],
          "internalType": "struct MysteryBox.Box[]",
          "name": "",
          "type": "tuple[]"
        }
      ],
      "stateMutability": "view",
      "type": "function",
      "constant": true
    }
  ],
  "bytecode": "0x60806040523480156200001157600080fd5b5060405162002d4a38038062002d4a8339818101604052810190620000379190620000fc565b806000806101000a81548173ffffffffffffffffffffffffffffffffffffffff021916908373ffffffffffffffffffffffffffffffffffffffff160217905550506200012e565b600080fd5b600073ffffffffffffffffffffffffffffffffffffffff82169050919050565b6000620000b08262000083565b9050919050565b6000620000c482620000a3565b9050919050565b620000d681620000b7565b8114620000e257600080fd5b50565b600081519050620000f681620000cb565b92915050565b6000602082840312156200011557620001146200007e565b5b60006200012584828501620000e5565b91505092915050565b612c0c806200013e6000396000f3fe6080604052600436106100345760003560e01c80631138ce641461003957806327b3753414610064578063b1e5e2b714610080575b600080fd5b34801561004557600080fd5b5061004e6100bd565b60405161005b9190612148565b60405180910390f35b61007e600480360381019061007991906121c0565b6103b5565b005b34801561008c57600080fd5b506100a760048036038101906100a2919061222c565b610bb1565b6040516100b49190612367565b60405180910390f35b60606000600360003373ffffffffffffffffffffffffffffffffffffffff1673ffffffffffffffffffffffffffffffffffffffff1681526020019081526020016000208054905011610144576040517f08c379a000000000000000000000000000000000000000000000000000000000815260040161013b906123e6565b60405180910390fd5b600360003373ffffffffffffffffffffffffffffffffffffffff1673ffffffffffffffffffffffffffffffffffffffff168152602001908152602001600020805480602002602001604051908101604052809291908181526020016000905b828210156103ac57838290600052602060002090600502016040518060c0016040529081600082015481526020016001820160009054906101000a900473ffffffffffffffffffffffffffffffffffffffff1673ffffffffffffffffffffffffffffffffffffffff1673ffffffffffffffffffffffffffffffffffffffff16815260200160028201805480602002602001604051908101604052809291908181526020016000905b828210156102e757838290600052602060002090600302016040518060600160405290816000820160009054906101000a900473ffffffffffffffffffffffffffffffffffffffff1673ffffffffffffffffffffffffffffffffffffffff1673ffffffffffffffffffffffffffffffffffffffff168152602001600182015481526020016002820154815250508152602001906001019061024b565b5050505081526020016003820160009054906101000a900460ff16600281111561031457610313611ee1565b5b600281111561032657610325611ee1565b5b81526020016003820160019054906101000a900460ff161515151581526020016004820180548060200260200160405190810160405280929190818152602001828054801561039457602002820191906000526020600020905b815481526020019060010190808311610380575b505050505081525050815260200190600101906101a3565b50505050905090565b6040516020016103c49061245d565b60405160208183030381529060405280519060200120826040516020016103eb91906124a8565b6040516020818303038152906040528051906020012003610679576706f05b59d3b20000341015610451576040517f08c379a000000000000000000000000000000000000000000000000000000000815260040161044890612535565b60405180910390fd5b600061045d83836110bc565b90506000600360003373ffffffffffffffffffffffffffffffffffffffff1673ffffffffffffffffffffffffffffffffffffffff1681526020019081526020016000209050600081805490509050600460008481526020019081526020016000208282815481106104d1576104d0612555565b5b9060005260206000209060050201600082015481600001556001820160009054906101000a900473ffffffffffffffffffffffffffffffffffffffff168160010160006101000a81548173ffffffffffffffffffffffffffffffffffffffff021916908373ffffffffffffffffffffffffffffffffffffffff1602179055506002820181600201908054610566929190611881565b506003820160009054906101000a900460ff168160030160006101000a81548160ff0219169083600281111561059f5761059e611ee1565b5b02179055506003820160019054906101000a900460ff168160030160016101000a81548160ff02191690831515021790555060048201816004019080546105e7929190611954565b5090505081600360003373ffffffffffffffffffffffffffffffffffffffff1673ffffffffffffffffffffffffffffffffffffffff1681526020019081526020016000209080546106399291906119a6565b507fa5fddfcc13d26ad51fbfd106263f3ff73e656d5dc414f0f8dad98fdb15a5cc2f846040516106699190612593565b60405180910390a1505050610bad565b604051602001610688906125fa565b60405160208183030381529060405280519060200120826040516020016106af91906124a8565b604051602081830303815290604052805190602001200361093d57670de0b6b3a7640000341015610715576040517f08c379a000000000000000000000000000000000000000000000000000000000815260040161070c90612681565b60405180910390fd5b600061072183836110bc565b90506000600360003373ffffffffffffffffffffffffffffffffffffffff1673ffffffffffffffffffffffffffffffffffffffff16815260200190815260200160002090506000818054905090506004600084815260200190815260200160002082828154811061079557610794612555565b5b9060005260206000209060050201600082015481600001556001820160009054906101000a900473ffffffffffffffffffffffffffffffffffffffff168160010160006101000a81548173ffffffffffffffffffffffffffffffffffffffff021916908373ffffffffffffffffffffffffffffffffffffffff160217905550600282018160020190805461082a929190611881565b506003820160009054906101000a900460ff168160030160006101000a81548160ff0219169083600281111561086357610862611ee1565b5b02179055506003820160019054906101000a900460ff168160030160016101000a81548160ff02191690831515021790555060048201816004019080546108ab929190611954565b5090505081600360003373ffffffffffffffffffffffffffffffffffffffff1673ffffffffffffffffffffffffffffffffffffffff1681526020019081526020016000209080546108fd9291906119a6565b507fa5fddfcc13d26ad51fbfd106263f3ff73e656d5dc414f0f8dad98fdb15a5cc2f8460405161092d9190612593565b60405180910390a1505050610bac565b6714d1120d7b160000341015610988576040517f08c379a000000000000000000000000000000000000000000000000000000000815260040161097f90612713565b60405180910390fd5b600061099483836110bc565b90506000600360003373ffffffffffffffffffffffffffffffffffffffff1673ffffffffffffffffffffffffffffffffffffffff168152602001908152602001600020905060008180549050905060046000848152602001908152602001600020828281548110610a0857610a07612555565b5b9060005260206000209060050201600082015481600001556001820160009054906101000a900473ffffffffffffffffffffffffffffffffffffffff168160010160006101000a81548173ffffffffffffffffffffffffffffffffffffffff021916908373ffffffffffffffffffffffffffffffffffffffff1602179055506002820181600201908054610a9d929190611881565b506003820160009054906101000a900460ff168160030160006101000a81548160ff02191690836002811115610ad657610ad5611ee1565b5b02179055506003820160019054906101000a900460ff168160030160016101000a81548160ff0219169083151502179055506004820181600401908054610b1e929190611954565b5090505081600360003373ffffffffffffffffffffffffffffffffffffffff1673ffffffffffffffffffffffffffffffffffffffff168152602001908152602001600020908054610b709291906119a6565b507fa5fddfcc13d26ad51fbfd106263f3ff73e656d5dc414f0f8dad98fdb15a5cc2f84604051610ba09190612593565b60405180910390a15050505b5b5050565b60603373ffffffffffffffffffffffffffffffffffffffff166004600084815260200190815260200160002060010160009054906101000a900473ffffffffffffffffffffffffffffffffffffffff1673ffffffffffffffffffffffffffffffffffffffff1614610c57576040517f08c379a0000000000000000000000000000000000000000000000000000000008152600401610c4e9061277f565b60405180910390fd5b6000600460008481526020019081526020016000206040518060c0016040529081600082015481526020016001820160009054906101000a900473ffffffffffffffffffffffffffffffffffffffff1673ffffffffffffffffffffffffffffffffffffffff1673ffffffffffffffffffffffffffffffffffffffff16815260200160028201805480602002602001604051908101604052809291908181526020016000905b82821015610d9857838290600052602060002090600302016040518060600160405290816000820160009054906101000a900473ffffffffffffffffffffffffffffffffffffffff1673ffffffffffffffffffffffffffffffffffffffff1673ffffffffffffffffffffffffffffffffffffffff1681526020016001820154815260200160028201548152505081526020019060010190610cfc565b5050505081526020016003820160009054906101000a900460ff166002811115610dc557610dc4611ee1565b5b6002811115610dd757610dd6611ee1565b5b81526020016003820160019054906101000a900460ff1615151515815260200160048201805480602002602001604051908101604052809291908181526020018280548015610e4557602002820191906000526020600020905b815481526020019060010190808311610e31575b5050505050815250509050600015158160800151151514610e9b576040517f08c379a0000000000000000000000000000000000000000000000000000000008152600401610e92906127eb565b60405180910390fd5b606060005b8260400151518110156110a05782604001518181518110610ec457610ec3612555565b5b60200260200101516000015173ffffffffffffffffffffffffffffffffffffffff166323b872dd303386604001518581518110610f0457610f03612555565b5b6020026020010151604001516040518463ffffffff1660e01b8152600401610f2e9392919061281a565b600060405180830381600087803b158015610f4857600080fd5b505af1158015610f5c573d6000803e3d6000fd5b5050505082604001518181518110610f7757610f76612555565b5b602002602001015160000151828281518110610f9657610f95612555565b5b602002602001019073ffffffffffffffffffffffffffffffffffffffff16908173ffffffffffffffffffffffffffffffffffffffff168152505060008054906101000a900473ffffffffffffffffffffffffffffffffffffffff1673ffffffffffffffffffffffffffffffffffffffff16634cc822158460a00151838151811061102357611022612555565b5b60200260200101516040518263ffffffff1660e01b81526004016110479190612851565b6060604051808303816000875af1158015611066573d6000803e3d6000fd5b505050506040513d601f19601f8201168201806040525081019061108a9190612896565b505050808061109890612918565b915050610ea0565b5060018260800190151590811515815250508092505050919050565b6000600560008154809291906110d190612918565b91905055506000806000806040516020016110eb9061245d565b604051602081830303815290604052805190602001208760405160200161111291906124a8565b604051602081830303815290604052805190602001200361114857670429d069189e000091506704db73254763000090506111cc565b604051602001611157906129ac565b604051602081830303815290604052805190602001208760405160200161117e91906124a8565b60405160208183030381529060405280519060200120036111b457670905438e600100009150670b1a2bc2ec50000090506111cb565b670de0b6b3a76400009150671158e460913d000090505b5b5b816fffffffffffffffffffffffffffffffff168310156116a257600061128060008054906101000a900473ffffffffffffffffffffffffffffffffffffffff1673ffffffffffffffffffffffffffffffffffffffff1663031b8b216040518163ffffffff1660e01b8152600401602060405180830381865afa158015611257573d6000803e3d6000fd5b505050506040513d601f19601f8201168201806040525081019061127b91906129c1565b611841565b905060008060009054906101000a900473ffffffffffffffffffffffffffffffffffffffff1673ffffffffffffffffffffffffffffffffffffffff1663e7572230836040518263ffffffff1660e01b81526004016112de9190612851565b602060405180830381865afa1580156112fb573d6000803e3d6000fd5b505050506040513d601f19601f8201168201806040525081019061131f91906129c1565b9050826fffffffffffffffffffffffffffffffff16858261134091906129ee565b111561134d5750506111cd565b858061135890612a52565b965050604051806060016040528060008054906101000a900473ffffffffffffffffffffffffffffffffffffffff1673ffffffffffffffffffffffffffffffffffffffff16632370f6cd856040518263ffffffff1660e01b81526004016113bf9190612851565b602060405180830381865afa1580156113dc573d6000803e3d6000fd5b505050506040513d601f19601f820116820180604052508101906114009190612a7c565b73ffffffffffffffffffffffffffffffffffffffff16815260200160008054906101000a900473ffffffffffffffffffffffffffffffffffffffff1673ffffffffffffffffffffffffffffffffffffffff1663e7572230856040518263ffffffff1660e01b81526004016114749190612851565b602060405180830381865afa158015611491573d6000803e3d6000fd5b505050506040513d601f19601f820116820180604052508101906114b591906129c1565b815260200160008054906101000a900473ffffffffffffffffffffffffffffffffffffffff1673ffffffffffffffffffffffffffffffffffffffff166314ff5ea3856040518263ffffffff1660e01b81526004016115139190612851565b602060405180830381865afa158015611530573d6000803e3d6000fd5b505050506040513d601f19601f8201168201806040525081019061155491906129c1565b81525060018761ffff168154811061156f5761156e612555565b5b906000526020600020906003020160008201518160000160006101000a81548173ffffffffffffffffffffffffffffffffffffffff021916908373ffffffffffffffffffffffffffffffffffffffff160217905550602082015181600101556040820151816002015590505080856115e791906129ee565b945060008054906101000a900473ffffffffffffffffffffffffffffffffffffffff1673ffffffffffffffffffffffffffffffffffffffff16639c03facb836040518263ffffffff1660e01b81526004016116429190612851565b600060405180830381600087803b15801561165c57600080fd5b505af1158015611670573d6000803e3d6000fd5b505050508160028761ffff168154811061168d5761168c612555565b5b906000526020600020018190555050506111cd565b600554600460006005548152602001908152602001600020600001819055508560046000600554815260200190815260200160002060010160006101000a81548173ffffffffffffffffffffffffffffffffffffffff021916908373ffffffffffffffffffffffffffffffffffffffff1602179055506001600460006005548152602001908152602001600020600201908054611740929190611b07565b508660046000600554815260200190815260200160002060030160006101000a81548160ff0219169083600281111561177c5761177b611ee1565b5b0217905550600060046000600554815260200190815260200160002060030160016101000a81548160ff02191690831515021790555060026004600060055481526020019081526020016000206004019080546117da929190611bda565b50600160006117e99190611c2c565b600260006117f79190611c50565b7ffa4028e02cab79854d323d6c7016d9e493939f43aeeb9d7c1d5ab4264490e81e6005548860405161182a929190612ab8565b60405180910390a160055494505050505092915050565b6000814233604051602001611857929190612b4a565b6040516020818303038152906040528051906020012060001c61187a9190612ba5565b9050919050565b8280548282559060005260206000209060030281019282156119435760005260206000209160030282015b828111156119425782826000820160009054906101000a900473ffffffffffffffffffffffffffffffffffffffff168160000160006101000a81548173ffffffffffffffffffffffffffffffffffffffff021916908373ffffffffffffffffffffffffffffffffffffffff16021790555060018201548160010155600282015481600201555050916003019190600301906118ac565b5b5090506119509190611c71565b5090565b8280548282559060005260206000209081019282156119955760005260206000209182015b82811115611994578254825591600101919060010190611979565b5b5090506119a29190611cbf565b5090565b828054828255906000526020600020906005028101928215611af65760005260206000209160050282015b82811115611af5578282600082015481600001556001820160009054906101000a900473ffffffffffffffffffffffffffffffffffffffff168160010160006101000a81548173ffffffffffffffffffffffffffffffffffffffff021916908373ffffffffffffffffffffffffffffffffffffffff1602179055506002820181600201908054611a62929190611881565b506003820160009054906101000a900460ff168160030160006101000a81548160ff02191690836002811115611a9b57611a9a611ee1565b5b02179055506003820160019054906101000a900460ff168160030160016101000a81548160ff0219169083151502179055506004820181600401908054611ae3929190611954565b505050916005019190600501906119d1565b5b509050611b039190611cdc565b5090565b828054828255906000526020600020906003028101928215611bc95760005260206000209160030282015b82811115611bc85782826000820160009054906101000a900473ffffffffffffffffffffffffffffffffffffffff168160000160006101000a81548173ffffffffffffffffffffffffffffffffffffffff021916908373ffffffffffffffffffffffffffffffffffffffff1602179055506001820154816001015560028201548160020155505091600301919060030190611b32565b5b509050611bd69190611c71565b5090565b828054828255906000526020600020908101928215611c1b5760005260206000209182015b82811115611c1a578254825591600101919060010190611bff565b5b509050611c289190611cbf565b5090565b5080546000825560030290600052602060002090810190611c4d9190611c71565b50565b5080546000825590600052602060002090810190611c6e9190611cbf565b50565b5b80821115611cbb57600080820160006101000a81549073ffffffffffffffffffffffffffffffffffffffff02191690556001820160009055600282016000905550600301611c72565b5090565b5b80821115611cd8576000816000905550600101611cc0565b5090565b5b80821115611d66576000808201600090556001820160006101000a81549073ffffffffffffffffffffffffffffffffffffffff0219169055600282016000611d259190611c2c565b6003820160006101000a81549060ff02191690556003820160016101000a81549060ff0219169055600482016000611d5d9190611c50565b50600501611cdd565b5090565b600081519050919050565b600082825260208201905092915050565b6000819050602082019050919050565b6000819050919050565b611da981611d96565b82525050565b600073ffffffffffffffffffffffffffffffffffffffff82169050919050565b6000611dda82611daf565b9050919050565b611dea81611dcf565b82525050565b600081519050919050565b600082825260208201905092915050565b6000819050602082019050919050565b606082016000820151611e326000850182611de1565b506020820151611e456020850182611da0565b506040820151611e586040850182611da0565b50505050565b6000611e6a8383611e1c565b60608301905092915050565b6000602082019050919050565b6000611e8e82611df0565b611e988185611dfb565b9350611ea383611e0c565b8060005b83811015611ed4578151611ebb8882611e5e565b9750611ec683611e76565b925050600181019050611ea7565b5085935050505092915050565b7f4e487b7100000000000000000000000000000000000000000000000000000000600052602160045260246000fd5b60038110611f2157611f20611ee1565b5b50565b6000819050611f3282611f10565b919050565b6000611f4282611f24565b9050919050565b611f5281611f37565b82525050565b60008115159050919050565b611f6d81611f58565b82525050565b600081519050919050565b600082825260208201905092915050565b6000819050602082019050919050565b6000611fab8383611da0565b60208301905092915050565b6000602082019050919050565b6000611fcf82611f73565b611fd98185611f7e565b9350611fe483611f8f565b8060005b83811015612015578151611ffc8882611f9f565b975061200783611fb7565b925050600181019050611fe8565b5085935050505092915050565b600060c08301600083015161203a6000860182611da0565b50602083015161204d6020860182611de1565b50604083015184820360408601526120658282611e83565b915050606083015161207a6060860182611f49565b50608083015161208d6080860182611f64565b5060a083015184820360a08601526120a58282611fc4565b9150508091505092915050565b60006120be8383612022565b905092915050565b6000602082019050919050565b60006120de82611d6a565b6120e88185611d75565b9350836020820285016120fa85611d86565b8060005b85811015612136578484038952815161211785826120b2565b9450612122836120c6565b925060208a019950506001810190506120fe565b50829750879550505050505092915050565b6000602082019050818103600083015261216281846120d3565b905092915050565b600080fd5b6003811061217c57600080fd5b50565b60008135905061218e8161216f565b92915050565b61219d81611dcf565b81146121a857600080fd5b50565b6000813590506121ba81612194565b92915050565b600080604083850312156121d7576121d661216a565b5b60006121e58582860161217f565b92505060206121f6858286016121ab565b9150509250929050565b61220981611d96565b811461221457600080fd5b50565b60008135905061222681612200565b92915050565b6000602082840312156122425761224161216a565b5b600061225084828501612217565b91505092915050565b600081519050919050565b600082825260208201905092915050565b6000819050602082019050919050565b6000819050919050565b60006122aa6122a56122a084611daf565b612285565b611daf565b9050919050565b60006122bc8261228f565b9050919050565b60006122ce826122b1565b9050919050565b6122de816122c3565b82525050565b60006122f083836122d5565b60208301905092915050565b6000602082019050919050565b600061231482612259565b61231e8185612264565b935061232983612275565b8060005b8381101561235a57815161234188826122e4565b975061234c836122fc565b92505060018101905061232d565b5085935050505092915050565b600060208201905081810360008301526123818184612309565b905092915050565b600082825260208201905092915050565b7f796f7520646f206e6f74206f776e20616e7920626f7865730000000000000000600082015250565b60006123d0601883612389565b91506123db8261239a565b602082019050919050565b600060208201905081810360008301526123ff816123c3565b9050919050565b600081905092915050565b7f6261736963000000000000000000000000000000000000000000000000000000600082015250565b6000612447600583612406565b915061245282612411565b600582019050919050565b60006124688261243a565b9150819050919050565b60008160f81b9050919050565b600061248a82612472565b9050919050565b6124a261249d82611f37565b61247f565b82525050565b60006124b48284612491565b60018201915081905092915050565b7f302e35206574686572206973206e656564656420746f206d616b65207468652060008201527f626173696320626f780000000000000000000000000000000000000000000000602082015250565b600061251f602983612389565b915061252a826124c3565b604082019050919050565b6000602082019050818103600083015261254e81612512565b9050919050565b7f4e487b7100000000000000000000000000000000000000000000000000000000600052603260045260246000fd5b61258d81611dcf565b82525050565b60006020820190506125a86000830184612584565b92915050565b7f5072656d69756d00000000000000000000000000000000000000000000000000600082015250565b60006125e4600783612406565b91506125ef826125ae565b600782019050919050565b6000612605826125d7565b9150819050919050565b7f31206574686572206973206e656564656420746f206d616b652074686520707260008201527f656d69756d20626f780000000000000000000000000000000000000000000000602082015250565b600061266b602983612389565b91506126768261260f565b604082019050919050565b6000602082019050818103600083015261269a8161265e565b9050919050565b7f312e35206574686572206973206e656564656420746f206d616b65207468652060008201527f6d7973746572696f757320626f78000000000000000000000000000000000000602082015250565b60006126fd602e83612389565b9150612708826126a1565b604082019050919050565b6000602082019050818103600083015261272c816126f0565b9050919050565b7f7468697320626f7820646f6573206e6f742062656c6f6e6720746f20796f7500600082015250565b6000612769601f83612389565b915061277482612733565b602082019050919050565b600060208201905081810360008301526127988161275c565b9050919050565b7f626f782068617320616c7265616479206265656e206f70656e65640000000000600082015250565b60006127d5601b83612389565b91506127e08261279f565b602082019050919050565b60006020820190508181036000830152612804816127c8565b9050919050565b61281481611d96565b82525050565b600060608201905061282f6000830186612584565b61283c6020830185612584565b612849604083018461280b565b949350505050565b6000602082019050612866600083018461280b565b92915050565b60008151905061287b81612194565b92915050565b60008151905061289081612200565b92915050565b6000806000606084860312156128af576128ae61216a565b5b60006128bd8682870161286c565b93505060206128ce86828701612881565b92505060406128df86828701612881565b9150509250925092565b7f4e487b7100000000000000000000000000000000000000000000000000000000600052601160045260246000fd5b600061292382611d96565b91507fffffffffffffffffffffffffffffffffffffffffffffffffffffffffffffffff8203612955576129546128e9565b5b600182019050919050565b7f7072656d69756d00000000000000000000000000000000000000000000000000600082015250565b6000612996600783612406565b91506129a182612960565b600782019050919050565b60006129b782612989565b9150819050919050565b6000602082840312156129d7576129d661216a565b5b60006129e584828501612881565b91505092915050565b60006129f982611d96565b9150612a0483611d96565b9250827fffffffffffffffffffffffffffffffffffffffffffffffffffffffffffffffff03821115612a3957612a386128e9565b5b828201905092915050565b600061ffff82169050919050565b6000612a5d82612a44565b915061ffff8203612a7157612a706128e9565b5b600182019050919050565b600060208284031215612a9257612a9161216a565b5b6000612aa08482850161286c565b91505092915050565b612ab281611f37565b82525050565b6000604082019050612acd600083018561280b565b612ada6020830184612aa9565b9392505050565b6000819050919050565b612afc612af782611d96565b612ae1565b82525050565b60008160601b9050919050565b6000612b1a82612b02565b9050919050565b6000612b2c82612b0f565b9050919050565b612b44612b3f82611dcf565b612b21565b82525050565b6000612b568285612aeb565b602082019150612b668284612b33565b6014820191508190509392505050565b7f4e487b7100000000000000000000000000000000000000000000000000000000600052601260045260246000fd5b6000612bb082611d96565b9150612bbb83611d96565b925082612bcb57612bca612b76565b5b82820690509291505056fea26469706673582212209c260d0c561b532df5067a869b87c9db4c45466bf2dc0571eb38b8f3bbd88b0464736f6c634300080d0033",
  "immutableReferences": {},
  "source": "// SPDX-License-Identifier: MIT\r\npragma solidity ^0.8.0;\r\nimport \"@openzeppelin/contracts/token/ERC721/ERC721.sol\";\r\nimport \"./OwnedNFTs.sol\";\r\n\r\ncontract MysteryBox {\r\n    OwnedNFTs ownedNFTInstance;\r\n    enum tierPrices {\r\n        basic,\r\n        premium,\r\n        mysterious\r\n    }\r\n\r\n    struct Box {\r\n        uint256 id;\r\n        address purchaser;\r\n        nft[] nfts;\r\n        tierPrices tier;\r\n        bool isOpen;\r\n        uint256[] nftIds;\r\n    }\r\n\r\n    struct nft {\r\n        address parentContract;\r\n        uint256 price;\r\n        uint256 tokenId;\r\n    }\r\n    nft[] boxNFTList;\r\n    uint256[] BoxnftIds;\r\n    \r\n    mapping(address => Box[]) ownedBoxes;\r\n    mapping(uint256 => Box) boxList;\r\n    uint256 nextBoxId;\r\n    \r\n\r\n    constructor(OwnedNFTs ownedNFT) {\r\n        ownedNFTInstance = ownedNFT;\r\n    }\r\n\r\n    event boxMade(uint256 boxId, tierPrices tier);\r\n    event transferMade(address purchaser);\r\n    event boxOpen(address purchaser);\r\n\r\n    function makeBox(tierPrices tier, address purchaser) private returns (uint256) {\r\n        nextBoxId++;\r\n        uint16 boxNFTid = 0;\r\n        uint256 minVal = 0;\r\n\r\n        uint128 boxMinPrice;\r\n        uint128 boxMaxPrice;\r\n        if ((keccak256(abi.encodePacked((tier))) == keccak256(abi.encodePacked((\"basic\"))))) {\r\n            boxMinPrice = 0.30 ether;\r\n            boxMaxPrice = 0.35 ether;\r\n        } else if ((keccak256(abi.encodePacked((tier))) == keccak256(abi.encodePacked((\"premium\"))))) {\r\n            boxMinPrice = 0.65 ether;\r\n            boxMaxPrice = 0.80 ether;\r\n        } else {\r\n            boxMinPrice = 1 ether;\r\n            boxMaxPrice = 1.25 ether;\r\n        }\r\n\r\n        // fill up the box with nfts though rng\r\n        while (minVal < boxMinPrice) {\r\n            uint rngNum = rngNFT(ownedNFTInstance.getMaximumSize());\r\n            uint256 priceOfNFTDrawn = ownedNFTInstance.getPrice(rngNum);\r\n            if (priceOfNFTDrawn + minVal > boxMaxPrice) {\r\n                continue;\r\n                // do not add NFT that cause total to exceed max price\r\n                // draw another number for NFT\r\n            } else {\r\n                // assign NFT to boxNFTList\r\n                boxNFTid++;\r\n                \r\n                boxNFTList[boxNFTid] = nft(\r\n                    ownedNFTInstance.getParentContract(rngNum),\r\n                    ownedNFTInstance.getPrice(rngNum),\r\n                    ownedNFTInstance.getTokenId(rngNum)\r\n                );\r\n                // update minval\r\n                minVal += priceOfNFTDrawn;\r\n                ownedNFTInstance.sold(rngNum);\r\n                BoxnftIds[boxNFTid] = rngNum;\r\n            }\r\n        }\r\n\r\n        // add box to boxList\r\n        boxList[nextBoxId].id = nextBoxId;\r\n        boxList[nextBoxId].purchaser = purchaser;\r\n        boxList[nextBoxId].nfts = boxNFTList;\r\n        boxList[nextBoxId].tier = tier;\r\n        boxList[nextBoxId].isOpen = false;\r\n        boxList[nextBoxId].nftIds= BoxnftIds;\r\n\r\n        delete boxNFTList;\r\n        delete BoxnftIds;\r\n        emit boxMade(nextBoxId, tier);\r\n        return nextBoxId;\r\n    }\r\n\r\n    function transfer(tierPrices tier, address purchaser) public payable {\r\n        // Do require checks on msg.value\r\n        if ((keccak256(abi.encodePacked((tier))) == keccak256(abi.encodePacked((\"basic\"))))) {\r\n            require(\r\n                msg.value >= 0.5 ether,\r\n                \"0.5 ether is needed to make the basic box\"\r\n            );\r\n            uint256 newBoxId = makeBox(tier, purchaser);\r\n            Box[] storage listOfBoxes = ownedBoxes[msg.sender];\r\n            uint256 length = listOfBoxes.length;\r\n            listOfBoxes[length] = boxList[newBoxId];\r\n            ownedBoxes[msg.sender] = listOfBoxes;\r\n            emit transferMade(purchaser);\r\n        } else if ((keccak256(abi.encodePacked((tier))) == keccak256(abi.encodePacked((\"Premium\"))))) {\r\n            require(\r\n                msg.value >= 1 ether,\r\n                \"1 ether is needed to make the premium box\"\r\n            );\r\n            uint256 newBoxId = makeBox(tier, purchaser);\r\n            Box[] storage listOfBoxes = ownedBoxes[msg.sender];\r\n            uint256 length = listOfBoxes.length;\r\n            listOfBoxes[length] = boxList[newBoxId];\r\n            ownedBoxes[msg.sender] = listOfBoxes;\r\n            emit transferMade(purchaser);\r\n        } else {\r\n            require(\r\n                msg.value >= 1.5 ether,\r\n                \"1.5 ether is needed to make the mysterious box\"\r\n            );\r\n            uint256 newBoxId = makeBox(tier, purchaser);\r\n            Box[] storage listOfBoxes = ownedBoxes[msg.sender];\r\n            uint256 length = listOfBoxes.length;\r\n            listOfBoxes[length] = boxList[newBoxId];\r\n            ownedBoxes[msg.sender] = listOfBoxes;\r\n            emit transferMade(purchaser);\r\n        }\r\n    }\r\n\r\n    function openBox(uint256 boxID) public returns (ERC721[] memory) {\r\n        require(\r\n            boxList[boxID].purchaser == msg.sender,\r\n            \"this box does not belong to you\"\r\n        );\r\n        // transfers all NFTs in the box\r\n        Box memory yourBox = boxList[boxID];\r\n        require(yourBox.isOpen == false, \"box has already been opened\");\r\n        ERC721[] memory nfts;\r\n        for (uint256 i = 0; i < yourBox.nfts.length; i++) {\r\n            // need to check if there needs to be owner for this contract\r\n            // check how to get nft id for transferring\r\n            ERC721(yourBox.nfts[i].parentContract).transferFrom(address(this), msg.sender, yourBox.nfts[i].tokenId);\r\n            nfts[i] = ERC721(yourBox.nfts[i].parentContract);\r\n            ownedNFTInstance.remove(yourBox.nftIds[i]);\r\n        }\r\n        yourBox.isOpen = true;\r\n        return nfts;\r\n    }\r\n\r\n    function checkBoxesIds() public view returns (Box[] memory) {\r\n        require(ownedBoxes[msg.sender].length > 0, \"you do not own any boxes\");\r\n        return ownedBoxes[msg.sender];\r\n    }\r\n\r\n    function rngNFT(uint size) private view returns (uint) {\r\n        return uint(keccak256(abi.encodePacked(block.timestamp, msg.sender))) % size;\r\n    }\r\n}\r\n",
  "sourcePath": "C:\\Users\\jiaju\\Desktop\\Projects\\React Projects\\myster\\contracts\\MysteryBox.sol",
  "compiler": {
    "name": "solc",
    "version": "0.8.13+commit.abaa5c0e.Emscripten.clang"
  },
  "schemaVersion": "3.4.4",
  "updatedAt": "2022-03-24T16:18:33.464Z",
  "networkType": "ethereum",
  "devdoc": {
    "kind": "dev",
    "methods": {},
    "version": 1
  },
  "userdoc": {
    "kind": "user",
    "methods": {},
    "version": 1
  }
}