{
  "contractName": "MysteryBox",
  "abi": [
    {
      "inputs": [
        {
          "internalType": "contract OwnedNFTs",
          "name": "ownedNFT",
          "type": "address"
        },
        {
          "internalType": "contract MysteryStaking",
          "name": "mysterystaking",
          "type": "address"
        },
        {
          "internalType": "contract MysteryNFT",
          "name": "mysteryNFT",
          "type": "address"
        }
      ],
      "stateMutability": "nonpayable",
      "type": "constructor"
    },
    {
      "anonymous": false,
      "inputs": [
        {
          "indexed": false,
          "internalType": "uint256",
          "name": "boxId",
          "type": "uint256"
        },
        {
          "indexed": false,
          "internalType": "uint8",
          "name": "tier",
          "type": "uint8"
        }
      ],
      "name": "boxMade",
      "type": "event"
    },
    {
      "anonymous": false,
      "inputs": [
        {
          "indexed": false,
          "internalType": "address",
          "name": "purchaser",
          "type": "address"
        }
      ],
      "name": "boxOpen",
      "type": "event"
    },
    {
      "anonymous": false,
      "inputs": [
        {
          "indexed": false,
          "internalType": "address",
          "name": "purchaser",
          "type": "address"
        }
      ],
      "name": "transferMade",
      "type": "event"
    },
    {
      "inputs": [
        {
          "internalType": "uint8",
          "name": "tier",
          "type": "uint8"
        },
        {
          "internalType": "address",
          "name": "purchaser",
          "type": "address"
        }
      ],
      "name": "transfer",
      "outputs": [],
      "stateMutability": "payable",
      "type": "function"
    },
    {
      "inputs": [
        {
          "internalType": "uint8",
          "name": "tier",
          "type": "uint8"
        },
        {
          "internalType": "address",
          "name": "purchaser",
          "type": "address"
        }
      ],
      "name": "transferMYST",
      "outputs": [],
      "stateMutability": "nonpayable",
      "type": "function"
    },
    {
      "inputs": [
        {
          "internalType": "uint256",
          "name": "boxID",
          "type": "uint256"
        }
      ],
      "name": "openBox",
      "outputs": [
        {
          "internalType": "contract ERC721[]",
          "name": "",
          "type": "address[]"
        }
      ],
      "stateMutability": "nonpayable",
      "type": "function"
    },
    {
      "inputs": [],
      "name": "checkBoxesIds",
      "outputs": [
        {
          "components": [
            {
              "internalType": "uint256",
              "name": "id",
              "type": "uint256"
            },
            {
              "internalType": "address",
              "name": "purchaser",
              "type": "address"
            },
            {
              "components": [
                {
                  "internalType": "address",
                  "name": "parentContract",
                  "type": "address"
                },
                {
                  "internalType": "uint256",
                  "name": "price",
                  "type": "uint256"
                },
                {
                  "internalType": "uint256",
                  "name": "tokenId",
                  "type": "uint256"
                },
                {
                  "internalType": "bool",
                  "name": "isValued",
                  "type": "bool"
                }
              ],
              "internalType": "struct MysteryBox.nft[]",
              "name": "nfts",
              "type": "tuple[]"
            },
            {
              "internalType": "uint8",
              "name": "tier",
              "type": "uint8"
            },
            {
              "internalType": "bool",
              "name": "isOpen",
              "type": "bool"
            },
            {
              "internalType": "uint256[]",
              "name": "nftIds",
              "type": "uint256[]"
            }
          ],
          "internalType": "struct MysteryBox.Box[]",
          "name": "",
          "type": "tuple[]"
        }
      ],
      "stateMutability": "view",
      "type": "function"
    },
    {
      "inputs": [],
      "name": "getOwnedInstance",
      "outputs": [
        {
          "internalType": "uint256",
          "name": "",
          "type": "uint256"
        }
      ],
      "stateMutability": "view",
      "type": "function"
    }
  ],
  "bytecode": "0x60806040523480156200001157600080fd5b5060405162004bdc38038062004bdc83398181016040528101906200003791906200020a565b826000806101000a81548173ffffffffffffffffffffffffffffffffffffffff021916908373ffffffffffffffffffffffffffffffffffffffff16021790555081600160006101000a81548173ffffffffffffffffffffffffffffffffffffffff021916908373ffffffffffffffffffffffffffffffffffffffff16021790555080600260006101000a81548173ffffffffffffffffffffffffffffffffffffffff021916908373ffffffffffffffffffffffffffffffffffffffff16021790555050505062000266565b600080fd5b600073ffffffffffffffffffffffffffffffffffffffff82169050919050565b6000620001348262000107565b9050919050565b6000620001488262000127565b9050919050565b6200015a816200013b565b81146200016657600080fd5b50565b6000815190506200017a816200014f565b92915050565b60006200018d8262000127565b9050919050565b6200019f8162000180565b8114620001ab57600080fd5b50565b600081519050620001bf8162000194565b92915050565b6000620001d28262000127565b9050919050565b620001e481620001c5565b8114620001f057600080fd5b50565b6000815190506200020481620001d9565b92915050565b60008060006060848603121562000226576200022562000102565b5b6000620002368682870162000169565b93505060206200024986828701620001ae565b92505060406200025c86828701620001f3565b9150509250925092565b61496680620002766000396000f3fe60806040526004361061004a5760003560e01c80631138ce641461004f57806327b375341461007a5780635eaeffd814610096578063677568dc146100c1578063b1e5e2b7146100ea575b600080fd5b34801561005b57600080fd5b50610064610127565b6040516100719190613aed565b60405180910390f35b610094600480360381019061008f9190613b6c565b61041c565b005b3480156100a257600080fd5b506100ab610b58565b6040516100b89190613bbb565b60405180910390f35b3480156100cd57600080fd5b506100e860048036038101906100e39190613b6c565b610bfb565b005b3480156100f657600080fd5b50610111600480360381019061010c9190613c02565b61196e565b60405161011e9190613d3d565b60405180910390f35b60606000600360003373ffffffffffffffffffffffffffffffffffffffff1673ffffffffffffffffffffffffffffffffffffffff16815260200190815260200160002080549050116101ae576040517f08c379a00000000000000000000000000000000000000000000000000000000081526004016101a590613dbc565b60405180910390fd5b600360003373ffffffffffffffffffffffffffffffffffffffff1673ffffffffffffffffffffffffffffffffffffffff168152602001908152602001600020805480602002602001604051908101604052809291908181526020016000905b8282101561041357838290600052602060002090600502016040518060c0016040529081600082015481526020016001820160009054906101000a900473ffffffffffffffffffffffffffffffffffffffff1673ffffffffffffffffffffffffffffffffffffffff1673ffffffffffffffffffffffffffffffffffffffff16815260200160028201805480602002602001604051908101604052809291908181526020016000905b8282101561036c57838290600052602060002090600402016040518060800160405290816000820160009054906101000a900473ffffffffffffffffffffffffffffffffffffffff1673ffffffffffffffffffffffffffffffffffffffff1673ffffffffffffffffffffffffffffffffffffffff16815260200160018201548152602001600282015481526020016003820160009054906101000a900460ff161515151581525050815260200190600101906102b5565b5050505081526020016003820160009054906101000a900460ff1660ff1660ff1681526020016003820160019054906101000a900460ff16151515158152602001600482018054806020026020016040519081016040528092919081815260200182805480156103fb57602002820191906000526020600020905b8154815260200190600101908083116103e7575b5050505050815250508152602001906001019061020d565b50505050905090565b60008260ff16036106885766b1a2bc2ec50000341015610471576040517f08c379a000000000000000000000000000000000000000000000000000000000815260040161046890613e4e565b60405180910390fd5b600061047d838361211a565b90506000600360003373ffffffffffffffffffffffffffffffffffffffff1673ffffffffffffffffffffffffffffffffffffffff168152602001908152602001600020905080600460008481526020019081526020016000209080600181540180825580915050600190039060005260206000209060050201600090919091909150600082015481600001556001820160009054906101000a900473ffffffffffffffffffffffffffffffffffffffff168160010160006101000a81548173ffffffffffffffffffffffffffffffffffffffff021916908373ffffffffffffffffffffffffffffffffffffffff1602179055506002820181600201908054610586929190613361565b506003820160009054906101000a900460ff168160030160006101000a81548160ff021916908360ff1602179055506003820160019054906101000a900460ff168160030160016101000a81548160ff02191690831515021790555060048201816004019080546105f8929190613461565b50505080600360003373ffffffffffffffffffffffffffffffffffffffff1673ffffffffffffffffffffffffffffffffffffffff1681526020019081526020016000209080546106499291906134b3565b507fa5fddfcc13d26ad51fbfd106263f3ff73e656d5dc414f0f8dad98fdb15a5cc2f836040516106799190613e7d565b60405180910390a15050610b54565b60018260ff16036108f55767016345785d8a00003410156106de576040517f08c379a00000000000000000000000000000000000000000000000000000000081526004016106d590613f0a565b60405180910390fd5b60006106ea838361211a565b90506000600360003373ffffffffffffffffffffffffffffffffffffffff1673ffffffffffffffffffffffffffffffffffffffff168152602001908152602001600020905080600460008481526020019081526020016000209080600181540180825580915050600190039060005260206000209060050201600090919091909150600082015481600001556001820160009054906101000a900473ffffffffffffffffffffffffffffffffffffffff168160010160006101000a81548173ffffffffffffffffffffffffffffffffffffffff021916908373ffffffffffffffffffffffffffffffffffffffff16021790555060028201816002019080546107f3929190613361565b506003820160009054906101000a900460ff168160030160006101000a81548160ff021916908360ff1602179055506003820160019054906101000a900460ff168160030160016101000a81548160ff0219169083151502179055506004820181600401908054610865929190613461565b50505080600360003373ffffffffffffffffffffffffffffffffffffffff1673ffffffffffffffffffffffffffffffffffffffff1681526020019081526020016000209080546108b69291906134b3565b507fa5fddfcc13d26ad51fbfd106263f3ff73e656d5dc414f0f8dad98fdb15a5cc2f836040516108e69190613e7d565b60405180910390a15050610b53565b670214e8348c4f0000341015610940576040517f08c379a000000000000000000000000000000000000000000000000000000000815260040161093790613f9c565b60405180910390fd5b600061094c838361211a565b90506000600360003373ffffffffffffffffffffffffffffffffffffffff1673ffffffffffffffffffffffffffffffffffffffff168152602001908152602001600020905080600460008481526020019081526020016000209080600181540180825580915050600190039060005260206000209060050201600090919091909150600082015481600001556001820160009054906101000a900473ffffffffffffffffffffffffffffffffffffffff168160010160006101000a81548173ffffffffffffffffffffffffffffffffffffffff021916908373ffffffffffffffffffffffffffffffffffffffff1602179055506002820181600201908054610a55929190613361565b506003820160009054906101000a900460ff168160030160006101000a81548160ff021916908360ff1602179055506003820160019054906101000a900460ff168160030160016101000a81548160ff0219169083151502179055506004820181600401908054610ac7929190613461565b50505080600360003373ffffffffffffffffffffffffffffffffffffffff1673ffffffffffffffffffffffffffffffffffffffff168152602001908152602001600020908054610b189291906134b3565b507fa5fddfcc13d26ad51fbfd106263f3ff73e656d5dc414f0f8dad98fdb15a5cc2f83604051610b489190613e7d565b60405180910390a150505b5b5050565b60008060009054906101000a900473ffffffffffffffffffffffffffffffffffffffff1673ffffffffffffffffffffffffffffffffffffffff166393f64d0360006040518263ffffffff1660e01b8152600401610bb59190613fcb565b602060405180830381865afa158015610bd2573d6000803e3d6000fd5b505050506040513d601f19601f82011682018060405250810190610bf69190613ffb565b905090565b60008260ff160361107a576005600160009054906101000a900473ffffffffffffffffffffffffffffffffffffffff1673ffffffffffffffffffffffffffffffffffffffff1663105d6e636040518163ffffffff1660e01b8152600401602060405180830381865afa158015610c75573d6000803e3d6000fd5b505050506040513d601f19601f82011682018060405250810190610c999190614066565b73ffffffffffffffffffffffffffffffffffffffff166370a08231336040518263ffffffff1660e01b8152600401610cd19190613e7d565b602060405180830381865afa158015610cee573d6000803e3d6000fd5b505050506040513d601f19601f82011682018060405250810190610d129190613ffb565b1015610d53576040517f08c379a0000000000000000000000000000000000000000000000000000000008152600401610d4a90614105565b60405180910390fd5b600160009054906101000a900473ffffffffffffffffffffffffffffffffffffffff1673ffffffffffffffffffffffffffffffffffffffff1663105d6e636040518163ffffffff1660e01b8152600401602060405180830381865afa158015610dc0573d6000803e3d6000fd5b505050506040513d601f19601f82011682018060405250810190610de49190614066565b73ffffffffffffffffffffffffffffffffffffffff1663470553213360056040518363ffffffff1660e01b8152600401610e1f929190614160565b6020604051808303816000875af1158015610e3e573d6000803e3d6000fd5b505050506040513d601f19601f82011682018060405250810190610e6291906141b5565b506000610e6f838361211a565b90506000600360003373ffffffffffffffffffffffffffffffffffffffff1673ffffffffffffffffffffffffffffffffffffffff168152602001908152602001600020905080600460008481526020019081526020016000209080600181540180825580915050600190039060005260206000209060050201600090919091909150600082015481600001556001820160009054906101000a900473ffffffffffffffffffffffffffffffffffffffff168160010160006101000a81548173ffffffffffffffffffffffffffffffffffffffff021916908373ffffffffffffffffffffffffffffffffffffffff1602179055506002820181600201908054610f78929190613361565b506003820160009054906101000a900460ff168160030160006101000a81548160ff021916908360ff1602179055506003820160019054906101000a900460ff168160030160016101000a81548160ff0219169083151502179055506004820181600401908054610fea929190613461565b50505080600360003373ffffffffffffffffffffffffffffffffffffffff1673ffffffffffffffffffffffffffffffffffffffff16815260200190815260200160002090805461103b9291906134b3565b507fa5fddfcc13d26ad51fbfd106263f3ff73e656d5dc414f0f8dad98fdb15a5cc2f8360405161106b9190613e7d565b60405180910390a1505061196a565b60018260ff16036114f957600a600160009054906101000a900473ffffffffffffffffffffffffffffffffffffffff1673ffffffffffffffffffffffffffffffffffffffff1663105d6e636040518163ffffffff1660e01b8152600401602060405180830381865afa1580156110f4573d6000803e3d6000fd5b505050506040513d601f19601f820116820180604052508101906111189190614066565b73ffffffffffffffffffffffffffffffffffffffff166370a08231336040518263ffffffff1660e01b81526004016111509190613e7d565b602060405180830381865afa15801561116d573d6000803e3d6000fd5b505050506040513d601f19601f820116820180604052508101906111919190613ffb565b10156111d2576040517f08c379a00000000000000000000000000000000000000000000000000000000081526004016111c990614254565b60405180910390fd5b600160009054906101000a900473ffffffffffffffffffffffffffffffffffffffff1673ffffffffffffffffffffffffffffffffffffffff1663105d6e636040518163ffffffff1660e01b8152600401602060405180830381865afa15801561123f573d6000803e3d6000fd5b505050506040513d601f19601f820116820180604052508101906112639190614066565b73ffffffffffffffffffffffffffffffffffffffff16634705532133600a6040518363ffffffff1660e01b815260040161129e9291906142af565b6020604051808303816000875af11580156112bd573d6000803e3d6000fd5b505050506040513d601f19601f820116820180604052508101906112e191906141b5565b5060006112ee838361211a565b90506000600360003373ffffffffffffffffffffffffffffffffffffffff1673ffffffffffffffffffffffffffffffffffffffff168152602001908152602001600020905080600460008481526020019081526020016000209080600181540180825580915050600190039060005260206000209060050201600090919091909150600082015481600001556001820160009054906101000a900473ffffffffffffffffffffffffffffffffffffffff168160010160006101000a81548173ffffffffffffffffffffffffffffffffffffffff021916908373ffffffffffffffffffffffffffffffffffffffff16021790555060028201816002019080546113f7929190613361565b506003820160009054906101000a900460ff168160030160006101000a81548160ff021916908360ff1602179055506003820160019054906101000a900460ff168160030160016101000a81548160ff0219169083151502179055506004820181600401908054611469929190613461565b50505080600360003373ffffffffffffffffffffffffffffffffffffffff1673ffffffffffffffffffffffffffffffffffffffff1681526020019081526020016000209080546114ba9291906134b3565b507fa5fddfcc13d26ad51fbfd106263f3ff73e656d5dc414f0f8dad98fdb15a5cc2f836040516114ea9190613e7d565b60405180910390a15050611969565b600f600160009054906101000a900473ffffffffffffffffffffffffffffffffffffffff1673ffffffffffffffffffffffffffffffffffffffff1663105d6e636040518163ffffffff1660e01b8152600401602060405180830381865afa158015611568573d6000803e3d6000fd5b505050506040513d601f19601f8201168201806040525081019061158c9190614066565b73ffffffffffffffffffffffffffffffffffffffff166370a08231336040518263ffffffff1660e01b81526004016115c49190613e7d565b602060405180830381865afa1580156115e1573d6000803e3d6000fd5b505050506040513d601f19601f820116820180604052508101906116059190613ffb565b1015611646576040517f08c379a000000000000000000000000000000000000000000000000000000000815260040161163d9061434a565b60405180910390fd5b600160009054906101000a900473ffffffffffffffffffffffffffffffffffffffff1673ffffffffffffffffffffffffffffffffffffffff1663105d6e636040518163ffffffff1660e01b8152600401602060405180830381865afa1580156116b3573d6000803e3d6000fd5b505050506040513d601f19601f820116820180604052508101906116d79190614066565b73ffffffffffffffffffffffffffffffffffffffff16634705532133600f6040518363ffffffff1660e01b81526004016117129291906143a5565b6020604051808303816000875af1158015611731573d6000803e3d6000fd5b505050506040513d601f19601f8201168201806040525081019061175591906141b5565b506000611762838361211a565b90506000600360003373ffffffffffffffffffffffffffffffffffffffff1673ffffffffffffffffffffffffffffffffffffffff168152602001908152602001600020905080600460008481526020019081526020016000209080600181540180825580915050600190039060005260206000209060050201600090919091909150600082015481600001556001820160009054906101000a900473ffffffffffffffffffffffffffffffffffffffff168160010160006101000a81548173ffffffffffffffffffffffffffffffffffffffff021916908373ffffffffffffffffffffffffffffffffffffffff160217905550600282018160020190805461186b929190613361565b506003820160009054906101000a900460ff168160030160006101000a81548160ff021916908360ff1602179055506003820160019054906101000a900460ff168160030160016101000a81548160ff02191690831515021790555060048201816004019080546118dd929190613461565b50505080600360003373ffffffffffffffffffffffffffffffffffffffff1673ffffffffffffffffffffffffffffffffffffffff16815260200190815260200160002090805461192e9291906134b3565b507fa5fddfcc13d26ad51fbfd106263f3ff73e656d5dc414f0f8dad98fdb15a5cc2f8360405161195e9190613e7d565b60405180910390a150505b5b5050565b60603373ffffffffffffffffffffffffffffffffffffffff166004600084815260200190815260200160002060010160009054906101000a900473ffffffffffffffffffffffffffffffffffffffff1673ffffffffffffffffffffffffffffffffffffffff1614611a14576040517f08c379a0000000000000000000000000000000000000000000000000000000008152600401611a0b9061441a565b60405180910390fd5b600015156004600084815260200190815260200160002060030160019054906101000a900460ff16151514611a7e576040517f08c379a0000000000000000000000000000000000000000000000000000000008152600401611a7590614486565b60405180910390fd5b6000600460008481526020019081526020016000206040518060c0016040529081600082015481526020016001820160009054906101000a900473ffffffffffffffffffffffffffffffffffffffff1673ffffffffffffffffffffffffffffffffffffffff1673ffffffffffffffffffffffffffffffffffffffff16815260200160028201805480602002602001604051908101604052809291908181526020016000905b82821015611bda57838290600052602060002090600402016040518060800160405290816000820160009054906101000a900473ffffffffffffffffffffffffffffffffffffffff1673ffffffffffffffffffffffffffffffffffffffff1673ffffffffffffffffffffffffffffffffffffffff16815260200160018201548152602001600282015481526020016003820160009054906101000a900460ff16151515158152505081526020019060010190611b23565b5050505081526020016003820160009054906101000a900460ff1660ff1660ff1681526020016003820160019054906101000a900460ff1615151515815260200160048201805480602002602001604051908101604052809291908181526020018280548015611c6957602002820191906000526020600020905b815481526020019060010190808311611c55575b505050505081525050905060608060005b836040015151811015611ff657600073ffffffffffffffffffffffffffffffffffffffff1684604001518281518110611cb657611cb56144a6565b5b60200260200101516000015173ffffffffffffffffffffffffffffffffffffffff160315611ff65783604001518181518110611cf557611cf46144a6565b5b60200260200101516000015173ffffffffffffffffffffffffffffffffffffffff1663a22cb4653360016040518363ffffffff1660e01b8152600401611d3c9291906144d5565b600060405180830381600087803b158015611d5657600080fd5b505af1158015611d6a573d6000803e3d6000fd5b5050505083604001518181518110611d8557611d846144a6565b5b60200260200101516000015173ffffffffffffffffffffffffffffffffffffffff166323b872dd303387604001518581518110611dc557611dc46144a6565b5b6020026020010151604001516040518463ffffffff1660e01b8152600401611def939291906144fe565b600060405180830381600087803b158015611e0957600080fd5b505af1158015611e1d573d6000803e3d6000fd5b5050505083604001518181518110611e3857611e376144a6565b5b602002602001015160000151828281518110611e5757611e566144a6565b5b602002602001019073ffffffffffffffffffffffffffffffffffffffff16908173ffffffffffffffffffffffffffffffffffffffff168152505083604001518181518110611ea857611ea76144a6565b5b602002602001015160000151838281518110611ec757611ec66144a6565b5b602002602001019073ffffffffffffffffffffffffffffffffffffffff16908173ffffffffffffffffffffffffffffffffffffffff168152505060008054906101000a900473ffffffffffffffffffffffffffffffffffffffff1673ffffffffffffffffffffffffffffffffffffffff1663d5f615c68560a001518381518110611f5457611f536144a6565b5b602002602001015186604001518481518110611f7357611f726144a6565b5b6020026020010151606001516040518363ffffffff1660e01b8152600401611f9c929190614535565b6080604051808303816000875af1158015611fbb573d6000803e3d6000fd5b505050506040513d601f19601f82011682018060405250810190611fdf9190614573565b505050508080611fee90614609565b915050611c7a565b50600260009054906101000a900473ffffffffffffffffffffffffffffffffffffffff1673ffffffffffffffffffffffffffffffffffffffff1663cca68d876004600088815260200190815260200160002060030160009054906101000a900460ff16836040518363ffffffff1660e01b81526004016120779291906146fe565b600060405180830381600087803b15801561209157600080fd5b505af11580156120a5573d6000803e3d6000fd5b5050505060016004600087815260200190815260200160002060030160016101000a81548160ff0219169083151502179055507f0f257e0f082da60157afea269e03d81955110c684b56e8ded0868505728f410f336040516121079190613e7d565b60405180910390a1819350505050919050565b60006005600081548092919061212f90614609565b919050555060008060006121416132d6565b9050600080808860ff160361216c57666a94d74f4300009050605f831061216757600191505b6121ad565b60018860ff16036121935766e6ed27d666800090506046831061218e57600191505b6121ac565b67016345785d8a00009050602883106121ab57600191505b5b5b5b806fffffffffffffffffffffffffffffffff168410156131b35760018260ff16036129d15760008060009054906101000a900473ffffffffffffffffffffffffffffffffffffffff1673ffffffffffffffffffffffffffffffffffffffff1663366ad83e60016040518263ffffffff1660e01b81526004016122309190613fcb565b602060405180830381865afa15801561224d573d6000803e3d6000fd5b505050506040513d601f19601f820116820180604052508101906122719190613ffb565b036122895781806122819061472e565b9250506121ae565b600061232e60008054906101000a900473ffffffffffffffffffffffffffffffffffffffff1673ffffffffffffffffffffffffffffffffffffffff166393f64d0360016040518263ffffffff1660e01b81526004016122e89190613fcb565b602060405180830381865afa158015612305573d6000803e3d6000fd5b505050506040513d601f19601f820116820180604052508101906123299190613ffb565b613315565b90505b600073ffffffffffffffffffffffffffffffffffffffff1660008054906101000a900473ffffffffffffffffffffffffffffffffffffffff1673ffffffffffffffffffffffffffffffffffffffff1663a9a9f9fc8360016040518363ffffffff1660e01b81526004016123a5929190614535565b602060405180830381865afa1580156123c2573d6000803e3d6000fd5b505050506040513d601f19601f820116820180604052508101906123e69190614757565b73ffffffffffffffffffffffffffffffffffffffff16036125695760008060008054906101000a900473ffffffffffffffffffffffffffffffffffffffff1673ffffffffffffffffffffffffffffffffffffffff166393f64d0360016040518263ffffffff1660e01b815260040161245e9190613fcb565b602060405180830381865afa15801561247b573d6000803e3d6000fd5b505050506040513d601f19601f8201168201806040525081019061249f9190613ffb565b146125445760008054906101000a900473ffffffffffffffffffffffffffffffffffffffff1673ffffffffffffffffffffffffffffffffffffffff166393f64d0360016040518263ffffffff1660e01b81526004016124fe9190613fcb565b602060405180830381865afa15801561251b573d6000803e3d6000fd5b505050506040513d601f19601f8201168201806040525081019061253f9190613ffb565b612547565b60015b9050806001836125579190614784565b6125619190614809565b915050612331565b60008060009054906101000a900473ffffffffffffffffffffffffffffffffffffffff1673ffffffffffffffffffffffffffffffffffffffff16635705b61a8360016040518363ffffffff1660e01b81526004016125c8929190614535565b602060405180830381865afa1580156125e5573d6000803e3d6000fd5b505050506040513d601f19601f820116820180604052508101906126099190613ffb565b9050868061261690614848565b97505080866126259190614784565b955060008054906101000a900473ffffffffffffffffffffffffffffffffffffffff1673ffffffffffffffffffffffffffffffffffffffff166314e4ff788360016040518363ffffffff1660e01b8152600401612683929190614535565b600060405180830381600087803b15801561269d57600080fd5b505af11580156126b1573d6000803e3d6000fd5b5050505083806126c09061472e565b945050600460006005548152602001908152602001600020600201604051806080016040528060008054906101000a900473ffffffffffffffffffffffffffffffffffffffff1673ffffffffffffffffffffffffffffffffffffffff1663a9a9f9fc8660016040518363ffffffff1660e01b8152600401612742929190614535565b602060405180830381865afa15801561275f573d6000803e3d6000fd5b505050506040513d601f19601f820116820180604052508101906127839190614757565b73ffffffffffffffffffffffffffffffffffffffff16815260200160008054906101000a900473ffffffffffffffffffffffffffffffffffffffff1673ffffffffffffffffffffffffffffffffffffffff16635705b61a8660016040518363ffffffff1660e01b81526004016127fa929190614535565b602060405180830381865afa158015612817573d6000803e3d6000fd5b505050506040513d601f19601f8201168201806040525081019061283b9190613ffb565b815260200160008054906101000a900473ffffffffffffffffffffffffffffffffffffffff1673ffffffffffffffffffffffffffffffffffffffff1663201043078660016040518363ffffffff1660e01b815260040161289c929190614535565b602060405180830381865afa1580156128b9573d6000803e3d6000fd5b505050506040513d601f19601f820116820180604052508101906128dd9190613ffb565b815260200160011515815250908060018154018082558091505060019003906000526020600020906004020160009091909190915060008201518160000160006101000a81548173ffffffffffffffffffffffffffffffffffffffff021916908373ffffffffffffffffffffffffffffffffffffffff160217905550602082015181600101556040820151816002015560608201518160030160006101000a81548160ff021916908315150217905550505060046000600554815260200190815260200160002060040182908060018154018082558091505060019003906000526020600020016000909190919091505550505b60008060009054906101000a900473ffffffffffffffffffffffffffffffffffffffff1673ffffffffffffffffffffffffffffffffffffffff1663366ad83e60006040518263ffffffff1660e01b8152600401612a2e9190613fcb565b602060405180830381865afa158015612a4b573d6000803e3d6000fd5b505050506040513d601f19601f82011682018060405250810190612a6f9190613ffb565b03156131b3576000612b1a60008054906101000a900473ffffffffffffffffffffffffffffffffffffffff1673ffffffffffffffffffffffffffffffffffffffff166393f64d0360006040518263ffffffff1660e01b8152600401612ad49190613fcb565b602060405180830381865afa158015612af1573d6000803e3d6000fd5b505050506040513d601f19601f82011682018060405250810190612b159190613ffb565b613315565b90505b600073ffffffffffffffffffffffffffffffffffffffff1660008054906101000a900473ffffffffffffffffffffffffffffffffffffffff1673ffffffffffffffffffffffffffffffffffffffff1663a9a9f9fc8360006040518363ffffffff1660e01b8152600401612b91929190614535565b602060405180830381865afa158015612bae573d6000803e3d6000fd5b505050506040513d601f19601f82011682018060405250810190612bd29190614757565b73ffffffffffffffffffffffffffffffffffffffff1603612d555760008060008054906101000a900473ffffffffffffffffffffffffffffffffffffffff1673ffffffffffffffffffffffffffffffffffffffff166393f64d0360006040518263ffffffff1660e01b8152600401612c4a9190613fcb565b602060405180830381865afa158015612c67573d6000803e3d6000fd5b505050506040513d601f19601f82011682018060405250810190612c8b9190613ffb565b14612d305760008054906101000a900473ffffffffffffffffffffffffffffffffffffffff1673ffffffffffffffffffffffffffffffffffffffff166393f64d0360006040518263ffffffff1660e01b8152600401612cea9190613fcb565b602060405180830381865afa158015612d07573d6000803e3d6000fd5b505050506040513d601f19601f82011682018060405250810190612d2b9190613ffb565b612d33565b60015b905080600183612d439190614784565b612d4d9190614809565b915050612b1d565b60008060009054906101000a900473ffffffffffffffffffffffffffffffffffffffff1673ffffffffffffffffffffffffffffffffffffffff16635705b61a8360006040518363ffffffff1660e01b8152600401612db4929190614535565b602060405180830381865afa158015612dd1573d6000803e3d6000fd5b505050506040513d601f19601f82011682018060405250810190612df59190613ffb565b90508680612e0290614848565b9750508086612e119190614784565b955060008054906101000a900473ffffffffffffffffffffffffffffffffffffffff1673ffffffffffffffffffffffffffffffffffffffff166314e4ff788360006040518363ffffffff1660e01b8152600401612e6f929190614535565b600060405180830381600087803b158015612e8957600080fd5b505af1158015612e9d573d6000803e3d6000fd5b50505050600460006005548152602001908152602001600020600201604051806080016040528060008054906101000a900473ffffffffffffffffffffffffffffffffffffffff1673ffffffffffffffffffffffffffffffffffffffff1663a9a9f9fc8660006040518363ffffffff1660e01b8152600401612f20929190614535565b602060405180830381865afa158015612f3d573d6000803e3d6000fd5b505050506040513d601f19601f82011682018060405250810190612f619190614757565b73ffffffffffffffffffffffffffffffffffffffff16815260200160008054906101000a900473ffffffffffffffffffffffffffffffffffffffff1673ffffffffffffffffffffffffffffffffffffffff16635705b61a8660006040518363ffffffff1660e01b8152600401612fd8929190614535565b602060405180830381865afa158015612ff5573d6000803e3d6000fd5b505050506040513d601f19601f820116820180604052508101906130199190613ffb565b815260200160008054906101000a900473ffffffffffffffffffffffffffffffffffffffff1673ffffffffffffffffffffffffffffffffffffffff1663201043078660006040518363ffffffff1660e01b815260040161307a929190614535565b602060405180830381865afa158015613097573d6000803e3d6000fd5b505050506040513d601f19601f820116820180604052508101906130bb9190613ffb565b815260200160001515815250908060018154018082558091505060019003906000526020600020906004020160009091909190915060008201518160000160006101000a81548173ffffffffffffffffffffffffffffffffffffffff021916908373ffffffffffffffffffffffffffffffffffffffff160217905550602082015181600101556040820151816002015560608201518160030160006101000a81548160ff021916908315150217905550505060046000600554815260200190815260200160002060040182908060018154018082558091505060019003906000526020600020016000909190919091505550506121ae565b600554600460006005548152602001908152602001600020600001819055508660046000600554815260200190815260200160002060010160006101000a81548173ffffffffffffffffffffffffffffffffffffffff021916908373ffffffffffffffffffffffffffffffffffffffff1602179055508760046000600554815260200190815260200160002060030160006101000a81548160ff021916908360ff160217905550600060046000600554815260200190815260200160002060030160016101000a81548160ff0219169083151502179055507ffa4028e02cab79854d323d6c7016d9e493939f43aeeb9d7c1d5ab4264490e81e600554896040516132be929190614872565b60405180910390a16005549550505050505092915050565b6000606442336040516020016132ed929190614904565b6040516020818303038152906040528051906020012060001c6133109190614809565b905090565b600080820361332357600191505b814233604051602001613337929190614904565b6040516020818303038152906040528051906020012060001c61335a9190614809565b9050919050565b8280548282559060005260206000209060040281019282156134505760005260206000209160040282015b8281111561344f5782826000820160009054906101000a900473ffffffffffffffffffffffffffffffffffffffff168160000160006101000a81548173ffffffffffffffffffffffffffffffffffffffff021916908373ffffffffffffffffffffffffffffffffffffffff16021790555060018201548160010155600282015481600201556003820160009054906101000a900460ff168160030160006101000a81548160ff02191690831515021790555050509160040191906004019061338c565b5b50905061345d9190613605565b5090565b8280548282559060005260206000209081019282156134a25760005260206000209182015b828111156134a1578254825591600101919060010190613486565b5b5090506134af9190613667565b5090565b8280548282559060005260206000209060050281019282156135f45760005260206000209160050282015b828111156135f3578282600082015481600001556001820160009054906101000a900473ffffffffffffffffffffffffffffffffffffffff168160010160006101000a81548173ffffffffffffffffffffffffffffffffffffffff021916908373ffffffffffffffffffffffffffffffffffffffff160217905550600282018160020190805461356f929190613361565b506003820160009054906101000a900460ff168160030160006101000a81548160ff021916908360ff1602179055506003820160019054906101000a900460ff168160030160016101000a81548160ff02191690831515021790555060048201816004019080546135e1929190613461565b505050916005019190600501906134de565b5b5090506136019190613684565b5090565b5b8082111561366357600080820160006101000a81549073ffffffffffffffffffffffffffffffffffffffff0219169055600182016000905560028201600090556003820160006101000a81549060ff021916905550600401613606565b5090565b5b80821115613680576000816000905550600101613668565b5090565b5b8082111561370e576000808201600090556001820160006101000a81549073ffffffffffffffffffffffffffffffffffffffff02191690556002820160006136cd9190613712565b6003820160006101000a81549060ff02191690556003820160016101000a81549060ff02191690556004820160006137059190613736565b50600501613685565b5090565b50805460008255600402906000526020600020908101906137339190613605565b50565b50805460008255906000526020600020908101906137549190613667565b50565b600081519050919050565b600082825260208201905092915050565b6000819050602082019050919050565b6000819050919050565b61379681613783565b82525050565b600073ffffffffffffffffffffffffffffffffffffffff82169050919050565b60006137c78261379c565b9050919050565b6137d7816137bc565b82525050565b600081519050919050565b600082825260208201905092915050565b6000819050602082019050919050565b60008115159050919050565b61381e81613809565b82525050565b60808201600082015161383a60008501826137ce565b50602082015161384d602085018261378d565b506040820151613860604085018261378d565b5060608201516138736060850182613815565b50505050565b60006138858383613824565b60808301905092915050565b6000602082019050919050565b60006138a9826137dd565b6138b381856137e8565b93506138be836137f9565b8060005b838110156138ef5781516138d68882613879565b97506138e183613891565b9250506001810190506138c2565b5085935050505092915050565b600060ff82169050919050565b613912816138fc565b82525050565b600081519050919050565b600082825260208201905092915050565b6000819050602082019050919050565b6000613950838361378d565b60208301905092915050565b6000602082019050919050565b600061397482613918565b61397e8185613923565b935061398983613934565b8060005b838110156139ba5781516139a18882613944565b97506139ac8361395c565b92505060018101905061398d565b5085935050505092915050565b600060c0830160008301516139df600086018261378d565b5060208301516139f260208601826137ce565b5060408301518482036040860152613a0a828261389e565b9150506060830151613a1f6060860182613909565b506080830151613a326080860182613815565b5060a083015184820360a0860152613a4a8282613969565b9150508091505092915050565b6000613a6383836139c7565b905092915050565b6000602082019050919050565b6000613a8382613757565b613a8d8185613762565b935083602082028501613a9f85613773565b8060005b85811015613adb5784840389528151613abc8582613a57565b9450613ac783613a6b565b925060208a01995050600181019050613aa3565b50829750879550505050505092915050565b60006020820190508181036000830152613b078184613a78565b905092915050565b600080fd5b613b1d816138fc565b8114613b2857600080fd5b50565b600081359050613b3a81613b14565b92915050565b613b49816137bc565b8114613b5457600080fd5b50565b600081359050613b6681613b40565b92915050565b60008060408385031215613b8357613b82613b0f565b5b6000613b9185828601613b2b565b9250506020613ba285828601613b57565b9150509250929050565b613bb581613783565b82525050565b6000602082019050613bd06000830184613bac565b92915050565b613bdf81613783565b8114613bea57600080fd5b50565b600081359050613bfc81613bd6565b92915050565b600060208284031215613c1857613c17613b0f565b5b6000613c2684828501613bed565b91505092915050565b600081519050919050565b600082825260208201905092915050565b6000819050602082019050919050565b6000819050919050565b6000613c80613c7b613c768461379c565b613c5b565b61379c565b9050919050565b6000613c9282613c65565b9050919050565b6000613ca482613c87565b9050919050565b613cb481613c99565b82525050565b6000613cc68383613cab565b60208301905092915050565b6000602082019050919050565b6000613cea82613c2f565b613cf48185613c3a565b9350613cff83613c4b565b8060005b83811015613d30578151613d178882613cba565b9750613d2283613cd2565b925050600181019050613d03565b5085935050505092915050565b60006020820190508181036000830152613d578184613cdf565b905092915050565b600082825260208201905092915050565b7f796f7520646f206e6f74206f776e20616e7920626f7865730000000000000000600082015250565b6000613da6601883613d5f565b9150613db182613d70565b602082019050919050565b60006020820190508181036000830152613dd581613d99565b9050919050565b7f302e3035206574686572206973206e656564656420746f206d616b652074686560008201527f20626173696320626f7800000000000000000000000000000000000000000000602082015250565b6000613e38602a83613d5f565b9150613e4382613ddc565b604082019050919050565b60006020820190508181036000830152613e6781613e2b565b9050919050565b613e77816137bc565b82525050565b6000602082019050613e926000830184613e6e565b92915050565b7f302e31206574686572206973206e656564656420746f206d616b65207468652060008201527f7072656d69756d20626f78000000000000000000000000000000000000000000602082015250565b6000613ef4602b83613d5f565b9150613eff82613e98565b604082019050919050565b60006020820190508181036000830152613f2381613ee7565b9050919050565b7f302e3135206574686572206973206e656564656420746f206d616b652074686560008201527f206d7973746572696f757320626f780000000000000000000000000000000000602082015250565b6000613f86602f83613d5f565b9150613f9182613f2a565b604082019050919050565b60006020820190508181036000830152613fb581613f79565b9050919050565b613fc581613809565b82525050565b6000602082019050613fe06000830184613fbc565b92915050565b600081519050613ff581613bd6565b92915050565b60006020828403121561401157614010613b0f565b5b600061401f84828501613fe6565b91505092915050565b6000614033826137bc565b9050919050565b61404381614028565b811461404e57600080fd5b50565b6000815190506140608161403a565b92915050565b60006020828403121561407c5761407b613b0f565b5b600061408a84828501614051565b91505092915050565b7f35204d595354206973206e656564656420746f206d616b65207468652062617360008201527f696320626f780000000000000000000000000000000000000000000000000000602082015250565b60006140ef602683613d5f565b91506140fa82614093565b604082019050919050565b6000602082019050818103600083015261411e816140e2565b9050919050565b6000819050919050565b600061414a61414561414084614125565b613c5b565b613783565b9050919050565b61415a8161412f565b82525050565b60006040820190506141756000830185613e6e565b6141826020830184614151565b9392505050565b61419281613809565b811461419d57600080fd5b50565b6000815190506141af81614189565b92915050565b6000602082840312156141cb576141ca613b0f565b5b60006141d9848285016141a0565b91505092915050565b7f3130204d595354206973206e656564656420746f206d616b652074686520707260008201527f656d69756d20626f780000000000000000000000000000000000000000000000602082015250565b600061423e602983613d5f565b9150614249826141e2565b604082019050919050565b6000602082019050818103600083015261426d81614231565b9050919050565b6000819050919050565b600061429961429461428f84614274565b613c5b565b613783565b9050919050565b6142a98161427e565b82525050565b60006040820190506142c46000830185613e6e565b6142d160208301846142a0565b9392505050565b7f3135204d595354206973206e656564656420746f206d616b6520746865206d7960008201527f73746572696f757320626f780000000000000000000000000000000000000000602082015250565b6000614334602c83613d5f565b915061433f826142d8565b604082019050919050565b6000602082019050818103600083015261436381614327565b9050919050565b6000819050919050565b600061438f61438a6143858461436a565b613c5b565b613783565b9050919050565b61439f81614374565b82525050565b60006040820190506143ba6000830185613e6e565b6143c76020830184614396565b9392505050565b7f7468697320626f7820646f6573206e6f742062656c6f6e6720746f20796f7500600082015250565b6000614404601f83613d5f565b915061440f826143ce565b602082019050919050565b60006020820190508181036000830152614433816143f7565b9050919050565b7f626f782068617320616c7265616479206265656e206f70656e65640000000000600082015250565b6000614470601b83613d5f565b915061447b8261443a565b602082019050919050565b6000602082019050818103600083015261449f81614463565b9050919050565b7f4e487b7100000000000000000000000000000000000000000000000000000000600052603260045260246000fd5b60006040820190506144ea6000830185613e6e565b6144f76020830184613fbc565b9392505050565b60006060820190506145136000830186613e6e565b6145206020830185613e6e565b61452d6040830184613bac565b949350505050565b600060408201905061454a6000830185613bac565b6145576020830184613fbc565b9392505050565b60008151905061456d81613b40565b92915050565b6000806000806080858703121561458d5761458c613b0f565b5b600061459b8782880161455e565b94505060206145ac87828801613fe6565b93505060406145bd87828801613fe6565b92505060606145ce878288016141a0565b91505092959194509250565b7f4e487b7100000000000000000000000000000000000000000000000000000000600052601160045260246000fd5b600061461482613783565b91507fffffffffffffffffffffffffffffffffffffffffffffffffffffffffffffffff8203614646576146456145da565b5b600182019050919050565b61465a816138fc565b82525050565b600081519050919050565b6000819050602082019050919050565b600061468783836137ce565b60208301905092915050565b6000602082019050919050565b60006146ab82614660565b6146b58185613c3a565b93506146c08361466b565b8060005b838110156146f15781516146d8888261467b565b97506146e383614693565b9250506001810190506146c4565b5085935050505092915050565b60006040820190506147136000830185614651565b818103602083015261472581846146a0565b90509392505050565b6000614739826138fc565b91506000820361474c5761474b6145da565b5b600182039050919050565b60006020828403121561476d5761476c613b0f565b5b600061477b8482850161455e565b91505092915050565b600061478f82613783565b915061479a83613783565b9250827fffffffffffffffffffffffffffffffffffffffffffffffffffffffffffffffff038211156147cf576147ce6145da565b5b828201905092915050565b7f4e487b7100000000000000000000000000000000000000000000000000000000600052601260045260246000fd5b600061481482613783565b915061481f83613783565b92508261482f5761482e6147da565b5b828206905092915050565b600061ffff82169050919050565b60006148538261483a565b915061ffff8203614867576148666145da565b5b600182019050919050565b60006040820190506148876000830185613bac565b6148946020830184614651565b9392505050565b6000819050919050565b6148b66148b182613783565b61489b565b82525050565b60008160601b9050919050565b60006148d4826148bc565b9050919050565b60006148e6826148c9565b9050919050565b6148fe6148f9826137bc565b6148db565b82525050565b600061491082856148a5565b60208201915061492082846148ed565b601482019150819050939250505056fea26469706673582212204aa934a0c367e30808d5b22eb85335624ce80258bd7d9eca6a52a4d07ba8e44764736f6c634300080d0033",
  "immutableReferences": {},
  "source": "// SPDX-License-Identifier: MIT\r\npragma solidity ^0.8.0;\r\nimport \"@openzeppelin/contracts/token/ERC721/ERC721.sol\";\r\nimport \"./ownedNFTs.sol\";\r\nimport \"./MysteryStaking.sol\";\r\nimport \"./MysteryNFT.sol\";\r\n\r\ncontract MysteryBox {\r\n    OwnedNFTs ownedNFTInstance;\r\n    MysteryStaking mysterystakingInstance;\r\n    MysteryNFT mysteryNFTInstance;\r\n\r\n    struct Box {\r\n        uint256 id;\r\n        address purchaser;\r\n        nft[] nfts;\r\n        uint8 tier;\r\n        bool isOpen;\r\n        uint256[] nftIds;\r\n    }\r\n\r\n    struct nft {\r\n        address parentContract;\r\n        uint256 price;\r\n        uint256 tokenId;\r\n        bool isValued;\r\n    }\r\n\r\n    mapping(address => Box[]) ownedBoxes;\r\n    mapping(uint256 => Box) boxList;\r\n    uint256 nextBoxId;\r\n\r\n    constructor(\r\n        OwnedNFTs ownedNFT,\r\n        MysteryStaking mysterystaking,\r\n        MysteryNFT mysteryNFT\r\n    ) {\r\n        ownedNFTInstance = ownedNFT;\r\n        mysterystakingInstance = mysterystaking;\r\n        mysteryNFTInstance = mysteryNFT;\r\n    }\r\n\r\n    event boxMade(uint256 boxId, uint8 tier);\r\n    event transferMade(address purchaser);\r\n    event boxOpen(address purchaser);\r\n\r\n    function makeBox(uint8 tier, address purchaser) private returns (uint256) {\r\n        nextBoxId++;\r\n        uint16 boxNFTid = 0;\r\n        uint256 minVal = 0;\r\n        uint256 rareInt = rngRarity();\r\n\r\n        uint8 rareNFT = 0;\r\n        uint128 boxMinPrice;\r\n        if (tier == 0) {\r\n            boxMinPrice = 0.03 ether;\r\n            if (rareInt >= 95) {\r\n                rareNFT = 1;\r\n            }\r\n        } else if (tier == 1) {\r\n            boxMinPrice = 0.065 ether;\r\n            if (rareInt >= 70) {\r\n                rareNFT = 1;\r\n            }\r\n        } else {\r\n            boxMinPrice = 0.1 ether;\r\n            if (rareInt >= 40) {\r\n                rareNFT = 1;\r\n            }\r\n        }\r\n\r\n        // fill up the box with nfts though rng\r\n        while (minVal < boxMinPrice) {\r\n            if (rareNFT == 1) {\r\n                // rare NFT draw\r\n                if (ownedNFTInstance.getSize(true) == 0) {\r\n                    rareNFT--;\r\n                    continue; // no more rare to draw, skip to normal NFTs\r\n                }\r\n                uint256 rngNumR = rngNFT(\r\n                    ownedNFTInstance.indexUpperBound(true)\r\n                );\r\n                while (\r\n                    ownedNFTInstance.getParentContract(rngNumR, true) ==\r\n                    address(0)\r\n                ) {\r\n                    uint256 sizeValued = ownedNFTInstance.indexUpperBound(\r\n                        true\r\n                    ) == 0\r\n                        ? 1\r\n                        : ownedNFTInstance.indexUpperBound(true);\r\n                    rngNumR = (rngNumR + 1) % sizeValued;\r\n                }\r\n                uint256 priceOfNFTDrawnR = ownedNFTInstance.getPrice(\r\n                    rngNumR,\r\n                    true\r\n                );\r\n                boxNFTid++;\r\n                // update minval\r\n                minVal += priceOfNFTDrawnR;\r\n                ownedNFTInstance.sold(rngNumR, true);\r\n                rareNFT--;\r\n                boxList[nextBoxId].nfts.push(\r\n                    nft(\r\n                        ownedNFTInstance.getParentContract(rngNumR, true),\r\n                        ownedNFTInstance.getPrice(rngNumR, true),\r\n                        ownedNFTInstance.getTokenId(rngNumR, true),\r\n                        true\r\n                    )\r\n                );\r\n                boxList[nextBoxId].nftIds.push(rngNumR);\r\n            }\r\n            if (ownedNFTInstance.getSize(false) == 0) {\r\n                break; // no more NFTs to fill, break infinite loop\r\n            }\r\n            // filling up the box with other NFTs\r\n            uint256 rngNum = rngNFT(ownedNFTInstance.indexUpperBound(false));\r\n            while (\r\n                ownedNFTInstance.getParentContract(rngNum, false) == address(0)\r\n            ) {\r\n                uint256 size = ownedNFTInstance.indexUpperBound(false) == 0\r\n                    ? 1\r\n                    : ownedNFTInstance.indexUpperBound(false);\r\n                rngNum = (rngNum + 1) % size;\r\n            }\r\n            uint256 priceOfNFTDrawn = ownedNFTInstance.getPrice(rngNum, false);\r\n            boxNFTid++;\r\n\r\n            // update minval\r\n            minVal += priceOfNFTDrawn;\r\n            ownedNFTInstance.sold(rngNum, false);\r\n            boxList[nextBoxId].nfts.push(\r\n                nft(\r\n                    ownedNFTInstance.getParentContract(rngNum, false),\r\n                    ownedNFTInstance.getPrice(rngNum, false),\r\n                    ownedNFTInstance.getTokenId(rngNum, false),\r\n                    false\r\n                )\r\n            );\r\n            boxList[nextBoxId].nftIds.push(rngNum);\r\n        }\r\n\r\n        // add box to boxList\r\n        boxList[nextBoxId].id = nextBoxId;\r\n        boxList[nextBoxId].purchaser = purchaser;\r\n        boxList[nextBoxId].tier = tier;\r\n        boxList[nextBoxId].isOpen = false;\r\n\r\n        emit boxMade(nextBoxId, tier);\r\n        return nextBoxId;\r\n    }\r\n\r\n    function transfer(uint8 tier, address purchaser) public payable {\r\n        // Do require checks on msg.value\r\n        if (tier == 0) {\r\n            require(\r\n                msg.value >= 0.05 ether,\r\n                \"0.05 ether is needed to make the basic box\"\r\n            );\r\n            uint256 newBoxId = makeBox(tier, purchaser);\r\n            Box[] storage listOfBoxes = ownedBoxes[msg.sender];\r\n            listOfBoxes.push(boxList[newBoxId]);\r\n            ownedBoxes[msg.sender] = listOfBoxes;\r\n            emit transferMade(purchaser);\r\n        } else if (tier == 1) {\r\n            require(\r\n                msg.value >= 0.10 ether,\r\n                \"0.1 ether is needed to make the premium box\"\r\n            );\r\n            uint256 newBoxId = makeBox(tier, purchaser);\r\n            Box[] storage listOfBoxes = ownedBoxes[msg.sender];\r\n            listOfBoxes.push(boxList[newBoxId]);\r\n            ownedBoxes[msg.sender] = listOfBoxes;\r\n            emit transferMade(purchaser);\r\n        } else {\r\n            require(\r\n                msg.value >= 0.15 ether,\r\n                \"0.15 ether is needed to make the mysterious box\"\r\n            );\r\n            uint256 newBoxId = makeBox(tier, purchaser);\r\n            Box[] storage listOfBoxes = ownedBoxes[msg.sender];\r\n            listOfBoxes.push(boxList[newBoxId]);\r\n            ownedBoxes[msg.sender] = listOfBoxes;\r\n            emit transferMade(purchaser);\r\n        }\r\n    }\r\n\r\n    function transferMYST(uint8 tier, address purchaser) public {\r\n        // Do require checks on msg.value\r\n        if (tier == 0) {\r\n            require(\r\n                mysterystakingInstance.getERCInstance().balanceOf(msg.sender) >=\r\n                    5,\r\n                \"5 MYST is needed to make the basic box\"\r\n            );\r\n            mysterystakingInstance.getERCInstance().deduct(msg.sender, 5);\r\n            uint256 newBoxId = makeBox(tier, purchaser);\r\n            Box[] storage listOfBoxes = ownedBoxes[msg.sender];\r\n            listOfBoxes.push(boxList[newBoxId]);\r\n            ownedBoxes[msg.sender] = listOfBoxes;\r\n            emit transferMade(purchaser);\r\n        } else if (tier == 1) {\r\n            require(\r\n                mysterystakingInstance.getERCInstance().balanceOf(msg.sender) >=\r\n                    10,\r\n                \"10 MYST is needed to make the premium box\"\r\n            );\r\n            mysterystakingInstance.getERCInstance().deduct(msg.sender, 10);\r\n            uint256 newBoxId = makeBox(tier, purchaser);\r\n            Box[] storage listOfBoxes = ownedBoxes[msg.sender];\r\n            listOfBoxes.push(boxList[newBoxId]);\r\n            ownedBoxes[msg.sender] = listOfBoxes;\r\n            emit transferMade(purchaser);\r\n        } else {\r\n            require(\r\n                mysterystakingInstance.getERCInstance().balanceOf(msg.sender) >=\r\n                    15,\r\n                \"15 MYST is needed to make the mysterious box\"\r\n            );\r\n            mysterystakingInstance.getERCInstance().deduct(msg.sender, 15);\r\n            uint256 newBoxId = makeBox(tier, purchaser);\r\n            Box[] storage listOfBoxes = ownedBoxes[msg.sender];\r\n            listOfBoxes.push(boxList[newBoxId]);\r\n            ownedBoxes[msg.sender] = listOfBoxes;\r\n            emit transferMade(purchaser);\r\n        }\r\n    }\r\n\r\n    function openBox(uint256 boxID) public returns (ERC721[] memory) {\r\n        require(\r\n            boxList[boxID].purchaser == msg.sender,\r\n            \"this box does not belong to you\"\r\n        );\r\n        require(boxList[boxID].isOpen == false, \"box has already been opened\");\r\n        // transfers all NFTs in the box\r\n        Box memory yourBox = boxList[boxID];\r\n        ERC721[] memory nftAddresses;\r\n        address[] memory mystNFTminting;\r\n        for (uint256 i = 0; i < yourBox.nfts.length; i++) {\r\n            if (yourBox.nfts[i].parentContract == address(0)) {\r\n                break;\r\n            }\r\n            ERC721(yourBox.nfts[i].parentContract).setApprovalForAll(\r\n                msg.sender,\r\n                true\r\n            );\r\n            ERC721(yourBox.nfts[i].parentContract).transferFrom(\r\n                address(this),\r\n                msg.sender,\r\n                yourBox.nfts[i].tokenId\r\n            );\r\n            mystNFTminting[i] = yourBox.nfts[i].parentContract;\r\n            nftAddresses[i] = ERC721(yourBox.nfts[i].parentContract);\r\n            ownedNFTInstance.remove(\r\n                yourBox.nftIds[i],\r\n                yourBox.nfts[i].isValued\r\n            );\r\n        }\r\n        mysteryNFTInstance.mint(boxList[boxID].tier, mystNFTminting);\r\n        boxList[boxID].isOpen = true;\r\n        emit boxOpen(msg.sender);\r\n        return nftAddresses;\r\n    }\r\n\r\n    function checkBoxesIds() public view returns (Box[] memory) {\r\n        require(ownedBoxes[msg.sender].length > 0, \"you do not own any boxes\");\r\n        return ownedBoxes[msg.sender];\r\n    }\r\n\r\n    function rngNFT(uint256 size) private view returns (uint256) {\r\n        if (size == 0) {\r\n            size = 1;\r\n        }\r\n        return\r\n            uint256(keccak256(abi.encodePacked(block.timestamp, msg.sender))) %\r\n            size;\r\n    }\r\n\r\n    function rngRarity() private view returns (uint256) {\r\n        return\r\n            uint256(keccak256(abi.encodePacked(block.timestamp, msg.sender))) %\r\n            100;\r\n    }\r\n\r\n    function getOwnedInstance() public view returns (uint256) {\r\n        return ownedNFTInstance.indexUpperBound(false);\r\n    }\r\n}\r\n",
  "sourcePath": "C:\\Users\\Kevin\\Documents\\BlockchainMod\\mysterio\\contracts\\MysteryBox.sol",
  "compiler": {
    "name": "solc",
    "version": "0.8.13+commit.abaa5c0e.Emscripten.clang"
  },
  "schemaVersion": "3.4.3",
  "updatedAt": "2022-04-06T09:49:25.859Z",
  "devdoc": {
    "kind": "dev",
    "methods": {},
    "version": 1
  },
  "userdoc": {
    "kind": "user",
    "methods": {},
    "version": 1
  }
}