{
  "contractName": "MysteryBox",
  "abi": [
    {
      "inputs": [
        {
          "internalType": "contract ownedNFTs",
          "name": "ownedNFT",
          "type": "address"
        }
      ],
      "stateMutability": "nonpayable",
      "type": "constructor"
    },
    {
      "anonymous": false,
      "inputs": [
        {
          "indexed": false,
          "internalType": "uint256",
          "name": "boxId",
          "type": "uint256"
        },
        {
          "indexed": false,
          "internalType": "enum MysteryBox.tierPrices",
          "name": "tier",
          "type": "uint8"
        }
      ],
      "name": "boxMade",
      "type": "event"
    },
    {
      "anonymous": false,
      "inputs": [
        {
          "indexed": false,
          "internalType": "address",
          "name": "purchaser",
          "type": "address"
        }
      ],
      "name": "boxOpen",
      "type": "event"
    },
    {
      "anonymous": false,
      "inputs": [
        {
          "indexed": false,
          "internalType": "address",
          "name": "purchaser",
          "type": "address"
        }
      ],
      "name": "transferMade",
      "type": "event"
    },
    {
      "inputs": [
        {
          "internalType": "enum MysteryBox.tierPrices",
          "name": "tier",
          "type": "uint8"
        },
        {
          "internalType": "address",
          "name": "purchaser",
          "type": "address"
        }
      ],
      "name": "transfer",
      "outputs": [],
      "stateMutability": "payable",
      "type": "function"
    },
    {
      "inputs": [
        {
          "internalType": "uint256",
          "name": "boxID",
          "type": "uint256"
        },
        {
          "internalType": "uint256",
          "name": "tokenId",
          "type": "uint256"
        }
      ],
      "name": "openBox",
      "outputs": [
        {
          "internalType": "contract ERC721Enumerable[]",
          "name": "",
          "type": "address[]"
        }
      ],
      "stateMutability": "nonpayable",
      "type": "function"
    },
    {
      "inputs": [],
      "name": "checkBoxesIds",
      "outputs": [
        {
          "components": [
            {
              "internalType": "uint256",
              "name": "id",
              "type": "uint256"
            },
            {
              "internalType": "address",
              "name": "purchaser",
              "type": "address"
            },
            {
              "internalType": "contract ERC721Enumerable[]",
              "name": "nfts",
              "type": "address[]"
            },
            {
              "internalType": "enum MysteryBox.tierPrices",
              "name": "tier",
              "type": "uint8"
            },
            {
              "internalType": "bool",
              "name": "isOpen",
              "type": "bool"
            },
            {
              "internalType": "uint256[]",
              "name": "nftIds",
              "type": "uint256[]"
            }
          ],
          "internalType": "struct MysteryBox.Box[]",
          "name": "",
          "type": "tuple[]"
        }
      ],
      "stateMutability": "view",
      "type": "function"
    }
  ],
  "bytecode": "0x60806040523480156200001157600080fd5b5060405162002f1438038062002f148339818101604052810190620000379190620000fc565b806000806101000a81548173ffffffffffffffffffffffffffffffffffffffff021916908373ffffffffffffffffffffffffffffffffffffffff160217905550506200012e565b600080fd5b600073ffffffffffffffffffffffffffffffffffffffff82169050919050565b6000620000b08262000083565b9050919050565b6000620000c482620000a3565b9050919050565b620000d681620000b7565b8114620000e257600080fd5b50565b600081519050620000f681620000cb565b92915050565b6000602082840312156200011557620001146200007e565b5b60006200012584828501620000e5565b91505092915050565b612dd6806200013e6000396000f3fe6080604052600436106100345760003560e01c80631138ce641461003957806327b3753414610064578063f35dea5a14610080575b600080fd5b34801561004557600080fd5b5061004e6100bd565b60405161005b9190612373565b60405180910390f35b61007e600480360381019061007991906123eb565b61037a565b005b34801561008c57600080fd5b506100a760048036038101906100a29190612457565b610ff3565b6040516100b49190612506565b60405180910390f35b60606000600360003373ffffffffffffffffffffffffffffffffffffffff1673ffffffffffffffffffffffffffffffffffffffff1681526020019081526020016000208054905011610144576040517f08c379a000000000000000000000000000000000000000000000000000000000815260040161013b90612585565b60405180910390fd5b600360003373ffffffffffffffffffffffffffffffffffffffff1673ffffffffffffffffffffffffffffffffffffffff168152602001908152602001600020805480602002602001604051908101604052809291908181526020016000905b8282101561037157838290600052602060002090600502016040518060c0016040529081600082015481526020016001820160009054906101000a900473ffffffffffffffffffffffffffffffffffffffff1673ffffffffffffffffffffffffffffffffffffffff1673ffffffffffffffffffffffffffffffffffffffff168152602001600282018054806020026020016040519081016040528092919081815260200182805480156102ab57602002820191906000526020600020905b8160009054906101000a900473ffffffffffffffffffffffffffffffffffffffff1673ffffffffffffffffffffffffffffffffffffffff1681526020019060010190808311610261575b505050505081526020016003820160009054906101000a900460ff1660028111156102d9576102d861210c565b5b60028111156102eb576102ea61210c565b5b81526020016003820160019054906101000a900460ff161515151581526020016004820180548060200260200160405190810160405280929190818152602001828054801561035957602002820191906000526020600020905b815481526020019060010190808311610345575b505050505081525050815260200190600101906101a3565b50505050905090565b604051602001610389906125fc565b60405160208183030381529060405280519060200120826040516020016103b09190612647565b60405160208183030381529060405280519060200120036107bd576706f05b59d3b20000341015610416576040517f08c379a000000000000000000000000000000000000000000000000000000000815260040161040d906126d4565b60405180910390fd5b60006104228383611480565b90506000600460008381526020019081526020016000206040518060c0016040529081600082015481526020016001820160009054906101000a900473ffffffffffffffffffffffffffffffffffffffff1673ffffffffffffffffffffffffffffffffffffffff1673ffffffffffffffffffffffffffffffffffffffff1681526020016002820180548060200260200160405190810160405280929190818152602001828054801561052957602002820191906000526020600020905b8160009054906101000a900473ffffffffffffffffffffffffffffffffffffffff1673ffffffffffffffffffffffffffffffffffffffff16815260200190600101908083116104df575b505050505081526020016003820160009054906101000a900460ff1660028111156105575761055661210c565b5b60028111156105695761056861210c565b5b81526020016003820160019054906101000a900460ff16151515158152602001600482018054806020026020016040519081016040528092919081815260200182805480156105d757602002820191906000526020600020905b8154815260200190600101908083116105c3575b50505050508152505090506000600360003373ffffffffffffffffffffffffffffffffffffffff1673ffffffffffffffffffffffffffffffffffffffff168152602001908152602001600020905060008180549050905082828281548110610642576106416126f4565b5b90600052602060002090600502016000820151816000015560208201518160010160006101000a81548173ffffffffffffffffffffffffffffffffffffffff021916908373ffffffffffffffffffffffffffffffffffffffff16021790555060408201518160020190805190602001906106bd929190611baf565b5060608201518160030160006101000a81548160ff021916908360028111156106e9576106e861210c565b5b021790555060808201518160030160016101000a81548160ff02191690831515021790555060a082015181600401908051906020019061072a929190611c39565b5090505081600360003373ffffffffffffffffffffffffffffffffffffffff1673ffffffffffffffffffffffffffffffffffffffff16815260200190815260200160002090805461077c929190611c86565b507fa5fddfcc13d26ad51fbfd106263f3ff73e656d5dc414f0f8dad98fdb15a5cc2f856040516107ac9190612732565b60405180910390a150505050610fef565b6040516020016107cc90612799565b60405160208183030381529060405280519060200120826040516020016107f39190612647565b6040516020818303038152906040528051906020012003610c0057670de0b6b3a7640000341015610859576040517f08c379a000000000000000000000000000000000000000000000000000000000815260040161085090612820565b60405180910390fd5b60006108658383611480565b90506000600460008381526020019081526020016000206040518060c0016040529081600082015481526020016001820160009054906101000a900473ffffffffffffffffffffffffffffffffffffffff1673ffffffffffffffffffffffffffffffffffffffff1673ffffffffffffffffffffffffffffffffffffffff1681526020016002820180548060200260200160405190810160405280929190818152602001828054801561096c57602002820191906000526020600020905b8160009054906101000a900473ffffffffffffffffffffffffffffffffffffffff1673ffffffffffffffffffffffffffffffffffffffff1681526020019060010190808311610922575b505050505081526020016003820160009054906101000a900460ff16600281111561099a5761099961210c565b5b60028111156109ac576109ab61210c565b5b81526020016003820160019054906101000a900460ff1615151515815260200160048201805480602002602001604051908101604052809291908181526020018280548015610a1a57602002820191906000526020600020905b815481526020019060010190808311610a06575b50505050508152505090506000600360003373ffffffffffffffffffffffffffffffffffffffff1673ffffffffffffffffffffffffffffffffffffffff168152602001908152602001600020905060008180549050905082828281548110610a8557610a846126f4565b5b90600052602060002090600502016000820151816000015560208201518160010160006101000a81548173ffffffffffffffffffffffffffffffffffffffff021916908373ffffffffffffffffffffffffffffffffffffffff1602179055506040820151816002019080519060200190610b00929190611baf565b5060608201518160030160006101000a81548160ff02191690836002811115610b2c57610b2b61210c565b5b021790555060808201518160030160016101000a81548160ff02191690831515021790555060a0820151816004019080519060200190610b6d929190611c39565b5090505081600360003373ffffffffffffffffffffffffffffffffffffffff1673ffffffffffffffffffffffffffffffffffffffff168152602001908152602001600020908054610bbf929190611c86565b507fa5fddfcc13d26ad51fbfd106263f3ff73e656d5dc414f0f8dad98fdb15a5cc2f85604051610bef9190612732565b60405180910390a150505050610fee565b6714d1120d7b160000341015610c4b576040517f08c379a0000000000000000000000000000000000000000000000000000000008152600401610c42906128b2565b60405180910390fd5b6000610c578383611480565b90506000600460008381526020019081526020016000206040518060c0016040529081600082015481526020016001820160009054906101000a900473ffffffffffffffffffffffffffffffffffffffff1673ffffffffffffffffffffffffffffffffffffffff1673ffffffffffffffffffffffffffffffffffffffff16815260200160028201805480602002602001604051908101604052809291908181526020018280548015610d5e57602002820191906000526020600020905b8160009054906101000a900473ffffffffffffffffffffffffffffffffffffffff1673ffffffffffffffffffffffffffffffffffffffff1681526020019060010190808311610d14575b505050505081526020016003820160009054906101000a900460ff166002811115610d8c57610d8b61210c565b5b6002811115610d9e57610d9d61210c565b5b81526020016003820160019054906101000a900460ff1615151515815260200160048201805480602002602001604051908101604052809291908181526020018280548015610e0c57602002820191906000526020600020905b815481526020019060010190808311610df8575b50505050508152505090506000600360003373ffffffffffffffffffffffffffffffffffffffff1673ffffffffffffffffffffffffffffffffffffffff168152602001908152602001600020905060008180549050905082828281548110610e7757610e766126f4565b5b90600052602060002090600502016000820151816000015560208201518160010160006101000a81548173ffffffffffffffffffffffffffffffffffffffff021916908373ffffffffffffffffffffffffffffffffffffffff1602179055506040820151816002019080519060200190610ef2929190611baf565b5060608201518160030160006101000a81548160ff02191690836002811115610f1e57610f1d61210c565b5b021790555060808201518160030160016101000a81548160ff02191690831515021790555060a0820151816004019080519060200190610f5f929190611c39565b5090505081600360003373ffffffffffffffffffffffffffffffffffffffff1673ffffffffffffffffffffffffffffffffffffffff168152602001908152602001600020908054610fb1929190611c86565b507fa5fddfcc13d26ad51fbfd106263f3ff73e656d5dc414f0f8dad98fdb15a5cc2f85604051610fe19190612732565b60405180910390a1505050505b5b5050565b60603373ffffffffffffffffffffffffffffffffffffffff166004600085815260200190815260200160002060010160009054906101000a900473ffffffffffffffffffffffffffffffffffffffff1673ffffffffffffffffffffffffffffffffffffffff1614611099576040517f08c379a00000000000000000000000000000000000000000000000000000000081526004016110909061291e565b60405180910390fd5b6000600460008581526020019081526020016000206040518060c0016040529081600082015481526020016001820160009054906101000a900473ffffffffffffffffffffffffffffffffffffffff1673ffffffffffffffffffffffffffffffffffffffff1673ffffffffffffffffffffffffffffffffffffffff1681526020016002820180548060200260200160405190810160405280929190818152602001828054801561119e57602002820191906000526020600020905b8160009054906101000a900473ffffffffffffffffffffffffffffffffffffffff1673ffffffffffffffffffffffffffffffffffffffff1681526020019060010190808311611154575b505050505081526020016003820160009054906101000a900460ff1660028111156111cc576111cb61210c565b5b60028111156111de576111dd61210c565b5b81526020016003820160019054906101000a900460ff161515151581526020016004820180548060200260200160405190810160405280929190818152602001828054801561124c57602002820191906000526020600020905b815481526020019060010190808311611238575b50505050508152505090506000151581608001511515146112a2576040517f08c379a00000000000000000000000000000000000000000000000000000000081526004016112999061298a565b60405180910390fd5b606060005b826040015151811015611463576000836040015182815181106112cd576112cc6126f4565b5b602002602001015190508073ffffffffffffffffffffffffffffffffffffffff166323b872dd3033896040518463ffffffff1660e01b8152600401611314939291906129b9565b600060405180830381600087803b15801561132e57600080fd5b505af1158015611342573d6000803e3d6000fd5b505050508083838151811061135a576113596126f4565b5b602002602001019073ffffffffffffffffffffffffffffffffffffffff16908173ffffffffffffffffffffffffffffffffffffffff168152505060008054906101000a900473ffffffffffffffffffffffffffffffffffffffff1673ffffffffffffffffffffffffffffffffffffffff16634cc822158560a0015184815181106113e7576113e66126f4565b5b60200260200101516040518263ffffffff1660e01b815260040161140b91906129f0565b60408051808303816000875af1158015611429573d6000803e3d6000fd5b505050506040513d601f19601f8201168201806040525081019061144d9190612a35565b505050808061145b90612aa4565b9150506112a7565b506001826080019015159081151581525050809250505092915050565b60006005600081548092919061149590612aa4565b91905055506000806000806040516020016114af906125fc565b60405160208183030381529060405280519060200120876040516020016114d69190612647565b604051602081830303815290604052805190602001200361150c57670429d069189e000091506704db7325476300009050611590565b60405160200161151b90612b38565b60405160208183030381529060405280519060200120876040516020016115429190612647565b604051602081830303815290604052805190602001200361157857670905438e600100009150670b1a2bc2ec500000905061158f565b670de0b6b3a76400009150671158e460913d000090505b5b5b816fffffffffffffffffffffffffffffffff168310156118e057600061164460008054906101000a900473ffffffffffffffffffffffffffffffffffffffff1673ffffffffffffffffffffffffffffffffffffffff1663031b8b216040518163ffffffff1660e01b8152600401602060405180830381865afa15801561161b573d6000803e3d6000fd5b505050506040513d601f19601f8201168201806040525081019061163f9190612b4d565b611b6f565b905060008060009054906101000a900473ffffffffffffffffffffffffffffffffffffffff1673ffffffffffffffffffffffffffffffffffffffff166391492956836040518263ffffffff1660e01b81526004016116a291906129f0565b602060405180830381865afa1580156116bf573d6000803e3d6000fd5b505050506040513d601f19601f820116820180604052508101906116e39190612b4d565b9050826fffffffffffffffffffffffffffffffff1685826117049190612b7a565b1115611711575050611591565b858061171c90612bde565b96505060008054906101000a900473ffffffffffffffffffffffffffffffffffffffff1673ffffffffffffffffffffffffffffffffffffffff16638d8e6553836040518263ffffffff1660e01b815260040161177891906129f0565b602060405180830381865afa158015611795573d6000803e3d6000fd5b505050506040513d601f19601f820116820180604052508101906117b99190612c46565b60018761ffff16815481106117d1576117d06126f4565b5b9060005260206000200160006101000a81548173ffffffffffffffffffffffffffffffffffffffff021916908373ffffffffffffffffffffffffffffffffffffffff16021790555080856118259190612b7a565b945060008054906101000a900473ffffffffffffffffffffffffffffffffffffffff1673ffffffffffffffffffffffffffffffffffffffff16639c03facb836040518263ffffffff1660e01b815260040161188091906129f0565b600060405180830381600087803b15801561189a57600080fd5b505af11580156118ae573d6000803e3d6000fd5b505050508160028761ffff16815481106118cb576118ca6126f4565b5b90600052602060002001819055505050611591565b60006040518060c0016040528060055481526020018873ffffffffffffffffffffffffffffffffffffffff168152602001600180548060200260200160405190810160405280929190818152602001828054801561199357602002820191906000526020600020905b8160009054906101000a900473ffffffffffffffffffffffffffffffffffffffff1673ffffffffffffffffffffffffffffffffffffffff1681526020019060010190808311611949575b505050505081526020018960028111156119b0576119af61210c565b5b81526020016000151581526020016002805480602002602001604051908101604052809291908181526020018280548015611a0a57602002820191906000526020600020905b8154815260200190600101908083116119f6575b50505050508152509050806004600060055481526020019081526020016000206000820151816000015560208201518160010160006101000a81548173ffffffffffffffffffffffffffffffffffffffff021916908373ffffffffffffffffffffffffffffffffffffffff1602179055506040820151816002019080519060200190611a97929190611baf565b5060608201518160030160006101000a81548160ff02191690836002811115611ac357611ac261210c565b5b021790555060808201518160030160016101000a81548160ff02191690831515021790555060a0820151816004019080519060200190611b04929190611c39565b509050507ffa4028e02cab79854d323d6c7016d9e493939f43aeeb9d7c1d5ab4264490e81e60055489604051611b3b929190612c82565b60405180910390a160016000611b519190611de7565b60026000611b5f9190611e08565b6005549550505050505092915050565b6000814233604051602001611b85929190612d14565b6040516020818303038152906040528051906020012060001c611ba89190612d6f565b9050919050565b828054828255906000526020600020908101928215611c28579160200282015b82811115611c275782518260006101000a81548173ffffffffffffffffffffffffffffffffffffffff021916908373ffffffffffffffffffffffffffffffffffffffff16021790555091602001919060010190611bcf565b5b509050611c359190611e29565b5090565b828054828255906000526020600020908101928215611c75579160200282015b82811115611c74578251825591602001919060010190611c59565b5b509050611c829190611e29565b5090565b828054828255906000526020600020906005028101928215611dd65760005260206000209160050282015b82811115611dd5578282600082015481600001556001820160009054906101000a900473ffffffffffffffffffffffffffffffffffffffff168160010160006101000a81548173ffffffffffffffffffffffffffffffffffffffff021916908373ffffffffffffffffffffffffffffffffffffffff1602179055506002820181600201908054611d42929190611e46565b506003820160009054906101000a900460ff168160030160006101000a81548160ff02191690836002811115611d7b57611d7a61210c565b5b02179055506003820160019054906101000a900460ff168160030160016101000a81548160ff0219169083151502179055506004820181600401908054611dc3929190611e98565b50505091600501919060050190611cb1565b5b509050611de39190611eea565b5090565b5080546000825590600052602060002090810190611e059190611e29565b50565b5080546000825590600052602060002090810190611e269190611e29565b50565b5b80821115611e42576000816000905550600101611e2a565b5090565b828054828255906000526020600020908101928215611e875760005260206000209182015b82811115611e86578254825591600101919060010190611e6b565b5b509050611e949190611e29565b5090565b828054828255906000526020600020908101928215611ed95760005260206000209182015b82811115611ed8578254825591600101919060010190611ebd565b5b509050611ee69190611e29565b5090565b5b80821115611f74576000808201600090556001820160006101000a81549073ffffffffffffffffffffffffffffffffffffffff0219169055600282016000611f339190611de7565b6003820160006101000a81549060ff02191690556003820160016101000a81549060ff0219169055600482016000611f6b9190611e08565b50600501611eeb565b5090565b600081519050919050565b600082825260208201905092915050565b6000819050602082019050919050565b6000819050919050565b611fb781611fa4565b82525050565b600073ffffffffffffffffffffffffffffffffffffffff82169050919050565b6000611fe882611fbd565b9050919050565b611ff881611fdd565b82525050565b600081519050919050565b600082825260208201905092915050565b6000819050602082019050919050565b6000819050919050565b600061204f61204a61204584611fbd565b61202a565b611fbd565b9050919050565b600061206182612034565b9050919050565b600061207382612056565b9050919050565b61208381612068565b82525050565b6000612095838361207a565b60208301905092915050565b6000602082019050919050565b60006120b982611ffe565b6120c38185612009565b93506120ce8361201a565b8060005b838110156120ff5781516120e68882612089565b97506120f1836120a1565b9250506001810190506120d2565b5085935050505092915050565b7f4e487b7100000000000000000000000000000000000000000000000000000000600052602160045260246000fd5b6003811061214c5761214b61210c565b5b50565b600081905061215d8261213b565b919050565b600061216d8261214f565b9050919050565b61217d81612162565b82525050565b60008115159050919050565b61219881612183565b82525050565b600081519050919050565b600082825260208201905092915050565b6000819050602082019050919050565b60006121d68383611fae565b60208301905092915050565b6000602082019050919050565b60006121fa8261219e565b61220481856121a9565b935061220f836121ba565b8060005b8381101561224057815161222788826121ca565b9750612232836121e2565b925050600181019050612213565b5085935050505092915050565b600060c0830160008301516122656000860182611fae565b5060208301516122786020860182611fef565b506040830151848203604086015261229082826120ae565b91505060608301516122a56060860182612174565b5060808301516122b8608086018261218f565b5060a083015184820360a08601526122d082826121ef565b9150508091505092915050565b60006122e9838361224d565b905092915050565b6000602082019050919050565b600061230982611f78565b6123138185611f83565b93508360208202850161232585611f94565b8060005b85811015612361578484038952815161234285826122dd565b945061234d836122f1565b925060208a01995050600181019050612329565b50829750879550505050505092915050565b6000602082019050818103600083015261238d81846122fe565b905092915050565b600080fd5b600381106123a757600080fd5b50565b6000813590506123b98161239a565b92915050565b6123c881611fdd565b81146123d357600080fd5b50565b6000813590506123e5816123bf565b92915050565b6000806040838503121561240257612401612395565b5b6000612410858286016123aa565b9250506020612421858286016123d6565b9150509250929050565b61243481611fa4565b811461243f57600080fd5b50565b6000813590506124518161242b565b92915050565b6000806040838503121561246e5761246d612395565b5b600061247c85828601612442565b925050602061248d85828601612442565b9150509250929050565b600082825260208201905092915050565b60006124b382611ffe565b6124bd8185612497565b93506124c88361201a565b8060005b838110156124f95781516124e08882612089565b97506124eb836120a1565b9250506001810190506124cc565b5085935050505092915050565b6000602082019050818103600083015261252081846124a8565b905092915050565b600082825260208201905092915050565b7f796f7520646f206e6f74206f776e20616e7920626f7865730000000000000000600082015250565b600061256f601883612528565b915061257a82612539565b602082019050919050565b6000602082019050818103600083015261259e81612562565b9050919050565b600081905092915050565b7f6261736963000000000000000000000000000000000000000000000000000000600082015250565b60006125e66005836125a5565b91506125f1826125b0565b600582019050919050565b6000612607826125d9565b9150819050919050565b60008160f81b9050919050565b600061262982612611565b9050919050565b61264161263c82612162565b61261e565b82525050565b60006126538284612630565b60018201915081905092915050565b7f302e35206574686572206973206e656564656420746f206d616b65207468652060008201527f626173696320626f780000000000000000000000000000000000000000000000602082015250565b60006126be602983612528565b91506126c982612662565b604082019050919050565b600060208201905081810360008301526126ed816126b1565b9050919050565b7f4e487b7100000000000000000000000000000000000000000000000000000000600052603260045260246000fd5b61272c81611fdd565b82525050565b60006020820190506127476000830184612723565b92915050565b7f5072656d69756d00000000000000000000000000000000000000000000000000600082015250565b60006127836007836125a5565b915061278e8261274d565b600782019050919050565b60006127a482612776565b9150819050919050565b7f31206574686572206973206e656564656420746f206d616b652074686520707260008201527f656d69756d20626f780000000000000000000000000000000000000000000000602082015250565b600061280a602983612528565b9150612815826127ae565b604082019050919050565b60006020820190508181036000830152612839816127fd565b9050919050565b7f312e35206574686572206973206e656564656420746f206d616b65207468652060008201527f6d7973746572696f757320626f78000000000000000000000000000000000000602082015250565b600061289c602e83612528565b91506128a782612840565b604082019050919050565b600060208201905081810360008301526128cb8161288f565b9050919050565b7f7468697320626f7820646f6573206e6f742062656c6f6e6720746f20796f7500600082015250565b6000612908601f83612528565b9150612913826128d2565b602082019050919050565b60006020820190508181036000830152612937816128fb565b9050919050565b7f626f782068617320616c7265616479206265656e206f70656e65640000000000600082015250565b6000612974601b83612528565b915061297f8261293e565b602082019050919050565b600060208201905081810360008301526129a381612967565b9050919050565b6129b381611fa4565b82525050565b60006060820190506129ce6000830186612723565b6129db6020830185612723565b6129e860408301846129aa565b949350505050565b6000602082019050612a0560008301846129aa565b92915050565b600081519050612a1a8161242b565b92915050565b600081519050612a2f816123bf565b92915050565b60008060408385031215612a4c57612a4b612395565b5b6000612a5a85828601612a0b565b9250506020612a6b85828601612a20565b9150509250929050565b7f4e487b7100000000000000000000000000000000000000000000000000000000600052601160045260246000fd5b6000612aaf82611fa4565b91507fffffffffffffffffffffffffffffffffffffffffffffffffffffffffffffffff8203612ae157612ae0612a75565b5b600182019050919050565b7f7072656d69756d00000000000000000000000000000000000000000000000000600082015250565b6000612b226007836125a5565b9150612b2d82612aec565b600782019050919050565b6000612b4382612b15565b9150819050919050565b600060208284031215612b6357612b62612395565b5b6000612b7184828501612a0b565b91505092915050565b6000612b8582611fa4565b9150612b9083611fa4565b9250827fffffffffffffffffffffffffffffffffffffffffffffffffffffffffffffffff03821115612bc557612bc4612a75565b5b828201905092915050565b600061ffff82169050919050565b6000612be982612bd0565b915061ffff8203612bfd57612bfc612a75565b5b600182019050919050565b6000612c1382611fdd565b9050919050565b612c2381612c08565b8114612c2e57600080fd5b50565b600081519050612c4081612c1a565b92915050565b600060208284031215612c5c57612c5b612395565b5b6000612c6a84828501612c31565b91505092915050565b612c7c81612162565b82525050565b6000604082019050612c9760008301856129aa565b612ca46020830184612c73565b9392505050565b6000819050919050565b612cc6612cc182611fa4565b612cab565b82525050565b60008160601b9050919050565b6000612ce482612ccc565b9050919050565b6000612cf682612cd9565b9050919050565b612d0e612d0982611fdd565b612ceb565b82525050565b6000612d208285612cb5565b602082019150612d308284612cfd565b6014820191508190509392505050565b7f4e487b7100000000000000000000000000000000000000000000000000000000600052601260045260246000fd5b6000612d7a82611fa4565b9150612d8583611fa4565b925082612d9557612d94612d40565b5b82820690509291505056fea26469706673582212204c84a446a2d340ff024451c32599dba615b0bbded9729d3bfa82b20bb8c2560864736f6c634300080d0033",
  "immutableReferences": {},
  "source": "// SPDX-License-Identifier: MIT\r\npragma solidity >=0.5.0;\r\nimport \"./ownedNFTs.sol\";\r\nimport \"@openzeppelin/contracts/token/ERC721/extensions/ERC721Enumerable.sol\";\r\n\r\ncontract MysteryBox {\r\n    ownedNFTs ownedNFTInstance;\r\n    enum tierPrices {\r\n        basic,\r\n        premium,\r\n        mysterious\r\n    }\r\n    struct Box {\r\n        uint256 id;\r\n        address purchaser;\r\n        ERC721Enumerable[] nfts;\r\n        tierPrices tier;\r\n        bool isOpen;\r\n        uint256[] nftIds;\r\n    }\r\n    ERC721Enumerable[] boxNFTList;\r\n    uint256[] BoxnftIds;\r\n    \r\n    mapping(address => Box[]) ownedBoxes;\r\n    mapping(uint256 => Box) boxList;\r\n    uint256 nextBoxId;\r\n    \r\n\r\n    constructor(ownedNFTs ownedNFT) {\r\n        ownedNFTInstance = ownedNFT;\r\n    }\r\n\r\n    event boxMade(uint256 boxId, tierPrices tier);\r\n    event transferMade(address purchaser);\r\n    event boxOpen(address purchaser);\r\n\r\n    function makeBox(tierPrices tier, address purchaser) private returns (uint256) {\r\n        \r\n        nextBoxId++;\r\n        uint16 boxNFTid = 0;\r\n        uint256 minVal = 0;\r\n\r\n        uint128 boxMinPrice;\r\n        uint128 boxMaxPrice;\r\n        if ((keccak256(abi.encodePacked((tier))) == keccak256(abi.encodePacked((\"basic\"))))) {\r\n            boxMinPrice = 0.30 ether;\r\n            boxMaxPrice = 0.35 ether;\r\n        } else if ((keccak256(abi.encodePacked((tier))) == keccak256(abi.encodePacked((\"premium\"))))) {\r\n            boxMinPrice = 0.65 ether;\r\n            boxMaxPrice = 0.80 ether;\r\n        } else {\r\n            boxMinPrice = 1 ether;\r\n            boxMaxPrice = 1.25 ether;\r\n        }\r\n\r\n        // fill up the box with nfts though rng\r\n        while (minVal < boxMinPrice) {\r\n            uint rngNum = rngNFT(ownedNFTInstance.getMaximumSize());\r\n            uint256 priceOfNFTDrawn = ownedNFTInstance.getPrices(rngNum);\r\n            if (priceOfNFTDrawn + minVal > boxMaxPrice) {\r\n                continue;\r\n                // do not add NFT that cause total to exceed max price\r\n                // draw another number for NFT\r\n            } else {\r\n                // assign NFT to boxNFTList\r\n                boxNFTid++;\r\n                boxNFTList[boxNFTid] = ownedNFTInstance.getUnwantedNFTs(rngNum);\r\n                // update minval\r\n                minVal += priceOfNFTDrawn;\r\n                ownedNFTInstance.sold(rngNum);\r\n                BoxnftIds[boxNFTid] = rngNum;\r\n            }\r\n        }\r\n\r\n        // add box to boxList\r\n        Box memory newBox = Box(nextBoxId, purchaser, boxNFTList, tier, false, BoxnftIds);\r\n        boxList[nextBoxId] = newBox;\r\n        emit boxMade(nextBoxId, tier);\r\n        delete boxNFTList;\r\n        delete BoxnftIds;\r\n        return nextBoxId;\r\n    }\r\n\r\n    function transfer(tierPrices tier, address purchaser) public payable {\r\n        // Do require checks on msg.value\r\n        if ((keccak256(abi.encodePacked((tier))) == keccak256(abi.encodePacked((\"basic\"))))) {\r\n            require(\r\n                msg.value >= 0.5 ether,\r\n                \"0.5 ether is needed to make the basic box\"\r\n            );\r\n            uint256 newBoxId = makeBox(tier, purchaser);\r\n            Box memory newBox = boxList[newBoxId];\r\n            Box[] storage listOfBoxes = ownedBoxes[msg.sender];\r\n            uint256 length = listOfBoxes.length;\r\n            listOfBoxes[length] = newBox;\r\n            ownedBoxes[msg.sender] = listOfBoxes;\r\n            emit transferMade(purchaser);\r\n        } else if ((keccak256(abi.encodePacked((tier))) == keccak256(abi.encodePacked((\"Premium\"))))) {\r\n            require(\r\n                msg.value >= 1 ether,\r\n                \"1 ether is needed to make the premium box\"\r\n            );\r\n            uint256 newBoxId = makeBox(tier, purchaser);\r\n            Box memory newBox = boxList[newBoxId];\r\n            Box[] storage listOfBoxes = ownedBoxes[msg.sender];\r\n            uint256 length = listOfBoxes.length;\r\n            listOfBoxes[length] = newBox;\r\n            ownedBoxes[msg.sender] = listOfBoxes;\r\n            emit transferMade(purchaser);\r\n        } else {\r\n            require(\r\n                msg.value >= 1.5 ether,\r\n                \"1.5 ether is needed to make the mysterious box\"\r\n            );\r\n            uint256 newBoxId = makeBox(tier, purchaser);\r\n            Box memory newBox = boxList[newBoxId];\r\n            Box[] storage listOfBoxes = ownedBoxes[msg.sender];\r\n            uint256 length = listOfBoxes.length;\r\n            listOfBoxes[length] = newBox;\r\n            ownedBoxes[msg.sender] = listOfBoxes;\r\n            emit transferMade(purchaser);\r\n        }\r\n    }\r\n\r\n    function openBox(uint256 boxID, uint256 tokenId) public returns (ERC721Enumerable[] memory) {\r\n        require(\r\n            boxList[boxID].purchaser == msg.sender,\r\n            \"this box does not belong to you\"\r\n        );\r\n        // transfers all NFTs in the box\r\n        Box memory yourBox = boxList[boxID];\r\n        require(yourBox.isOpen == false, \"box has already been opened\");\r\n        ERC721Enumerable[] memory nfts;\r\n        for (uint256 i = 0; i < yourBox.nfts.length; i++) {\r\n            ERC721Enumerable nft = yourBox.nfts[i];\r\n            // need to check if there needs to be owner for this contract\r\n            // check how to get nft id for transferring\r\n            nft.transferFrom(address(this), msg.sender, tokenId);\r\n            nfts[i] = nft;\r\n            ownedNFTInstance.remove(yourBox.nftIds[i]);\r\n        }\r\n        yourBox.isOpen = true;\r\n        return nfts;\r\n    }\r\n\r\n    function checkBoxesIds() public view returns (Box[] memory) {\r\n        require(ownedBoxes[msg.sender].length > 0, \"you do not own any boxes\");\r\n        return ownedBoxes[msg.sender];\r\n    }\r\n\r\n    function rngNFT(uint size) private view returns (uint) {\r\n        return uint(keccak256(abi.encodePacked(block.timestamp, msg.sender))) % size;\r\n    }\r\n}\r\n",
  "sourcePath": "C:\\Users\\jiaju\\Desktop\\Projects\\React Projects\\myster\\contracts\\MysteryBox.sol",
  "compiler": {
    "name": "solc",
    "version": "0.8.13+commit.abaa5c0e.Emscripten.clang"
  },
  "schemaVersion": "3.4.4",
  "updatedAt": "2022-03-24T09:11:45.152Z",
  "devdoc": {
    "kind": "dev",
    "methods": {},
    "version": 1
  },
  "userdoc": {
    "kind": "user",
    "methods": {},
    "version": 1
  }
}