{
  "contractName": "MysteryStaking",
  "abi": [
    {
      "inputs": [
        {
          "internalType": "contract MysteryNFT",
          "name": "mysteryNFTcontract",
          "type": "address"
        }
      ],
      "stateMutability": "nonpayable",
      "type": "constructor"
    },
    {
      "anonymous": false,
      "inputs": [
        {
          "indexed": false,
          "internalType": "address",
          "name": "sender",
          "type": "address"
        },
        {
          "indexed": false,
          "internalType": "uint256",
          "name": "amt",
          "type": "uint256"
        }
      ],
      "name": "GetMYST",
      "type": "event"
    },
    {
      "anonymous": false,
      "inputs": [
        {
          "indexed": false,
          "internalType": "address",
          "name": "sender",
          "type": "address"
        },
        {
          "indexed": false,
          "internalType": "uint256",
          "name": "amt",
          "type": "uint256"
        }
      ],
      "name": "RewardsClaimed",
      "type": "event"
    },
    {
      "anonymous": false,
      "inputs": [
        {
          "indexed": false,
          "internalType": "address",
          "name": "sender",
          "type": "address"
        },
        {
          "indexed": false,
          "internalType": "uint256",
          "name": "amt",
          "type": "uint256"
        }
      ],
      "name": "TokenSent",
      "type": "event"
    },
    {
      "anonymous": false,
      "inputs": [
        {
          "indexed": false,
          "internalType": "address",
          "name": "sender",
          "type": "address"
        },
        {
          "indexed": false,
          "internalType": "uint256",
          "name": "amt",
          "type": "uint256"
        }
      ],
      "name": "TokenStaked",
      "type": "event"
    },
    {
      "anonymous": false,
      "inputs": [
        {
          "indexed": false,
          "internalType": "address",
          "name": "sender",
          "type": "address"
        },
        {
          "indexed": false,
          "internalType": "uint256",
          "name": "amt",
          "type": "uint256"
        }
      ],
      "name": "TokenUnstaked",
      "type": "event"
    },
    {
      "anonymous": false,
      "inputs": [
        {
          "indexed": false,
          "internalType": "address",
          "name": "to",
          "type": "address"
        },
        {
          "indexed": false,
          "internalType": "uint256",
          "name": "amount",
          "type": "uint256"
        }
      ],
      "name": "Transfer",
      "type": "event"
    },
    {
      "inputs": [],
      "name": "getMYST",
      "outputs": [
        {
          "internalType": "uint256",
          "name": "",
          "type": "uint256"
        }
      ],
      "stateMutability": "payable",
      "type": "function"
    },
    {
      "inputs": [
        {
          "internalType": "uint256",
          "name": "amt",
          "type": "uint256"
        }
      ],
      "name": "stakeTokens",
      "outputs": [],
      "stateMutability": "nonpayable",
      "type": "function"
    },
    {
      "inputs": [
        {
          "internalType": "uint256",
          "name": "amt",
          "type": "uint256"
        }
      ],
      "name": "unstakeTokens",
      "outputs": [],
      "stateMutability": "nonpayable",
      "type": "function"
    },
    {
      "inputs": [],
      "name": "claimRewards",
      "outputs": [],
      "stateMutability": "nonpayable",
      "type": "function"
    },
    {
      "inputs": [],
      "name": "getTotalPool",
      "outputs": [
        {
          "internalType": "uint256",
          "name": "",
          "type": "uint256"
        }
      ],
      "stateMutability": "view",
      "type": "function"
    },
    {
      "inputs": [
        {
          "internalType": "address",
          "name": "user",
          "type": "address"
        }
      ],
      "name": "getTokenBalance",
      "outputs": [
        {
          "internalType": "uint256",
          "name": "",
          "type": "uint256"
        }
      ],
      "stateMutability": "view",
      "type": "function"
    },
    {
      "inputs": [
        {
          "internalType": "address",
          "name": "user",
          "type": "address"
        }
      ],
      "name": "getStakedBalance",
      "outputs": [
        {
          "internalType": "uint256",
          "name": "",
          "type": "uint256"
        }
      ],
      "stateMutability": "view",
      "type": "function"
    },
    {
      "inputs": [
        {
          "internalType": "address",
          "name": "user",
          "type": "address"
        }
      ],
      "name": "getRewardsEarned",
      "outputs": [
        {
          "internalType": "uint256",
          "name": "",
          "type": "uint256"
        }
      ],
      "stateMutability": "view",
      "type": "function"
    },
    {
      "inputs": [],
      "name": "getERCInstance",
      "outputs": [
        {
          "internalType": "contract ERC20",
          "name": "",
          "type": "address"
        }
      ],
      "stateMutability": "view",
      "type": "function"
    },
    {
      "inputs": [
        {
          "internalType": "address",
          "name": "user",
          "type": "address"
        }
      ],
      "name": "minusOneYearFromRewardCalc",
      "outputs": [],
      "stateMutability": "nonpayable",
      "type": "function"
    }
  ],
  "bytecode": "0x60806040523480156200001157600080fd5b50604051620033f4380380620033f48339818101604052810190620000379190620001c7565b60405162000045906200013b565b604051809103906000f08015801562000062573d6000803e3d6000fd5b506000806101000a81548173ffffffffffffffffffffffffffffffffffffffff021916908373ffffffffffffffffffffffffffffffffffffffff16021790555080600160006101000a81548173ffffffffffffffffffffffffffffffffffffffff021916908373ffffffffffffffffffffffffffffffffffffffff16021790555033600260006101000a81548173ffffffffffffffffffffffffffffffffffffffff021916908373ffffffffffffffffffffffffffffffffffffffff1602179055506000600381905550603c60048190555050620001f9565b6113e2806200201283390190565b600080fd5b600073ffffffffffffffffffffffffffffffffffffffff82169050919050565b60006200017b826200014e565b9050919050565b60006200018f826200016e565b9050919050565b620001a18162000182565b8114620001ad57600080fd5b50565b600081519050620001c18162000196565b92915050565b600060208284031215620001e057620001df62000149565b5b6000620001f084828501620001b0565b91505092915050565b611e0980620002096000396000f3fe6080604052600436106100915760003560e01c8063608e4dd011610059578063608e4dd0146101705780637547c7a31461019957806375f4d677146101c2578063b1aeb500146101ed578063fe7b25601461021657610091565b8063105d6e631461009657806331c40bc8146100c1578063372500ab146100df5780633a02a42d146100f65780633aecd0e314610133575b600080fd5b3480156100a257600080fd5b506100ab610253565b6040516100b89190611736565b60405180910390f35b6100c961027c565b6040516100d6919061176a565b60405180910390f35b3480156100eb57600080fd5b506100f46103b6565b005b34801561010257600080fd5b5061011d600480360381019061011891906117c8565b6105ba565b60405161012a919061176a565b60405180910390f35b34801561013f57600080fd5b5061015a600480360381019061015591906117c8565b610603565b604051610167919061176a565b60405180910390f35b34801561017c57600080fd5b5061019760048036038101906101929190611821565b6106a7565b005b3480156101a557600080fd5b506101c060048036038101906101bb9190611821565b610963565b005b3480156101ce57600080fd5b506101d7610f58565b6040516101e4919061176a565b60405180910390f35b3480156101f957600080fd5b50610214600480360381019061020f91906117c8565b610f62565b005b34801561022257600080fd5b5061023d600480360381019061023891906117c8565b610fbf565b60405161024a919061176a565b60405180910390f35b60008060009054906101000a900473ffffffffffffffffffffffffffffffffffffffff16905090565b6000662386f26fc100003410156102c8576040517f08c379a00000000000000000000000000000000000000000000000000000000081526004016102bf906118d1565b60405180910390fd5b6000612710346102d8919061194f565b905060008054906101000a900473ffffffffffffffffffffffffffffffffffffffff1673ffffffffffffffffffffffffffffffffffffffff166340c10f1933836040518363ffffffff1660e01b815260040161033592919061198f565b6020604051808303816000875af1158015610354573d6000803e3d6000fd5b505050506040513d601f19601f8201168201806040525081019061037891906119f0565b507f03e67dfd6a9906d73f5a5c1a6f068b6c012943391792dbfcbc1e1b50509280e833826040516103aa92919061198f565b60405180910390a15090565b60011515600960003373ffffffffffffffffffffffffffffffffffffffff1673ffffffffffffffffffffffffffffffffffffffff16815260200190815260200160002060009054906101000a900460ff16151514610449576040517f08c379a000000000000000000000000000000000000000000000000000000000815260040161044090611a8f565b60405180910390fd5b61045233611008565b600860003373ffffffffffffffffffffffffffffffffffffffff1673ffffffffffffffffffffffffffffffffffffffff16815260200190815260200160002060008282546104a09190611aaf565b9250508190555042600760003373ffffffffffffffffffffffffffffffffffffffff1673ffffffffffffffffffffffffffffffffffffffff168152602001908152602001600020819055506000600860003373ffffffffffffffffffffffffffffffffffffffff1673ffffffffffffffffffffffffffffffffffffffff1681526020019081526020016000205490506105393382611242565b6000600860003373ffffffffffffffffffffffffffffffffffffffff1673ffffffffffffffffffffffffffffffffffffffff168152602001908152602001600020819055507ffc30cddea38e2bf4d6ea7d3f9ed3b6ad7f176419f4963bd81318067a4aee73fe33826040516105af92919061198f565b60405180910390a150565b6000600660008373ffffffffffffffffffffffffffffffffffffffff1673ffffffffffffffffffffffffffffffffffffffff168152602001908152602001600020549050919050565b60008060009054906101000a900473ffffffffffffffffffffffffffffffffffffffff1673ffffffffffffffffffffffffffffffffffffffff166370a08231836040518263ffffffff1660e01b815260040161065f9190611b05565b602060405180830381865afa15801561067c573d6000803e3d6000fd5b505050506040513d601f19601f820116820180604052508101906106a09190611b35565b9050919050565b60011515600960003373ffffffffffffffffffffffffffffffffffffffff1673ffffffffffffffffffffffffffffffffffffffff16815260200190815260200160002060009054906101000a900460ff1615151461073a576040517f08c379a000000000000000000000000000000000000000000000000000000000815260040161073190611a8f565b60405180910390fd5b80600660003373ffffffffffffffffffffffffffffffffffffffff1673ffffffffffffffffffffffffffffffffffffffff1681526020019081526020016000205410156107bc576040517f08c379a00000000000000000000000000000000000000000000000000000000081526004016107b390611bd4565b60405180910390fd5b6107c53361131e565b6107cf3382611242565b80600360008282546107e19190611bf4565b9250508190555080600660003373ffffffffffffffffffffffffffffffffffffffff1673ffffffffffffffffffffffffffffffffffffffff16815260200190815260200160002054036108d0576000600960003373ffffffffffffffffffffffffffffffffffffffff1673ffffffffffffffffffffffffffffffffffffffff16815260200190815260200160002060006101000a81548160ff0219169083151502179055506000600660003373ffffffffffffffffffffffffffffffffffffffff1673ffffffffffffffffffffffffffffffffffffffff16815260200190815260200160002081905550610927565b80600660003373ffffffffffffffffffffffffffffffffffffffff1673ffffffffffffffffffffffffffffffffffffffff168152602001908152602001600020600082825461091f9190611bf4565b925050819055505b7ff0dbb2abe50e936f0d3720a39c0debe7706007b2c50286a913f24298e9be36ba338260405161095892919061198f565b60405180910390a150565b8060008054906101000a900473ffffffffffffffffffffffffffffffffffffffff1673ffffffffffffffffffffffffffffffffffffffff166370a08231336040518263ffffffff1660e01b81526004016109bd9190611b05565b602060405180830381865afa1580156109da573d6000803e3d6000fd5b505050506040513d601f19601f820116820180604052508101906109fe9190611b35565b1015610a3f576040517f08c379a0000000000000000000000000000000000000000000000000000000008152600401610a3690611c74565b60405180910390fd5b600960003373ffffffffffffffffffffffffffffffffffffffff1673ffffffffffffffffffffffffffffffffffffffff16815260200190815260200160002060009054906101000a900460ff1615610cd957610a9a33611008565b600860003373ffffffffffffffffffffffffffffffffffffffff1673ffffffffffffffffffffffffffffffffffffffff1681526020019081526020016000206000828254610ae89190611aaf565b9250508190555042600760003373ffffffffffffffffffffffffffffffffffffffff1673ffffffffffffffffffffffffffffffffffffffff1681526020019081526020016000208190555060008054906101000a900473ffffffffffffffffffffffffffffffffffffffff1673ffffffffffffffffffffffffffffffffffffffff166323b872dd3330846040518463ffffffff1660e01b8152600401610b9093929190611c94565b6020604051808303816000875af1158015610baf573d6000803e3d6000fd5b505050506040513d601f19601f82011682018060405250810190610bd391906119f0565b5080600660003373ffffffffffffffffffffffffffffffffffffffff1673ffffffffffffffffffffffffffffffffffffffff1681526020019081526020016000206000828254610c239190611aaf565b925050819055506001600960003373ffffffffffffffffffffffffffffffffffffffff1673ffffffffffffffffffffffffffffffffffffffff16815260200190815260200160002060006101000a81548160ff0219169083151502179055508060036000828254610c949190611aaf565b925050819055507f1fdab8a8457aaf782e4b6217d6ffa6f5006eda7e50922dd092b2e1524275d7743382604051610ccc92919061198f565b60405180910390a1610f55565b60008054906101000a900473ffffffffffffffffffffffffffffffffffffffff1673ffffffffffffffffffffffffffffffffffffffff166323b872dd3330846040518463ffffffff1660e01b8152600401610d3693929190611c94565b6020604051808303816000875af1158015610d55573d6000803e3d6000fd5b505050506040513d601f19601f82011682018060405250810190610d7991906119f0565b506005339080600181540180825580915050600190039060005260206000200160009091909190916101000a81548173ffffffffffffffffffffffffffffffffffffffff021916908373ffffffffffffffffffffffffffffffffffffffff1602179055506000600860003373ffffffffffffffffffffffffffffffffffffffff1673ffffffffffffffffffffffffffffffffffffffff1681526020019081526020016000208190555042600760003373ffffffffffffffffffffffffffffffffffffffff1673ffffffffffffffffffffffffffffffffffffffff1681526020019081526020016000208190555080600660003373ffffffffffffffffffffffffffffffffffffffff1673ffffffffffffffffffffffffffffffffffffffff168152602001908152602001600020819055506001600960003373ffffffffffffffffffffffffffffffffffffffff1673ffffffffffffffffffffffffffffffffffffffff16815260200190815260200160002060006101000a81548160ff0219169083151502179055508060036000828254610f149190611aaf565b925050819055507f1fdab8a8457aaf782e4b6217d6ffa6f5006eda7e50922dd092b2e1524275d7743382604051610f4c92919061198f565b60405180910390a15b50565b6000600354905090565b6301e13380600760008373ffffffffffffffffffffffffffffffffffffffff1673ffffffffffffffffffffffffffffffffffffffff1681526020019081526020016000206000828254610fb59190611bf4565b9250508190555050565b6000600860008373ffffffffffffffffffffffffffffffffffffffff1673ffffffffffffffffffffffffffffffffffffffff168152602001908152602001600020549050919050565b600080600160009054906101000a900473ffffffffffffffffffffffffffffffffffffffff1673ffffffffffffffffffffffffffffffffffffffff166370a08231846040518263ffffffff1660e01b81526004016110669190611b05565b602060405180830381865afa158015611083573d6000803e3d6000fd5b505050506040513d601f19601f820116820180604052508101906110a79190611b35565b111561117d5760006110b883611451565b90506064816301e13380600660008773ffffffffffffffffffffffffffffffffffffffff1673ffffffffffffffffffffffffffffffffffffffff16815260200190815260200160002054600760008873ffffffffffffffffffffffffffffffffffffffff1673ffffffffffffffffffffffffffffffffffffffff168152602001908152602001600020544261114d9190611bf4565b6111579190611ccb565b611161919061194f565b61116b9190611ccb565b611175919061194f565b91505061123d565b60646004546301e13380600660008673ffffffffffffffffffffffffffffffffffffffff1673ffffffffffffffffffffffffffffffffffffffff16815260200190815260200160002054600760008773ffffffffffffffffffffffffffffffffffffffff1673ffffffffffffffffffffffffffffffffffffffff16815260200190815260200160002054426112129190611bf4565b61121c9190611ccb565b611226919061194f565b6112309190611ccb565b61123a919061194f565b90505b919050565b60008054906101000a900473ffffffffffffffffffffffffffffffffffffffff1673ffffffffffffffffffffffffffffffffffffffff1663a9059cbb83836040518363ffffffff1660e01b815260040161129d92919061198f565b6020604051808303816000875af11580156112bc573d6000803e3d6000fd5b505050506040513d601f19601f820116820180604052508101906112e091906119f0565b507f69ca02dd4edd7bf0a4abb9ed3b7af3f14778db5d61921c7dc7cd545266326de2828260405161131292919061198f565b60405180910390a15050565b61132781611008565b600860008373ffffffffffffffffffffffffffffffffffffffff1673ffffffffffffffffffffffffffffffffffffffff16815260200190815260200160002060008282546113759190611aaf565b9250508190555042600760008373ffffffffffffffffffffffffffffffffffffffff1673ffffffffffffffffffffffffffffffffffffffff1681526020019081526020016000208190555061140981600860008473ffffffffffffffffffffffffffffffffffffffff1673ffffffffffffffffffffffffffffffffffffffff16815260200190815260200160002054611242565b6000600860008373ffffffffffffffffffffffffffffffffffffffff1673ffffffffffffffffffffffffffffffffffffffff1681526020019081526020016000208190555050565b600080600160009054906101000a900473ffffffffffffffffffffffffffffffffffffffff1673ffffffffffffffffffffffffffffffffffffffff166370a08231846040518263ffffffff1660e01b81526004016114af9190611b05565b602060405180830381865afa1580156114cc573d6000803e3d6000fd5b505050506040513d601f19601f820116820180604052508101906114f09190611b35565b90506000600454905060005b828110156116ac576000600160009054906101000a900473ffffffffffffffffffffffffffffffffffffffff1673ffffffffffffffffffffffffffffffffffffffff16632f745c5987846040518363ffffffff1660e01b815260040161156392919061198f565b602060405180830381865afa158015611580573d6000803e3d6000fd5b505050506040513d601f19601f820116820180604052508101906115a49190611b35565b90506000600160009054906101000a900473ffffffffffffffffffffffffffffffffffffffff1673ffffffffffffffffffffffffffffffffffffffff166348758697836040518263ffffffff1660e01b8152600401611603919061176a565b602060405180830381865afa158015611620573d6000803e3d6000fd5b505050506040513d601f19601f820116820180604052508101906116449190611d5e565b905060008160ff16036116615760058461165e9190611aaf565b93505b60018160ff160361167c57600a846116799190611aaf565b93505b60028160ff1603611697576014846116949190611aaf565b93505b505080806116a490611d8b565b9150506114fc565b508092505050919050565b600073ffffffffffffffffffffffffffffffffffffffff82169050919050565b6000819050919050565b60006116fc6116f76116f2846116b7565b6116d7565b6116b7565b9050919050565b600061170e826116e1565b9050919050565b600061172082611703565b9050919050565b61173081611715565b82525050565b600060208201905061174b6000830184611727565b92915050565b6000819050919050565b61176481611751565b82525050565b600060208201905061177f600083018461175b565b92915050565b600080fd5b6000611795826116b7565b9050919050565b6117a58161178a565b81146117b057600080fd5b50565b6000813590506117c28161179c565b92915050565b6000602082840312156117de576117dd611785565b5b60006117ec848285016117b3565b91505092915050565b6117fe81611751565b811461180957600080fd5b50565b60008135905061181b816117f5565b92915050565b60006020828403121561183757611836611785565b5b60006118458482850161180c565b91505092915050565b600082825260208201905092915050565b7f4174206c6561737420302e3031455448206e656564656420746f20676574204d60008201527f5953540000000000000000000000000000000000000000000000000000000000602082015250565b60006118bb60238361184e565b91506118c68261185f565b604082019050919050565b600060208201905081810360008301526118ea816118ae565b9050919050565b7f4e487b7100000000000000000000000000000000000000000000000000000000600052601260045260246000fd5b7f4e487b7100000000000000000000000000000000000000000000000000000000600052601160045260246000fd5b600061195a82611751565b915061196583611751565b925082611975576119746118f1565b5b828204905092915050565b6119898161178a565b82525050565b60006040820190506119a46000830185611980565b6119b1602083018461175b565b9392505050565b60008115159050919050565b6119cd816119b8565b81146119d857600080fd5b50565b6000815190506119ea816119c4565b92915050565b600060208284031215611a0657611a05611785565b5b6000611a14848285016119db565b91505092915050565b7f596f7520646f206e6f74206861766520616e7920746f6b656e73207374616b6560008201527f6421000000000000000000000000000000000000000000000000000000000000602082015250565b6000611a7960228361184e565b9150611a8482611a1d565b604082019050919050565b60006020820190508181036000830152611aa881611a6c565b9050919050565b6000611aba82611751565b9150611ac583611751565b9250827fffffffffffffffffffffffffffffffffffffffffffffffffffffffffffffffff03821115611afa57611af9611920565b5b828201905092915050565b6000602082019050611b1a6000830184611980565b92915050565b600081519050611b2f816117f5565b92915050565b600060208284031215611b4b57611b4a611785565b5b6000611b5984828501611b20565b91505092915050565b7f416d6f756e7420746f20756e7374616b652065786365656473207374616b696e60008201527f672062616c616e63652100000000000000000000000000000000000000000000602082015250565b6000611bbe602a8361184e565b9150611bc982611b62565b604082019050919050565b60006020820190508181036000830152611bed81611bb1565b9050919050565b6000611bff82611751565b9150611c0a83611751565b925082821015611c1d57611c1c611920565b5b828203905092915050565b7f496e73756666696369656e7420244d5953540000000000000000000000000000600082015250565b6000611c5e60128361184e565b9150611c6982611c28565b602082019050919050565b60006020820190508181036000830152611c8d81611c51565b9050919050565b6000606082019050611ca96000830186611980565b611cb66020830185611980565b611cc3604083018461175b565b949350505050565b6000611cd682611751565b9150611ce183611751565b9250817fffffffffffffffffffffffffffffffffffffffffffffffffffffffffffffffff0483118215151615611d1a57611d19611920565b5b828202905092915050565b600060ff82169050919050565b611d3b81611d25565b8114611d4657600080fd5b50565b600081519050611d5881611d32565b92915050565b600060208284031215611d7457611d73611785565b5b6000611d8284828501611d49565b91505092915050565b6000611d9682611751565b91507fffffffffffffffffffffffffffffffffffffffffffffffffffffffffffffffff8203611dc857611dc7611920565b5b60018201905091905056fea26469706673582212202e70f0d4baa3d0d8811ccd0d8173434030bc0687391bdd8e50ad8d9b3afda87764736f6c634300080d0033608060405260008060006101000a81548160ff02191690831515021790555033600060016101000a81548173ffffffffffffffffffffffffffffffffffffffff021916908373ffffffffffffffffffffffffffffffffffffffff16021790555034801561006b57600080fd5b506113678061007b6000396000f3fe608060405234801561001057600080fd5b50600436106100f55760003560e01c806347055321116100975780638da5cb5b116100665780638da5cb5b1461029e57806395d89b41146102bc578063a9059cbb146102da578063dd62ed3e1461030a576100f5565b8063470553211461020257806370a08231146102325780637d64bcb414610262578063893d20e814610280576100f5565b806318160ddd116100d357806318160ddd1461016657806323b872dd14610184578063313ce567146101b457806340c10f19146101d2576100f5565b806305d2035b146100fa57806306fdde0314610118578063095ea7b314610136575b600080fd5b61010261033a565b60405161010f9190610eba565b60405180910390f35b61012061034b565b60405161012d9190610f6e565b60405180910390f35b610150600480360381019061014b9190611029565b610384565b60405161015d9190610eba565b60405180910390f35b61016e610476565b60405161017b9190611078565b60405180910390f35b61019e60048036038101906101999190611093565b610480565b6040516101ab9190610eba565b60405180910390f35b6101bc6106d6565b6040516101c99190611102565b60405180910390f35b6101ec60048036038101906101e79190611029565b6106db565b6040516101f99190610eba565b60405180910390f35b61021c60048036038101906102179190611029565b6108bc565b6040516102299190610eba565b60405180910390f35b61024c6004803603810190610247919061111d565b610a1a565b6040516102599190611078565b60405180910390f35b61026a610a63565b6040516102779190610eba565b60405180910390f35b610288610b23565b6040516102959190611159565b60405180910390f35b6102a6610b4c565b6040516102b39190611159565b60405180910390f35b6102c4610b72565b6040516102d19190610f6e565b60405180910390f35b6102f460048036038101906102ef9190611029565b610bab565b6040516103019190610eba565b60405180910390f35b610324600480360381019061031f9190611174565b610dca565b6040516103319190611078565b60405180910390f35b60008054906101000a900460ff1681565b6040518060400160405280600781526020017f4d5953544552590000000000000000000000000000000000000000000000000081525081565b600081600160003373ffffffffffffffffffffffffffffffffffffffff1673ffffffffffffffffffffffffffffffffffffffff16815260200190815260200160002060008573ffffffffffffffffffffffffffffffffffffffff1673ffffffffffffffffffffffffffffffffffffffff168152602001908152602001600020819055508273ffffffffffffffffffffffffffffffffffffffff163373ffffffffffffffffffffffffffffffffffffffff167f8c5be1e5ebec7d5bd14f71427d1e84f3dd0314c0f7b2291e5b200ac8c7c3b925846040516104649190611078565b60405180910390a36001905092915050565b6000600354905090565b60008073ffffffffffffffffffffffffffffffffffffffff168373ffffffffffffffffffffffffffffffffffffffff16036104ba57600080fd5b600260008573ffffffffffffffffffffffffffffffffffffffff1673ffffffffffffffffffffffffffffffffffffffff1681526020019081526020016000205482111561053c576040517f08c379a000000000000000000000000000000000000000000000000000000000815260040161053390611200565b60405180910390fd5b61058e82600260008773ffffffffffffffffffffffffffffffffffffffff1673ffffffffffffffffffffffffffffffffffffffff16815260200190815260200160002054610e5190919063ffffffff16565b600260008673ffffffffffffffffffffffffffffffffffffffff1673ffffffffffffffffffffffffffffffffffffffff1681526020019081526020016000208190555061062382600260008673ffffffffffffffffffffffffffffffffffffffff1673ffffffffffffffffffffffffffffffffffffffff16815260200190815260200160002054610e7890919063ffffffff16565b600260008573ffffffffffffffffffffffffffffffffffffffff1673ffffffffffffffffffffffffffffffffffffffff168152602001908152602001600020819055508273ffffffffffffffffffffffffffffffffffffffff168473ffffffffffffffffffffffffffffffffffffffff167fddf252ad1be2c89b69c2b068fc378daa952ba7f163c4a11628f55a4df523b3ef846040516106c39190611078565b60405180910390a3600190509392505050565b601281565b60008060019054906101000a900473ffffffffffffffffffffffffffffffffffffffff1673ffffffffffffffffffffffffffffffffffffffff163373ffffffffffffffffffffffffffffffffffffffff161461073657600080fd5b60008054906101000a900460ff161561074e57600080fd5b61076382600354610e7890919063ffffffff16565b6003819055506107bb82600260008673ffffffffffffffffffffffffffffffffffffffff1673ffffffffffffffffffffffffffffffffffffffff16815260200190815260200160002054610e7890919063ffffffff16565b600260008573ffffffffffffffffffffffffffffffffffffffff1673ffffffffffffffffffffffffffffffffffffffff168152602001908152602001600020819055508273ffffffffffffffffffffffffffffffffffffffff167f0f6798a560793a54c3bcfe86a93cde1e73087d944c0ea20544137d4121396885836040516108449190611078565b60405180910390a28273ffffffffffffffffffffffffffffffffffffffff16600073ffffffffffffffffffffffffffffffffffffffff167fddf252ad1be2c89b69c2b068fc378daa952ba7f163c4a11628f55a4df523b3ef846040516108aa9190611078565b60405180910390a36001905092915050565b60008073ffffffffffffffffffffffffffffffffffffffff168373ffffffffffffffffffffffffffffffffffffffff16036108f657600080fd5b600260008473ffffffffffffffffffffffffffffffffffffffff1673ffffffffffffffffffffffffffffffffffffffff1681526020019081526020016000205482111561094257600080fd5b61099482600260008673ffffffffffffffffffffffffffffffffffffffff1673ffffffffffffffffffffffffffffffffffffffff16815260200190815260200160002054610e5190919063ffffffff16565b600260008573ffffffffffffffffffffffffffffffffffffffff1673ffffffffffffffffffffffffffffffffffffffff168152602001908152602001600020819055507f552fbac1e76e2ad75646085903caa7aa075610312aa258dd51df35c78902c7748383604051610a08929190611220565b60405180910390a16001905092915050565b6000600260008373ffffffffffffffffffffffffffffffffffffffff1673ffffffffffffffffffffffffffffffffffffffff168152602001908152602001600020549050919050565b60008060019054906101000a900473ffffffffffffffffffffffffffffffffffffffff1673ffffffffffffffffffffffffffffffffffffffff163373ffffffffffffffffffffffffffffffffffffffff1614610abe57600080fd5b60008054906101000a900460ff1615610ad657600080fd5b60016000806101000a81548160ff0219169083151502179055507fae5184fba832cb2b1f702aca6117b8d265eaf03ad33eb133f19dde0f5920fa0860405160405180910390a16001905090565b60008060019054906101000a900473ffffffffffffffffffffffffffffffffffffffff16905090565b600060019054906101000a900473ffffffffffffffffffffffffffffffffffffffff1681565b6040518060400160405280600481526020017f4d5953540000000000000000000000000000000000000000000000000000000081525081565b60008073ffffffffffffffffffffffffffffffffffffffff168373ffffffffffffffffffffffffffffffffffffffff1603610be557600080fd5b600260003373ffffffffffffffffffffffffffffffffffffffff1673ffffffffffffffffffffffffffffffffffffffff16815260200190815260200160002054821115610c3157600080fd5b610c8382600260003373ffffffffffffffffffffffffffffffffffffffff1673ffffffffffffffffffffffffffffffffffffffff16815260200190815260200160002054610e5190919063ffffffff16565b600260003373ffffffffffffffffffffffffffffffffffffffff1673ffffffffffffffffffffffffffffffffffffffff16815260200190815260200160002081905550610d1882600260008673ffffffffffffffffffffffffffffffffffffffff1673ffffffffffffffffffffffffffffffffffffffff16815260200190815260200160002054610e7890919063ffffffff16565b600260008573ffffffffffffffffffffffffffffffffffffffff1673ffffffffffffffffffffffffffffffffffffffff168152602001908152602001600020819055508273ffffffffffffffffffffffffffffffffffffffff163373ffffffffffffffffffffffffffffffffffffffff167fddf252ad1be2c89b69c2b068fc378daa952ba7f163c4a11628f55a4df523b3ef84604051610db89190611078565b60405180910390a36001905092915050565b6000600160008473ffffffffffffffffffffffffffffffffffffffff1673ffffffffffffffffffffffffffffffffffffffff16815260200190815260200160002060008373ffffffffffffffffffffffffffffffffffffffff1673ffffffffffffffffffffffffffffffffffffffff16815260200190815260200160002054905092915050565b600082821115610e6457610e63611249565b5b8183610e7091906112a7565b905092915050565b60008183610e8691906112db565b905082811015610e9957610e98611249565b5b92915050565b60008115159050919050565b610eb481610e9f565b82525050565b6000602082019050610ecf6000830184610eab565b92915050565b600081519050919050565b600082825260208201905092915050565b60005b83811015610f0f578082015181840152602081019050610ef4565b83811115610f1e576000848401525b50505050565b6000601f19601f8301169050919050565b6000610f4082610ed5565b610f4a8185610ee0565b9350610f5a818560208601610ef1565b610f6381610f24565b840191505092915050565b60006020820190508181036000830152610f888184610f35565b905092915050565b600080fd5b600073ffffffffffffffffffffffffffffffffffffffff82169050919050565b6000610fc082610f95565b9050919050565b610fd081610fb5565b8114610fdb57600080fd5b50565b600081359050610fed81610fc7565b92915050565b6000819050919050565b61100681610ff3565b811461101157600080fd5b50565b60008135905061102381610ffd565b92915050565b600080604083850312156110405761103f610f90565b5b600061104e85828601610fde565b925050602061105f85828601611014565b9150509250929050565b61107281610ff3565b82525050565b600060208201905061108d6000830184611069565b92915050565b6000806000606084860312156110ac576110ab610f90565b5b60006110ba86828701610fde565b93505060206110cb86828701610fde565b92505060406110dc86828701611014565b9150509250925092565b600060ff82169050919050565b6110fc816110e6565b82525050565b600060208201905061111760008301846110f3565b92915050565b60006020828403121561113357611132610f90565b5b600061114184828501610fde565b91505092915050565b61115381610fb5565b82525050565b600060208201905061116e600083018461114a565b92915050565b6000806040838503121561118b5761118a610f90565b5b600061119985828601610fde565b92505060206111aa85828601610fde565b9150509250929050565b7f42616c616e63652046726f6d204c6f7700000000000000000000000000000000600082015250565b60006111ea601083610ee0565b91506111f5826111b4565b602082019050919050565b60006020820190508181036000830152611219816111dd565b9050919050565b6000604082019050611235600083018561114a565b6112426020830184611069565b9392505050565b7f4e487b7100000000000000000000000000000000000000000000000000000000600052600160045260246000fd5b7f4e487b7100000000000000000000000000000000000000000000000000000000600052601160045260246000fd5b60006112b282610ff3565b91506112bd83610ff3565b9250828210156112d0576112cf611278565b5b828203905092915050565b60006112e682610ff3565b91506112f183610ff3565b9250827fffffffffffffffffffffffffffffffffffffffffffffffffffffffffffffffff0382111561132657611325611278565b5b82820190509291505056fea26469706673582212201ba8121a535af177c02867b2273871a16c5f6b73602f97453391b570040ac32964736f6c634300080d0033",
  "immutableReferences": {},
  "source": "pragma solidity >=0.5.0;\r\n\r\nimport \"./ERC20.sol\";\r\nimport \"./MysteryNFT.sol\";\r\n\r\ncontract MysteryStaking {\r\n    ERC20 mystToken;\r\n    MysteryNFT mysteryNFT;\r\n    address owner;\r\n\r\n    uint256 totalPool; //total amount of PTs in the pool\r\n    uint256 poolAPY; // percentage APY of the pool\r\n    address[] stakers; //List of addresses that staked\r\n    mapping(address => uint256) stakingBalance; // How much each address staked\r\n    mapping(address => uint256) lastRewardCalcTime; // Start of staking for the address in unix timestamp\r\n    mapping(address => uint256) rewardsEarned; // How much they earn in rewards\r\n    mapping(address => bool) isStaking;\r\n\r\n    constructor(MysteryNFT mysteryNFTcontract) {\r\n        mystToken = new ERC20();\r\n        mysteryNFT = mysteryNFTcontract;\r\n        owner = msg.sender;\r\n        totalPool = 0;\r\n        poolAPY = 60; // 60% a year\r\n    }\r\n\r\n    event Transfer(address to, uint256 amount);\r\n    event TokenSent(address sender, uint256 amt);\r\n    event GetMYST(address sender, uint256 amt);\r\n    event TokenStaked(address sender, uint256 amt);\r\n    event RewardsClaimed(address sender, uint256 amt);\r\n    event TokenUnstaked(address sender, uint256 amt);\r\n\r\n    //for testing purposes\r\n    function getMYST() public payable returns (uint256) {\r\n        require(msg.value >= 1E16, \"At least 0.01ETH needed to get MYST\");\r\n        uint256 val = msg.value / 1E4;\r\n        mystToken.mint(msg.sender, val);\r\n        emit GetMYST(msg.sender, val);\r\n    }\r\n\r\n    function transferMYST(address to, uint256 amount) private {\r\n        mystToken.transfer(to, amount);\r\n        emit Transfer(to, amount);\r\n    }\r\n\r\n    function stakeTokens(uint256 amt) public {\r\n        //send MYST to the pool\r\n        require(mystToken.balanceOf(msg.sender) >= amt, \"Insufficient $MYST\");\r\n        if (isStaking[msg.sender]) {\r\n            rewardsEarned[msg.sender] += calculateRewards(msg.sender);\r\n            lastRewardCalcTime[msg.sender] = block.timestamp;\r\n            mystToken.transferFrom(msg.sender, address(this), amt);\r\n            stakingBalance[msg.sender] += amt;\r\n            isStaking[msg.sender] = true;\r\n            totalPool += amt;\r\n            emit TokenStaked(msg.sender, amt);\r\n        } else {\r\n            mystToken.transferFrom(msg.sender, address(this), amt);\r\n            stakers.push(msg.sender);\r\n            rewardsEarned[msg.sender] = 0;\r\n            lastRewardCalcTime[msg.sender] = block.timestamp;\r\n            stakingBalance[msg.sender] = amt;\r\n            isStaking[msg.sender] = true;\r\n            totalPool += amt;\r\n            emit TokenStaked(msg.sender, amt);\r\n        }\r\n    }\r\n\r\n    function unstakeTokens(uint256 amt) public {\r\n        require(\r\n            isStaking[msg.sender] == true,\r\n            \"You do not have any tokens staked!\"\r\n        );\r\n        require(\r\n            stakingBalance[msg.sender] >= amt,\r\n            \"Amount to unstake exceeds staking balance!\"\r\n        );\r\n        unstakeClaimRewards(msg.sender);\r\n        transferMYST(msg.sender, amt);\r\n        totalPool -= amt;\r\n        if (stakingBalance[msg.sender] == amt) {\r\n            isStaking[msg.sender] = false;\r\n            stakingBalance[msg.sender] = 0;\r\n        } else {\r\n            stakingBalance[msg.sender] -= amt;\r\n        }\r\n        emit TokenUnstaked(msg.sender, amt);\r\n    }\r\n\r\n    function claimRewards() public {\r\n        require(\r\n            isStaking[msg.sender] == true,\r\n            \"You do not have any tokens staked!\"\r\n        );\r\n        rewardsEarned[msg.sender] += calculateRewards(msg.sender);\r\n        lastRewardCalcTime[msg.sender] = block.timestamp;\r\n        uint256 amt = rewardsEarned[msg.sender];\r\n        transferMYST(msg.sender, amt);\r\n        rewardsEarned[msg.sender] = 0;\r\n        emit RewardsClaimed(msg.sender, amt);\r\n    }\r\n\r\n    function unstakeClaimRewards(address sender) private {\r\n        rewardsEarned[sender] += calculateRewards(sender);\r\n        lastRewardCalcTime[sender] = block.timestamp;\r\n        transferMYST(sender, rewardsEarned[sender]);\r\n        rewardsEarned[sender] = 0;\r\n    }\r\n\r\n    function calculateRewards(address sender) internal view returns (uint256) {\r\n        if (mysteryNFT.balanceOf(sender) > 0) {\r\n            uint256 rate = calculateBoostedAPY(sender);\r\n            return ((((block.timestamp - lastRewardCalcTime[sender]) *\r\n                    stakingBalance[sender]) / (365 * 24 * 60 * 60)) * rate) /\r\n                100;\r\n        } else {\r\n            return\r\n                ((((block.timestamp - lastRewardCalcTime[sender]) *\r\n                    stakingBalance[sender]) / (365 * 24 * 60 * 60)) * poolAPY) /\r\n                100;\r\n        }\r\n    }\r\n\r\n    //getter functions for testing\r\n    function getTotalPool() public view returns (uint256) {\r\n        return totalPool;\r\n    }\r\n\r\n    function getTokenBalance(address user) public view returns (uint256) {\r\n        return mystToken.balanceOf(user);\r\n    }\r\n\r\n    function getStakedBalance(address user) public view returns (uint256) {\r\n        return stakingBalance[user];\r\n    }\r\n\r\n    function getRewardsEarned(address user) public view returns (uint256) {\r\n        return rewardsEarned[user];\r\n    }\r\n\r\n    function getERCInstance() public view returns (ERC20) {\r\n        return mystToken;\r\n    }\r\n\r\n    function calculateBoostedAPY(address user) internal view returns (uint256) {\r\n        uint256 numNFTs = mysteryNFT.balanceOf(user);\r\n        uint256 rate = poolAPY;\r\n        for (uint256 i = 0; i < numNFTs; i++) {\r\n            uint256 tokenId = mysteryNFT.tokenOfOwnerByIndex(user, i);\r\n            uint8 rarity = mysteryNFT.getRarity(tokenId);\r\n            if (rarity == 0) {\r\n                rate += 5;\r\n            }\r\n            if (rarity == 1) {\r\n                rate += 10;\r\n            }\r\n            if (rarity == 2) {\r\n                rate += 20;\r\n            }\r\n        }\r\n        return rate;\r\n    }\r\n\r\n    //testing only\r\n    function minusOneYearFromRewardCalc(address user) public {\r\n        lastRewardCalcTime[user] -= 365 * 24 * 60 * 60;\r\n        //lastRewardCalcTime[user] = 1633508809;\r\n    }\r\n}\r\n",
  "sourcePath": "C:\\Users\\Kevin\\Documents\\BlockchainMod\\mysterio\\contracts\\MysteryStaking.sol",
  "compiler": {
    "name": "solc",
    "version": "0.8.13+commit.abaa5c0e.Emscripten.clang"
  },
  "schemaVersion": "3.4.3",
  "updatedAt": "2022-04-06T09:49:25.955Z",
  "devdoc": {
    "kind": "dev",
    "methods": {},
    "version": 1
  },
  "userdoc": {
    "kind": "user",
    "methods": {},
    "version": 1
  }
}