{
  "contractName": "MysteryToken",
  "abi": [
    {
      "inputs": [],
      "stateMutability": "nonpayable",
      "type": "constructor"
    },
    {
      "anonymous": false,
      "inputs": [
        {
          "indexed": false,
          "internalType": "uint256",
          "name": "credit",
          "type": "uint256"
        }
      ],
      "name": "creditChecked",
      "type": "event"
    },
    {
      "inputs": [],
      "name": "getCredit",
      "outputs": [],
      "stateMutability": "payable",
      "type": "function",
      "payable": true
    },
    {
      "inputs": [],
      "name": "checkCredit",
      "outputs": [
        {
          "internalType": "uint256",
          "name": "",
          "type": "uint256"
        }
      ],
      "stateMutability": "nonpayable",
      "type": "function"
    },
    {
      "inputs": [
        {
          "internalType": "address",
          "name": "receipt",
          "type": "address"
        },
        {
          "internalType": "uint256",
          "name": "amt",
          "type": "uint256"
        }
      ],
      "name": "transferCredit",
      "outputs": [],
      "stateMutability": "nonpayable",
      "type": "function"
    },
    {
      "inputs": [
        {
          "internalType": "address",
          "name": "from",
          "type": "address"
        },
        {
          "internalType": "address",
          "name": "to",
          "type": "address"
        },
        {
          "internalType": "uint256",
          "name": "amt",
          "type": "uint256"
        }
      ],
      "name": "transferCreditFrom",
      "outputs": [],
      "stateMutability": "nonpayable",
      "type": "function"
    }
  ],
  "bytecode": "0x608060405234801561001057600080fd5b50600060405161001f906100c5565b604051809103906000f08015801561003b573d6000803e3d6000fd5b509050806000806101000a81548173ffffffffffffffffffffffffffffffffffffffff021916908373ffffffffffffffffffffffffffffffffffffffff16021790555033600160006101000a81548173ffffffffffffffffffffffffffffffffffffffff021916908373ffffffffffffffffffffffffffffffffffffffff160217905550506100d2565b6113e2806107a883390190565b6106c7806100e16000396000f3fe60806040526004361061003f5760003560e01c806359296e7b146100445780636cba62901461004e57806376661e4514610079578063cc58a6bb146100a2575b600080fd5b61004c6100cb565b005b34801561005a57600080fd5b50610063610184565b60405161007091906103c3565b60405180910390f35b34801561008557600080fd5b506100a0600480360381019061009b919061046d565b610261565b005b3480156100ae57600080fd5b506100c960048036038101906100c491906104c0565b610307565b005b6000662386f26fc10000346100e0919061052f565b905060008054906101000a900473ffffffffffffffffffffffffffffffffffffffff1673ffffffffffffffffffffffffffffffffffffffff166340c10f1933836040518363ffffffff1660e01b815260040161013d92919061056f565b6020604051808303816000875af115801561015c573d6000803e3d6000fd5b505050506040513d601f19601f8201168201806040525081019061018091906105d0565b5050565b60008060008054906101000a900473ffffffffffffffffffffffffffffffffffffffff1673ffffffffffffffffffffffffffffffffffffffff166370a08231336040518263ffffffff1660e01b81526004016101e091906105fd565b602060405180830381865afa1580156101fd573d6000803e3d6000fd5b505050506040513d601f19601f82011682018060405250810190610221919061062d565b90507f78a43a7f55b9e751c0405df65e1fc99e6829488d27cfe8bc22984f78e7499df18160405161025291906103c3565b60405180910390a18091505090565b60008054906101000a900473ffffffffffffffffffffffffffffffffffffffff1673ffffffffffffffffffffffffffffffffffffffff166323b872dd8484846040518463ffffffff1660e01b81526004016102be9392919061065a565b6020604051808303816000875af11580156102dd573d6000803e3d6000fd5b505050506040513d601f19601f8201168201806040525081019061030191906105d0565b50505050565b60008054906101000a900473ffffffffffffffffffffffffffffffffffffffff1673ffffffffffffffffffffffffffffffffffffffff1663a9059cbb83836040518363ffffffff1660e01b815260040161036292919061056f565b6020604051808303816000875af1158015610381573d6000803e3d6000fd5b505050506040513d601f19601f820116820180604052508101906103a591906105d0565b505050565b6000819050919050565b6103bd816103aa565b82525050565b60006020820190506103d860008301846103b4565b92915050565b600080fd5b600073ffffffffffffffffffffffffffffffffffffffff82169050919050565b600061040e826103e3565b9050919050565b61041e81610403565b811461042957600080fd5b50565b60008135905061043b81610415565b92915050565b61044a816103aa565b811461045557600080fd5b50565b60008135905061046781610441565b92915050565b600080600060608486031215610486576104856103de565b5b60006104948682870161042c565b93505060206104a58682870161042c565b92505060406104b686828701610458565b9150509250925092565b600080604083850312156104d7576104d66103de565b5b60006104e58582860161042c565b92505060206104f685828601610458565b9150509250929050565b7f4e487b7100000000000000000000000000000000000000000000000000000000600052601260045260246000fd5b600061053a826103aa565b9150610545836103aa565b92508261055557610554610500565b5b828204905092915050565b61056981610403565b82525050565b60006040820190506105846000830185610560565b61059160208301846103b4565b9392505050565b60008115159050919050565b6105ad81610598565b81146105b857600080fd5b50565b6000815190506105ca816105a4565b92915050565b6000602082840312156105e6576105e56103de565b5b60006105f4848285016105bb565b91505092915050565b60006020820190506106126000830184610560565b92915050565b60008151905061062781610441565b92915050565b600060208284031215610643576106426103de565b5b600061065184828501610618565b91505092915050565b600060608201905061066f6000830186610560565b61067c6020830185610560565b61068960408301846103b4565b94935050505056fea26469706673582212200a112004df6576fb14bf594a8e0eaeff93b5294fec5435e899db41246fd401e964736f6c634300080d0033608060405260008060006101000a81548160ff02191690831515021790555033600060016101000a81548173ffffffffffffffffffffffffffffffffffffffff021916908373ffffffffffffffffffffffffffffffffffffffff16021790555034801561006b57600080fd5b506113678061007b6000396000f3fe608060405234801561001057600080fd5b50600436106100f55760003560e01c806347055321116100975780638da5cb5b116100665780638da5cb5b1461029e57806395d89b41146102bc578063a9059cbb146102da578063dd62ed3e1461030a576100f5565b8063470553211461020257806370a08231146102325780637d64bcb414610262578063893d20e814610280576100f5565b806318160ddd116100d357806318160ddd1461016657806323b872dd14610184578063313ce567146101b457806340c10f19146101d2576100f5565b806305d2035b146100fa57806306fdde0314610118578063095ea7b314610136575b600080fd5b61010261033a565b60405161010f9190610eba565b60405180910390f35b61012061034b565b60405161012d9190610f6e565b60405180910390f35b610150600480360381019061014b9190611029565b610384565b60405161015d9190610eba565b60405180910390f35b61016e610476565b60405161017b9190611078565b60405180910390f35b61019e60048036038101906101999190611093565b610480565b6040516101ab9190610eba565b60405180910390f35b6101bc6106d6565b6040516101c99190611102565b60405180910390f35b6101ec60048036038101906101e79190611029565b6106db565b6040516101f99190610eba565b60405180910390f35b61021c60048036038101906102179190611029565b6108bc565b6040516102299190610eba565b60405180910390f35b61024c6004803603810190610247919061111d565b610a1a565b6040516102599190611078565b60405180910390f35b61026a610a63565b6040516102779190610eba565b60405180910390f35b610288610b23565b6040516102959190611159565b60405180910390f35b6102a6610b4c565b6040516102b39190611159565b60405180910390f35b6102c4610b72565b6040516102d19190610f6e565b60405180910390f35b6102f460048036038101906102ef9190611029565b610bab565b6040516103019190610eba565b60405180910390f35b610324600480360381019061031f9190611174565b610dca565b6040516103319190611078565b60405180910390f35b60008054906101000a900460ff1681565b6040518060400160405280600781526020017f4d5953544552590000000000000000000000000000000000000000000000000081525081565b600081600160003373ffffffffffffffffffffffffffffffffffffffff1673ffffffffffffffffffffffffffffffffffffffff16815260200190815260200160002060008573ffffffffffffffffffffffffffffffffffffffff1673ffffffffffffffffffffffffffffffffffffffff168152602001908152602001600020819055508273ffffffffffffffffffffffffffffffffffffffff163373ffffffffffffffffffffffffffffffffffffffff167f8c5be1e5ebec7d5bd14f71427d1e84f3dd0314c0f7b2291e5b200ac8c7c3b925846040516104649190611078565b60405180910390a36001905092915050565b6000600354905090565b60008073ffffffffffffffffffffffffffffffffffffffff168373ffffffffffffffffffffffffffffffffffffffff16036104ba57600080fd5b600260008573ffffffffffffffffffffffffffffffffffffffff1673ffffffffffffffffffffffffffffffffffffffff1681526020019081526020016000205482111561053c576040517f08c379a000000000000000000000000000000000000000000000000000000000815260040161053390611200565b60405180910390fd5b61058e82600260008773ffffffffffffffffffffffffffffffffffffffff1673ffffffffffffffffffffffffffffffffffffffff16815260200190815260200160002054610e5190919063ffffffff16565b600260008673ffffffffffffffffffffffffffffffffffffffff1673ffffffffffffffffffffffffffffffffffffffff1681526020019081526020016000208190555061062382600260008673ffffffffffffffffffffffffffffffffffffffff1673ffffffffffffffffffffffffffffffffffffffff16815260200190815260200160002054610e7890919063ffffffff16565b600260008573ffffffffffffffffffffffffffffffffffffffff1673ffffffffffffffffffffffffffffffffffffffff168152602001908152602001600020819055508273ffffffffffffffffffffffffffffffffffffffff168473ffffffffffffffffffffffffffffffffffffffff167fddf252ad1be2c89b69c2b068fc378daa952ba7f163c4a11628f55a4df523b3ef846040516106c39190611078565b60405180910390a3600190509392505050565b601281565b60008060019054906101000a900473ffffffffffffffffffffffffffffffffffffffff1673ffffffffffffffffffffffffffffffffffffffff163373ffffffffffffffffffffffffffffffffffffffff161461073657600080fd5b60008054906101000a900460ff161561074e57600080fd5b61076382600354610e7890919063ffffffff16565b6003819055506107bb82600260008673ffffffffffffffffffffffffffffffffffffffff1673ffffffffffffffffffffffffffffffffffffffff16815260200190815260200160002054610e7890919063ffffffff16565b600260008573ffffffffffffffffffffffffffffffffffffffff1673ffffffffffffffffffffffffffffffffffffffff168152602001908152602001600020819055508273ffffffffffffffffffffffffffffffffffffffff167f0f6798a560793a54c3bcfe86a93cde1e73087d944c0ea20544137d4121396885836040516108449190611078565b60405180910390a28273ffffffffffffffffffffffffffffffffffffffff16600073ffffffffffffffffffffffffffffffffffffffff167fddf252ad1be2c89b69c2b068fc378daa952ba7f163c4a11628f55a4df523b3ef846040516108aa9190611078565b60405180910390a36001905092915050565b60008073ffffffffffffffffffffffffffffffffffffffff168373ffffffffffffffffffffffffffffffffffffffff16036108f657600080fd5b600260008473ffffffffffffffffffffffffffffffffffffffff1673ffffffffffffffffffffffffffffffffffffffff1681526020019081526020016000205482111561094257600080fd5b61099482600260008673ffffffffffffffffffffffffffffffffffffffff1673ffffffffffffffffffffffffffffffffffffffff16815260200190815260200160002054610e5190919063ffffffff16565b600260008573ffffffffffffffffffffffffffffffffffffffff1673ffffffffffffffffffffffffffffffffffffffff168152602001908152602001600020819055507f552fbac1e76e2ad75646085903caa7aa075610312aa258dd51df35c78902c7748383604051610a08929190611220565b60405180910390a16001905092915050565b6000600260008373ffffffffffffffffffffffffffffffffffffffff1673ffffffffffffffffffffffffffffffffffffffff168152602001908152602001600020549050919050565b60008060019054906101000a900473ffffffffffffffffffffffffffffffffffffffff1673ffffffffffffffffffffffffffffffffffffffff163373ffffffffffffffffffffffffffffffffffffffff1614610abe57600080fd5b60008054906101000a900460ff1615610ad657600080fd5b60016000806101000a81548160ff0219169083151502179055507fae5184fba832cb2b1f702aca6117b8d265eaf03ad33eb133f19dde0f5920fa0860405160405180910390a16001905090565b60008060019054906101000a900473ffffffffffffffffffffffffffffffffffffffff16905090565b600060019054906101000a900473ffffffffffffffffffffffffffffffffffffffff1681565b6040518060400160405280600481526020017f4d5953540000000000000000000000000000000000000000000000000000000081525081565b60008073ffffffffffffffffffffffffffffffffffffffff168373ffffffffffffffffffffffffffffffffffffffff1603610be557600080fd5b600260003373ffffffffffffffffffffffffffffffffffffffff1673ffffffffffffffffffffffffffffffffffffffff16815260200190815260200160002054821115610c3157600080fd5b610c8382600260003373ffffffffffffffffffffffffffffffffffffffff1673ffffffffffffffffffffffffffffffffffffffff16815260200190815260200160002054610e5190919063ffffffff16565b600260003373ffffffffffffffffffffffffffffffffffffffff1673ffffffffffffffffffffffffffffffffffffffff16815260200190815260200160002081905550610d1882600260008673ffffffffffffffffffffffffffffffffffffffff1673ffffffffffffffffffffffffffffffffffffffff16815260200190815260200160002054610e7890919063ffffffff16565b600260008573ffffffffffffffffffffffffffffffffffffffff1673ffffffffffffffffffffffffffffffffffffffff168152602001908152602001600020819055508273ffffffffffffffffffffffffffffffffffffffff163373ffffffffffffffffffffffffffffffffffffffff167fddf252ad1be2c89b69c2b068fc378daa952ba7f163c4a11628f55a4df523b3ef84604051610db89190611078565b60405180910390a36001905092915050565b6000600160008473ffffffffffffffffffffffffffffffffffffffff1673ffffffffffffffffffffffffffffffffffffffff16815260200190815260200160002060008373ffffffffffffffffffffffffffffffffffffffff1673ffffffffffffffffffffffffffffffffffffffff16815260200190815260200160002054905092915050565b600082821115610e6457610e63611249565b5b8183610e7091906112a7565b905092915050565b60008183610e8691906112db565b905082811015610e9957610e98611249565b5b92915050565b60008115159050919050565b610eb481610e9f565b82525050565b6000602082019050610ecf6000830184610eab565b92915050565b600081519050919050565b600082825260208201905092915050565b60005b83811015610f0f578082015181840152602081019050610ef4565b83811115610f1e576000848401525b50505050565b6000601f19601f8301169050919050565b6000610f4082610ed5565b610f4a8185610ee0565b9350610f5a818560208601610ef1565b610f6381610f24565b840191505092915050565b60006020820190508181036000830152610f888184610f35565b905092915050565b600080fd5b600073ffffffffffffffffffffffffffffffffffffffff82169050919050565b6000610fc082610f95565b9050919050565b610fd081610fb5565b8114610fdb57600080fd5b50565b600081359050610fed81610fc7565b92915050565b6000819050919050565b61100681610ff3565b811461101157600080fd5b50565b60008135905061102381610ffd565b92915050565b600080604083850312156110405761103f610f90565b5b600061104e85828601610fde565b925050602061105f85828601611014565b9150509250929050565b61107281610ff3565b82525050565b600060208201905061108d6000830184611069565b92915050565b6000806000606084860312156110ac576110ab610f90565b5b60006110ba86828701610fde565b93505060206110cb86828701610fde565b92505060406110dc86828701611014565b9150509250925092565b600060ff82169050919050565b6110fc816110e6565b82525050565b600060208201905061111760008301846110f3565b92915050565b60006020828403121561113357611132610f90565b5b600061114184828501610fde565b91505092915050565b61115381610fb5565b82525050565b600060208201905061116e600083018461114a565b92915050565b6000806040838503121561118b5761118a610f90565b5b600061119985828601610fde565b92505060206111aa85828601610fde565b9150509250929050565b7f42616c616e63652046726f6d204c6f7700000000000000000000000000000000600082015250565b60006111ea601083610ee0565b91506111f5826111b4565b602082019050919050565b60006020820190508181036000830152611219816111dd565b9050919050565b6000604082019050611235600083018561114a565b6112426020830184611069565b9392505050565b7f4e487b7100000000000000000000000000000000000000000000000000000000600052600160045260246000fd5b7f4e487b7100000000000000000000000000000000000000000000000000000000600052601160045260246000fd5b60006112b282610ff3565b91506112bd83610ff3565b9250828210156112d0576112cf611278565b5b828203905092915050565b60006112e682610ff3565b91506112f183610ff3565b9250827fffffffffffffffffffffffffffffffffffffffffffffffffffffffffffffffff0382111561132657611325611278565b5b82820190509291505056fea26469706673582212201ba8121a535af177c02867b2273871a16c5f6b73602f97453391b570040ac32964736f6c634300080d0033",
  "immutableReferences": {},
  "source": "pragma solidity >=0.5.0;\r\n\r\nimport \"./ERC20.sol\";\r\n\r\ncontract MysteryToken {\r\n    ERC20 erc20Contract;\r\n    address owner;\r\n    \r\n    constructor() public {\r\n        ERC20 e = new ERC20();\r\n        erc20Contract = e;\r\n        owner = msg.sender;\r\n    }\r\n\r\n    event creditChecked(uint256 credit);\r\n\r\n    function getCredit() public payable {\r\n        uint256 amt = msg.value / 10000000000000000; // no. of mystery token\r\n        erc20Contract.mint(msg.sender, amt);\r\n        \r\n    }\r\n\r\n    function checkCredit() public returns(uint256) {\r\n        uint256 credit = erc20Contract.balanceOf(msg.sender);\r\n        emit creditChecked(credit);\r\n        return credit;\r\n    }\r\n\r\n    function transferCredit(address receipt, uint256 amt) public {\r\n        erc20Contract.transfer(receipt, amt);\r\n    }\r\n\r\n    function transferCreditFrom(address from, address to, uint256 amt) public {\r\n        erc20Contract.transferFrom(from, to, amt);\r\n    }\r\n\r\n}",
  "sourcePath": "C:\\Users\\Bryan\\Desktop\\Year 3\\Sem 2\\IS4302\\final proj\\contracts\\MysteryToken.sol",
  "compiler": {
    "name": "solc",
    "version": "0.8.13+commit.abaa5c0e.Emscripten.clang"
  },
  "schemaVersion": "3.4.3",
  "updatedAt": "2022-04-05T12:35:21.753Z",
  "networkType": "ethereum",
  "devdoc": {
    "kind": "dev",
    "methods": {},
    "version": 1
  },
  "userdoc": {
    "kind": "user",
    "methods": {},
    "version": 1
  }
}