{
  "contractName": "MysteryStaking",
  "abi": [
    {
      "inputs": [],
      "stateMutability": "nonpayable",
      "type": "constructor"
    },
    {
      "anonymous": false,
      "inputs": [
        {
          "indexed": false,
          "internalType": "address",
          "name": "sender",
          "type": "address"
        },
        {
          "indexed": false,
          "internalType": "uint256",
          "name": "amt",
          "type": "uint256"
        }
      ],
      "name": "GetMYST",
      "type": "event"
    },
    {
      "anonymous": false,
      "inputs": [
        {
          "indexed": false,
          "internalType": "address",
          "name": "sender",
          "type": "address"
        },
        {
          "indexed": false,
          "internalType": "uint256",
          "name": "amt",
          "type": "uint256"
        }
      ],
      "name": "RewardsClaimed",
      "type": "event"
    },
    {
      "anonymous": false,
      "inputs": [
        {
          "indexed": false,
          "internalType": "address",
          "name": "sender",
          "type": "address"
        },
        {
          "indexed": false,
          "internalType": "uint256",
          "name": "amt",
          "type": "uint256"
        }
      ],
      "name": "TokenSent",
      "type": "event"
    },
    {
      "anonymous": false,
      "inputs": [
        {
          "indexed": false,
          "internalType": "address",
          "name": "sender",
          "type": "address"
        },
        {
          "indexed": false,
          "internalType": "uint256",
          "name": "amt",
          "type": "uint256"
        }
      ],
      "name": "TokenStaked",
      "type": "event"
    },
    {
      "anonymous": false,
      "inputs": [
        {
          "indexed": false,
          "internalType": "address",
          "name": "sender",
          "type": "address"
        },
        {
          "indexed": false,
          "internalType": "uint256",
          "name": "amt",
          "type": "uint256"
        }
      ],
      "name": "TokenUnstaked",
      "type": "event"
    },
    {
      "anonymous": false,
      "inputs": [
        {
          "indexed": false,
          "internalType": "address",
          "name": "to",
          "type": "address"
        },
        {
          "indexed": false,
          "internalType": "uint256",
          "name": "amount",
          "type": "uint256"
        }
      ],
      "name": "Transfer",
      "type": "event"
    },
    {
      "inputs": [],
      "name": "getMYST",
      "outputs": [
        {
          "internalType": "uint256",
          "name": "",
          "type": "uint256"
        }
      ],
      "stateMutability": "payable",
      "type": "function"
    },
    {
      "inputs": [
        {
          "internalType": "uint256",
          "name": "amt",
          "type": "uint256"
        }
      ],
      "name": "stakeTokens",
      "outputs": [],
      "stateMutability": "nonpayable",
      "type": "function"
    },
    {
      "inputs": [
        {
          "internalType": "uint256",
          "name": "amt",
          "type": "uint256"
        }
      ],
      "name": "unstakeTokens",
      "outputs": [],
      "stateMutability": "nonpayable",
      "type": "function"
    },
    {
      "inputs": [],
      "name": "claimRewards",
      "outputs": [],
      "stateMutability": "nonpayable",
      "type": "function"
    },
    {
      "inputs": [],
      "name": "getTotalPool",
      "outputs": [
        {
          "internalType": "uint256",
          "name": "",
          "type": "uint256"
        }
      ],
      "stateMutability": "view",
      "type": "function"
    },
    {
      "inputs": [
        {
          "internalType": "address",
          "name": "user",
          "type": "address"
        }
      ],
      "name": "getTokenBalance",
      "outputs": [
        {
          "internalType": "uint256",
          "name": "",
          "type": "uint256"
        }
      ],
      "stateMutability": "view",
      "type": "function"
    },
    {
      "inputs": [
        {
          "internalType": "address",
          "name": "user",
          "type": "address"
        }
      ],
      "name": "getStakedBalance",
      "outputs": [
        {
          "internalType": "uint256",
          "name": "",
          "type": "uint256"
        }
      ],
      "stateMutability": "view",
      "type": "function"
    },
    {
      "inputs": [
        {
          "internalType": "address",
          "name": "user",
          "type": "address"
        }
      ],
      "name": "getRewardsEarned",
      "outputs": [
        {
          "internalType": "uint256",
          "name": "",
          "type": "uint256"
        }
      ],
      "stateMutability": "view",
      "type": "function"
    }
  ],
  "bytecode": "0x608060405234801561001057600080fd5b5060405161001d906100cf565b604051809103906000f080158015610039573d6000803e3d6000fd5b506000806101000a81548173ffffffffffffffffffffffffffffffffffffffff021916908373ffffffffffffffffffffffffffffffffffffffff16021790555033600160006101000a81548173ffffffffffffffffffffffffffffffffffffffff021916908373ffffffffffffffffffffffffffffffffffffffff1602179055506000600281905550603c6003819055506100dc565b6112208061198283390190565b611897806100eb6000396000f3fe60806040526004361061007b5760003560e01c8063608e4dd01161004e578063608e4dd01461012f5780637547c7a31461015857806375f4d67714610181578063fe7b2560146101ac5761007b565b806331c40bc814610080578063372500ab1461009e5780633a02a42d146100b55780633aecd0e3146100f2575b600080fd5b6100886101e9565b6040516100959190611286565b60405180910390f35b3480156100aa57600080fd5b506100b3610328565b005b3480156100c157600080fd5b506100dc60048036038101906100d79190611304565b6105b4565b6040516100e99190611286565b60405180910390f35b3480156100fe57600080fd5b5061011960048036038101906101149190611304565b6105fd565b6040516101269190611286565b60405180910390f35b34801561013b57600080fd5b506101566004803603810190610151919061135d565b6106a1565b005b34801561016457600080fd5b5061017f600480360381019061017a919061135d565b610956565b005b34801561018d57600080fd5b50610196610e89565b6040516101a39190611286565b60405180910390f35b3480156101b857600080fd5b506101d360048036038101906101ce9190611304565b610e93565b6040516101e09190611286565b60405180910390f35b6000662386f26fc10000341015610235576040517f08c379a000000000000000000000000000000000000000000000000000000000815260040161022c9061140d565b60405180910390fd5b6000662386f26fc100003461024a919061148b565b905060008054906101000a900473ffffffffffffffffffffffffffffffffffffffff1673ffffffffffffffffffffffffffffffffffffffff166340c10f1933836040518363ffffffff1660e01b81526004016102a79291906114cb565b6020604051808303816000875af11580156102c6573d6000803e3d6000fd5b505050506040513d601f19601f820116820180604052508101906102ea919061152c565b507f03e67dfd6a9906d73f5a5c1a6f068b6c012943391792dbfcbc1e1b50509280e8338260405161031c9291906114cb565b60405180910390a15090565b600860003373ffffffffffffffffffffffffffffffffffffffff1673ffffffffffffffffffffffffffffffffffffffff16815260200190815260200160002060009054906101000a900460ff166103b4576040517f08c379a00000000000000000000000000000000000000000000000000000000081526004016103ab906115cb565b60405180910390fd5b6000600760003373ffffffffffffffffffffffffffffffffffffffff1673ffffffffffffffffffffffffffffffffffffffff1681526020019081526020016000205411610436576040517f08c379a000000000000000000000000000000000000000000000000000000000815260040161042d90611637565b60405180910390fd5b61043f33610ee6565b600760003373ffffffffffffffffffffffffffffffffffffffff1673ffffffffffffffffffffffffffffffffffffffff168152602001908152602001600020600082825461048d9190611657565b925050819055506103e8426104a2919061148b565b600660003373ffffffffffffffffffffffffffffffffffffffff1673ffffffffffffffffffffffffffffffffffffffff168152602001908152602001600020819055506000600760003373ffffffffffffffffffffffffffffffffffffffff1673ffffffffffffffffffffffffffffffffffffffff1681526020019081526020016000205490506105333382610fcf565b6000600760003373ffffffffffffffffffffffffffffffffffffffff1673ffffffffffffffffffffffffffffffffffffffff168152602001908152602001600020819055507ffc30cddea38e2bf4d6ea7d3f9ed3b6ad7f176419f4963bd81318067a4aee73fe33826040516105a99291906114cb565b60405180910390a150565b6000600560008373ffffffffffffffffffffffffffffffffffffffff1673ffffffffffffffffffffffffffffffffffffffff168152602001908152602001600020549050919050565b60008060009054906101000a900473ffffffffffffffffffffffffffffffffffffffff1673ffffffffffffffffffffffffffffffffffffffff166370a08231836040518263ffffffff1660e01b815260040161065991906116ad565b602060405180830381865afa158015610676573d6000803e3d6000fd5b505050506040513d601f19601f8201168201806040525081019061069a91906116dd565b9050919050565b600860003373ffffffffffffffffffffffffffffffffffffffff1673ffffffffffffffffffffffffffffffffffffffff16815260200190815260200160002060009054906101000a900460ff1661072d576040517f08c379a0000000000000000000000000000000000000000000000000000000008152600401610724906115cb565b60405180910390fd5b80600560003373ffffffffffffffffffffffffffffffffffffffff1673ffffffffffffffffffffffffffffffffffffffff1681526020019081526020016000205410156107af576040517f08c379a00000000000000000000000000000000000000000000000000000000081526004016107a69061177c565b60405180910390fd5b6107b8336110ab565b6107c23382610fcf565b80600260008282546107d4919061179c565b9250508190555080600560003373ffffffffffffffffffffffffffffffffffffffff1673ffffffffffffffffffffffffffffffffffffffff16815260200190815260200160002054036108c3576000600860003373ffffffffffffffffffffffffffffffffffffffff1673ffffffffffffffffffffffffffffffffffffffff16815260200190815260200160002060006101000a81548160ff0219169083151502179055506000600560003373ffffffffffffffffffffffffffffffffffffffff1673ffffffffffffffffffffffffffffffffffffffff1681526020019081526020016000208190555061091a565b80600560003373ffffffffffffffffffffffffffffffffffffffff1673ffffffffffffffffffffffffffffffffffffffff1681526020019081526020016000206000828254610912919061179c565b925050819055505b7ff0dbb2abe50e936f0d3720a39c0debe7706007b2c50286a913f24298e9be36ba338260405161094b9291906114cb565b60405180910390a150565b600860003373ffffffffffffffffffffffffffffffffffffffff1673ffffffffffffffffffffffffffffffffffffffff16815260200190815260200160002060009054906101000a900460ff1615610bfd576109b133610ee6565b600760003373ffffffffffffffffffffffffffffffffffffffff1673ffffffffffffffffffffffffffffffffffffffff16815260200190815260200160002060008282546109ff9190611657565b925050819055506103e842610a14919061148b565b600660003373ffffffffffffffffffffffffffffffffffffffff1673ffffffffffffffffffffffffffffffffffffffff1681526020019081526020016000208190555060008054906101000a900473ffffffffffffffffffffffffffffffffffffffff1673ffffffffffffffffffffffffffffffffffffffff166323b872dd3330846040518463ffffffff1660e01b8152600401610ab4939291906117d0565b6020604051808303816000875af1158015610ad3573d6000803e3d6000fd5b505050506040513d601f19601f82011682018060405250810190610af7919061152c565b5080600560003373ffffffffffffffffffffffffffffffffffffffff1673ffffffffffffffffffffffffffffffffffffffff1681526020019081526020016000206000828254610b479190611657565b925050819055506001600860003373ffffffffffffffffffffffffffffffffffffffff1673ffffffffffffffffffffffffffffffffffffffff16815260200190815260200160002060006101000a81548160ff0219169083151502179055508060026000828254610bb89190611657565b925050819055507f1fdab8a8457aaf782e4b6217d6ffa6f5006eda7e50922dd092b2e1524275d7743382604051610bf09291906114cb565b60405180910390a1610e86565b60008054906101000a900473ffffffffffffffffffffffffffffffffffffffff1673ffffffffffffffffffffffffffffffffffffffff166323b872dd3330846040518463ffffffff1660e01b8152600401610c5a939291906117d0565b6020604051808303816000875af1158015610c79573d6000803e3d6000fd5b505050506040513d601f19601f82011682018060405250810190610c9d919061152c565b506004339080600181540180825580915050600190039060005260206000200160009091909190916101000a81548173ffffffffffffffffffffffffffffffffffffffff021916908373ffffffffffffffffffffffffffffffffffffffff1602179055506000600760003373ffffffffffffffffffffffffffffffffffffffff1673ffffffffffffffffffffffffffffffffffffffff168152602001908152602001600020819055506103e842610d54919061148b565b600660003373ffffffffffffffffffffffffffffffffffffffff1673ffffffffffffffffffffffffffffffffffffffff1681526020019081526020016000208190555080600560003373ffffffffffffffffffffffffffffffffffffffff1673ffffffffffffffffffffffffffffffffffffffff168152602001908152602001600020819055506001600860003373ffffffffffffffffffffffffffffffffffffffff1673ffffffffffffffffffffffffffffffffffffffff16815260200190815260200160002060006101000a81548160ff0219169083151502179055508060026000828254610e459190611657565b925050819055507f1fdab8a8457aaf782e4b6217d6ffa6f5006eda7e50922dd092b2e1524275d7743382604051610e7d9291906114cb565b60405180910390a15b50565b6000600254905090565b6000610e9e82610ee6565b50600760008373ffffffffffffffffffffffffffffffffffffffff1673ffffffffffffffffffffffffffffffffffffffff168152602001908152602001600020549050919050565b6000603c601861016d6064600354610efe919061148b565b610f08919061148b565b610f12919061148b565b610f1c919061148b565b600560008473ffffffffffffffffffffffffffffffffffffffff1673ffffffffffffffffffffffffffffffffffffffff16815260200190815260200160002054600660008573ffffffffffffffffffffffffffffffffffffffff1673ffffffffffffffffffffffffffffffffffffffff168152602001908152602001600020546103e842610faa919061148b565b610fb4919061179c565b610fbe9190611807565b610fc89190611807565b9050919050565b60008054906101000a900473ffffffffffffffffffffffffffffffffffffffff1673ffffffffffffffffffffffffffffffffffffffff1663a9059cbb83836040518363ffffffff1660e01b815260040161102a9291906114cb565b6020604051808303816000875af1158015611049573d6000803e3d6000fd5b505050506040513d601f19601f8201168201806040525081019061106d919061152c565b507f69ca02dd4edd7bf0a4abb9ed3b7af3f14778db5d61921c7dc7cd545266326de2828260405161109f9291906114cb565b60405180910390a15050565b6000600760008373ffffffffffffffffffffffffffffffffffffffff1673ffffffffffffffffffffffffffffffffffffffff168152602001908152602001600020541161112d576040517f08c379a000000000000000000000000000000000000000000000000000000000815260040161112490611637565b60405180910390fd5b61113681610ee6565b600760008373ffffffffffffffffffffffffffffffffffffffff1673ffffffffffffffffffffffffffffffffffffffff16815260200190815260200160002060008282546111849190611657565b925050819055506103e842611199919061148b565b600660008373ffffffffffffffffffffffffffffffffffffffff1673ffffffffffffffffffffffffffffffffffffffff1681526020019081526020016000208190555061122581600760008473ffffffffffffffffffffffffffffffffffffffff1673ffffffffffffffffffffffffffffffffffffffff16815260200190815260200160002054610fcf565b6000600760008373ffffffffffffffffffffffffffffffffffffffff1673ffffffffffffffffffffffffffffffffffffffff1681526020019081526020016000208190555050565b6000819050919050565b6112808161126d565b82525050565b600060208201905061129b6000830184611277565b92915050565b600080fd5b600073ffffffffffffffffffffffffffffffffffffffff82169050919050565b60006112d1826112a6565b9050919050565b6112e1816112c6565b81146112ec57600080fd5b50565b6000813590506112fe816112d8565b92915050565b60006020828403121561131a576113196112a1565b5b6000611328848285016112ef565b91505092915050565b61133a8161126d565b811461134557600080fd5b50565b60008135905061135781611331565b92915050565b600060208284031215611373576113726112a1565b5b600061138184828501611348565b91505092915050565b600082825260208201905092915050565b7f4174206c6561737420302e3031455448206e656564656420746f20676574204d60008201527f5953540000000000000000000000000000000000000000000000000000000000602082015250565b60006113f760238361138a565b91506114028261139b565b604082019050919050565b60006020820190508181036000830152611426816113ea565b9050919050565b7f4e487b7100000000000000000000000000000000000000000000000000000000600052601260045260246000fd5b7f4e487b7100000000000000000000000000000000000000000000000000000000600052601160045260246000fd5b60006114968261126d565b91506114a18361126d565b9250826114b1576114b061142d565b5b828204905092915050565b6114c5816112c6565b82525050565b60006040820190506114e060008301856114bc565b6114ed6020830184611277565b9392505050565b60008115159050919050565b611509816114f4565b811461151457600080fd5b50565b60008151905061152681611500565b92915050565b600060208284031215611542576115416112a1565b5b600061155084828501611517565b91505092915050565b7f596f7520646f206e6f74206861766520616e7920746f6b656e73207374616b6560008201527f6421000000000000000000000000000000000000000000000000000000000000602082015250565b60006115b560228361138a565b91506115c082611559565b604082019050919050565b600060208201905081810360008301526115e4816115a8565b9050919050565b7f596f7520646f206e6f74206861766520616e7920726577617264732100000000600082015250565b6000611621601c8361138a565b915061162c826115eb565b602082019050919050565b6000602082019050818103600083015261165081611614565b9050919050565b60006116628261126d565b915061166d8361126d565b9250827fffffffffffffffffffffffffffffffffffffffffffffffffffffffffffffffff038211156116a2576116a161145c565b5b828201905092915050565b60006020820190506116c260008301846114bc565b92915050565b6000815190506116d781611331565b92915050565b6000602082840312156116f3576116f26112a1565b5b6000611701848285016116c8565b91505092915050565b7f416d6f756e7420746f20756e7374616b652065786365656473207374616b696e60008201527f672062616c616e63652100000000000000000000000000000000000000000000602082015250565b6000611766602a8361138a565b91506117718261170a565b604082019050919050565b6000602082019050818103600083015261179581611759565b9050919050565b60006117a78261126d565b91506117b28361126d565b9250828210156117c5576117c461145c565b5b828203905092915050565b60006060820190506117e560008301866114bc565b6117f260208301856114bc565b6117ff6040830184611277565b949350505050565b60006118128261126d565b915061181d8361126d565b9250817fffffffffffffffffffffffffffffffffffffffffffffffffffffffffffffffff04831182151516156118565761185561145c565b5b82820290509291505056fea26469706673582212202a5e72f684f3b727340d9bb5089f89492980c18ff4bca447d6cf5d1c8c50e4a364736f6c634300080d0033608060405260008060006101000a81548160ff02191690831515021790555033600060016101000a81548173ffffffffffffffffffffffffffffffffffffffff021916908373ffffffffffffffffffffffffffffffffffffffff16021790555034801561006b57600080fd5b506111a58061007b6000396000f3fe608060405234801561001057600080fd5b50600436106100ea5760003560e01c806370a082311161008c5780638da5cb5b116100665780638da5cb5b1461026357806395d89b4114610281578063a9059cbb1461029f578063dd62ed3e146102cf576100ea565b806370a08231146101f75780637d64bcb414610227578063893d20e814610245576100ea565b806318160ddd116100c857806318160ddd1461015b57806323b872dd14610179578063313ce567146101a957806340c10f19146101c7576100ea565b806305d2035b146100ef57806306fdde031461010d578063095ea7b31461012b575b600080fd5b6100f76102ff565b6040516101049190610d21565b60405180910390f35b610115610310565b6040516101229190610dd5565b60405180910390f35b61014560048036038101906101409190610e90565b610349565b6040516101529190610d21565b60405180910390f35b61016361043b565b6040516101709190610edf565b60405180910390f35b610193600480360381019061018e9190610efa565b610445565b6040516101a09190610d21565b60405180910390f35b6101b161069b565b6040516101be9190610f69565b60405180910390f35b6101e160048036038101906101dc9190610e90565b6106a0565b6040516101ee9190610d21565b60405180910390f35b610211600480360381019061020c9190610f84565b610881565b60405161021e9190610edf565b60405180910390f35b61022f6108ca565b60405161023c9190610d21565b60405180910390f35b61024d61098a565b60405161025a9190610fc0565b60405180910390f35b61026b6109b3565b6040516102789190610fc0565b60405180910390f35b6102896109d9565b6040516102969190610dd5565b60405180910390f35b6102b960048036038101906102b49190610e90565b610a12565b6040516102c69190610d21565b60405180910390f35b6102e960048036038101906102e49190610fdb565b610c31565b6040516102f69190610edf565b60405180910390f35b60008054906101000a900460ff1681565b6040518060400160405280600781526020017f4d5953544552590000000000000000000000000000000000000000000000000081525081565b600081600160003373ffffffffffffffffffffffffffffffffffffffff1673ffffffffffffffffffffffffffffffffffffffff16815260200190815260200160002060008573ffffffffffffffffffffffffffffffffffffffff1673ffffffffffffffffffffffffffffffffffffffff168152602001908152602001600020819055508273ffffffffffffffffffffffffffffffffffffffff163373ffffffffffffffffffffffffffffffffffffffff167f8c5be1e5ebec7d5bd14f71427d1e84f3dd0314c0f7b2291e5b200ac8c7c3b925846040516104299190610edf565b60405180910390a36001905092915050565b6000600354905090565b60008073ffffffffffffffffffffffffffffffffffffffff168373ffffffffffffffffffffffffffffffffffffffff160361047f57600080fd5b600260008573ffffffffffffffffffffffffffffffffffffffff1673ffffffffffffffffffffffffffffffffffffffff16815260200190815260200160002054821115610501576040517f08c379a00000000000000000000000000000000000000000000000000000000081526004016104f890611067565b60405180910390fd5b61055382600260008773ffffffffffffffffffffffffffffffffffffffff1673ffffffffffffffffffffffffffffffffffffffff16815260200190815260200160002054610cb890919063ffffffff16565b600260008673ffffffffffffffffffffffffffffffffffffffff1673ffffffffffffffffffffffffffffffffffffffff168152602001908152602001600020819055506105e882600260008673ffffffffffffffffffffffffffffffffffffffff1673ffffffffffffffffffffffffffffffffffffffff16815260200190815260200160002054610cdf90919063ffffffff16565b600260008573ffffffffffffffffffffffffffffffffffffffff1673ffffffffffffffffffffffffffffffffffffffff168152602001908152602001600020819055508273ffffffffffffffffffffffffffffffffffffffff168473ffffffffffffffffffffffffffffffffffffffff167fddf252ad1be2c89b69c2b068fc378daa952ba7f163c4a11628f55a4df523b3ef846040516106889190610edf565b60405180910390a3600190509392505050565b601281565b60008060019054906101000a900473ffffffffffffffffffffffffffffffffffffffff1673ffffffffffffffffffffffffffffffffffffffff163373ffffffffffffffffffffffffffffffffffffffff16146106fb57600080fd5b60008054906101000a900460ff161561071357600080fd5b61072882600354610cdf90919063ffffffff16565b60038190555061078082600260008673ffffffffffffffffffffffffffffffffffffffff1673ffffffffffffffffffffffffffffffffffffffff16815260200190815260200160002054610cdf90919063ffffffff16565b600260008573ffffffffffffffffffffffffffffffffffffffff1673ffffffffffffffffffffffffffffffffffffffff168152602001908152602001600020819055508273ffffffffffffffffffffffffffffffffffffffff167f0f6798a560793a54c3bcfe86a93cde1e73087d944c0ea20544137d4121396885836040516108099190610edf565b60405180910390a28273ffffffffffffffffffffffffffffffffffffffff16600073ffffffffffffffffffffffffffffffffffffffff167fddf252ad1be2c89b69c2b068fc378daa952ba7f163c4a11628f55a4df523b3ef8460405161086f9190610edf565b60405180910390a36001905092915050565b6000600260008373ffffffffffffffffffffffffffffffffffffffff1673ffffffffffffffffffffffffffffffffffffffff168152602001908152602001600020549050919050565b60008060019054906101000a900473ffffffffffffffffffffffffffffffffffffffff1673ffffffffffffffffffffffffffffffffffffffff163373ffffffffffffffffffffffffffffffffffffffff161461092557600080fd5b60008054906101000a900460ff161561093d57600080fd5b60016000806101000a81548160ff0219169083151502179055507fae5184fba832cb2b1f702aca6117b8d265eaf03ad33eb133f19dde0f5920fa0860405160405180910390a16001905090565b60008060019054906101000a900473ffffffffffffffffffffffffffffffffffffffff16905090565b600060019054906101000a900473ffffffffffffffffffffffffffffffffffffffff1681565b6040518060400160405280600481526020017f4d5953540000000000000000000000000000000000000000000000000000000081525081565b60008073ffffffffffffffffffffffffffffffffffffffff168373ffffffffffffffffffffffffffffffffffffffff1603610a4c57600080fd5b600260003373ffffffffffffffffffffffffffffffffffffffff1673ffffffffffffffffffffffffffffffffffffffff16815260200190815260200160002054821115610a9857600080fd5b610aea82600260003373ffffffffffffffffffffffffffffffffffffffff1673ffffffffffffffffffffffffffffffffffffffff16815260200190815260200160002054610cb890919063ffffffff16565b600260003373ffffffffffffffffffffffffffffffffffffffff1673ffffffffffffffffffffffffffffffffffffffff16815260200190815260200160002081905550610b7f82600260008673ffffffffffffffffffffffffffffffffffffffff1673ffffffffffffffffffffffffffffffffffffffff16815260200190815260200160002054610cdf90919063ffffffff16565b600260008573ffffffffffffffffffffffffffffffffffffffff1673ffffffffffffffffffffffffffffffffffffffff168152602001908152602001600020819055508273ffffffffffffffffffffffffffffffffffffffff163373ffffffffffffffffffffffffffffffffffffffff167fddf252ad1be2c89b69c2b068fc378daa952ba7f163c4a11628f55a4df523b3ef84604051610c1f9190610edf565b60405180910390a36001905092915050565b6000600160008473ffffffffffffffffffffffffffffffffffffffff1673ffffffffffffffffffffffffffffffffffffffff16815260200190815260200160002060008373ffffffffffffffffffffffffffffffffffffffff1673ffffffffffffffffffffffffffffffffffffffff16815260200190815260200160002054905092915050565b600082821115610ccb57610cca611087565b5b8183610cd791906110e5565b905092915050565b60008183610ced9190611119565b905082811015610d0057610cff611087565b5b92915050565b60008115159050919050565b610d1b81610d06565b82525050565b6000602082019050610d366000830184610d12565b92915050565b600081519050919050565b600082825260208201905092915050565b60005b83811015610d76578082015181840152602081019050610d5b565b83811115610d85576000848401525b50505050565b6000601f19601f8301169050919050565b6000610da782610d3c565b610db18185610d47565b9350610dc1818560208601610d58565b610dca81610d8b565b840191505092915050565b60006020820190508181036000830152610def8184610d9c565b905092915050565b600080fd5b600073ffffffffffffffffffffffffffffffffffffffff82169050919050565b6000610e2782610dfc565b9050919050565b610e3781610e1c565b8114610e4257600080fd5b50565b600081359050610e5481610e2e565b92915050565b6000819050919050565b610e6d81610e5a565b8114610e7857600080fd5b50565b600081359050610e8a81610e64565b92915050565b60008060408385031215610ea757610ea6610df7565b5b6000610eb585828601610e45565b9250506020610ec685828601610e7b565b9150509250929050565b610ed981610e5a565b82525050565b6000602082019050610ef46000830184610ed0565b92915050565b600080600060608486031215610f1357610f12610df7565b5b6000610f2186828701610e45565b9350506020610f3286828701610e45565b9250506040610f4386828701610e7b565b9150509250925092565b600060ff82169050919050565b610f6381610f4d565b82525050565b6000602082019050610f7e6000830184610f5a565b92915050565b600060208284031215610f9a57610f99610df7565b5b6000610fa884828501610e45565b91505092915050565b610fba81610e1c565b82525050565b6000602082019050610fd56000830184610fb1565b92915050565b60008060408385031215610ff257610ff1610df7565b5b600061100085828601610e45565b925050602061101185828601610e45565b9150509250929050565b7f42616c616e63652046726f6d204c6f7700000000000000000000000000000000600082015250565b6000611051601083610d47565b915061105c8261101b565b602082019050919050565b6000602082019050818103600083015261108081611044565b9050919050565b7f4e487b7100000000000000000000000000000000000000000000000000000000600052600160045260246000fd5b7f4e487b7100000000000000000000000000000000000000000000000000000000600052601160045260246000fd5b60006110f082610e5a565b91506110fb83610e5a565b92508282101561110e5761110d6110b6565b5b828203905092915050565b600061112482610e5a565b915061112f83610e5a565b9250827fffffffffffffffffffffffffffffffffffffffffffffffffffffffffffffffff03821115611164576111636110b6565b5b82820190509291505056fea264697066735822122055547e2765cfb361d47898cea786707c58d68ddb5c613035ba5ee596caac810564736f6c634300080d0033",
  "immutableReferences": {},
  "source": "pragma solidity >=0.5.0;\r\n\r\nimport \"./ERC20.sol\";\r\n\r\ncontract MysteryStaking {\r\n    ERC20 mystToken;\r\n    address owner;\r\n\r\n    uint256 totalPool; //total amount of PTs in the pool\r\n    uint256 poolAPY; // percentage APY of the pool\r\n    address[] stakers; //List of addresses that staked\r\n    mapping(address => uint256) stakingBalance; // How much each address staked\r\n    mapping(address => uint256) lastRewardCalcTime; // Start of staking for the address in unix timestamp\r\n    mapping(address => uint256) rewardsEarned; // How much they earn in rewards\r\n    mapping(address => bool) isStaking;\r\n\r\n    constructor() public {\r\n        mystToken = new ERC20();\r\n        owner = msg.sender;\r\n        totalPool = 0;\r\n        poolAPY = 60; // 60% a year\r\n    }\r\n\r\n    event Transfer(address to, uint256 amount);\r\n    event TokenSent(address sender, uint256 amt);\r\n    event GetMYST(address sender, uint256 amt);\r\n    event TokenStaked(address sender, uint256 amt);\r\n    event RewardsClaimed(address sender, uint256 amt);\r\n    event TokenUnstaked(address sender, uint256 amt);\r\n\r\n    function getMYST() public payable returns (uint256) {\r\n        require(msg.value >= 1E16, \"At least 0.01ETH needed to get MYST\");\r\n        uint256 val = msg.value / 1E16;\r\n        mystToken.mint(msg.sender, val);\r\n        emit GetMYST(msg.sender, val);\r\n    }\r\n\r\n    function transferMYST(address to, uint256 amount) private {\r\n        mystToken.transfer(to, amount);\r\n        emit Transfer(to, amount);\r\n    }\r\n\r\n    function stakeTokens(uint256 amt) public {\r\n        //send MYST to the pool\r\n        if (isStaking[msg.sender]) {\r\n            rewardsEarned[msg.sender] += calculateRewards(msg.sender);\r\n            lastRewardCalcTime[msg.sender] = block.timestamp / 1000;\r\n            mystToken.transferFrom(msg.sender, address(this), amt);\r\n            stakingBalance[msg.sender] += amt;\r\n            isStaking[msg.sender] = true;\r\n            totalPool += amt;\r\n            emit TokenStaked(msg.sender, amt);\r\n        } else {\r\n            mystToken.transferFrom(msg.sender, address(this), amt);\r\n            stakers.push(msg.sender);\r\n            rewardsEarned[msg.sender] = 0;\r\n            lastRewardCalcTime[msg.sender] = block.timestamp / 1000;\r\n            stakingBalance[msg.sender] = amt;\r\n            isStaking[msg.sender] = true;\r\n            totalPool += amt;\r\n            emit TokenStaked(msg.sender, amt);\r\n        }\r\n    }\r\n\r\n    function unstakeTokens(uint256 amt) public {\r\n        require(isStaking[msg.sender], \"You do not have any tokens staked!\");\r\n        require(\r\n            stakingBalance[msg.sender] >= amt,\r\n            \"Amount to unstake exceeds staking balance!\"\r\n        );\r\n        unstakeClaimRewards(msg.sender);\r\n        transferMYST(msg.sender, amt);\r\n        totalPool -= amt;\r\n        if (stakingBalance[msg.sender] == amt) {\r\n            isStaking[msg.sender] = false;\r\n            stakingBalance[msg.sender] = 0;\r\n        } else {\r\n            stakingBalance[msg.sender] -= amt;\r\n        }\r\n        emit TokenUnstaked(msg.sender, amt);\r\n    }\r\n\r\n    function claimRewards() public {\r\n        require(isStaking[msg.sender], \"You do not have any tokens staked!\");\r\n        require(rewardsEarned[msg.sender] > 0, \"You do not have any rewards!\");\r\n        rewardsEarned[msg.sender] += calculateRewards(msg.sender);\r\n        lastRewardCalcTime[msg.sender] = block.timestamp / 1000;\r\n        uint256 amt = rewardsEarned[msg.sender];\r\n        transferMYST(msg.sender, amt);\r\n        rewardsEarned[msg.sender] = 0;\r\n        emit RewardsClaimed(msg.sender, amt);\r\n    }\r\n\r\n    function unstakeClaimRewards(address sender) private {\r\n        require(rewardsEarned[sender] > 0, \"You do not have any rewards!\");\r\n        rewardsEarned[sender] += calculateRewards(sender);\r\n        lastRewardCalcTime[sender] = block.timestamp / 1000;\r\n        transferMYST(sender, rewardsEarned[sender]);\r\n        rewardsEarned[sender] = 0;\r\n    }\r\n\r\n    function calculateRewards(address sender) internal view returns (uint256) {\r\n        return\r\n            (block.timestamp / 1000 - lastRewardCalcTime[sender]) *\r\n            stakingBalance[sender] *\r\n            (poolAPY / 100 / 365 / 24 / 60);\r\n        //checks for NFT and add more APY here.\r\n    }\r\n\r\n    //getter functions for testing\r\n    function getTotalPool() public view returns (uint256) {\r\n        return totalPool;\r\n    }\r\n\r\n    function getTokenBalance(address user) public view returns (uint256) {\r\n        return mystToken.balanceOf(user);\r\n    }\r\n\r\n    function getStakedBalance(address user) public view returns (uint256) {\r\n        return stakingBalance[user];\r\n    }\r\n\r\n    function getRewardsEarned(address user) public view returns (uint256) {\r\n        calculateRewards(user);\r\n        return rewardsEarned[user];\r\n    }\r\n}\r\n",
  "sourcePath": "C:\\Users\\Kevin\\Documents\\BlockchainMod\\mysterio\\contracts\\MysteryStaking.sol",
  "compiler": {
    "name": "solc",
    "version": "0.8.13+commit.abaa5c0e.Emscripten.clang"
  },
  "schemaVersion": "3.4.3",
  "updatedAt": "2022-03-29T14:36:54.583Z",
  "devdoc": {
    "kind": "dev",
    "methods": {},
    "version": 1
  },
  "userdoc": {
    "kind": "user",
    "methods": {},
    "version": 1
  }
}