{
  "contractName": "MysteryBox",
  "abi": [
    {
      "inputs": [
        {
          "internalType": "contract OwnedNFTs",
          "name": "ownedNFT",
          "type": "address"
        }
      ],
      "stateMutability": "nonpayable",
      "type": "constructor"
    },
    {
      "anonymous": false,
      "inputs": [
        {
          "indexed": false,
          "internalType": "uint256",
          "name": "boxId",
          "type": "uint256"
        },
        {
          "indexed": false,
          "internalType": "uint8",
          "name": "tier",
          "type": "uint8"
        }
      ],
      "name": "boxMade",
      "type": "event"
    },
    {
      "anonymous": false,
      "inputs": [
        {
          "indexed": false,
          "internalType": "address",
          "name": "purchaser",
          "type": "address"
        }
      ],
      "name": "boxOpen",
      "type": "event"
    },
    {
      "anonymous": false,
      "inputs": [
        {
          "indexed": false,
          "internalType": "address",
          "name": "purchaser",
          "type": "address"
        }
      ],
      "name": "transferMade",
      "type": "event"
    },
    {
      "inputs": [
        {
          "internalType": "uint8",
          "name": "tier",
          "type": "uint8"
        },
        {
          "internalType": "address",
          "name": "purchaser",
          "type": "address"
        }
      ],
      "name": "transfer",
      "outputs": [],
      "stateMutability": "payable",
      "type": "function"
    },
    {
      "inputs": [
        {
          "internalType": "uint256",
          "name": "boxID",
          "type": "uint256"
        }
      ],
      "name": "openBox",
      "outputs": [
        {
          "internalType": "contract ERC721[]",
          "name": "",
          "type": "address[]"
        }
      ],
      "stateMutability": "nonpayable",
      "type": "function"
    },
    {
      "inputs": [],
      "name": "checkBoxesIds",
      "outputs": [
        {
          "components": [
            {
              "internalType": "uint256",
              "name": "id",
              "type": "uint256"
            },
            {
              "internalType": "address",
              "name": "purchaser",
              "type": "address"
            },
            {
              "components": [
                {
                  "internalType": "address",
                  "name": "parentContract",
                  "type": "address"
                },
                {
                  "internalType": "uint256",
                  "name": "price",
                  "type": "uint256"
                },
                {
                  "internalType": "uint256",
                  "name": "tokenId",
                  "type": "uint256"
                },
                {
                  "internalType": "bool",
                  "name": "isValued",
                  "type": "bool"
                }
              ],
              "internalType": "struct MysteryBox.nft[]",
              "name": "nfts",
              "type": "tuple[]"
            },
            {
              "internalType": "uint8",
              "name": "tier",
              "type": "uint8"
            },
            {
              "internalType": "bool",
              "name": "isOpen",
              "type": "bool"
            },
            {
              "internalType": "uint256[]",
              "name": "nftIds",
              "type": "uint256[]"
            }
          ],
          "internalType": "struct MysteryBox.Box[]",
          "name": "",
          "type": "tuple[]"
        }
      ],
      "stateMutability": "view",
      "type": "function"
    },
    {
      "inputs": [],
      "name": "getOwnedInstance",
      "outputs": [
        {
          "internalType": "uint256",
          "name": "",
          "type": "uint256"
        }
      ],
      "stateMutability": "view",
      "type": "function"
    }
  ],
  "bytecode": "0x60806040523480156200001157600080fd5b5060405162003791380380620037918339818101604052810190620000379190620000fc565b806000806101000a81548173ffffffffffffffffffffffffffffffffffffffff021916908373ffffffffffffffffffffffffffffffffffffffff160217905550506200012e565b600080fd5b600073ffffffffffffffffffffffffffffffffffffffff82169050919050565b6000620000b08262000083565b9050919050565b6000620000c482620000a3565b9050919050565b620000d681620000b7565b8114620000e257600080fd5b50565b600081519050620000f681620000cb565b92915050565b6000602082840312156200011557620001146200007e565b5b60006200012584828501620000e5565b91505092915050565b613653806200013e6000396000f3fe60806040526004361061003f5760003560e01c80631138ce641461004457806327b375341461006f5780635eaeffd81461008b578063b1e5e2b7146100b6575b600080fd5b34801561005057600080fd5b506100596100f3565b6040516100669190612c22565b60405180910390f35b61008960048036038101906100849190612ca1565b6103e8565b005b34801561009757600080fd5b506100a0610b24565b6040516100ad9190612cf0565b60405180910390f35b3480156100c257600080fd5b506100dd60048036038101906100d89190612d37565b610bc7565b6040516100ea9190612e72565b60405180910390f35b60606000600160003373ffffffffffffffffffffffffffffffffffffffff1673ffffffffffffffffffffffffffffffffffffffff168152602001908152602001600020805490501161017a576040517f08c379a000000000000000000000000000000000000000000000000000000000815260040161017190612ef1565b60405180910390fd5b600160003373ffffffffffffffffffffffffffffffffffffffff1673ffffffffffffffffffffffffffffffffffffffff168152602001908152602001600020805480602002602001604051908101604052809291908181526020016000905b828210156103df57838290600052602060002090600502016040518060c0016040529081600082015481526020016001820160009054906101000a900473ffffffffffffffffffffffffffffffffffffffff1673ffffffffffffffffffffffffffffffffffffffff1673ffffffffffffffffffffffffffffffffffffffff16815260200160028201805480602002602001604051908101604052809291908181526020016000905b8282101561033857838290600052602060002090600402016040518060800160405290816000820160009054906101000a900473ffffffffffffffffffffffffffffffffffffffff1673ffffffffffffffffffffffffffffffffffffffff1673ffffffffffffffffffffffffffffffffffffffff16815260200160018201548152602001600282015481526020016003820160009054906101000a900460ff16151515158152505081526020019060010190610281565b5050505081526020016003820160009054906101000a900460ff1660ff1660ff1681526020016003820160019054906101000a900460ff16151515158152602001600482018054806020026020016040519081016040528092919081815260200182805480156103c757602002820191906000526020600020905b8154815260200190600101908083116103b3575b505050505081525050815260200190600101906101d9565b50505050905090565b60008260ff16036106545766b1a2bc2ec5000034101561043d576040517f08c379a000000000000000000000000000000000000000000000000000000000815260040161043490612f83565b60405180910390fd5b6000610449838361124f565b90506000600160003373ffffffffffffffffffffffffffffffffffffffff1673ffffffffffffffffffffffffffffffffffffffff168152602001908152602001600020905080600260008481526020019081526020016000209080600181540180825580915050600190039060005260206000209060050201600090919091909150600082015481600001556001820160009054906101000a900473ffffffffffffffffffffffffffffffffffffffff168160010160006101000a81548173ffffffffffffffffffffffffffffffffffffffff021916908373ffffffffffffffffffffffffffffffffffffffff1602179055506002820181600201908054610552929190612496565b506003820160009054906101000a900460ff168160030160006101000a81548160ff021916908360ff1602179055506003820160019054906101000a900460ff168160030160016101000a81548160ff02191690831515021790555060048201816004019080546105c4929190612596565b50505080600160003373ffffffffffffffffffffffffffffffffffffffff1673ffffffffffffffffffffffffffffffffffffffff1681526020019081526020016000209080546106159291906125e8565b507fa5fddfcc13d26ad51fbfd106263f3ff73e656d5dc414f0f8dad98fdb15a5cc2f836040516106459190612fb2565b60405180910390a15050610b20565b60018260ff16036108c15767016345785d8a00003410156106aa576040517f08c379a00000000000000000000000000000000000000000000000000000000081526004016106a19061303f565b60405180910390fd5b60006106b6838361124f565b90506000600160003373ffffffffffffffffffffffffffffffffffffffff1673ffffffffffffffffffffffffffffffffffffffff168152602001908152602001600020905080600260008481526020019081526020016000209080600181540180825580915050600190039060005260206000209060050201600090919091909150600082015481600001556001820160009054906101000a900473ffffffffffffffffffffffffffffffffffffffff168160010160006101000a81548173ffffffffffffffffffffffffffffffffffffffff021916908373ffffffffffffffffffffffffffffffffffffffff16021790555060028201816002019080546107bf929190612496565b506003820160009054906101000a900460ff168160030160006101000a81548160ff021916908360ff1602179055506003820160019054906101000a900460ff168160030160016101000a81548160ff0219169083151502179055506004820181600401908054610831929190612596565b50505080600160003373ffffffffffffffffffffffffffffffffffffffff1673ffffffffffffffffffffffffffffffffffffffff1681526020019081526020016000209080546108829291906125e8565b507fa5fddfcc13d26ad51fbfd106263f3ff73e656d5dc414f0f8dad98fdb15a5cc2f836040516108b29190612fb2565b60405180910390a15050610b1f565b670214e8348c4f000034101561090c576040517f08c379a0000000000000000000000000000000000000000000000000000000008152600401610903906130d1565b60405180910390fd5b6000610918838361124f565b90506000600160003373ffffffffffffffffffffffffffffffffffffffff1673ffffffffffffffffffffffffffffffffffffffff168152602001908152602001600020905080600260008481526020019081526020016000209080600181540180825580915050600190039060005260206000209060050201600090919091909150600082015481600001556001820160009054906101000a900473ffffffffffffffffffffffffffffffffffffffff168160010160006101000a81548173ffffffffffffffffffffffffffffffffffffffff021916908373ffffffffffffffffffffffffffffffffffffffff1602179055506002820181600201908054610a21929190612496565b506003820160009054906101000a900460ff168160030160006101000a81548160ff021916908360ff1602179055506003820160019054906101000a900460ff168160030160016101000a81548160ff0219169083151502179055506004820181600401908054610a93929190612596565b50505080600160003373ffffffffffffffffffffffffffffffffffffffff1673ffffffffffffffffffffffffffffffffffffffff168152602001908152602001600020908054610ae49291906125e8565b507fa5fddfcc13d26ad51fbfd106263f3ff73e656d5dc414f0f8dad98fdb15a5cc2f83604051610b149190612fb2565b60405180910390a150505b5b5050565b60008060009054906101000a900473ffffffffffffffffffffffffffffffffffffffff1673ffffffffffffffffffffffffffffffffffffffff166393f64d0360006040518263ffffffff1660e01b8152600401610b819190613100565b602060405180830381865afa158015610b9e573d6000803e3d6000fd5b505050506040513d601f19601f82011682018060405250810190610bc29190613130565b905090565b60603373ffffffffffffffffffffffffffffffffffffffff166002600084815260200190815260200160002060010160009054906101000a900473ffffffffffffffffffffffffffffffffffffffff1673ffffffffffffffffffffffffffffffffffffffff1614610c6d576040517f08c379a0000000000000000000000000000000000000000000000000000000008152600401610c64906131a9565b60405180910390fd5b600015156002600084815260200190815260200160002060030160019054906101000a900460ff16151514610cd7576040517f08c379a0000000000000000000000000000000000000000000000000000000008152600401610cce90613215565b60405180910390fd5b6000600260008481526020019081526020016000206040518060c0016040529081600082015481526020016001820160009054906101000a900473ffffffffffffffffffffffffffffffffffffffff1673ffffffffffffffffffffffffffffffffffffffff1673ffffffffffffffffffffffffffffffffffffffff16815260200160028201805480602002602001604051908101604052809291908181526020016000905b82821015610e3357838290600052602060002090600402016040518060800160405290816000820160009054906101000a900473ffffffffffffffffffffffffffffffffffffffff1673ffffffffffffffffffffffffffffffffffffffff1673ffffffffffffffffffffffffffffffffffffffff16815260200160018201548152602001600282015481526020016003820160009054906101000a900460ff16151515158152505081526020019060010190610d7c565b5050505081526020016003820160009054906101000a900460ff1660ff1660ff1681526020016003820160019054906101000a900460ff1615151515815260200160048201805480602002602001604051908101604052809291908181526020018280548015610ec257602002820191906000526020600020905b815481526020019060010190808311610eae575b5050505050815250509050606060005b8260400151518110156111de57600073ffffffffffffffffffffffffffffffffffffffff1683604001518281518110610f0e57610f0d613235565b5b60200260200101516000015173ffffffffffffffffffffffffffffffffffffffff1603156111de5782604001518181518110610f4d57610f4c613235565b5b60200260200101516000015173ffffffffffffffffffffffffffffffffffffffff1663a22cb4653360016040518363ffffffff1660e01b8152600401610f94929190613264565b600060405180830381600087803b158015610fae57600080fd5b505af1158015610fc2573d6000803e3d6000fd5b5050505082604001518181518110610fdd57610fdc613235565b5b60200260200101516000015173ffffffffffffffffffffffffffffffffffffffff166323b872dd30338660400151858151811061101d5761101c613235565b5b6020026020010151604001516040518463ffffffff1660e01b81526004016110479392919061328d565b600060405180830381600087803b15801561106157600080fd5b505af1158015611075573d6000803e3d6000fd5b50505050826040015181815181106110905761108f613235565b5b6020026020010151600001518282815181106110af576110ae613235565b5b602002602001019073ffffffffffffffffffffffffffffffffffffffff16908173ffffffffffffffffffffffffffffffffffffffff168152505060008054906101000a900473ffffffffffffffffffffffffffffffffffffffff1673ffffffffffffffffffffffffffffffffffffffff1663d5f615c68460a00151838151811061113c5761113b613235565b5b60200260200101518560400151848151811061115b5761115a613235565b5b6020026020010151606001516040518363ffffffff1660e01b81526004016111849291906132c4565b6080604051808303816000875af11580156111a3573d6000803e3d6000fd5b505050506040513d601f19601f820116820180604052508101906111c7919061332e565b5050505080806111d6906133c4565b915050610ed2565b5060016002600086815260200190815260200160002060030160016101000a81548160ff0219169083151502179055507f0f257e0f082da60157afea269e03d81955110c684b56e8ded0868505728f410f3360405161123d9190612fb2565b60405180910390a18092505050919050565b600060036000815480929190611264906133c4565b9190505550600080600061127661240b565b9050600080808860ff16036112a157666a94d74f4300009050605f831061129c57600191505b6112e2565b60018860ff16036112c85766e6ed27d66680009050604683106112c357600191505b6112e1565b67016345785d8a00009050602883106112e057600191505b5b5b5b806fffffffffffffffffffffffffffffffff168410156122e85760018260ff1603611b065760008060009054906101000a900473ffffffffffffffffffffffffffffffffffffffff1673ffffffffffffffffffffffffffffffffffffffff1663366ad83e60016040518263ffffffff1660e01b81526004016113659190613100565b602060405180830381865afa158015611382573d6000803e3d6000fd5b505050506040513d601f19601f820116820180604052508101906113a69190613130565b036113be5781806113b69061340c565b9250506112e3565b600061146360008054906101000a900473ffffffffffffffffffffffffffffffffffffffff1673ffffffffffffffffffffffffffffffffffffffff166393f64d0360016040518263ffffffff1660e01b815260040161141d9190613100565b602060405180830381865afa15801561143a573d6000803e3d6000fd5b505050506040513d601f19601f8201168201806040525081019061145e9190613130565b61244a565b90505b600073ffffffffffffffffffffffffffffffffffffffff1660008054906101000a900473ffffffffffffffffffffffffffffffffffffffff1673ffffffffffffffffffffffffffffffffffffffff1663a9a9f9fc8360016040518363ffffffff1660e01b81526004016114da9291906132c4565b602060405180830381865afa1580156114f7573d6000803e3d6000fd5b505050506040513d601f19601f8201168201806040525081019061151b9190613435565b73ffffffffffffffffffffffffffffffffffffffff160361169e5760008060008054906101000a900473ffffffffffffffffffffffffffffffffffffffff1673ffffffffffffffffffffffffffffffffffffffff166393f64d0360016040518263ffffffff1660e01b81526004016115939190613100565b602060405180830381865afa1580156115b0573d6000803e3d6000fd5b505050506040513d601f19601f820116820180604052508101906115d49190613130565b146116795760008054906101000a900473ffffffffffffffffffffffffffffffffffffffff1673ffffffffffffffffffffffffffffffffffffffff166393f64d0360016040518263ffffffff1660e01b81526004016116339190613100565b602060405180830381865afa158015611650573d6000803e3d6000fd5b505050506040513d601f19601f820116820180604052508101906116749190613130565b61167c565b60015b90508060018361168c9190613462565b61169691906134e7565b915050611466565b60008060009054906101000a900473ffffffffffffffffffffffffffffffffffffffff1673ffffffffffffffffffffffffffffffffffffffff16635705b61a8360016040518363ffffffff1660e01b81526004016116fd9291906132c4565b602060405180830381865afa15801561171a573d6000803e3d6000fd5b505050506040513d601f19601f8201168201806040525081019061173e9190613130565b9050868061174b90613526565b975050808661175a9190613462565b955060008054906101000a900473ffffffffffffffffffffffffffffffffffffffff1673ffffffffffffffffffffffffffffffffffffffff166314e4ff788360016040518363ffffffff1660e01b81526004016117b89291906132c4565b600060405180830381600087803b1580156117d257600080fd5b505af11580156117e6573d6000803e3d6000fd5b5050505083806117f59061340c565b945050600260006003548152602001908152602001600020600201604051806080016040528060008054906101000a900473ffffffffffffffffffffffffffffffffffffffff1673ffffffffffffffffffffffffffffffffffffffff1663a9a9f9fc8660016040518363ffffffff1660e01b81526004016118779291906132c4565b602060405180830381865afa158015611894573d6000803e3d6000fd5b505050506040513d601f19601f820116820180604052508101906118b89190613435565b73ffffffffffffffffffffffffffffffffffffffff16815260200160008054906101000a900473ffffffffffffffffffffffffffffffffffffffff1673ffffffffffffffffffffffffffffffffffffffff16635705b61a8660016040518363ffffffff1660e01b815260040161192f9291906132c4565b602060405180830381865afa15801561194c573d6000803e3d6000fd5b505050506040513d601f19601f820116820180604052508101906119709190613130565b815260200160008054906101000a900473ffffffffffffffffffffffffffffffffffffffff1673ffffffffffffffffffffffffffffffffffffffff1663201043078660016040518363ffffffff1660e01b81526004016119d19291906132c4565b602060405180830381865afa1580156119ee573d6000803e3d6000fd5b505050506040513d601f19601f82011682018060405250810190611a129190613130565b815260200160011515815250908060018154018082558091505060019003906000526020600020906004020160009091909190915060008201518160000160006101000a81548173ffffffffffffffffffffffffffffffffffffffff021916908373ffffffffffffffffffffffffffffffffffffffff160217905550602082015181600101556040820151816002015560608201518160030160006101000a81548160ff021916908315150217905550505060026000600354815260200190815260200160002060040182908060018154018082558091505060019003906000526020600020016000909190919091505550505b60008060009054906101000a900473ffffffffffffffffffffffffffffffffffffffff1673ffffffffffffffffffffffffffffffffffffffff1663366ad83e60006040518263ffffffff1660e01b8152600401611b639190613100565b602060405180830381865afa158015611b80573d6000803e3d6000fd5b505050506040513d601f19601f82011682018060405250810190611ba49190613130565b03156122e8576000611c4f60008054906101000a900473ffffffffffffffffffffffffffffffffffffffff1673ffffffffffffffffffffffffffffffffffffffff166393f64d0360006040518263ffffffff1660e01b8152600401611c099190613100565b602060405180830381865afa158015611c26573d6000803e3d6000fd5b505050506040513d601f19601f82011682018060405250810190611c4a9190613130565b61244a565b90505b600073ffffffffffffffffffffffffffffffffffffffff1660008054906101000a900473ffffffffffffffffffffffffffffffffffffffff1673ffffffffffffffffffffffffffffffffffffffff1663a9a9f9fc8360006040518363ffffffff1660e01b8152600401611cc69291906132c4565b602060405180830381865afa158015611ce3573d6000803e3d6000fd5b505050506040513d601f19601f82011682018060405250810190611d079190613435565b73ffffffffffffffffffffffffffffffffffffffff1603611e8a5760008060008054906101000a900473ffffffffffffffffffffffffffffffffffffffff1673ffffffffffffffffffffffffffffffffffffffff166393f64d0360006040518263ffffffff1660e01b8152600401611d7f9190613100565b602060405180830381865afa158015611d9c573d6000803e3d6000fd5b505050506040513d601f19601f82011682018060405250810190611dc09190613130565b14611e655760008054906101000a900473ffffffffffffffffffffffffffffffffffffffff1673ffffffffffffffffffffffffffffffffffffffff166393f64d0360006040518263ffffffff1660e01b8152600401611e1f9190613100565b602060405180830381865afa158015611e3c573d6000803e3d6000fd5b505050506040513d601f19601f82011682018060405250810190611e609190613130565b611e68565b60015b905080600183611e789190613462565b611e8291906134e7565b915050611c52565b60008060009054906101000a900473ffffffffffffffffffffffffffffffffffffffff1673ffffffffffffffffffffffffffffffffffffffff16635705b61a8360006040518363ffffffff1660e01b8152600401611ee99291906132c4565b602060405180830381865afa158015611f06573d6000803e3d6000fd5b505050506040513d601f19601f82011682018060405250810190611f2a9190613130565b90508680611f3790613526565b9750508086611f469190613462565b955060008054906101000a900473ffffffffffffffffffffffffffffffffffffffff1673ffffffffffffffffffffffffffffffffffffffff166314e4ff788360006040518363ffffffff1660e01b8152600401611fa49291906132c4565b600060405180830381600087803b158015611fbe57600080fd5b505af1158015611fd2573d6000803e3d6000fd5b50505050600260006003548152602001908152602001600020600201604051806080016040528060008054906101000a900473ffffffffffffffffffffffffffffffffffffffff1673ffffffffffffffffffffffffffffffffffffffff1663a9a9f9fc8660006040518363ffffffff1660e01b81526004016120559291906132c4565b602060405180830381865afa158015612072573d6000803e3d6000fd5b505050506040513d601f19601f820116820180604052508101906120969190613435565b73ffffffffffffffffffffffffffffffffffffffff16815260200160008054906101000a900473ffffffffffffffffffffffffffffffffffffffff1673ffffffffffffffffffffffffffffffffffffffff16635705b61a8660006040518363ffffffff1660e01b815260040161210d9291906132c4565b602060405180830381865afa15801561212a573d6000803e3d6000fd5b505050506040513d601f19601f8201168201806040525081019061214e9190613130565b815260200160008054906101000a900473ffffffffffffffffffffffffffffffffffffffff1673ffffffffffffffffffffffffffffffffffffffff1663201043078660006040518363ffffffff1660e01b81526004016121af9291906132c4565b602060405180830381865afa1580156121cc573d6000803e3d6000fd5b505050506040513d601f19601f820116820180604052508101906121f09190613130565b815260200160001515815250908060018154018082558091505060019003906000526020600020906004020160009091909190915060008201518160000160006101000a81548173ffffffffffffffffffffffffffffffffffffffff021916908373ffffffffffffffffffffffffffffffffffffffff160217905550602082015181600101556040820151816002015560608201518160030160006101000a81548160ff021916908315150217905550505060026000600354815260200190815260200160002060040182908060018154018082558091505060019003906000526020600020016000909190919091505550506112e3565b600354600260006003548152602001908152602001600020600001819055508660026000600354815260200190815260200160002060010160006101000a81548173ffffffffffffffffffffffffffffffffffffffff021916908373ffffffffffffffffffffffffffffffffffffffff1602179055508760026000600354815260200190815260200160002060030160006101000a81548160ff021916908360ff160217905550600060026000600354815260200190815260200160002060030160016101000a81548160ff0219169083151502179055507ffa4028e02cab79854d323d6c7016d9e493939f43aeeb9d7c1d5ab4264490e81e600354896040516123f392919061355f565b60405180910390a16003549550505050505092915050565b6000606442336040516020016124229291906135f1565b6040516020818303038152906040528051906020012060001c61244591906134e7565b905090565b600080820361245857600191505b81423360405160200161246c9291906135f1565b6040516020818303038152906040528051906020012060001c61248f91906134e7565b9050919050565b8280548282559060005260206000209060040281019282156125855760005260206000209160040282015b828111156125845782826000820160009054906101000a900473ffffffffffffffffffffffffffffffffffffffff168160000160006101000a81548173ffffffffffffffffffffffffffffffffffffffff021916908373ffffffffffffffffffffffffffffffffffffffff16021790555060018201548160010155600282015481600201556003820160009054906101000a900460ff168160030160006101000a81548160ff0219169083151502179055505050916004019190600401906124c1565b5b509050612592919061273a565b5090565b8280548282559060005260206000209081019282156125d75760005260206000209182015b828111156125d65782548255916001019190600101906125bb565b5b5090506125e4919061279c565b5090565b8280548282559060005260206000209060050281019282156127295760005260206000209160050282015b82811115612728578282600082015481600001556001820160009054906101000a900473ffffffffffffffffffffffffffffffffffffffff168160010160006101000a81548173ffffffffffffffffffffffffffffffffffffffff021916908373ffffffffffffffffffffffffffffffffffffffff16021790555060028201816002019080546126a4929190612496565b506003820160009054906101000a900460ff168160030160006101000a81548160ff021916908360ff1602179055506003820160019054906101000a900460ff168160030160016101000a81548160ff0219169083151502179055506004820181600401908054612716929190612596565b50505091600501919060050190612613565b5b50905061273691906127b9565b5090565b5b8082111561279857600080820160006101000a81549073ffffffffffffffffffffffffffffffffffffffff0219169055600182016000905560028201600090556003820160006101000a81549060ff02191690555060040161273b565b5090565b5b808211156127b557600081600090555060010161279d565b5090565b5b80821115612843576000808201600090556001820160006101000a81549073ffffffffffffffffffffffffffffffffffffffff02191690556002820160006128029190612847565b6003820160006101000a81549060ff02191690556003820160016101000a81549060ff021916905560048201600061283a919061286b565b506005016127ba565b5090565b5080546000825560040290600052602060002090810190612868919061273a565b50565b5080546000825590600052602060002090810190612889919061279c565b50565b600081519050919050565b600082825260208201905092915050565b6000819050602082019050919050565b6000819050919050565b6128cb816128b8565b82525050565b600073ffffffffffffffffffffffffffffffffffffffff82169050919050565b60006128fc826128d1565b9050919050565b61290c816128f1565b82525050565b600081519050919050565b600082825260208201905092915050565b6000819050602082019050919050565b60008115159050919050565b6129538161293e565b82525050565b60808201600082015161296f6000850182612903565b50602082015161298260208501826128c2565b50604082015161299560408501826128c2565b5060608201516129a8606085018261294a565b50505050565b60006129ba8383612959565b60808301905092915050565b6000602082019050919050565b60006129de82612912565b6129e8818561291d565b93506129f38361292e565b8060005b83811015612a24578151612a0b88826129ae565b9750612a16836129c6565b9250506001810190506129f7565b5085935050505092915050565b600060ff82169050919050565b612a4781612a31565b82525050565b600081519050919050565b600082825260208201905092915050565b6000819050602082019050919050565b6000612a8583836128c2565b60208301905092915050565b6000602082019050919050565b6000612aa982612a4d565b612ab38185612a58565b9350612abe83612a69565b8060005b83811015612aef578151612ad68882612a79565b9750612ae183612a91565b925050600181019050612ac2565b5085935050505092915050565b600060c083016000830151612b1460008601826128c2565b506020830151612b276020860182612903565b5060408301518482036040860152612b3f82826129d3565b9150506060830151612b546060860182612a3e565b506080830151612b67608086018261294a565b5060a083015184820360a0860152612b7f8282612a9e565b9150508091505092915050565b6000612b988383612afc565b905092915050565b6000602082019050919050565b6000612bb88261288c565b612bc28185612897565b935083602082028501612bd4856128a8565b8060005b85811015612c105784840389528151612bf18582612b8c565b9450612bfc83612ba0565b925060208a01995050600181019050612bd8565b50829750879550505050505092915050565b60006020820190508181036000830152612c3c8184612bad565b905092915050565b600080fd5b612c5281612a31565b8114612c5d57600080fd5b50565b600081359050612c6f81612c49565b92915050565b612c7e816128f1565b8114612c8957600080fd5b50565b600081359050612c9b81612c75565b92915050565b60008060408385031215612cb857612cb7612c44565b5b6000612cc685828601612c60565b9250506020612cd785828601612c8c565b9150509250929050565b612cea816128b8565b82525050565b6000602082019050612d056000830184612ce1565b92915050565b612d14816128b8565b8114612d1f57600080fd5b50565b600081359050612d3181612d0b565b92915050565b600060208284031215612d4d57612d4c612c44565b5b6000612d5b84828501612d22565b91505092915050565b600081519050919050565b600082825260208201905092915050565b6000819050602082019050919050565b6000819050919050565b6000612db5612db0612dab846128d1565b612d90565b6128d1565b9050919050565b6000612dc782612d9a565b9050919050565b6000612dd982612dbc565b9050919050565b612de981612dce565b82525050565b6000612dfb8383612de0565b60208301905092915050565b6000602082019050919050565b6000612e1f82612d64565b612e298185612d6f565b9350612e3483612d80565b8060005b83811015612e65578151612e4c8882612def565b9750612e5783612e07565b925050600181019050612e38565b5085935050505092915050565b60006020820190508181036000830152612e8c8184612e14565b905092915050565b600082825260208201905092915050565b7f796f7520646f206e6f74206f776e20616e7920626f7865730000000000000000600082015250565b6000612edb601883612e94565b9150612ee682612ea5565b602082019050919050565b60006020820190508181036000830152612f0a81612ece565b9050919050565b7f302e3035206574686572206973206e656564656420746f206d616b652074686560008201527f20626173696320626f7800000000000000000000000000000000000000000000602082015250565b6000612f6d602a83612e94565b9150612f7882612f11565b604082019050919050565b60006020820190508181036000830152612f9c81612f60565b9050919050565b612fac816128f1565b82525050565b6000602082019050612fc76000830184612fa3565b92915050565b7f302e31206574686572206973206e656564656420746f206d616b65207468652060008201527f7072656d69756d20626f78000000000000000000000000000000000000000000602082015250565b6000613029602b83612e94565b915061303482612fcd565b604082019050919050565b600060208201905081810360008301526130588161301c565b9050919050565b7f302e3135206574686572206973206e656564656420746f206d616b652074686560008201527f206d7973746572696f757320626f780000000000000000000000000000000000602082015250565b60006130bb602f83612e94565b91506130c68261305f565b604082019050919050565b600060208201905081810360008301526130ea816130ae565b9050919050565b6130fa8161293e565b82525050565b600060208201905061311560008301846130f1565b92915050565b60008151905061312a81612d0b565b92915050565b60006020828403121561314657613145612c44565b5b60006131548482850161311b565b91505092915050565b7f7468697320626f7820646f6573206e6f742062656c6f6e6720746f20796f7500600082015250565b6000613193601f83612e94565b915061319e8261315d565b602082019050919050565b600060208201905081810360008301526131c281613186565b9050919050565b7f626f782068617320616c7265616479206265656e206f70656e65640000000000600082015250565b60006131ff601b83612e94565b915061320a826131c9565b602082019050919050565b6000602082019050818103600083015261322e816131f2565b9050919050565b7f4e487b7100000000000000000000000000000000000000000000000000000000600052603260045260246000fd5b60006040820190506132796000830185612fa3565b61328660208301846130f1565b9392505050565b60006060820190506132a26000830186612fa3565b6132af6020830185612fa3565b6132bc6040830184612ce1565b949350505050565b60006040820190506132d96000830185612ce1565b6132e660208301846130f1565b9392505050565b6000815190506132fc81612c75565b92915050565b61330b8161293e565b811461331657600080fd5b50565b60008151905061332881613302565b92915050565b6000806000806080858703121561334857613347612c44565b5b6000613356878288016132ed565b94505060206133678782880161311b565b93505060406133788782880161311b565b925050606061338987828801613319565b91505092959194509250565b7f4e487b7100000000000000000000000000000000000000000000000000000000600052601160045260246000fd5b60006133cf826128b8565b91507fffffffffffffffffffffffffffffffffffffffffffffffffffffffffffffffff820361340157613400613395565b5b600182019050919050565b600061341782612a31565b91506000820361342a57613429613395565b5b600182039050919050565b60006020828403121561344b5761344a612c44565b5b6000613459848285016132ed565b91505092915050565b600061346d826128b8565b9150613478836128b8565b9250827fffffffffffffffffffffffffffffffffffffffffffffffffffffffffffffffff038211156134ad576134ac613395565b5b828201905092915050565b7f4e487b7100000000000000000000000000000000000000000000000000000000600052601260045260246000fd5b60006134f2826128b8565b91506134fd836128b8565b92508261350d5761350c6134b8565b5b828206905092915050565b600061ffff82169050919050565b600061353182613518565b915061ffff820361354557613544613395565b5b600182019050919050565b61355981612a31565b82525050565b60006040820190506135746000830185612ce1565b6135816020830184613550565b9392505050565b6000819050919050565b6135a361359e826128b8565b613588565b82525050565b60008160601b9050919050565b60006135c1826135a9565b9050919050565b60006135d3826135b6565b9050919050565b6135eb6135e6826128f1565b6135c8565b82525050565b60006135fd8285613592565b60208201915061360d82846135da565b601482019150819050939250505056fea2646970667358221220b7eaf413bb9f0e3c0ddaca9dfa749299ffdcc79306972cd68073b3f7629203e564736f6c634300080d0033",
  "immutableReferences": {},
  "source": "// SPDX-License-Identifier: MIT\r\npragma solidity ^0.8.0;\r\nimport \"@openzeppelin/contracts/token/ERC721/ERC721.sol\";\r\nimport \"./ownedNFTs.sol\";\r\n\r\ncontract MysteryBox {\r\n    OwnedNFTs ownedNFTInstance;\r\n\r\n    struct Box {\r\n        uint256 id;\r\n        address purchaser;\r\n        nft[] nfts;\r\n        uint8 tier;\r\n        bool isOpen;\r\n        uint256[] nftIds;\r\n    }\r\n\r\n    struct nft {\r\n        address parentContract;\r\n        uint256 price;\r\n        uint256 tokenId;\r\n        bool isValued;\r\n    }\r\n\r\n    mapping(address => Box[]) ownedBoxes;\r\n    mapping(uint256 => Box) boxList;\r\n    uint256 nextBoxId;\r\n\r\n    constructor(OwnedNFTs ownedNFT) {\r\n        ownedNFTInstance = ownedNFT;\r\n    }\r\n\r\n    event boxMade(uint256 boxId, uint8 tier);\r\n    event transferMade(address purchaser);\r\n    event boxOpen(address purchaser);\r\n\r\n    function makeBox(uint8 tier, address purchaser) private returns (uint256) {\r\n        nextBoxId++;\r\n        uint16 boxNFTid = 0;\r\n        uint256 minVal = 0;\r\n        uint256 rareInt = rngRarity();\r\n\r\n        uint8 rareNFT = 0;\r\n        uint128 boxMinPrice;\r\n        if (tier == 0) {\r\n            boxMinPrice = 0.03 ether;\r\n            if (rareInt >= 95) {\r\n                rareNFT = 1;\r\n            }\r\n        } else if (tier == 1) {\r\n            boxMinPrice = 0.065 ether;\r\n            if (rareInt >= 70) {\r\n                rareNFT = 1;\r\n            }\r\n        } else {\r\n            boxMinPrice = 0.1 ether;\r\n            if (rareInt >= 40) {\r\n                rareNFT = 1;\r\n            }\r\n        }\r\n\r\n        // fill up the box with nfts though rng\r\n        while (minVal < boxMinPrice) {\r\n            if (rareNFT == 1) {\r\n                // rare NFT draw\r\n                if (ownedNFTInstance.getSize(true) == 0) {\r\n                    rareNFT--;\r\n                    continue; // no more rare to draw, skip to normal NFTs\r\n                }\r\n                uint256 rngNumR = rngNFT(\r\n                    ownedNFTInstance.indexUpperBound(true)\r\n                );\r\n                while (\r\n                    ownedNFTInstance.getParentContract(rngNumR, true) ==\r\n                    address(0)\r\n                ) {\r\n                    uint256 sizeValued = ownedNFTInstance.indexUpperBound(\r\n                        true\r\n                    ) == 0\r\n                        ? 1\r\n                        : ownedNFTInstance.indexUpperBound(true);\r\n                    rngNumR = (rngNumR + 1) % sizeValued;\r\n                }\r\n                uint256 priceOfNFTDrawnR = ownedNFTInstance.getPrice(\r\n                    rngNumR,\r\n                    true\r\n                );\r\n                boxNFTid++;\r\n                // update minval\r\n                minVal += priceOfNFTDrawnR;\r\n                ownedNFTInstance.sold(rngNumR, true);\r\n                rareNFT--;\r\n                boxList[nextBoxId].nfts.push(\r\n                    nft(\r\n                        ownedNFTInstance.getParentContract(rngNumR, true),\r\n                        ownedNFTInstance.getPrice(rngNumR, true),\r\n                        ownedNFTInstance.getTokenId(rngNumR, true),\r\n                        true\r\n                    )\r\n                );\r\n                boxList[nextBoxId].nftIds.push(rngNumR);\r\n            }\r\n            if (ownedNFTInstance.getSize(false) == 0) {\r\n                break; // no more NFTs to fill, break infinite loop\r\n            }\r\n            // filling up the box with other NFTs\r\n            uint256 rngNum = rngNFT(ownedNFTInstance.indexUpperBound(false));\r\n            while (\r\n                ownedNFTInstance.getParentContract(rngNum, false) == address(0)\r\n            ) {\r\n                uint256 size = ownedNFTInstance.indexUpperBound(false) == 0\r\n                    ? 1\r\n                    : ownedNFTInstance.indexUpperBound(false);\r\n                rngNum = (rngNum + 1) % size;\r\n            }\r\n            uint256 priceOfNFTDrawn = ownedNFTInstance.getPrice(rngNum, false);\r\n            boxNFTid++;\r\n\r\n            // update minval\r\n            minVal += priceOfNFTDrawn;\r\n            ownedNFTInstance.sold(rngNum, false);\r\n            boxList[nextBoxId].nfts.push(\r\n                nft(\r\n                    ownedNFTInstance.getParentContract(rngNum, false),\r\n                    ownedNFTInstance.getPrice(rngNum, false),\r\n                    ownedNFTInstance.getTokenId(rngNum, false),\r\n                    false\r\n                )\r\n            );\r\n            boxList[nextBoxId].nftIds.push(rngNum);\r\n        }\r\n\r\n        // add box to boxList\r\n        boxList[nextBoxId].id = nextBoxId;\r\n        boxList[nextBoxId].purchaser = purchaser;\r\n        boxList[nextBoxId].tier = tier;\r\n        boxList[nextBoxId].isOpen = false;\r\n\r\n        emit boxMade(nextBoxId, tier);\r\n        return nextBoxId;\r\n    }\r\n\r\n    function transfer(uint8 tier, address purchaser) public payable {\r\n        // Do require checks on msg.value\r\n        if (tier == 0) {\r\n            require(\r\n                msg.value >= 0.05 ether,\r\n                \"0.05 ether is needed to make the basic box\"\r\n            );\r\n            uint256 newBoxId = makeBox(tier, purchaser);\r\n            Box[] storage listOfBoxes = ownedBoxes[msg.sender];\r\n            listOfBoxes.push(boxList[newBoxId]);\r\n            ownedBoxes[msg.sender] = listOfBoxes;\r\n            emit transferMade(purchaser);\r\n        } else if (tier == 1) {\r\n            require(\r\n                msg.value >= 0.10 ether,\r\n                \"0.1 ether is needed to make the premium box\"\r\n            );\r\n            uint256 newBoxId = makeBox(tier, purchaser);\r\n            Box[] storage listOfBoxes = ownedBoxes[msg.sender];\r\n            listOfBoxes.push(boxList[newBoxId]);\r\n            ownedBoxes[msg.sender] = listOfBoxes;\r\n            emit transferMade(purchaser);\r\n        } else {\r\n            require(\r\n                msg.value >= 0.15 ether,\r\n                \"0.15 ether is needed to make the mysterious box\"\r\n            );\r\n            uint256 newBoxId = makeBox(tier, purchaser);\r\n            Box[] storage listOfBoxes = ownedBoxes[msg.sender];\r\n            listOfBoxes.push(boxList[newBoxId]);\r\n            ownedBoxes[msg.sender] = listOfBoxes;\r\n            emit transferMade(purchaser);\r\n        }\r\n    }\r\n\r\n    function openBox(uint256 boxID) public returns (ERC721[] memory) {\r\n        require(\r\n            boxList[boxID].purchaser == msg.sender,\r\n            \"this box does not belong to you\"\r\n        );\r\n        require(boxList[boxID].isOpen == false, \"box has already been opened\");\r\n        // transfers all NFTs in the box\r\n        Box memory yourBox = boxList[boxID];\r\n        ERC721[] memory nftAddresses;\r\n        for (uint256 i = 0; i < yourBox.nfts.length; i++) {\r\n            if (yourBox.nfts[i].parentContract == address(0)) {\r\n                break;\r\n            }\r\n            ERC721(yourBox.nfts[i].parentContract).setApprovalForAll(\r\n                msg.sender,\r\n                true\r\n            );\r\n            ERC721(yourBox.nfts[i].parentContract).transferFrom(\r\n                address(this),\r\n                msg.sender,\r\n                yourBox.nfts[i].tokenId\r\n            );\r\n            nftAddresses[i] = ERC721(yourBox.nfts[i].parentContract);\r\n            ownedNFTInstance.remove(\r\n                yourBox.nftIds[i],\r\n                yourBox.nfts[i].isValued\r\n            );\r\n        }\r\n        boxList[boxID].isOpen = true;\r\n        emit boxOpen(msg.sender);\r\n        return nftAddresses;\r\n    }\r\n\r\n    function checkBoxesIds() public view returns (Box[] memory) {\r\n        require(ownedBoxes[msg.sender].length > 0, \"you do not own any boxes\");\r\n        return ownedBoxes[msg.sender];\r\n    }\r\n\r\n    function rngNFT(uint256 size) private view returns (uint256) {\r\n        if (size == 0) {\r\n            size = 1;\r\n        }\r\n        return\r\n            uint256(keccak256(abi.encodePacked(block.timestamp, msg.sender))) %\r\n            size;\r\n    }\r\n\r\n    function rngRarity() private view returns (uint256) {\r\n        return\r\n            uint256(keccak256(abi.encodePacked(block.timestamp, msg.sender))) %\r\n            100;\r\n    }\r\n\r\n    function getOwnedInstance() public view returns (uint256) {\r\n        return ownedNFTInstance.indexUpperBound(false);\r\n    }\r\n}\r\n",
  "sourcePath": "C:\\Users\\viole\\mysterio\\contracts\\MysteryBox.sol",
  "compiler": {
    "name": "solc",
    "version": "0.8.13+commit.abaa5c0e.Emscripten.clang"
  },
  "schemaVersion": "3.4.4",
  "updatedAt": "2022-03-30T07:32:04.811Z",
  "devdoc": {
    "kind": "dev",
    "methods": {},
    "version": 1
  },
  "userdoc": {
    "kind": "user",
    "methods": {},
    "version": 1
  }
}