{
  "contractName": "ownedNFTs",
  "abi": [
    {
      "anonymous": false,
      "inputs": [
        {
          "indexed": false,
          "internalType": "uint256",
          "name": "price",
          "type": "uint256"
        },
        {
          "indexed": false,
          "internalType": "address",
          "name": "nftAddress",
          "type": "address"
        },
        {
          "indexed": false,
          "internalType": "uint256",
          "name": "tokenId",
          "type": "uint256"
        }
      ],
      "name": "nftAdded",
      "type": "event"
    },
    {
      "anonymous": false,
      "inputs": [
        {
          "indexed": false,
          "internalType": "uint256",
          "name": "price",
          "type": "uint256"
        },
        {
          "indexed": false,
          "internalType": "address",
          "name": "nftAddress",
          "type": "address"
        },
        {
          "indexed": false,
          "internalType": "uint256",
          "name": "tokenId",
          "type": "uint256"
        }
      ],
      "name": "nftSold",
      "type": "event"
    },
    {
      "inputs": [
        {
          "internalType": "uint256",
          "name": "price",
          "type": "uint256"
        },
        {
          "internalType": "address",
          "name": "nftAddress",
          "type": "address"
        },
        {
          "internalType": "uint256",
          "name": "tokenId",
          "type": "uint256"
        }
      ],
      "name": "add",
      "outputs": [],
      "stateMutability": "nonpayable",
      "type": "function"
    },
    {
      "inputs": [
        {
          "internalType": "uint256",
          "name": "id",
          "type": "uint256"
        }
      ],
      "name": "remove",
      "outputs": [
        {
          "internalType": "address",
          "name": "parentContract",
          "type": "address"
        },
        {
          "internalType": "uint256",
          "name": "price",
          "type": "uint256"
        },
        {
          "internalType": "uint256",
          "name": "tokenId",
          "type": "uint256"
        }
      ],
      "stateMutability": "nonpayable",
      "type": "function"
    },
    {
      "inputs": [
        {
          "internalType": "uint256",
          "name": "id",
          "type": "uint256"
        }
      ],
      "name": "sold",
      "outputs": [],
      "stateMutability": "nonpayable",
      "type": "function"
    },
    {
      "inputs": [
        {
          "internalType": "uint256",
          "name": "id",
          "type": "uint256"
        }
      ],
      "name": "getPrice",
      "outputs": [
        {
          "internalType": "uint256",
          "name": "",
          "type": "uint256"
        }
      ],
      "stateMutability": "view",
      "type": "function"
    },
    {
      "inputs": [
        {
          "internalType": "uint256",
          "name": "id",
          "type": "uint256"
        }
      ],
      "name": "getUnwantedNFT",
      "outputs": [
        {
          "components": [
            {
              "internalType": "address",
              "name": "parentContract",
              "type": "address"
            },
            {
              "internalType": "uint256",
              "name": "price",
              "type": "uint256"
            },
            {
              "internalType": "uint256",
              "name": "tokenId",
              "type": "uint256"
            }
          ],
          "internalType": "struct ownedNFTs.nft",
          "name": "",
          "type": "tuple"
        }
      ],
      "stateMutability": "view",
      "type": "function"
    },
    {
      "inputs": [],
      "name": "getMaximumSize",
      "outputs": [
        {
          "internalType": "uint256",
          "name": "",
          "type": "uint256"
        }
      ],
      "stateMutability": "view",
      "type": "function"
    }
  ],
  "bytecode": "0x608060405234801561001057600080fd5b50610c43806100206000396000f3fe608060405234801561001057600080fd5b50600436106100625760003560e01c8063021d254f14610067578063031b8b21146100975780634cc82215146100b55780639c03facb146100e7578063b9955e3914610103578063e75722301461011f575b600080fd5b610081600480360381019061007c91906107ff565b61014f565b60405161008e91906108be565b60405180910390f35b61009f6101e6565b6040516100ac91906108e8565b60405180910390f35b6100cf60048036038101906100ca91906107ff565b61020c565b6040516100de93929190610912565b60405180910390f35b61010160048036038101906100fc91906107ff565b6103d4565b005b61011d60048036038101906101189190610975565b610657565b005b610139600480360381019061013491906107ff565b61076d565b60405161014691906108e8565b60405180910390f35b61015761078d565b600260008381526020019081526020016000206040518060600160405290816000820160009054906101000a900473ffffffffffffffffffffffffffffffffffffffff1673ffffffffffffffffffffffffffffffffffffffff1673ffffffffffffffffffffffffffffffffffffffff168152602001600182015481526020016002820154815250509050919050565b6000806001541461020457600180546101ff91906109f7565b610207565b60005b905090565b60008060006001548410610255576040517f08c379a000000000000000000000000000000000000000000000000000000000815260040161024c90610a88565b60405180910390fd5b600073ffffffffffffffffffffffffffffffffffffffff166003600086815260200190815260200160002060000160009054906101000a900473ffffffffffffffffffffffffffffffffffffffff1673ffffffffffffffffffffffffffffffffffffffff16036102fa576040517f08c379a00000000000000000000000000000000000000000000000000000000081526004016102f190610af4565b60405180910390fd5b60006003600086815260200190815260200160002060000160009054906101000a900473ffffffffffffffffffffffffffffffffffffffff16905060006003600087815260200190815260200160002060010154905060006003600088815260200190815260200160002060020154905060006003600089815260200190815260200160002060000160006101000a81548173ffffffffffffffffffffffffffffffffffffffff021916908373ffffffffffffffffffffffffffffffffffffffff1602179055508282829550955095505050509193909250565b6001548110610418576040517f08c379a000000000000000000000000000000000000000000000000000000000815260040161040f90610a88565b60405180910390fd5b600073ffffffffffffffffffffffffffffffffffffffff166002600083815260200190815260200160002060000160009054906101000a900473ffffffffffffffffffffffffffffffffffffffff1673ffffffffffffffffffffffffffffffffffffffff16036104bd576040517f08c379a00000000000000000000000000000000000000000000000000000000081526004016104b490610b60565b60405180910390fd5b60026000828152602001908152602001600020600360008381526020019081526020016000206000820160009054906101000a900473ffffffffffffffffffffffffffffffffffffffff168160000160006101000a81548173ffffffffffffffffffffffffffffffffffffffff021916908373ffffffffffffffffffffffffffffffffffffffff160217905550600182015481600101556002820154816002015590505060006002600083815260200190815260200160002060000160006101000a81548173ffffffffffffffffffffffffffffffffffffffff021916908373ffffffffffffffffffffffffffffffffffffffff1602179055507f90d1f40f5fa2264845480d9780f220cd4013894807b0fa467669e455c37afb6e60036000838152602001908152602001600020600101546003600084815260200190815260200160002060000160009054906101000a900473ffffffffffffffffffffffffffffffffffffffff16600360008581526020019081526020016000206002015460405161064c93929190610b80565b60405180910390a150565b60405180606001604052808373ffffffffffffffffffffffffffffffffffffffff1681526020018481526020018281525060026000600154815260200190815260200160002060008201518160000160006101000a81548173ffffffffffffffffffffffffffffffffffffffff021916908373ffffffffffffffffffffffffffffffffffffffff1602179055506020820151816001015560408201518160020155905050600160008082825461070d9190610bb7565b9250508190555060018060008282546107269190610bb7565b925050819055507fd48a484c5679516b2b220199fda3c919dbefd6363e5bf2f41c72ecbda21d7d0483838360405161076093929190610b80565b60405180910390a1505050565b600060026000838152602001908152602001600020600101549050919050565b6040518060600160405280600073ffffffffffffffffffffffffffffffffffffffff16815260200160008152602001600081525090565b600080fd5b6000819050919050565b6107dc816107c9565b81146107e757600080fd5b50565b6000813590506107f9816107d3565b92915050565b600060208284031215610815576108146107c4565b5b6000610823848285016107ea565b91505092915050565b600073ffffffffffffffffffffffffffffffffffffffff82169050919050565b60006108578261082c565b9050919050565b6108678161084c565b82525050565b610876816107c9565b82525050565b606082016000820151610892600085018261085e565b5060208201516108a5602085018261086d565b5060408201516108b8604085018261086d565b50505050565b60006060820190506108d3600083018461087c565b92915050565b6108e2816107c9565b82525050565b60006020820190506108fd60008301846108d9565b92915050565b61090c8161084c565b82525050565b60006060820190506109276000830186610903565b61093460208301856108d9565b61094160408301846108d9565b949350505050565b6109528161084c565b811461095d57600080fd5b50565b60008135905061096f81610949565b92915050565b60008060006060848603121561098e5761098d6107c4565b5b600061099c868287016107ea565b93505060206109ad86828701610960565b92505060406109be868287016107ea565b9150509250925092565b7f4e487b7100000000000000000000000000000000000000000000000000000000600052601160045260246000fd5b6000610a02826107c9565b9150610a0d836107c9565b925082821015610a2057610a1f6109c8565b5b828203905092915050565b600082825260208201905092915050565b7f496e76616c696420496420696e73657274656400000000000000000000000000600082015250565b6000610a72601383610a2b565b9150610a7d82610a3c565b602082019050919050565b60006020820190508181036000830152610aa181610a65565b9050919050565b7f4e46542068617320616c7265616479206265656e207472616e73666572726564600082015250565b6000610ade602083610a2b565b9150610ae982610aa8565b602082019050919050565b60006020820190508181036000830152610b0d81610ad1565b9050919050565b7f4e46542068617320616c7265616479206265656e20736f6c6400000000000000600082015250565b6000610b4a601983610a2b565b9150610b5582610b14565b602082019050919050565b60006020820190508181036000830152610b7981610b3d565b9050919050565b6000606082019050610b9560008301866108d9565b610ba26020830185610903565b610baf60408301846108d9565b949350505050565b6000610bc2826107c9565b9150610bcd836107c9565b9250827fffffffffffffffffffffffffffffffffffffffffffffffffffffffffffffffff03821115610c0257610c016109c8565b5b82820190509291505056fea2646970667358221220ab6c77cad61f701bfea442b3f6d5ae347604a7281c0f9456837120cc9c29f86964736f6c634300080d0033",
  "immutableReferences": {},
  "source": "// SPDX-License-Identifier: MIT\r\npragma solidity >=0.5.0;\r\n\r\ncontract ownedNFTs {\r\n    uint256 private numNFTs;\r\n    uint256 private nextAvailableSlot;\r\n    \r\n    struct nft {\r\n        address parentContract;\r\n        uint256 price;\r\n        uint256 tokenId;\r\n    }\r\n\r\n    mapping(uint256 => nft) private unwantedNFTs;    \r\n    mapping(uint256 => nft) private soldNFTs;\r\n\r\n    event nftAdded(uint256 price, address nftAddress, uint256 tokenId);\r\n    event nftSold(uint256 price, address nftAddress, uint256 tokenId);\r\n\r\n    function add(uint256 price, address nftAddress, uint256 tokenId) public {\r\n        unwantedNFTs[nextAvailableSlot] = nft(nftAddress, price, tokenId);\r\n        numNFTs += 1;\r\n        nextAvailableSlot += 1;\r\n        emit nftAdded(price, nftAddress, tokenId);\r\n    }\r\n\r\n    function remove(uint256 id) public returns (address parentContract, uint256 price, uint256 tokenId) {\r\n        require(id < nextAvailableSlot, \"Invalid Id inserted\");\r\n        require(soldNFTs[id].parentContract != address(0), \"NFT has already been transferred\");\r\n        address nftAdd = soldNFTs[id].parentContract;\r\n        uint256 nftprice = soldNFTs[id].price;\r\n        uint256 nfttokenId = soldNFTs[id].tokenId;\r\n\r\n        soldNFTs[id].parentContract = address(0);\r\n\r\n        return (nftAdd, nftprice, nfttokenId);\r\n    }\r\n\r\n    function sold(uint256 id) public {\r\n        require(id < nextAvailableSlot, \"Invalid Id inserted\");\r\n        require(unwantedNFTs[id].parentContract != address(0), \"NFT has already been sold\");\r\n        soldNFTs[id] = unwantedNFTs[id];\r\n        unwantedNFTs[id].parentContract = address(0);\r\n        emit nftSold(soldNFTs[id].price, soldNFTs[id].parentContract, soldNFTs[id].tokenId);\r\n    }\r\n\r\n    function getPrice(uint256 id) public view returns(uint256) {\r\n        return unwantedNFTs[id].price;\r\n    }\r\n\r\n    function getUnwantedNFT(uint256 id) public view returns(nft memory) {\r\n        return unwantedNFTs[id];\r\n    }\r\n\r\n    function getMaximumSize() public view returns(uint256) {\r\n        return nextAvailableSlot == 0 ? 0 : nextAvailableSlot-1;\r\n    }\r\n\r\n}",
  "sourcePath": "C:\\Users\\jiaju\\Desktop\\Projects\\React Projects\\myster\\contracts\\ownedNFTs.sol",
  "compiler": {
    "name": "solc",
    "version": "0.8.13+commit.abaa5c0e.Emscripten.clang"
  },
  "schemaVersion": "3.4.4",
  "updatedAt": "2022-03-24T11:51:24.313Z",
  "devdoc": {
    "kind": "dev",
    "methods": {},
    "version": 1
  },
  "userdoc": {
    "kind": "user",
    "methods": {},
    "version": 1
  }
}