{
  "contractName": "OwnedNFTs",
  "abi": [
    {
      "anonymous": false,
      "inputs": [
        {
          "indexed": false,
          "internalType": "uint256",
          "name": "price",
          "type": "uint256"
        },
        {
          "indexed": false,
          "internalType": "address",
          "name": "nftAddress",
          "type": "address"
        },
        {
          "indexed": false,
          "internalType": "uint256",
          "name": "tokenId",
          "type": "uint256"
        }
      ],
      "name": "nftAdded",
      "type": "event"
    },
    {
      "anonymous": false,
      "inputs": [
        {
          "indexed": false,
          "internalType": "uint256",
          "name": "price",
          "type": "uint256"
        },
        {
          "indexed": false,
          "internalType": "address",
          "name": "nftAddress",
          "type": "address"
        },
        {
          "indexed": false,
          "internalType": "uint256",
          "name": "tokenId",
          "type": "uint256"
        }
      ],
      "name": "nftSold",
      "type": "event"
    },
    {
      "anonymous": false,
      "inputs": [
        {
          "indexed": false,
          "internalType": "uint256",
          "name": "price",
          "type": "uint256"
        },
        {
          "indexed": false,
          "internalType": "address",
          "name": "nftAddress",
          "type": "address"
        },
        {
          "indexed": false,
          "internalType": "uint256",
          "name": "tokenId",
          "type": "uint256"
        }
      ],
      "name": "nftTransfered",
      "type": "event"
    },
    {
      "inputs": [
        {
          "internalType": "uint256",
          "name": "price",
          "type": "uint256"
        },
        {
          "internalType": "address",
          "name": "nftAddress",
          "type": "address"
        },
        {
          "internalType": "uint256",
          "name": "tokenId",
          "type": "uint256"
        },
        {
          "internalType": "bool",
          "name": "isValued",
          "type": "bool"
        }
      ],
      "name": "add",
      "outputs": [],
      "stateMutability": "nonpayable",
      "type": "function"
    },
    {
      "inputs": [
        {
          "internalType": "uint256",
          "name": "id",
          "type": "uint256"
        },
        {
          "internalType": "bool",
          "name": "isValued",
          "type": "bool"
        }
      ],
      "name": "remove",
      "outputs": [
        {
          "internalType": "address",
          "name": "parentContract",
          "type": "address"
        },
        {
          "internalType": "uint256",
          "name": "price",
          "type": "uint256"
        },
        {
          "internalType": "uint256",
          "name": "tokenId",
          "type": "uint256"
        },
        {
          "internalType": "bool",
          "name": "value",
          "type": "bool"
        }
      ],
      "stateMutability": "nonpayable",
      "type": "function"
    },
    {
      "inputs": [
        {
          "internalType": "uint256",
          "name": "id",
          "type": "uint256"
        },
        {
          "internalType": "bool",
          "name": "isvalued",
          "type": "bool"
        }
      ],
      "name": "sold",
      "outputs": [],
      "stateMutability": "nonpayable",
      "type": "function"
    },
    {
      "inputs": [
        {
          "internalType": "uint256",
          "name": "id",
          "type": "uint256"
        },
        {
          "internalType": "bool",
          "name": "isValued",
          "type": "bool"
        }
      ],
      "name": "getParentContract",
      "outputs": [
        {
          "internalType": "address",
          "name": "",
          "type": "address"
        }
      ],
      "stateMutability": "view",
      "type": "function",
      "constant": true
    },
    {
      "inputs": [
        {
          "internalType": "uint256",
          "name": "id",
          "type": "uint256"
        },
        {
          "internalType": "bool",
          "name": "isValued",
          "type": "bool"
        }
      ],
      "name": "getPrice",
      "outputs": [
        {
          "internalType": "uint256",
          "name": "",
          "type": "uint256"
        }
      ],
      "stateMutability": "view",
      "type": "function",
      "constant": true
    },
    {
      "inputs": [
        {
          "internalType": "uint256",
          "name": "id",
          "type": "uint256"
        },
        {
          "internalType": "bool",
          "name": "isValued",
          "type": "bool"
        }
      ],
      "name": "getTokenId",
      "outputs": [
        {
          "internalType": "uint256",
          "name": "",
          "type": "uint256"
        }
      ],
      "stateMutability": "view",
      "type": "function",
      "constant": true
    },
    {
      "inputs": [
        {
          "internalType": "bool",
          "name": "isValued",
          "type": "bool"
        }
      ],
      "name": "getSize",
      "outputs": [
        {
          "internalType": "uint256",
          "name": "",
          "type": "uint256"
        }
      ],
      "stateMutability": "view",
      "type": "function",
      "constant": true
    }
  ],
  "bytecode": "0x608060405234801561001057600080fd5b50611535806100206000396000f3fe608060405234801561001057600080fd5b506004361061007d5760003560e01c80635705b61a1161005b5780635705b61a146100fe578063988d7a601461012e578063a9a9f9fc1461014a578063d5f615c61461017a5761007d565b806314e4ff7814610082578063201043071461009e578063366ad83e146100ce575b600080fd5b61009c60048036038101906100979190611074565b6101ad565b005b6100b860048036038101906100b39190611074565b610717565b6040516100c591906110c3565b60405180910390f35b6100e860048036038101906100e391906110de565b61075a565b6040516100f591906110c3565b60405180910390f35b61011860048036038101906101139190611074565b6107b0565b60405161012591906110c3565b60405180910390f35b61014860048036038101906101439190611169565b6107f3565b005b610164600480360381019061015f9190611074565b610a25565b60405161017191906111df565b60405180910390f35b610194600480360381019061018f9190611074565b610aa8565b6040516101a49493929190611209565b60405180910390f35b80156104655760065482106101f7576040517f08c379a00000000000000000000000000000000000000000000000000000000081526004016101ee906112ab565b60405180910390fd5b600073ffffffffffffffffffffffffffffffffffffffff166004600084815260200190815260200160002060000160009054906101000a900473ffffffffffffffffffffffffffffffffffffffff1673ffffffffffffffffffffffffffffffffffffffff160361029c576040517f08c379a000000000000000000000000000000000000000000000000000000000815260040161029390611317565b60405180910390fd5b60046000838152602001908152602001600020600560008481526020019081526020016000206000820160009054906101000a900473ffffffffffffffffffffffffffffffffffffffff168160000160006101000a81548173ffffffffffffffffffffffffffffffffffffffff021916908373ffffffffffffffffffffffffffffffffffffffff16021790555060018201548160010155600282015481600201556003820160009054906101000a900460ff168160030160006101000a81548160ff02191690831515021790555090505060006004600084815260200190815260200160002060000160006101000a81548173ffffffffffffffffffffffffffffffffffffffff021916908373ffffffffffffffffffffffffffffffffffffffff1602179055507f90d1f40f5fa2264845480d9780f220cd4013894807b0fa467669e455c37afb6e60056000848152602001908152602001600020600101546005600085815260200190815260200160002060000160009054906101000a900473ffffffffffffffffffffffffffffffffffffffff16600560008681526020019081526020016000206002015460405161045893929190611337565b60405180910390a1610713565b60035482106104a9576040517f08c379a00000000000000000000000000000000000000000000000000000000081526004016104a0906112ab565b60405180910390fd5b600073ffffffffffffffffffffffffffffffffffffffff166001600084815260200190815260200160002060000160009054906101000a900473ffffffffffffffffffffffffffffffffffffffff1673ffffffffffffffffffffffffffffffffffffffff160361054e576040517f08c379a000000000000000000000000000000000000000000000000000000000815260040161054590611317565b60405180910390fd5b60016000838152602001908152602001600020600260008481526020019081526020016000206000820160009054906101000a900473ffffffffffffffffffffffffffffffffffffffff168160000160006101000a81548173ffffffffffffffffffffffffffffffffffffffff021916908373ffffffffffffffffffffffffffffffffffffffff16021790555060018201548160010155600282015481600201556003820160009054906101000a900460ff168160030160006101000a81548160ff02191690831515021790555090505060006001600084815260200190815260200160002060000160006101000a81548173ffffffffffffffffffffffffffffffffffffffff021916908373ffffffffffffffffffffffffffffffffffffffff1602179055507f90d1f40f5fa2264845480d9780f220cd4013894807b0fa467669e455c37afb6e60026000848152602001908152602001600020600101546002600085815260200190815260200160002060000160009054906101000a900473ffffffffffffffffffffffffffffffffffffffff16600260008681526020019081526020016000206002015460405161070a93929190611337565b60405180910390a15b5050565b60008161073a576001600084815260200190815260200160002060020154610752565b60046000848152602001908152602001600020600201545b905092915050565b6000816107875760006003541461077f57600160035461077a919061139d565b610782565b60005b6107a9565b6000600654146107a55760016006546107a0919061139d565b6107a8565b60005b5b9050919050565b6000816107d35760016000848152602001908152602001600020600101546107eb565b60046000848152602001908152602001600020600101545b905092915050565b80156108e45760405180608001604052808473ffffffffffffffffffffffffffffffffffffffff16815260200185815260200183815260200182151581525060046000600654815260200190815260200160002060008201518160000160006101000a81548173ffffffffffffffffffffffffffffffffffffffff021916908373ffffffffffffffffffffffffffffffffffffffff160217905550602082015181600101556040820151816002015560608201518160030160006101000a81548160ff0219169083151502179055509050506001600660008282546108d891906113d1565b925050819055506109cb565b60405180608001604052808473ffffffffffffffffffffffffffffffffffffffff16815260200185815260200183815260200182151581525060016000600354815260200190815260200160002060008201518160000160006101000a81548173ffffffffffffffffffffffffffffffffffffffff021916908373ffffffffffffffffffffffffffffffffffffffff160217905550602082015181600101556040820151816002015560608201518160030160006101000a81548160ff0219169083151502179055509050506001600360008282546109c391906113d1565b925050819055505b60016000808282546109dd91906113d1565b925050819055507fd48a484c5679516b2b220199fda3c919dbefd6363e5bf2f41c72ecbda21d7d04848484604051610a1793929190611337565b60405180910390a150505050565b600081610a68576001600084815260200190815260200160002060000160009054906101000a900473ffffffffffffffffffffffffffffffffffffffff16610aa0565b6004600084815260200190815260200160002060000160009054906101000a900473ffffffffffffffffffffffffffffffffffffffff165b905092915050565b6000806000808415610d58576006548610610af8576040517f08c379a0000000000000000000000000000000000000000000000000000000008152600401610aef906112ab565b60405180910390fd5b600073ffffffffffffffffffffffffffffffffffffffff166004600088815260200190815260200160002060000160009054906101000a900473ffffffffffffffffffffffffffffffffffffffff1673ffffffffffffffffffffffffffffffffffffffff1614610b9d576040517f08c379a0000000000000000000000000000000000000000000000000000000008152600401610b9490611473565b60405180910390fd5b600073ffffffffffffffffffffffffffffffffffffffff166005600088815260200190815260200160002060000160009054906101000a900473ffffffffffffffffffffffffffffffffffffffff1673ffffffffffffffffffffffffffffffffffffffff1603610c42576040517f08c379a0000000000000000000000000000000000000000000000000000000008152600401610c39906114df565b60405180910390fd5b60006005600088815260200190815260200160002060000160009054906101000a900473ffffffffffffffffffffffffffffffffffffffff1690506000600560008981526020019081526020016000206001015490506000600560008a81526020019081526020016000206002015490506000600560008b815260200190815260200160002060000160006101000a81548173ffffffffffffffffffffffffffffffffffffffff021916908373ffffffffffffffffffffffffffffffffffffffff1602179055507f023bfc1165fdcbba604efa142513c4594252730602e94c4ecc8c9e24d36c8115828483604051610d3c93929190611337565b60405180910390a18282828a9650965096509650505050610ff8565b6003548610610d9c576040517f08c379a0000000000000000000000000000000000000000000000000000000008152600401610d93906112ab565b60405180910390fd5b600073ffffffffffffffffffffffffffffffffffffffff166001600088815260200190815260200160002060000160009054906101000a900473ffffffffffffffffffffffffffffffffffffffff1673ffffffffffffffffffffffffffffffffffffffff1614610e41576040517f08c379a0000000000000000000000000000000000000000000000000000000008152600401610e3890611473565b60405180910390fd5b600073ffffffffffffffffffffffffffffffffffffffff166002600088815260200190815260200160002060000160009054906101000a900473ffffffffffffffffffffffffffffffffffffffff1673ffffffffffffffffffffffffffffffffffffffff1603610ee6576040517f08c379a0000000000000000000000000000000000000000000000000000000008152600401610edd906114df565b60405180910390fd5b60006002600088815260200190815260200160002060000160009054906101000a900473ffffffffffffffffffffffffffffffffffffffff1690506000600260008981526020019081526020016000206001015490506000600260008a81526020019081526020016000206002015490506000600260008b815260200190815260200160002060000160006101000a81548173ffffffffffffffffffffffffffffffffffffffff021916908373ffffffffffffffffffffffffffffffffffffffff1602179055507f023bfc1165fdcbba604efa142513c4594252730602e94c4ecc8c9e24d36c8115828483604051610fe093929190611337565b60405180910390a18282828a96509650965096505050505b92959194509250565b600080fd5b6000819050919050565b61101981611006565b811461102457600080fd5b50565b60008135905061103681611010565b92915050565b60008115159050919050565b6110518161103c565b811461105c57600080fd5b50565b60008135905061106e81611048565b92915050565b6000806040838503121561108b5761108a611001565b5b600061109985828601611027565b92505060206110aa8582860161105f565b9150509250929050565b6110bd81611006565b82525050565b60006020820190506110d860008301846110b4565b92915050565b6000602082840312156110f4576110f3611001565b5b60006111028482850161105f565b91505092915050565b600073ffffffffffffffffffffffffffffffffffffffff82169050919050565b60006111368261110b565b9050919050565b6111468161112b565b811461115157600080fd5b50565b6000813590506111638161113d565b92915050565b6000806000806080858703121561118357611182611001565b5b600061119187828801611027565b94505060206111a287828801611154565b93505060406111b387828801611027565b92505060606111c48782880161105f565b91505092959194509250565b6111d98161112b565b82525050565b60006020820190506111f460008301846111d0565b92915050565b6112038161103c565b82525050565b600060808201905061121e60008301876111d0565b61122b60208301866110b4565b61123860408301856110b4565b61124560608301846111fa565b95945050505050565b600082825260208201905092915050565b7f496e76616c696420496420696e73657274656400000000000000000000000000600082015250565b600061129560138361124e565b91506112a08261125f565b602082019050919050565b600060208201905081810360008301526112c481611288565b9050919050565b7f4e46542068617320616c7265616479206265656e20736f6c6400000000000000600082015250565b600061130160198361124e565b915061130c826112cb565b602082019050919050565b60006020820190508181036000830152611330816112f4565b9050919050565b600060608201905061134c60008301866110b4565b61135960208301856111d0565b61136660408301846110b4565b949350505050565b7f4e487b7100000000000000000000000000000000000000000000000000000000600052601160045260246000fd5b60006113a882611006565b91506113b383611006565b9250828210156113c6576113c561136e565b5b828203905092915050565b60006113dc82611006565b91506113e783611006565b9250827fffffffffffffffffffffffffffffffffffffffffffffffffffffffffffffffff0382111561141c5761141b61136e565b5b828201905092915050565b7f4e465420686173206e6f74206265656e20736f6c640000000000000000000000600082015250565b600061145d60158361124e565b915061146882611427565b602082019050919050565b6000602082019050818103600083015261148c81611450565b9050919050565b7f4e46542068617320616c7265616479206265656e207472616e73666572726564600082015250565b60006114c960208361124e565b91506114d482611493565b602082019050919050565b600060208201905081810360008301526114f8816114bc565b905091905056fea26469706673582212205365726f3388729143393ddab6847f96cd127e2f70049916a3c8304baa53cb7d64736f6c634300080d0033",
  "immutableReferences": {},
  "source": "// SPDX-License-Identifier: MIT\r\npragma solidity ^0.8.0;\r\n\r\ncontract OwnedNFTs {\r\n    uint256 private numNFTs;\r\n    \r\n    struct nft {\r\n        address parentContract;\r\n        uint256 price;\r\n        uint256 tokenId;\r\n        bool isValued;\r\n    }\r\n\r\n    mapping(uint256 => nft) private unwantedNFTs;    \r\n    mapping(uint256 => nft) private soldNFTs;\r\n    uint256 private nextAvailableSlot;\r\n\r\n    mapping(uint256 => nft) private valuedNFTs;    \r\n    mapping(uint256 => nft) private soldValuedNFTs;\r\n    uint256 private nextSlot;\r\n\r\n    event nftAdded(uint256 price, address nftAddress, uint256 tokenId);\r\n    event nftSold(uint256 price, address nftAddress, uint256 tokenId);\r\n    event nftTransfered(uint256 price, address nftAddress, uint256 tokenId);\r\n\r\n    function add(uint256 price, address nftAddress, uint256 tokenId, bool isValued) public {\r\n        if (isValued) {\r\n            valuedNFTs[nextSlot] = nft(nftAddress, price, tokenId, isValued);\r\n            nextSlot += 1;\r\n        } else {\r\n            unwantedNFTs[nextAvailableSlot] = nft(nftAddress, price, tokenId, isValued);\r\n            nextAvailableSlot += 1;\r\n        }\r\n        numNFTs += 1;\r\n        emit nftAdded(price, nftAddress, tokenId);\r\n    }\r\n\r\n    function remove(uint256 id, bool isValued) public returns (address parentContract, uint256 price, uint256 tokenId, bool value) {\r\n        if (isValued) {\r\n            require(id < nextSlot, \"Invalid Id inserted\");\r\n            require(valuedNFTs[id].parentContract == address(0), \"NFT has not been sold\");\r\n            require(soldValuedNFTs[id].parentContract != address(0), \"NFT has already been transferred\");\r\n            address NFTAdd = soldValuedNFTs[id].parentContract;\r\n            uint256 NFTprice = soldValuedNFTs[id].price;\r\n            uint256 NFTtokenId = soldValuedNFTs[id].tokenId;\r\n            soldValuedNFTs[id].parentContract = address(0);\r\n            emit nftTransfered(NFTprice, NFTAdd, NFTtokenId);\r\n            return (NFTAdd, NFTprice, NFTtokenId, isValued);\r\n        }\r\n        require(id < nextAvailableSlot, \"Invalid Id inserted\");\r\n        require(unwantedNFTs[id].parentContract == address(0), \"NFT has not been sold\");\r\n        require(soldNFTs[id].parentContract != address(0), \"NFT has already been transferred\");\r\n        address nftAdd = soldNFTs[id].parentContract;\r\n        uint256 nftprice = soldNFTs[id].price;\r\n        uint256 nfttokenId = soldNFTs[id].tokenId;\r\n        soldNFTs[id].parentContract = address(0);\r\n        emit nftTransfered(nftprice, nftAdd, nfttokenId);\r\n        return (nftAdd, nftprice, nfttokenId, isValued);\r\n    }\r\n\r\n    function sold(uint256 id, bool isvalued) public {\r\n        if (isvalued) {\r\n            require(id < nextSlot, \"Invalid Id inserted\");\r\n            require(valuedNFTs[id].parentContract != address(0), \"NFT has already been sold\");\r\n            soldValuedNFTs[id] = valuedNFTs[id];\r\n            valuedNFTs[id].parentContract = address(0);\r\n            emit nftSold(soldValuedNFTs[id].price, soldValuedNFTs[id].parentContract, soldValuedNFTs[id].tokenId);\r\n        } else {\r\n            require(id < nextAvailableSlot, \"Invalid Id inserted\");\r\n            require(unwantedNFTs[id].parentContract != address(0), \"NFT has already been sold\");\r\n            soldNFTs[id] = unwantedNFTs[id];\r\n            unwantedNFTs[id].parentContract = address(0);\r\n            emit nftSold(soldNFTs[id].price, soldNFTs[id].parentContract, soldNFTs[id].tokenId);\r\n        }\r\n\r\n    }\r\n\r\n    function getParentContract(uint256 id, bool isValued) public view returns(address) {\r\n        return isValued ? valuedNFTs[id].parentContract : unwantedNFTs[id].parentContract;\r\n    }\r\n\r\n    function getPrice(uint256 id, bool isValued) public view returns(uint256) {\r\n        return isValued ? valuedNFTs[id].price : unwantedNFTs[id].price;\r\n    }\r\n\r\n    function getTokenId(uint256 id, bool isValued) public view returns(uint256) {\r\n        return isValued ? valuedNFTs[id].tokenId : unwantedNFTs[id].tokenId;\r\n    }\r\n\r\n    function getSize(bool isValued) public view returns(uint256) {\r\n        return isValued ? (nextSlot == 0 ? 0 : nextSlot-1) : (nextAvailableSlot == 0 ? 0 : nextAvailableSlot-1);\r\n    }\r\n\r\n}",
  "sourcePath": "C:\\Users\\Bryan\\Desktop\\Year 3\\Sem 2\\IS4302\\final proj\\contracts\\ownedNFTs.sol",
  "compiler": {
    "name": "solc",
    "version": "0.8.13+commit.abaa5c0e.Emscripten.clang"
  },
  "schemaVersion": "3.4.4",
  "updatedAt": "2022-03-26T15:26:30.011Z",
  "networkType": "ethereum",
  "devdoc": {
    "kind": "dev",
    "methods": {},
    "version": 1
  },
  "userdoc": {
    "kind": "user",
    "methods": {},
    "version": 1
  }
}