{
  "contractName": "OwnedNFTs",
  "abi": [
    {
      "anonymous": false,
      "inputs": [
        {
          "indexed": false,
          "internalType": "uint256",
          "name": "price",
          "type": "uint256"
        },
        {
          "indexed": false,
          "internalType": "address",
          "name": "nftAddress",
          "type": "address"
        },
        {
          "indexed": false,
          "internalType": "uint256",
          "name": "tokenId",
          "type": "uint256"
        }
      ],
      "name": "nftAdded",
      "type": "event"
    },
    {
      "anonymous": false,
      "inputs": [
        {
          "indexed": false,
          "internalType": "uint256",
          "name": "price",
          "type": "uint256"
        },
        {
          "indexed": false,
          "internalType": "address",
          "name": "nftAddress",
          "type": "address"
        },
        {
          "indexed": false,
          "internalType": "uint256",
          "name": "tokenId",
          "type": "uint256"
        }
      ],
      "name": "nftSold",
      "type": "event"
    },
    {
      "anonymous": false,
      "inputs": [
        {
          "indexed": false,
          "internalType": "uint256",
          "name": "price",
          "type": "uint256"
        },
        {
          "indexed": false,
          "internalType": "address",
          "name": "nftAddress",
          "type": "address"
        },
        {
          "indexed": false,
          "internalType": "uint256",
          "name": "tokenId",
          "type": "uint256"
        }
      ],
      "name": "nftTransfered",
      "type": "event"
    },
    {
      "inputs": [
        {
          "internalType": "uint256",
          "name": "price",
          "type": "uint256"
        },
        {
          "internalType": "address",
          "name": "nftAddress",
          "type": "address"
        },
        {
          "internalType": "uint256",
          "name": "tokenId",
          "type": "uint256"
        },
        {
          "internalType": "bool",
          "name": "isValued",
          "type": "bool"
        }
      ],
      "name": "add",
      "outputs": [],
      "stateMutability": "nonpayable",
      "type": "function"
    },
    {
      "inputs": [
        {
          "internalType": "uint256",
          "name": "id",
          "type": "uint256"
        },
        {
          "internalType": "bool",
          "name": "isValued",
          "type": "bool"
        }
      ],
      "name": "remove",
      "outputs": [
        {
          "internalType": "address",
          "name": "parentContract",
          "type": "address"
        },
        {
          "internalType": "uint256",
          "name": "price",
          "type": "uint256"
        },
        {
          "internalType": "uint256",
          "name": "tokenId",
          "type": "uint256"
        },
        {
          "internalType": "bool",
          "name": "value",
          "type": "bool"
        }
      ],
      "stateMutability": "nonpayable",
      "type": "function"
    },
    {
      "inputs": [
        {
          "internalType": "uint256",
          "name": "id",
          "type": "uint256"
        },
        {
          "internalType": "bool",
          "name": "isvalued",
          "type": "bool"
        }
      ],
      "name": "sold",
      "outputs": [],
      "stateMutability": "nonpayable",
      "type": "function"
    },
    {
      "inputs": [
        {
          "internalType": "uint256",
          "name": "id",
          "type": "uint256"
        },
        {
          "internalType": "bool",
          "name": "isValued",
          "type": "bool"
        }
      ],
      "name": "getParentContract",
      "outputs": [
        {
          "internalType": "address",
          "name": "",
          "type": "address"
        }
      ],
      "stateMutability": "view",
      "type": "function"
    },
    {
      "inputs": [
        {
          "internalType": "uint256",
          "name": "id",
          "type": "uint256"
        },
        {
          "internalType": "bool",
          "name": "isValued",
          "type": "bool"
        }
      ],
      "name": "getPrice",
      "outputs": [
        {
          "internalType": "uint256",
          "name": "",
          "type": "uint256"
        }
      ],
      "stateMutability": "view",
      "type": "function"
    },
    {
      "inputs": [
        {
          "internalType": "uint256",
          "name": "id",
          "type": "uint256"
        },
        {
          "internalType": "bool",
          "name": "isValued",
          "type": "bool"
        }
      ],
      "name": "getTokenId",
      "outputs": [
        {
          "internalType": "uint256",
          "name": "",
          "type": "uint256"
        }
      ],
      "stateMutability": "view",
      "type": "function"
    },
    {
      "inputs": [
        {
          "internalType": "bool",
          "name": "isValued",
          "type": "bool"
        }
      ],
      "name": "getSize",
      "outputs": [
        {
          "internalType": "uint256",
          "name": "",
          "type": "uint256"
        }
      ],
      "stateMutability": "view",
      "type": "function"
    },
    {
      "inputs": [
        {
          "internalType": "bool",
          "name": "isValued",
          "type": "bool"
        }
      ],
      "name": "indexUpperBound",
      "outputs": [
        {
          "internalType": "uint256",
          "name": "",
          "type": "uint256"
        }
      ],
      "stateMutability": "view",
      "type": "function"
    }
  ],
  "bytecode": "0x608060405234801561001057600080fd5b50611595806100206000396000f3fe608060405234801561001057600080fd5b50600436106100885760003560e01c806393f64d031161005b57806393f64d0314610139578063988d7a6014610169578063a9a9f9fc14610185578063d5f615c6146101b557610088565b806314e4ff781461008d57806320104307146100a9578063366ad83e146100d95780635705b61a14610109575b600080fd5b6100a760048036038101906100a291906110d4565b6101e8565b005b6100c360048036038101906100be91906110d4565b610783565b6040516100d09190611123565b60405180910390f35b6100f360048036038101906100ee919061113e565b6107c5565b6040516101009190611123565b60405180910390f35b610123600480360381019061011e91906110d4565b6107df565b6040516101309190611123565b60405180910390f35b610153600480360381019061014e919061113e565b610821565b6040516101609190611123565b60405180910390f35b610183600480360381019061017e91906111c9565b61083b565b005b61019f600480360381019061019a91906110d4565b610a87565b6040516101ac919061123f565b60405180910390f35b6101cf60048036038101906101ca91906110d4565b610b09565b6040516101df9493929190611269565b60405180910390f35b80156104ba576006548210610232576040517f08c379a00000000000000000000000000000000000000000000000000000000081526004016102299061130b565b60405180910390fd5b600073ffffffffffffffffffffffffffffffffffffffff166004600084815260200190815260200160002060000160009054906101000a900473ffffffffffffffffffffffffffffffffffffffff1673ffffffffffffffffffffffffffffffffffffffff16036102d7576040517f08c379a00000000000000000000000000000000000000000000000000000000081526004016102ce90611377565b60405180910390fd5b60046000838152602001908152602001600020600560008481526020019081526020016000206000820160009054906101000a900473ffffffffffffffffffffffffffffffffffffffff168160000160006101000a81548173ffffffffffffffffffffffffffffffffffffffff021916908373ffffffffffffffffffffffffffffffffffffffff16021790555060018201548160010155600282015481600201556003820160009054906101000a900460ff168160030160006101000a81548160ff02191690831515021790555090505060006004600084815260200190815260200160002060000160006101000a81548173ffffffffffffffffffffffffffffffffffffffff021916908373ffffffffffffffffffffffffffffffffffffffff16021790555060016007600082825461041191906113c6565b925050819055507f90d1f40f5fa2264845480d9780f220cd4013894807b0fa467669e455c37afb6e60056000848152602001908152602001600020600101546005600085815260200190815260200160002060000160009054906101000a900473ffffffffffffffffffffffffffffffffffffffff1660056000868152602001908152602001600020600201546040516104ad939291906113fa565b60405180910390a161077f565b60025482106104fe576040517f08c379a00000000000000000000000000000000000000000000000000000000081526004016104f59061130b565b60405180910390fd5b600073ffffffffffffffffffffffffffffffffffffffff1660008084815260200190815260200160002060000160009054906101000a900473ffffffffffffffffffffffffffffffffffffffff1673ffffffffffffffffffffffffffffffffffffffff16036105a2576040517f08c379a000000000000000000000000000000000000000000000000000000000815260040161059990611377565b60405180910390fd5b600080838152602001908152602001600020600160008481526020019081526020016000206000820160009054906101000a900473ffffffffffffffffffffffffffffffffffffffff168160000160006101000a81548173ffffffffffffffffffffffffffffffffffffffff021916908373ffffffffffffffffffffffffffffffffffffffff16021790555060018201548160010155600282015481600201556003820160009054906101000a900460ff168160030160006101000a81548160ff021916908315150217905550905050600080600084815260200190815260200160002060000160006101000a81548173ffffffffffffffffffffffffffffffffffffffff021916908373ffffffffffffffffffffffffffffffffffffffff1602179055506001600360008282546106da91906113c6565b925050819055507f90d1f40f5fa2264845480d9780f220cd4013894807b0fa467669e455c37afb6e60016000848152602001908152602001600020600101546001600085815260200190815260200160002060000160009054906101000a900473ffffffffffffffffffffffffffffffffffffffff166001600086815260200190815260200160002060020154604051610776939291906113fa565b60405180910390a15b5050565b6000816107a557600080848152602001908152602001600020600201546107bd565b60046000848152602001908152602001600020600201545b905092915050565b6000816107d4576003546107d8565b6007545b9050919050565b6000816108015760008084815260200190815260200160002060010154610819565b60046000848152602001908152602001600020600101545b905092915050565b60008161083057600254610834565b6006545b9050919050565b80156109465760405180608001604052808473ffffffffffffffffffffffffffffffffffffffff16815260200185815260200183815260200182151581525060046000600654815260200190815260200160002060008201518160000160006101000a81548173ffffffffffffffffffffffffffffffffffffffff021916908373ffffffffffffffffffffffffffffffffffffffff160217905550602082015181600101556040820151816002015560608201518160030160006101000a81548160ff0219169083151502179055509050506001600660008282546109209190611431565b9250508190555060016007600082825461093a9190611431565b92505081905550610a46565b60405180608001604052808473ffffffffffffffffffffffffffffffffffffffff168152602001858152602001838152602001821515815250600080600254815260200190815260200160002060008201518160000160006101000a81548173ffffffffffffffffffffffffffffffffffffffff021916908373ffffffffffffffffffffffffffffffffffffffff160217905550602082015181600101556040820151816002015560608201518160030160006101000a81548160ff021916908315150217905550905050600160026000828254610a249190611431565b92505081905550600160036000828254610a3e9190611431565b925050819055505b7fd48a484c5679516b2b220199fda3c919dbefd6363e5bf2f41c72ecbda21d7d04848484604051610a79939291906113fa565b60405180910390a150505050565b600081610ac95760008084815260200190815260200160002060000160009054906101000a900473ffffffffffffffffffffffffffffffffffffffff16610b01565b6004600084815260200190815260200160002060000160009054906101000a900473ffffffffffffffffffffffffffffffffffffffff165b905092915050565b6000806000808415610db9576006548610610b59576040517f08c379a0000000000000000000000000000000000000000000000000000000008152600401610b509061130b565b60405180910390fd5b600073ffffffffffffffffffffffffffffffffffffffff166004600088815260200190815260200160002060000160009054906101000a900473ffffffffffffffffffffffffffffffffffffffff1673ffffffffffffffffffffffffffffffffffffffff1614610bfe576040517f08c379a0000000000000000000000000000000000000000000000000000000008152600401610bf5906114d3565b60405180910390fd5b600073ffffffffffffffffffffffffffffffffffffffff166005600088815260200190815260200160002060000160009054906101000a900473ffffffffffffffffffffffffffffffffffffffff1673ffffffffffffffffffffffffffffffffffffffff1603610ca3576040517f08c379a0000000000000000000000000000000000000000000000000000000008152600401610c9a9061153f565b60405180910390fd5b60006005600088815260200190815260200160002060000160009054906101000a900473ffffffffffffffffffffffffffffffffffffffff1690506000600560008981526020019081526020016000206001015490506000600560008a81526020019081526020016000206002015490506000600560008b815260200190815260200160002060000160006101000a81548173ffffffffffffffffffffffffffffffffffffffff021916908373ffffffffffffffffffffffffffffffffffffffff1602179055507f023bfc1165fdcbba604efa142513c4594252730602e94c4ecc8c9e24d36c8115828483604051610d9d939291906113fa565b60405180910390a18282828a9650965096509650505050611058565b6002548610610dfd576040517f08c379a0000000000000000000000000000000000000000000000000000000008152600401610df49061130b565b60405180910390fd5b600073ffffffffffffffffffffffffffffffffffffffff1660008088815260200190815260200160002060000160009054906101000a900473ffffffffffffffffffffffffffffffffffffffff1673ffffffffffffffffffffffffffffffffffffffff1614610ea1576040517f08c379a0000000000000000000000000000000000000000000000000000000008152600401610e98906114d3565b60405180910390fd5b600073ffffffffffffffffffffffffffffffffffffffff166001600088815260200190815260200160002060000160009054906101000a900473ffffffffffffffffffffffffffffffffffffffff1673ffffffffffffffffffffffffffffffffffffffff1603610f46576040517f08c379a0000000000000000000000000000000000000000000000000000000008152600401610f3d9061153f565b60405180910390fd5b60006001600088815260200190815260200160002060000160009054906101000a900473ffffffffffffffffffffffffffffffffffffffff1690506000600160008981526020019081526020016000206001015490506000600160008a81526020019081526020016000206002015490506000600160008b815260200190815260200160002060000160006101000a81548173ffffffffffffffffffffffffffffffffffffffff021916908373ffffffffffffffffffffffffffffffffffffffff1602179055507f023bfc1165fdcbba604efa142513c4594252730602e94c4ecc8c9e24d36c8115828483604051611040939291906113fa565b60405180910390a18282828a96509650965096505050505b92959194509250565b600080fd5b6000819050919050565b61107981611066565b811461108457600080fd5b50565b60008135905061109681611070565b92915050565b60008115159050919050565b6110b18161109c565b81146110bc57600080fd5b50565b6000813590506110ce816110a8565b92915050565b600080604083850312156110eb576110ea611061565b5b60006110f985828601611087565b925050602061110a858286016110bf565b9150509250929050565b61111d81611066565b82525050565b60006020820190506111386000830184611114565b92915050565b60006020828403121561115457611153611061565b5b6000611162848285016110bf565b91505092915050565b600073ffffffffffffffffffffffffffffffffffffffff82169050919050565b60006111968261116b565b9050919050565b6111a68161118b565b81146111b157600080fd5b50565b6000813590506111c38161119d565b92915050565b600080600080608085870312156111e3576111e2611061565b5b60006111f187828801611087565b9450506020611202878288016111b4565b935050604061121387828801611087565b9250506060611224878288016110bf565b91505092959194509250565b6112398161118b565b82525050565b60006020820190506112546000830184611230565b92915050565b6112638161109c565b82525050565b600060808201905061127e6000830187611230565b61128b6020830186611114565b6112986040830185611114565b6112a5606083018461125a565b95945050505050565b600082825260208201905092915050565b7f496e76616c696420496420696e73657274656400000000000000000000000000600082015250565b60006112f56013836112ae565b9150611300826112bf565b602082019050919050565b60006020820190508181036000830152611324816112e8565b9050919050565b7f4e46542068617320616c7265616479206265656e20736f6c6400000000000000600082015250565b60006113616019836112ae565b915061136c8261132b565b602082019050919050565b6000602082019050818103600083015261139081611354565b9050919050565b7f4e487b7100000000000000000000000000000000000000000000000000000000600052601160045260246000fd5b60006113d182611066565b91506113dc83611066565b9250828210156113ef576113ee611397565b5b828203905092915050565b600060608201905061140f6000830186611114565b61141c6020830185611230565b6114296040830184611114565b949350505050565b600061143c82611066565b915061144783611066565b9250827fffffffffffffffffffffffffffffffffffffffffffffffffffffffffffffffff0382111561147c5761147b611397565b5b828201905092915050565b7f4e465420686173206e6f74206265656e20736f6c640000000000000000000000600082015250565b60006114bd6015836112ae565b91506114c882611487565b602082019050919050565b600060208201905081810360008301526114ec816114b0565b9050919050565b7f4e46542068617320616c7265616479206265656e207472616e73666572726564600082015250565b60006115296020836112ae565b9150611534826114f3565b602082019050919050565b600060208201905081810360008301526115588161151c565b905091905056fea26469706673582212205f3b5ea4cd23ac2f56b060b693f4abb53887e8356e68e07bee318b680bafd7ec64736f6c634300080d0033",
  "immutableReferences": {},
  "source": "// SPDX-License-Identifier: MIT\r\npragma solidity ^0.8.0;\r\n\r\ncontract OwnedNFTs {\r\n    struct nft {\r\n        address parentContract;\r\n        uint256 price;\r\n        uint256 tokenId;\r\n        bool isValued;\r\n    }\r\n\r\n    mapping(uint256 => nft) private unwantedNFTs;\r\n    mapping(uint256 => nft) private soldNFTs;\r\n    uint256 private nextAvailableSlot;\r\n    uint256 private unwantedSize;\r\n\r\n    mapping(uint256 => nft) private valuedNFTs;\r\n    mapping(uint256 => nft) private soldValuedNFTs;\r\n    uint256 private nextSlot;\r\n    uint256 private valuedSize;\r\n\r\n    event nftAdded(uint256 price, address nftAddress, uint256 tokenId);\r\n    event nftSold(uint256 price, address nftAddress, uint256 tokenId);\r\n    event nftTransfered(uint256 price, address nftAddress, uint256 tokenId);\r\n\r\n    function add(\r\n        uint256 price,\r\n        address nftAddress,\r\n        uint256 tokenId,\r\n        bool isValued\r\n    ) public {\r\n        if (isValued) {\r\n            valuedNFTs[nextSlot] = nft(nftAddress, price, tokenId, isValued);\r\n            nextSlot += 1;\r\n            valuedSize += 1;\r\n        } else {\r\n            unwantedNFTs[nextAvailableSlot] = nft(\r\n                nftAddress,\r\n                price,\r\n                tokenId,\r\n                isValued\r\n            );\r\n            nextAvailableSlot += 1;\r\n            unwantedSize += 1;\r\n        }\r\n        emit nftAdded(price, nftAddress, tokenId);\r\n    }\r\n\r\n    function remove(uint256 id, bool isValued)\r\n        public\r\n        returns (\r\n            address parentContract,\r\n            uint256 price,\r\n            uint256 tokenId,\r\n            bool value\r\n        )\r\n    {\r\n        if (isValued) {\r\n            require(id < nextSlot, \"Invalid Id inserted\");\r\n            require(\r\n                valuedNFTs[id].parentContract == address(0),\r\n                \"NFT has not been sold\"\r\n            );\r\n            require(\r\n                soldValuedNFTs[id].parentContract != address(0),\r\n                \"NFT has already been transferred\"\r\n            );\r\n            address NFTAdd = soldValuedNFTs[id].parentContract;\r\n            uint256 NFTprice = soldValuedNFTs[id].price;\r\n            uint256 NFTtokenId = soldValuedNFTs[id].tokenId;\r\n            soldValuedNFTs[id].parentContract = address(0);\r\n            emit nftTransfered(NFTprice, NFTAdd, NFTtokenId);\r\n            return (NFTAdd, NFTprice, NFTtokenId, isValued);\r\n        }\r\n        require(id < nextAvailableSlot, \"Invalid Id inserted\");\r\n        require(\r\n            unwantedNFTs[id].parentContract == address(0),\r\n            \"NFT has not been sold\"\r\n        );\r\n        require(\r\n            soldNFTs[id].parentContract != address(0),\r\n            \"NFT has already been transferred\"\r\n        );\r\n        address nftAdd = soldNFTs[id].parentContract;\r\n        uint256 nftprice = soldNFTs[id].price;\r\n        uint256 nfttokenId = soldNFTs[id].tokenId;\r\n        soldNFTs[id].parentContract = address(0);\r\n        emit nftTransfered(nftprice, nftAdd, nfttokenId);\r\n        return (nftAdd, nftprice, nfttokenId, isValued);\r\n    }\r\n\r\n    function sold(uint256 id, bool isvalued) public {\r\n        if (isvalued) {\r\n            require(id < nextSlot, \"Invalid Id inserted\");\r\n            require(\r\n                valuedNFTs[id].parentContract != address(0),\r\n                \"NFT has already been sold\"\r\n            );\r\n            soldValuedNFTs[id] = valuedNFTs[id];\r\n            valuedNFTs[id].parentContract = address(0);\r\n            valuedSize -= 1;\r\n            emit nftSold(\r\n                soldValuedNFTs[id].price,\r\n                soldValuedNFTs[id].parentContract,\r\n                soldValuedNFTs[id].tokenId\r\n            );\r\n        } else {\r\n            require(id < nextAvailableSlot, \"Invalid Id inserted\");\r\n            require(\r\n                unwantedNFTs[id].parentContract != address(0),\r\n                \"NFT has already been sold\"\r\n            );\r\n            soldNFTs[id] = unwantedNFTs[id];\r\n            unwantedNFTs[id].parentContract = address(0);\r\n            unwantedSize -= 1;\r\n            emit nftSold(\r\n                soldNFTs[id].price,\r\n                soldNFTs[id].parentContract,\r\n                soldNFTs[id].tokenId\r\n            );\r\n        }\r\n    }\r\n\r\n    function getParentContract(uint256 id, bool isValued)\r\n        public\r\n        view\r\n        returns (address)\r\n    {\r\n        return\r\n            isValued\r\n                ? valuedNFTs[id].parentContract\r\n                : unwantedNFTs[id].parentContract;\r\n    }\r\n\r\n    function getPrice(uint256 id, bool isValued) public view returns (uint256) {\r\n        return isValued ? valuedNFTs[id].price : unwantedNFTs[id].price;\r\n    }\r\n\r\n    function getTokenId(uint256 id, bool isValued)\r\n        public\r\n        view\r\n        returns (uint256)\r\n    {\r\n        return isValued ? valuedNFTs[id].tokenId : unwantedNFTs[id].tokenId;\r\n    }\r\n\r\n    function getSize(bool isValued) public view returns (uint256) {\r\n        return isValued ? valuedSize : unwantedSize;\r\n    }\r\n\r\n    function indexUpperBound(bool isValued) public view returns (uint256) {\r\n        return\r\n            isValued\r\n                ? nextSlot\r\n                : nextAvailableSlot;\r\n    }\r\n}\r\n",
  "sourcePath": "C:\\Users\\viole\\mysterio\\contracts\\ownedNFTs.sol",
  "compiler": {
    "name": "solc",
    "version": "0.8.13+commit.abaa5c0e.Emscripten.clang"
  },
  "schemaVersion": "3.4.4",
  "updatedAt": "2022-04-03T09:22:13.154Z",
  "devdoc": {
    "kind": "dev",
    "methods": {},
    "version": 1
  },
  "userdoc": {
    "kind": "user",
    "methods": {},
    "version": 1
  }
}