{
  "contractName": "OwnedNFTs",
  "abi": [
    {
      "anonymous": false,
      "inputs": [
        {
          "indexed": false,
          "internalType": "uint256",
          "name": "price",
          "type": "uint256"
        },
        {
          "indexed": false,
          "internalType": "address",
          "name": "nftAddress",
          "type": "address"
        },
        {
          "indexed": false,
          "internalType": "uint256",
          "name": "tokenId",
          "type": "uint256"
        }
      ],
      "name": "nftAdded",
      "type": "event"
    },
    {
      "anonymous": false,
      "inputs": [
        {
          "indexed": false,
          "internalType": "uint256",
          "name": "price",
          "type": "uint256"
        },
        {
          "indexed": false,
          "internalType": "address",
          "name": "nftAddress",
          "type": "address"
        },
        {
          "indexed": false,
          "internalType": "uint256",
          "name": "tokenId",
          "type": "uint256"
        }
      ],
      "name": "nftSold",
      "type": "event"
    },
    {
      "inputs": [
        {
          "internalType": "uint256",
          "name": "price",
          "type": "uint256"
        },
        {
          "internalType": "address",
          "name": "nftAddress",
          "type": "address"
        },
        {
          "internalType": "uint256",
          "name": "tokenId",
          "type": "uint256"
        }
      ],
      "name": "add",
      "outputs": [],
      "stateMutability": "nonpayable",
      "type": "function"
    },
    {
      "inputs": [
        {
          "internalType": "uint256",
          "name": "id",
          "type": "uint256"
        }
      ],
      "name": "remove",
      "outputs": [
        {
          "internalType": "address",
          "name": "parentContract",
          "type": "address"
        },
        {
          "internalType": "uint256",
          "name": "price",
          "type": "uint256"
        },
        {
          "internalType": "uint256",
          "name": "tokenId",
          "type": "uint256"
        }
      ],
      "stateMutability": "nonpayable",
      "type": "function"
    },
    {
      "inputs": [
        {
          "internalType": "uint256",
          "name": "id",
          "type": "uint256"
        }
      ],
      "name": "sold",
      "outputs": [],
      "stateMutability": "nonpayable",
      "type": "function"
    },
    {
      "inputs": [
        {
          "internalType": "uint256",
          "name": "id",
          "type": "uint256"
        }
      ],
      "name": "getParentContract",
      "outputs": [
        {
          "internalType": "address",
          "name": "",
          "type": "address"
        }
      ],
      "stateMutability": "view",
      "type": "function",
      "constant": true
    },
    {
      "inputs": [
        {
          "internalType": "uint256",
          "name": "id",
          "type": "uint256"
        }
      ],
      "name": "getPrice",
      "outputs": [
        {
          "internalType": "uint256",
          "name": "",
          "type": "uint256"
        }
      ],
      "stateMutability": "view",
      "type": "function",
      "constant": true
    },
    {
      "inputs": [
        {
          "internalType": "uint256",
          "name": "id",
          "type": "uint256"
        }
      ],
      "name": "getTokenId",
      "outputs": [
        {
          "internalType": "uint256",
          "name": "",
          "type": "uint256"
        }
      ],
      "stateMutability": "view",
      "type": "function",
      "constant": true
    },
    {
      "inputs": [],
      "name": "getMaximumSize",
      "outputs": [
        {
          "internalType": "uint256",
          "name": "",
          "type": "uint256"
        }
      ],
      "stateMutability": "view",
      "type": "function",
      "constant": true
    }
  ],
  "bytecode": "0x608060405234801561001057600080fd5b50610bc0806100206000396000f3fe608060405234801561001057600080fd5b506004361061007d5760003560e01c80634cc822151161005b5780634cc82215146101005780639c03facb14610132578063b9955e391461014e578063e75722301461016a5761007d565b8063031b8b211461008257806314ff5ea3146100a05780632370f6cd146100d0575b600080fd5b61008a61019a565b60405161009791906107ba565b60405180910390f35b6100ba60048036038101906100b59190610806565b6101c0565b6040516100c791906107ba565b60405180910390f35b6100ea60048036038101906100e59190610806565b6101e0565b6040516100f79190610874565b60405180910390f35b61011a60048036038101906101159190610806565b610220565b6040516101299392919061088f565b60405180910390f35b61014c60048036038101906101479190610806565b6103e8565b005b610168600480360381019061016391906108f2565b61066b565b005b610184600480360381019061017f9190610806565b610781565b60405161019191906107ba565b60405180910390f35b600080600154146101b857600180546101b39190610974565b6101bb565b60005b905090565b600060026000838152602001908152602001600020600201549050919050565b60006002600083815260200190815260200160002060000160009054906101000a900473ffffffffffffffffffffffffffffffffffffffff169050919050565b60008060006001548410610269576040517f08c379a000000000000000000000000000000000000000000000000000000000815260040161026090610a05565b60405180910390fd5b600073ffffffffffffffffffffffffffffffffffffffff166003600086815260200190815260200160002060000160009054906101000a900473ffffffffffffffffffffffffffffffffffffffff1673ffffffffffffffffffffffffffffffffffffffff160361030e576040517f08c379a000000000000000000000000000000000000000000000000000000000815260040161030590610a71565b60405180910390fd5b60006003600086815260200190815260200160002060000160009054906101000a900473ffffffffffffffffffffffffffffffffffffffff16905060006003600087815260200190815260200160002060010154905060006003600088815260200190815260200160002060020154905060006003600089815260200190815260200160002060000160006101000a81548173ffffffffffffffffffffffffffffffffffffffff021916908373ffffffffffffffffffffffffffffffffffffffff1602179055508282829550955095505050509193909250565b600154811061042c576040517f08c379a000000000000000000000000000000000000000000000000000000000815260040161042390610a05565b60405180910390fd5b600073ffffffffffffffffffffffffffffffffffffffff166002600083815260200190815260200160002060000160009054906101000a900473ffffffffffffffffffffffffffffffffffffffff1673ffffffffffffffffffffffffffffffffffffffff16036104d1576040517f08c379a00000000000000000000000000000000000000000000000000000000081526004016104c890610add565b60405180910390fd5b60026000828152602001908152602001600020600360008381526020019081526020016000206000820160009054906101000a900473ffffffffffffffffffffffffffffffffffffffff168160000160006101000a81548173ffffffffffffffffffffffffffffffffffffffff021916908373ffffffffffffffffffffffffffffffffffffffff160217905550600182015481600101556002820154816002015590505060006002600083815260200190815260200160002060000160006101000a81548173ffffffffffffffffffffffffffffffffffffffff021916908373ffffffffffffffffffffffffffffffffffffffff1602179055507f90d1f40f5fa2264845480d9780f220cd4013894807b0fa467669e455c37afb6e60036000838152602001908152602001600020600101546003600084815260200190815260200160002060000160009054906101000a900473ffffffffffffffffffffffffffffffffffffffff16600360008581526020019081526020016000206002015460405161066093929190610afd565b60405180910390a150565b60405180606001604052808373ffffffffffffffffffffffffffffffffffffffff1681526020018481526020018281525060026000600154815260200190815260200160002060008201518160000160006101000a81548173ffffffffffffffffffffffffffffffffffffffff021916908373ffffffffffffffffffffffffffffffffffffffff160217905550602082015181600101556040820151816002015590505060016000808282546107219190610b34565b92505081905550600180600082825461073a9190610b34565b925050819055507fd48a484c5679516b2b220199fda3c919dbefd6363e5bf2f41c72ecbda21d7d0483838360405161077493929190610afd565b60405180910390a1505050565b600060026000838152602001908152602001600020600101549050919050565b6000819050919050565b6107b4816107a1565b82525050565b60006020820190506107cf60008301846107ab565b92915050565b600080fd5b6107e3816107a1565b81146107ee57600080fd5b50565b600081359050610800816107da565b92915050565b60006020828403121561081c5761081b6107d5565b5b600061082a848285016107f1565b91505092915050565b600073ffffffffffffffffffffffffffffffffffffffff82169050919050565b600061085e82610833565b9050919050565b61086e81610853565b82525050565b60006020820190506108896000830184610865565b92915050565b60006060820190506108a46000830186610865565b6108b160208301856107ab565b6108be60408301846107ab565b949350505050565b6108cf81610853565b81146108da57600080fd5b50565b6000813590506108ec816108c6565b92915050565b60008060006060848603121561090b5761090a6107d5565b5b6000610919868287016107f1565b935050602061092a868287016108dd565b925050604061093b868287016107f1565b9150509250925092565b7f4e487b7100000000000000000000000000000000000000000000000000000000600052601160045260246000fd5b600061097f826107a1565b915061098a836107a1565b92508282101561099d5761099c610945565b5b828203905092915050565b600082825260208201905092915050565b7f496e76616c696420496420696e73657274656400000000000000000000000000600082015250565b60006109ef6013836109a8565b91506109fa826109b9565b602082019050919050565b60006020820190508181036000830152610a1e816109e2565b9050919050565b7f4e46542068617320616c7265616479206265656e207472616e73666572726564600082015250565b6000610a5b6020836109a8565b9150610a6682610a25565b602082019050919050565b60006020820190508181036000830152610a8a81610a4e565b9050919050565b7f4e46542068617320616c7265616479206265656e20736f6c6400000000000000600082015250565b6000610ac76019836109a8565b9150610ad282610a91565b602082019050919050565b60006020820190508181036000830152610af681610aba565b9050919050565b6000606082019050610b1260008301866107ab565b610b1f6020830185610865565b610b2c60408301846107ab565b949350505050565b6000610b3f826107a1565b9150610b4a836107a1565b9250827fffffffffffffffffffffffffffffffffffffffffffffffffffffffffffffffff03821115610b7f57610b7e610945565b5b82820190509291505056fea2646970667358221220cce2435050b63e6019865be5103a3f80c973b69373ba56220b8b043d100e12b564736f6c634300080d0033",
  "immutableReferences": {},
  "source": "// SPDX-License-Identifier: MIT\r\npragma solidity ^0.8.0;\r\n\r\ncontract OwnedNFTs {\r\n    uint256 private numNFTs;\r\n    uint256 private nextAvailableSlot;\r\n    \r\n    struct nft {\r\n        address parentContract;\r\n        uint256 price;\r\n        uint256 tokenId;\r\n    }\r\n\r\n    mapping(uint256 => nft) private unwantedNFTs;    \r\n    mapping(uint256 => nft) private soldNFTs;\r\n\r\n    event nftAdded(uint256 price, address nftAddress, uint256 tokenId);\r\n    event nftSold(uint256 price, address nftAddress, uint256 tokenId);\r\n\r\n    function add(uint256 price, address nftAddress, uint256 tokenId) public {\r\n        unwantedNFTs[nextAvailableSlot] = nft(nftAddress, price, tokenId);\r\n        numNFTs += 1;\r\n        nextAvailableSlot += 1;\r\n        emit nftAdded(price, nftAddress, tokenId);\r\n    }\r\n\r\n    function remove(uint256 id) public returns (address parentContract, uint256 price, uint256 tokenId) {\r\n        require(id < nextAvailableSlot, \"Invalid Id inserted\");\r\n        require(soldNFTs[id].parentContract != address(0), \"NFT has already been transferred\");\r\n        address nftAdd = soldNFTs[id].parentContract;\r\n        uint256 nftprice = soldNFTs[id].price;\r\n        uint256 nfttokenId = soldNFTs[id].tokenId;\r\n\r\n        soldNFTs[id].parentContract = address(0);\r\n\r\n        return (nftAdd, nftprice, nfttokenId);\r\n    }\r\n\r\n    function sold(uint256 id) public {\r\n        require(id < nextAvailableSlot, \"Invalid Id inserted\");\r\n        require(unwantedNFTs[id].parentContract != address(0), \"NFT has already been sold\");\r\n        soldNFTs[id] = unwantedNFTs[id];\r\n        unwantedNFTs[id].parentContract = address(0);\r\n        emit nftSold(soldNFTs[id].price, soldNFTs[id].parentContract, soldNFTs[id].tokenId);\r\n    }\r\n\r\n    function getParentContract(uint256 id) public view returns(address) {\r\n        return unwantedNFTs[id].parentContract;\r\n    }\r\n\r\n    function getPrice(uint256 id) public view returns(uint256) {\r\n        return unwantedNFTs[id].price;\r\n    }\r\n\r\n    function getTokenId(uint256 id) public view returns(uint256) {\r\n        return unwantedNFTs[id].tokenId;\r\n    }\r\n\r\n    function getMaximumSize() public view returns(uint256) {\r\n        return nextAvailableSlot == 0 ? 0 : nextAvailableSlot-1;\r\n    }\r\n\r\n}",
  "sourcePath": "C:\\Users\\jiaju\\Desktop\\Projects\\React Projects\\myster\\contracts\\OwnedNFTs.sol",
  "compiler": {
    "name": "solc",
    "version": "0.8.13+commit.abaa5c0e.Emscripten.clang"
  },
  "schemaVersion": "3.4.4",
  "updatedAt": "2022-03-24T16:18:33.455Z",
  "networkType": "ethereum",
  "devdoc": {
    "kind": "dev",
    "methods": {},
    "version": 1
  },
  "userdoc": {
    "kind": "user",
    "methods": {},
    "version": 1
  }
}