{
  "contractName": "ownedNFTs",
  "abi": [
    {
      "inputs": [
        {
          "internalType": "uint256",
          "name": "price",
          "type": "uint256"
        },
        {
          "internalType": "address",
          "name": "nftAddress",
          "type": "address"
        }
      ],
      "name": "add",
      "outputs": [],
      "stateMutability": "nonpayable",
      "type": "function"
    },
    {
      "inputs": [
        {
          "internalType": "uint256",
          "name": "id",
          "type": "uint256"
        }
      ],
      "name": "remove",
      "outputs": [
        {
          "internalType": "uint256",
          "name": "",
          "type": "uint256"
        },
        {
          "internalType": "address",
          "name": "",
          "type": "address"
        }
      ],
      "stateMutability": "nonpayable",
      "type": "function"
    },
    {
      "inputs": [
        {
          "internalType": "uint256",
          "name": "id",
          "type": "uint256"
        }
      ],
      "name": "sold",
      "outputs": [],
      "stateMutability": "nonpayable",
      "type": "function"
    },
    {
      "inputs": [
        {
          "internalType": "uint256",
          "name": "id",
          "type": "uint256"
        }
      ],
      "name": "getPrices",
      "outputs": [
        {
          "internalType": "uint256",
          "name": "",
          "type": "uint256"
        }
      ],
      "stateMutability": "view",
      "type": "function"
    },
    {
      "inputs": [
        {
          "internalType": "uint256",
          "name": "id",
          "type": "uint256"
        }
      ],
      "name": "getUnwantedNFTs",
      "outputs": [
        {
          "internalType": "contract ERC721Enumerable",
          "name": "",
          "type": "address"
        }
      ],
      "stateMutability": "view",
      "type": "function"
    },
    {
      "inputs": [],
      "name": "getMaximumSize",
      "outputs": [
        {
          "internalType": "uint256",
          "name": "",
          "type": "uint256"
        }
      ],
      "stateMutability": "view",
      "type": "function"
    }
  ],
  "bytecode": "0x608060405234801561001057600080fd5b50610a02806100206000396000f3fe608060405234801561001057600080fd5b50600436106100625760003560e01c8063031b8b21146100675780632b8bbbe8146100855780634cc82215146100a15780638d8e6553146100d257806391492956146101025780639c03facb14610132575b600080fd5b61006f61014e565b60405161007c9190610661565b60405180910390f35b61009f600480360381019061009a919061070b565b610163565b005b6100bb60048036038101906100b6919061074b565b610207565b6040516100c9929190610787565b60405180910390f35b6100ec60048036038101906100e7919061074b565b6103cb565b6040516100f9919061080f565b60405180910390f35b61011c6004803603810190610117919061074b565b610408565b6040516101299190610661565b60405180910390f35b61014c6004803603810190610147919061074b565b610425565b005b60006001805461015e9190610859565b905090565b8060026000600154815260200190815260200160002060006101000a81548173ffffffffffffffffffffffffffffffffffffffff021916908373ffffffffffffffffffffffffffffffffffffffff160217905550816003600060015481526020019081526020016000208190555060016000808282546101e3919061088d565b9250508190555060018060008282546101fc919061088d565b925050819055505050565b600080600073ffffffffffffffffffffffffffffffffffffffff166004600085815260200190815260200160002060009054906101000a900473ffffffffffffffffffffffffffffffffffffffff1673ffffffffffffffffffffffffffffffffffffffff16036102ac576040517f08c379a00000000000000000000000000000000000000000000000000000000081526004016102a390610940565b60405180910390fd5b6000600560008581526020019081526020016000205403610302576040517f08c379a00000000000000000000000000000000000000000000000000000000081526004016102f990610940565b60405180910390fd5b60006004600085815260200190815260200160002060009054906101000a900473ffffffffffffffffffffffffffffffffffffffff16905060006005600086815260200190815260200160002054905060006004600087815260200190815260200160002060006101000a81548173ffffffffffffffffffffffffffffffffffffffff021916908373ffffffffffffffffffffffffffffffffffffffff160217905550600060056000878152602001908152602001600020819055508082935093505050915091565b60006002600083815260200190815260200160002060009054906101000a900473ffffffffffffffffffffffffffffffffffffffff169050919050565b600060036000838152602001908152602001600020549050919050565b600073ffffffffffffffffffffffffffffffffffffffff166002600083815260200190815260200160002060009054906101000a900473ffffffffffffffffffffffffffffffffffffffff1673ffffffffffffffffffffffffffffffffffffffff16036104c7576040517f08c379a00000000000000000000000000000000000000000000000000000000081526004016104be906109ac565b60405180910390fd5b600060036000838152602001908152602001600020540361051d576040517f08c379a0000000000000000000000000000000000000000000000000000000008152600401610514906109ac565b60405180910390fd5b60006002600083815260200190815260200160002060009054906101000a900473ffffffffffffffffffffffffffffffffffffffff169050600060036000848152602001908152602001600020549050816004600085815260200190815260200160002060006101000a81548173ffffffffffffffffffffffffffffffffffffffff021916908373ffffffffffffffffffffffffffffffffffffffff16021790555080600560008581526020019081526020016000208190555060006002600085815260200190815260200160002060006101000a81548173ffffffffffffffffffffffffffffffffffffffff021916908373ffffffffffffffffffffffffffffffffffffffff16021790555060006003600085815260200190815260200160002081905550505050565b6000819050919050565b61065b81610648565b82525050565b60006020820190506106766000830184610652565b92915050565b600080fd5b61068a81610648565b811461069557600080fd5b50565b6000813590506106a781610681565b92915050565b600073ffffffffffffffffffffffffffffffffffffffff82169050919050565b60006106d8826106ad565b9050919050565b6106e8816106cd565b81146106f357600080fd5b50565b600081359050610705816106df565b92915050565b600080604083850312156107225761072161067c565b5b600061073085828601610698565b9250506020610741858286016106f6565b9150509250929050565b6000602082840312156107615761076061067c565b5b600061076f84828501610698565b91505092915050565b610781816106cd565b82525050565b600060408201905061079c6000830185610652565b6107a96020830184610778565b9392505050565b6000819050919050565b60006107d56107d06107cb846106ad565b6107b0565b6106ad565b9050919050565b60006107e7826107ba565b9050919050565b60006107f9826107dc565b9050919050565b610809816107ee565b82525050565b60006020820190506108246000830184610800565b92915050565b7f4e487b7100000000000000000000000000000000000000000000000000000000600052601160045260246000fd5b600061086482610648565b915061086f83610648565b9250828210156108825761088161082a565b5b828203905092915050565b600061089882610648565b91506108a383610648565b9250827fffffffffffffffffffffffffffffffffffffffffffffffffffffffffffffffff038211156108d8576108d761082a565b5b828201905092915050565b600082825260208201905092915050565b7f4e46542068617320616c7265616479206265656e207472616e73666572726564600082015250565b600061092a6020836108e3565b9150610935826108f4565b602082019050919050565b600060208201905081810360008301526109598161091d565b9050919050565b7f4e46542068617320616c7265616479206265656e20736f6c6400000000000000600082015250565b60006109966019836108e3565b91506109a182610960565b602082019050919050565b600060208201905081810360008301526109c581610989565b905091905056fea2646970667358221220ef9f36f297dad00a93f212f346a8d75c9b0f73fedf5edddf44af818daafb3b6864736f6c634300080d0033",
  "immutableReferences": {},
  "source": "// SPDX-License-Identifier: MIT\r\npragma solidity >=0.5.0;\r\nimport \"@openzeppelin/contracts/token/ERC721/extensions/ERC721Enumerable.sol\";\r\n\r\n\r\ncontract ownedNFTs {\r\n    uint256 private numNFTs;\r\n    uint256 private nextAvailableSlot;\r\n    mapping(uint256 => address) private unwantedNFTs;\r\n    mapping(uint256 => uint256) private NFTPrices;\r\n    \r\n    mapping(uint256 => address) private soldNFTs;\r\n    mapping(uint256 => uint256) private soldNFTPrices;\r\n\r\n    function add(uint256 price, address nftAddress) public {\r\n        unwantedNFTs[nextAvailableSlot] = nftAddress;\r\n        NFTPrices[nextAvailableSlot] = price;\r\n        numNFTs += 1;\r\n        nextAvailableSlot += 1;\r\n    }\r\n\r\n    function remove(uint256 id) public returns (uint256, address) {\r\n        require(soldNFTs[id] != address(0), \"NFT has already been transferred\");\r\n        require(soldNFTPrices[id] != 0, \"NFT has already been transferred\");\r\n        address nftAdd = soldNFTs[id];\r\n        uint256 price = soldNFTPrices[id];\r\n\r\n        soldNFTs[id] = address(0);\r\n        soldNFTPrices[id] = 0;\r\n\r\n        return (price, nftAdd);\r\n    }\r\n\r\n    function sold(uint256 id) public {\r\n        require(unwantedNFTs[id] != address(0), \"NFT has already been sold\");\r\n        require(NFTPrices[id] != 0, \"NFT has already been sold\");\r\n\r\n        address nftAdd = unwantedNFTs[id];\r\n        uint256 price = NFTPrices[id];\r\n\r\n        soldNFTs[id] = nftAdd;\r\n        soldNFTPrices[id] = price;\r\n        unwantedNFTs[id] = address(0);\r\n        NFTPrices[id] = 0;\r\n    }\r\n\r\n    function getPrices(uint256 id) public view returns(uint256) {\r\n        return NFTPrices[id];\r\n    }\r\n\r\n    function getUnwantedNFTs(uint256 id) public view returns(ERC721Enumerable) {\r\n        return ERC721Enumerable(unwantedNFTs[id]);\r\n    }\r\n\r\n    function getMaximumSize() public view returns(uint256) {\r\n        return nextAvailableSlot - 1;\r\n    }\r\n\r\n}",
  "sourcePath": "C:\\Users\\jiaju\\Desktop\\Projects\\React Projects\\myster\\contracts\\ownedNFTs.sol",
  "compiler": {
    "name": "solc",
    "version": "0.8.13+commit.abaa5c0e.Emscripten.clang"
  },
  "schemaVersion": "3.4.4",
  "updatedAt": "2022-03-24T09:11:45.187Z",
  "devdoc": {
    "kind": "dev",
    "methods": {},
    "version": 1
  },
  "userdoc": {
    "kind": "user",
    "methods": {},
    "version": 1
  }
}