{
  "contractName": "PurchaseNFT",
  "abi": [
    {
      "inputs": [
        {
          "internalType": "contract ERC20",
          "name": "mysteryTokenAddress",
          "type": "address"
        },
        {
          "internalType": "contract OwnedNFTs",
          "name": "ownedNFTsAddress",
          "type": "address"
        }
      ],
      "stateMutability": "nonpayable",
      "type": "constructor"
    },
    {
      "anonymous": false,
      "inputs": [
        {
          "indexed": false,
          "internalType": "uint256",
          "name": "listingId",
          "type": "uint256"
        },
        {
          "indexed": false,
          "internalType": "uint256",
          "name": "tokenId",
          "type": "uint256"
        },
        {
          "indexed": false,
          "internalType": "address",
          "name": "buyer",
          "type": "address"
        },
        {
          "indexed": false,
          "internalType": "uint256",
          "name": "price",
          "type": "uint256"
        }
      ],
      "name": "Bought",
      "type": "event"
    },
    {
      "anonymous": false,
      "inputs": [
        {
          "indexed": false,
          "internalType": "uint256",
          "name": "listingId",
          "type": "uint256"
        },
        {
          "indexed": false,
          "internalType": "address",
          "name": "seller",
          "type": "address"
        },
        {
          "indexed": false,
          "internalType": "uint256",
          "name": "tokenId",
          "type": "uint256"
        },
        {
          "indexed": false,
          "internalType": "uint256",
          "name": "price",
          "type": "uint256"
        }
      ],
      "name": "Listed",
      "type": "event"
    },
    {
      "inputs": [
        {
          "internalType": "address",
          "name": "token",
          "type": "address"
        },
        {
          "internalType": "uint256",
          "name": "tokenId",
          "type": "uint256"
        },
        {
          "internalType": "uint256",
          "name": "price",
          "type": "uint256"
        }
      ],
      "name": "listNFT",
      "outputs": [],
      "stateMutability": "nonpayable",
      "type": "function"
    },
    {
      "inputs": [
        {
          "internalType": "uint256",
          "name": "listingId",
          "type": "uint256"
        }
      ],
      "name": "buyNFT",
      "outputs": [],
      "stateMutability": "payable",
      "type": "function"
    }
  ],
  "bytecode": "0x6080604052600080553480156200001557600080fd5b5060405162000ba238038062000ba283398181016040528101906200003b919062000188565b81600260006101000a81548173ffffffffffffffffffffffffffffffffffffffff021916908373ffffffffffffffffffffffffffffffffffffffff16021790555080600360006101000a81548173ffffffffffffffffffffffffffffffffffffffff021916908373ffffffffffffffffffffffffffffffffffffffff1602179055505050620001cf565b600080fd5b600073ffffffffffffffffffffffffffffffffffffffff82169050919050565b6000620000f782620000ca565b9050919050565b60006200010b82620000ea565b9050919050565b6200011d81620000fe565b81146200012957600080fd5b50565b6000815190506200013d8162000112565b92915050565b60006200015082620000ea565b9050919050565b620001628162000143565b81146200016e57600080fd5b50565b600081519050620001828162000157565b92915050565b60008060408385031215620001a257620001a1620000c5565b5b6000620001b2858286016200012c565b9250506020620001c58582860162000171565b9150509250929050565b6109c380620001df6000396000f3fe6080604052600436106100295760003560e01c806351ed82881461002e578063ad05f1b41461004a575b600080fd5b610048600480360381019061004391906105f4565b610073565b005b34801561005657600080fd5b50610071600480360381019061006c919061067f565b61039a565b005b60006001600083815260200190815260200160002090506000600181111561009e5761009d6106d2565b5b8160000160009054906101000a900460ff1660018111156100c2576100c16106d2565b5b14610102576040517f08c379a00000000000000000000000000000000000000000000000000000000081526004016100f99061075e565b60405180910390fd5b60018160000160006101000a81548160ff0219169083600181111561012a576101296106d2565b5b02179055508060010160009054906101000a900473ffffffffffffffffffffffffffffffffffffffff1673ffffffffffffffffffffffffffffffffffffffff166323b872dd303384600201546040518463ffffffff1660e01b81526004016101949392919061079c565b600060405180830381600087803b1580156101ae57600080fd5b505af11580156101c2573d6000803e3d6000fd5b50505050600260009054906101000a900473ffffffffffffffffffffffffffffffffffffffff1673ffffffffffffffffffffffffffffffffffffffff166323b872dd338360000160019054906101000a900473ffffffffffffffffffffffffffffffffffffffff1684600301546040518463ffffffff1660e01b815260040161024d9392919061079c565b6020604051808303816000875af115801561026c573d6000803e3d6000fd5b505050506040513d601f19601f82011682018060405250810190610290919061080b565b507f15c17b37da64282512bee7eda7a2db93b101018722575e9963d0d80cb6fc6a8d8282600201543384600301546040516102ce9493929190610838565b60405180910390a1600360009054906101000a900473ffffffffffffffffffffffffffffffffffffffff1673ffffffffffffffffffffffffffffffffffffffff1663988d7a6082600301548360010160009054906101000a900473ffffffffffffffffffffffffffffffffffffffff16846002015460006040518563ffffffff1660e01b8152600401610364949392919061088c565b600060405180830381600087803b15801561037e57600080fd5b505af1158015610392573d6000803e3d6000fd5b505050505050565b8273ffffffffffffffffffffffffffffffffffffffff166323b872dd3330856040518463ffffffff1660e01b81526004016103d79392919061079c565b600060405180830381600087803b1580156103f157600080fd5b505af1158015610405573d6000803e3d6000fd5b5050505060006040518060a001604052806000600181111561042a576104296106d2565b5b81526020013373ffffffffffffffffffffffffffffffffffffffff1681526020018573ffffffffffffffffffffffffffffffffffffffff16815260200184815260200183815250905060008081548092919061048590610900565b919050555080600160008054815260200190815260200160002060008201518160000160006101000a81548160ff021916908360018111156104ca576104c96106d2565b5b021790555060208201518160000160016101000a81548173ffffffffffffffffffffffffffffffffffffffff021916908373ffffffffffffffffffffffffffffffffffffffff16021790555060408201518160010160006101000a81548173ffffffffffffffffffffffffffffffffffffffff021916908373ffffffffffffffffffffffffffffffffffffffff16021790555060608201518160020155608082015181600301559050507f98868c46d49b200d82c273c9f28d73265826ca6567690262736450563dfff64c6000543385856040516105ab9493929190610948565b60405180910390a150505050565b600080fd5b6000819050919050565b6105d1816105be565b81146105dc57600080fd5b50565b6000813590506105ee816105c8565b92915050565b60006020828403121561060a576106096105b9565b5b6000610618848285016105df565b91505092915050565b600073ffffffffffffffffffffffffffffffffffffffff82169050919050565b600061064c82610621565b9050919050565b61065c81610641565b811461066757600080fd5b50565b60008135905061067981610653565b92915050565b600080600060608486031215610698576106976105b9565b5b60006106a68682870161066a565b93505060206106b7868287016105df565b92505060406106c8868287016105df565b9150509250925092565b7f4e487b7100000000000000000000000000000000000000000000000000000000600052602160045260246000fd5b600082825260208201905092915050565b7f4c697374696e67206973206e6f7420617661696c61626c6520616e796d6f7265600082015250565b6000610748602083610701565b915061075382610712565b602082019050919050565b600060208201905081810360008301526107778161073b565b9050919050565b61078781610641565b82525050565b610796816105be565b82525050565b60006060820190506107b1600083018661077e565b6107be602083018561077e565b6107cb604083018461078d565b949350505050565b60008115159050919050565b6107e8816107d3565b81146107f357600080fd5b50565b600081519050610805816107df565b92915050565b600060208284031215610821576108206105b9565b5b600061082f848285016107f6565b91505092915050565b600060808201905061084d600083018761078d565b61085a602083018661078d565b610867604083018561077e565b610874606083018461078d565b95945050505050565b610886816107d3565b82525050565b60006080820190506108a1600083018761078d565b6108ae602083018661077e565b6108bb604083018561078d565b6108c8606083018461087d565b95945050505050565b7f4e487b7100000000000000000000000000000000000000000000000000000000600052601160045260246000fd5b600061090b826105be565b91507fffffffffffffffffffffffffffffffffffffffffffffffffffffffffffffffff820361093d5761093c6108d1565b5b600182019050919050565b600060808201905061095d600083018761078d565b61096a602083018661077e565b610977604083018561078d565b610984606083018461078d565b9594505050505056fea26469706673582212202b7280f380ae07bbb29f1147e209c310013ed3aacf1ed0624801ab6cd518ed2064736f6c634300080d0033",
  "immutableReferences": {},
  "source": "// SPDX-License-Identifier: MIT\r\n\r\npragma solidity >=0.8.0;\r\n\r\nimport \"@openzeppelin/contracts/token/ERC721/ERC721.sol\";\r\n// import \"./MysteryToken.sol\";\r\nimport \"./ownedNFTs.sol\";\r\nimport \"./ERC20.sol\";\r\n\r\n\r\n\r\ncontract PurchaseNFT {\r\n    \r\n    uint private _listingId = 0;\r\n\tmapping(uint => Listing) private _listings; // get the listing from listing id\r\n    // MysteryToken mysteryTokenContract;\r\n    ERC20 mysteryToken; \r\n    OwnedNFTs ownedNFTContract; \r\n\r\n    constructor(ERC20 mysteryTokenAddress, OwnedNFTs ownedNFTsAddress ) {\r\n        mysteryToken = mysteryTokenAddress;\r\n        ownedNFTContract = ownedNFTsAddress;\r\n    }\r\n\r\n    enum ListingStatus {\r\n\t\tActive,\r\n\t\tSold\r\n\t}\r\n\r\n\tstruct Listing {\r\n\t\tListingStatus status;\r\n\t\taddress seller;\r\n        address token;\r\n\t\tuint tokenId;\r\n\t\tuint price;\r\n\t}\r\n\r\n    event Listed(\r\n\t\tuint listingId,\r\n\t\taddress seller,\r\n\t\tuint tokenId,\r\n\t\tuint price\r\n\t);\r\n\r\n\tevent Bought(\r\n\t\tuint listingId,\r\n\t\tuint tokenId,\r\n        address buyer,\r\n\t\tuint price\r\n\t);\r\n\r\n\r\n    function listNFT(address token, uint tokenId, uint price) external {\r\n\t\t//transferring the nft from the seller to the contract\r\n        IERC721(token).transferFrom(msg.sender, address(this), tokenId);\r\n        \r\n        // create a new listing\r\n\t\tListing memory listing = Listing(\r\n\t\t\tListingStatus.Active,\r\n\t\t\tmsg.sender,\r\n            token,\r\n\t\t\ttokenId,\r\n\t\t\tprice\r\n\t\t);\r\n\r\n\t\t_listingId++;\r\n\r\n\t\t_listings[_listingId] = listing;\r\n\r\n\t\temit Listed(\r\n\t\t\t_listingId,\r\n\t\t\tmsg.sender,\r\n\t\t\ttokenId,\r\n\t\t\tprice\r\n\t\t);\r\n\t}\r\n\r\n    function buyNFT(uint listingId) public payable {\r\n\t\t// get the listing \r\n        Listing storage listing = _listings[listingId];\r\n\r\n        // check if listing is active \r\n\t\trequire(listing.status == ListingStatus.Active, \"Listing is not available anymore\");\r\n\r\n\t\t\r\n\r\n        // set to sold \r\n\t\tlisting.status = ListingStatus.Sold;\r\n\r\n        // transfer the nft to the msg.sender (buyer)\r\n\t\tIERC721(listing.token).transferFrom(address(this), msg.sender, listing.tokenId);\r\n\t\t\r\n        // require(msg.value >= listing.price, \"Insufficient payment\");\r\n        // payment by mystery token \r\n        mysteryToken.transferFrom(msg.sender, listing.seller, listing.price);\r\n\r\n        \r\n\r\n\t\temit Bought(\r\n\t\t\tlistingId,\r\n\t\t\tlisting.tokenId,\r\n            msg.sender,\r\n\t\t\tlisting.price\r\n\t\t);\r\n\r\n        // add the nft into our own storage \r\n        ownedNFTContract.add(listing.price, listing.token, listing.tokenId, false);\r\n\t}\r\n\r\n}",
  "sourcePath": "C:\\Users\\viole\\mysterio\\contracts\\PurchaseNFT.sol",
  "compiler": {
    "name": "solc",
    "version": "0.8.13+commit.abaa5c0e.Emscripten.clang"
  },
  "schemaVersion": "3.4.4",
  "updatedAt": "2022-04-03T09:22:13.120Z",
  "devdoc": {
    "kind": "dev",
    "methods": {},
    "version": 1
  },
  "userdoc": {
    "kind": "user",
    "methods": {},
    "version": 1
  }
}