{
  "contractName": "PurchaseNFT",
  "abi": [
    {
      "inputs": [
        {
          "internalType": "contract OwnedNFTs",
          "name": "ownedNFTsAddress",
          "type": "address"
        }
      ],
      "stateMutability": "nonpayable",
      "type": "constructor"
    },
    {
      "anonymous": false,
      "inputs": [
        {
          "indexed": false,
          "internalType": "uint256",
          "name": "listingId",
          "type": "uint256"
        },
        {
          "indexed": false,
          "internalType": "address",
          "name": "buyer",
          "type": "address"
        },
        {
          "indexed": false,
          "internalType": "address",
          "name": "token",
          "type": "address"
        },
        {
          "indexed": false,
          "internalType": "uint256",
          "name": "tokenId",
          "type": "uint256"
        },
        {
          "indexed": false,
          "internalType": "uint256",
          "name": "price",
          "type": "uint256"
        }
      ],
      "name": "Bought",
      "type": "event"
    },
    {
      "anonymous": false,
      "inputs": [
        {
          "indexed": false,
          "internalType": "uint256",
          "name": "listingId",
          "type": "uint256"
        },
        {
          "indexed": false,
          "internalType": "address",
          "name": "seller",
          "type": "address"
        },
        {
          "indexed": false,
          "internalType": "address",
          "name": "token",
          "type": "address"
        },
        {
          "indexed": false,
          "internalType": "uint256",
          "name": "tokenId",
          "type": "uint256"
        },
        {
          "indexed": false,
          "internalType": "uint256",
          "name": "price",
          "type": "uint256"
        }
      ],
      "name": "Listed",
      "type": "event"
    },
    {
      "inputs": [
        {
          "internalType": "address",
          "name": "token",
          "type": "address"
        },
        {
          "internalType": "uint256",
          "name": "tokenId",
          "type": "uint256"
        },
        {
          "internalType": "uint256",
          "name": "price",
          "type": "uint256"
        }
      ],
      "name": "listNFT",
      "outputs": [],
      "stateMutability": "nonpayable",
      "type": "function"
    },
    {
      "inputs": [
        {
          "internalType": "uint256",
          "name": "listingId",
          "type": "uint256"
        }
      ],
      "name": "buyNFT",
      "outputs": [],
      "stateMutability": "payable",
      "type": "function"
    }
  ],
  "bytecode": "0x6080604052600080553480156200001557600080fd5b506040516200227d3803806200227d83398181016040528101906200003b91906200017b565b6040516200004990620000ef565b604051809103906000f08015801562000066573d6000803e3d6000fd5b50600260006101000a81548173ffffffffffffffffffffffffffffffffffffffff021916908373ffffffffffffffffffffffffffffffffffffffff16021790555080600360006101000a81548173ffffffffffffffffffffffffffffffffffffffff021916908373ffffffffffffffffffffffffffffffffffffffff16021790555050620001ad565b6113e28062000e9b83390190565b600080fd5b600073ffffffffffffffffffffffffffffffffffffffff82169050919050565b60006200012f8262000102565b9050919050565b6000620001438262000122565b9050919050565b620001558162000136565b81146200016157600080fd5b50565b60008151905062000175816200014a565b92915050565b600060208284031215620001945762000193620000fd565b5b6000620001a48482850162000164565b91505092915050565b610cde80620001bd6000396000f3fe6080604052600436106100295760003560e01c806351ed82881461002e578063ad05f1b41461004a575b600080fd5b610048600480360381019061004391906107c2565b610073565b005b34801561005657600080fd5b50610071600480360381019061006c919061084d565b6105d5565b005b60006001600083815260200190815260200160002090508060000160019054906101000a900473ffffffffffffffffffffffffffffffffffffffff1673ffffffffffffffffffffffffffffffffffffffff163373ffffffffffffffffffffffffffffffffffffffff160361011c576040517f08c379a000000000000000000000000000000000000000000000000000000000815260040161011390610923565b60405180910390fd5b600060018111156101305761012f610943565b5b8160000160009054906101000a900460ff16600181111561015457610153610943565b5b14610194576040517f08c379a000000000000000000000000000000000000000000000000000000000815260040161018b906109be565b60405180910390fd5b600260009054906101000a900473ffffffffffffffffffffffffffffffffffffffff1673ffffffffffffffffffffffffffffffffffffffff166340c10f1933346040518363ffffffff1660e01b81526004016101f19291906109fc565b6020604051808303816000875af1158015610210573d6000803e3d6000fd5b505050506040513d601f19601f820116820180604052508101906102349190610a5d565b508060030154600260009054906101000a900473ffffffffffffffffffffffffffffffffffffffff1673ffffffffffffffffffffffffffffffffffffffff166370a08231336040518263ffffffff1660e01b81526004016102959190610a8a565b602060405180830381865afa1580156102b2573d6000803e3d6000fd5b505050506040513d601f19601f820116820180604052508101906102d69190610aba565b1015610317576040517f08c379a000000000000000000000000000000000000000000000000000000000815260040161030e90610b33565b60405180910390fd5b60018160000160006101000a81548160ff0219169083600181111561033f5761033e610943565b5b02179055508060010160009054906101000a900473ffffffffffffffffffffffffffffffffffffffff1673ffffffffffffffffffffffffffffffffffffffff166323b872dd303384600201546040518463ffffffff1660e01b81526004016103a993929190610b53565b600060405180830381600087803b1580156103c357600080fd5b505af11580156103d7573d6000803e3d6000fd5b50505050600260009054906101000a900473ffffffffffffffffffffffffffffffffffffffff1673ffffffffffffffffffffffffffffffffffffffff166323b872dd338360000160019054906101000a900473ffffffffffffffffffffffffffffffffffffffff1684600301546040518463ffffffff1660e01b815260040161046293929190610b53565b6020604051808303816000875af1158015610481573d6000803e3d6000fd5b505050506040513d601f19601f820116820180604052508101906104a59190610a5d565b507fc64c7a18cde66673e7f1108933482694fe68508b5086596a0498ceca0efbbcad82338360010160009054906101000a900473ffffffffffffffffffffffffffffffffffffffff1684600201548560030154604051610509959493929190610b8a565b60405180910390a1600360009054906101000a900473ffffffffffffffffffffffffffffffffffffffff1673ffffffffffffffffffffffffffffffffffffffff1663988d7a6082600301548360010160009054906101000a900473ffffffffffffffffffffffffffffffffffffffff16846002015460006040518563ffffffff1660e01b815260040161059f9493929190610bec565b600060405180830381600087803b1580156105b957600080fd5b505af11580156105cd573d6000803e3d6000fd5b505050505050565b60006040518060a00160405280600060018111156105f6576105f5610943565b5b81526020013373ffffffffffffffffffffffffffffffffffffffff1681526020018573ffffffffffffffffffffffffffffffffffffffff16815260200184815260200183815250905060008081548092919061065190610c60565b919050555080600160008054815260200190815260200160002060008201518160000160006101000a81548160ff0219169083600181111561069657610695610943565b5b021790555060208201518160000160016101000a81548173ffffffffffffffffffffffffffffffffffffffff021916908373ffffffffffffffffffffffffffffffffffffffff16021790555060408201518160010160006101000a81548173ffffffffffffffffffffffffffffffffffffffff021916908373ffffffffffffffffffffffffffffffffffffffff16021790555060608201518160020155608082015181600301559050507f723f73331eaee88eec7fc68ef60ab6ed15e4b90d0472b55eb92fa43910bab6dd60005433868686604051610779959493929190610b8a565b60405180910390a150505050565b600080fd5b6000819050919050565b61079f8161078c565b81146107aa57600080fd5b50565b6000813590506107bc81610796565b92915050565b6000602082840312156107d8576107d7610787565b5b60006107e6848285016107ad565b91505092915050565b600073ffffffffffffffffffffffffffffffffffffffff82169050919050565b600061081a826107ef565b9050919050565b61082a8161080f565b811461083557600080fd5b50565b60008135905061084781610821565b92915050565b60008060006060848603121561086657610865610787565b5b600061087486828701610838565b9350506020610885868287016107ad565b9250506040610896868287016107ad565b9150509250925092565b600082825260208201905092915050565b7f42757965722063616e6e6f74206265207468652073656c6c6572206f6620746860008201527f65204e4654000000000000000000000000000000000000000000000000000000602082015250565b600061090d6025836108a0565b9150610918826108b1565b604082019050919050565b6000602082019050818103600083015261093c81610900565b9050919050565b7f4e487b7100000000000000000000000000000000000000000000000000000000600052602160045260246000fd5b7f4c697374696e67206973206e6f7420617661696c61626c6520616e796d6f7265600082015250565b60006109a86020836108a0565b91506109b382610972565b602082019050919050565b600060208201905081810360008301526109d78161099b565b9050919050565b6109e78161080f565b82525050565b6109f68161078c565b82525050565b6000604082019050610a1160008301856109de565b610a1e60208301846109ed565b9392505050565b60008115159050919050565b610a3a81610a25565b8114610a4557600080fd5b50565b600081519050610a5781610a31565b92915050565b600060208284031215610a7357610a72610787565b5b6000610a8184828501610a48565b91505092915050565b6000602082019050610a9f60008301846109de565b92915050565b600081519050610ab481610796565b92915050565b600060208284031215610ad057610acf610787565b5b6000610ade84828501610aa5565b91505092915050565b7f4e6f7420656e6f756768206d6f6e657900000000000000000000000000000000600082015250565b6000610b1d6010836108a0565b9150610b2882610ae7565b602082019050919050565b60006020820190508181036000830152610b4c81610b10565b9050919050565b6000606082019050610b6860008301866109de565b610b7560208301856109de565b610b8260408301846109ed565b949350505050565b600060a082019050610b9f60008301886109ed565b610bac60208301876109de565b610bb960408301866109de565b610bc660608301856109ed565b610bd360808301846109ed565b9695505050505050565b610be681610a25565b82525050565b6000608082019050610c0160008301876109ed565b610c0e60208301866109de565b610c1b60408301856109ed565b610c286060830184610bdd565b95945050505050565b7f4e487b7100000000000000000000000000000000000000000000000000000000600052601160045260246000fd5b6000610c6b8261078c565b91507fffffffffffffffffffffffffffffffffffffffffffffffffffffffffffffffff8203610c9d57610c9c610c31565b5b60018201905091905056fea2646970667358221220152d461dd0fc6fc7770d7c1eefe1a0388042abbe87286023f2c4c8acf77d1aab64736f6c634300080d0033608060405260008060006101000a81548160ff02191690831515021790555033600060016101000a81548173ffffffffffffffffffffffffffffffffffffffff021916908373ffffffffffffffffffffffffffffffffffffffff16021790555034801561006b57600080fd5b506113678061007b6000396000f3fe608060405234801561001057600080fd5b50600436106100f55760003560e01c806347055321116100975780638da5cb5b116100665780638da5cb5b1461029e57806395d89b41146102bc578063a9059cbb146102da578063dd62ed3e1461030a576100f5565b8063470553211461020257806370a08231146102325780637d64bcb414610262578063893d20e814610280576100f5565b806318160ddd116100d357806318160ddd1461016657806323b872dd14610184578063313ce567146101b457806340c10f19146101d2576100f5565b806305d2035b146100fa57806306fdde0314610118578063095ea7b314610136575b600080fd5b61010261033a565b60405161010f9190610eba565b60405180910390f35b61012061034b565b60405161012d9190610f6e565b60405180910390f35b610150600480360381019061014b9190611029565b610384565b60405161015d9190610eba565b60405180910390f35b61016e610476565b60405161017b9190611078565b60405180910390f35b61019e60048036038101906101999190611093565b610480565b6040516101ab9190610eba565b60405180910390f35b6101bc6106d6565b6040516101c99190611102565b60405180910390f35b6101ec60048036038101906101e79190611029565b6106db565b6040516101f99190610eba565b60405180910390f35b61021c60048036038101906102179190611029565b6108bc565b6040516102299190610eba565b60405180910390f35b61024c6004803603810190610247919061111d565b610a1a565b6040516102599190611078565b60405180910390f35b61026a610a63565b6040516102779190610eba565b60405180910390f35b610288610b23565b6040516102959190611159565b60405180910390f35b6102a6610b4c565b6040516102b39190611159565b60405180910390f35b6102c4610b72565b6040516102d19190610f6e565b60405180910390f35b6102f460048036038101906102ef9190611029565b610bab565b6040516103019190610eba565b60405180910390f35b610324600480360381019061031f9190611174565b610dca565b6040516103319190611078565b60405180910390f35b60008054906101000a900460ff1681565b6040518060400160405280600781526020017f4d5953544552590000000000000000000000000000000000000000000000000081525081565b600081600160003373ffffffffffffffffffffffffffffffffffffffff1673ffffffffffffffffffffffffffffffffffffffff16815260200190815260200160002060008573ffffffffffffffffffffffffffffffffffffffff1673ffffffffffffffffffffffffffffffffffffffff168152602001908152602001600020819055508273ffffffffffffffffffffffffffffffffffffffff163373ffffffffffffffffffffffffffffffffffffffff167f8c5be1e5ebec7d5bd14f71427d1e84f3dd0314c0f7b2291e5b200ac8c7c3b925846040516104649190611078565b60405180910390a36001905092915050565b6000600354905090565b60008073ffffffffffffffffffffffffffffffffffffffff168373ffffffffffffffffffffffffffffffffffffffff16036104ba57600080fd5b600260008573ffffffffffffffffffffffffffffffffffffffff1673ffffffffffffffffffffffffffffffffffffffff1681526020019081526020016000205482111561053c576040517f08c379a000000000000000000000000000000000000000000000000000000000815260040161053390611200565b60405180910390fd5b61058e82600260008773ffffffffffffffffffffffffffffffffffffffff1673ffffffffffffffffffffffffffffffffffffffff16815260200190815260200160002054610e5190919063ffffffff16565b600260008673ffffffffffffffffffffffffffffffffffffffff1673ffffffffffffffffffffffffffffffffffffffff1681526020019081526020016000208190555061062382600260008673ffffffffffffffffffffffffffffffffffffffff1673ffffffffffffffffffffffffffffffffffffffff16815260200190815260200160002054610e7890919063ffffffff16565b600260008573ffffffffffffffffffffffffffffffffffffffff1673ffffffffffffffffffffffffffffffffffffffff168152602001908152602001600020819055508273ffffffffffffffffffffffffffffffffffffffff168473ffffffffffffffffffffffffffffffffffffffff167fddf252ad1be2c89b69c2b068fc378daa952ba7f163c4a11628f55a4df523b3ef846040516106c39190611078565b60405180910390a3600190509392505050565b601281565b60008060019054906101000a900473ffffffffffffffffffffffffffffffffffffffff1673ffffffffffffffffffffffffffffffffffffffff163373ffffffffffffffffffffffffffffffffffffffff161461073657600080fd5b60008054906101000a900460ff161561074e57600080fd5b61076382600354610e7890919063ffffffff16565b6003819055506107bb82600260008673ffffffffffffffffffffffffffffffffffffffff1673ffffffffffffffffffffffffffffffffffffffff16815260200190815260200160002054610e7890919063ffffffff16565b600260008573ffffffffffffffffffffffffffffffffffffffff1673ffffffffffffffffffffffffffffffffffffffff168152602001908152602001600020819055508273ffffffffffffffffffffffffffffffffffffffff167f0f6798a560793a54c3bcfe86a93cde1e73087d944c0ea20544137d4121396885836040516108449190611078565b60405180910390a28273ffffffffffffffffffffffffffffffffffffffff16600073ffffffffffffffffffffffffffffffffffffffff167fddf252ad1be2c89b69c2b068fc378daa952ba7f163c4a11628f55a4df523b3ef846040516108aa9190611078565b60405180910390a36001905092915050565b60008073ffffffffffffffffffffffffffffffffffffffff168373ffffffffffffffffffffffffffffffffffffffff16036108f657600080fd5b600260008473ffffffffffffffffffffffffffffffffffffffff1673ffffffffffffffffffffffffffffffffffffffff1681526020019081526020016000205482111561094257600080fd5b61099482600260008673ffffffffffffffffffffffffffffffffffffffff1673ffffffffffffffffffffffffffffffffffffffff16815260200190815260200160002054610e5190919063ffffffff16565b600260008573ffffffffffffffffffffffffffffffffffffffff1673ffffffffffffffffffffffffffffffffffffffff168152602001908152602001600020819055507f552fbac1e76e2ad75646085903caa7aa075610312aa258dd51df35c78902c7748383604051610a08929190611220565b60405180910390a16001905092915050565b6000600260008373ffffffffffffffffffffffffffffffffffffffff1673ffffffffffffffffffffffffffffffffffffffff168152602001908152602001600020549050919050565b60008060019054906101000a900473ffffffffffffffffffffffffffffffffffffffff1673ffffffffffffffffffffffffffffffffffffffff163373ffffffffffffffffffffffffffffffffffffffff1614610abe57600080fd5b60008054906101000a900460ff1615610ad657600080fd5b60016000806101000a81548160ff0219169083151502179055507fae5184fba832cb2b1f702aca6117b8d265eaf03ad33eb133f19dde0f5920fa0860405160405180910390a16001905090565b60008060019054906101000a900473ffffffffffffffffffffffffffffffffffffffff16905090565b600060019054906101000a900473ffffffffffffffffffffffffffffffffffffffff1681565b6040518060400160405280600481526020017f4d5953540000000000000000000000000000000000000000000000000000000081525081565b60008073ffffffffffffffffffffffffffffffffffffffff168373ffffffffffffffffffffffffffffffffffffffff1603610be557600080fd5b600260003373ffffffffffffffffffffffffffffffffffffffff1673ffffffffffffffffffffffffffffffffffffffff16815260200190815260200160002054821115610c3157600080fd5b610c8382600260003373ffffffffffffffffffffffffffffffffffffffff1673ffffffffffffffffffffffffffffffffffffffff16815260200190815260200160002054610e5190919063ffffffff16565b600260003373ffffffffffffffffffffffffffffffffffffffff1673ffffffffffffffffffffffffffffffffffffffff16815260200190815260200160002081905550610d1882600260008673ffffffffffffffffffffffffffffffffffffffff1673ffffffffffffffffffffffffffffffffffffffff16815260200190815260200160002054610e7890919063ffffffff16565b600260008573ffffffffffffffffffffffffffffffffffffffff1673ffffffffffffffffffffffffffffffffffffffff168152602001908152602001600020819055508273ffffffffffffffffffffffffffffffffffffffff163373ffffffffffffffffffffffffffffffffffffffff167fddf252ad1be2c89b69c2b068fc378daa952ba7f163c4a11628f55a4df523b3ef84604051610db89190611078565b60405180910390a36001905092915050565b6000600160008473ffffffffffffffffffffffffffffffffffffffff1673ffffffffffffffffffffffffffffffffffffffff16815260200190815260200160002060008373ffffffffffffffffffffffffffffffffffffffff1673ffffffffffffffffffffffffffffffffffffffff16815260200190815260200160002054905092915050565b600082821115610e6457610e63611249565b5b8183610e7091906112a7565b905092915050565b60008183610e8691906112db565b905082811015610e9957610e98611249565b5b92915050565b60008115159050919050565b610eb481610e9f565b82525050565b6000602082019050610ecf6000830184610eab565b92915050565b600081519050919050565b600082825260208201905092915050565b60005b83811015610f0f578082015181840152602081019050610ef4565b83811115610f1e576000848401525b50505050565b6000601f19601f8301169050919050565b6000610f4082610ed5565b610f4a8185610ee0565b9350610f5a818560208601610ef1565b610f6381610f24565b840191505092915050565b60006020820190508181036000830152610f888184610f35565b905092915050565b600080fd5b600073ffffffffffffffffffffffffffffffffffffffff82169050919050565b6000610fc082610f95565b9050919050565b610fd081610fb5565b8114610fdb57600080fd5b50565b600081359050610fed81610fc7565b92915050565b6000819050919050565b61100681610ff3565b811461101157600080fd5b50565b60008135905061102381610ffd565b92915050565b600080604083850312156110405761103f610f90565b5b600061104e85828601610fde565b925050602061105f85828601611014565b9150509250929050565b61107281610ff3565b82525050565b600060208201905061108d6000830184611069565b92915050565b6000806000606084860312156110ac576110ab610f90565b5b60006110ba86828701610fde565b93505060206110cb86828701610fde565b92505060406110dc86828701611014565b9150509250925092565b600060ff82169050919050565b6110fc816110e6565b82525050565b600060208201905061111760008301846110f3565b92915050565b60006020828403121561113357611132610f90565b5b600061114184828501610fde565b91505092915050565b61115381610fb5565b82525050565b600060208201905061116e600083018461114a565b92915050565b6000806040838503121561118b5761118a610f90565b5b600061119985828601610fde565b92505060206111aa85828601610fde565b9150509250929050565b7f42616c616e63652046726f6d204c6f7700000000000000000000000000000000600082015250565b60006111ea601083610ee0565b91506111f5826111b4565b602082019050919050565b60006020820190508181036000830152611219816111dd565b9050919050565b6000604082019050611235600083018561114a565b6112426020830184611069565b9392505050565b7f4e487b7100000000000000000000000000000000000000000000000000000000600052600160045260246000fd5b7f4e487b7100000000000000000000000000000000000000000000000000000000600052601160045260246000fd5b60006112b282610ff3565b91506112bd83610ff3565b9250828210156112d0576112cf611278565b5b828203905092915050565b60006112e682610ff3565b91506112f183610ff3565b9250827fffffffffffffffffffffffffffffffffffffffffffffffffffffffffffffffff0382111561132657611325611278565b5b82820190509291505056fea26469706673582212201ba8121a535af177c02867b2273871a16c5f6b73602f97453391b570040ac32964736f6c634300080d0033",
  "immutableReferences": {},
  "source": "// SPDX-License-Identifier: MIT\r\n\r\npragma solidity >=0.8.0;\r\n\r\nimport \"@openzeppelin/contracts/token/ERC721/ERC721.sol\";\r\n// import \"./MysteryToken.sol\";\r\nimport \"./ownedNFTs.sol\";\r\nimport \"./ERC20.sol\";\r\n\r\n\r\n\r\ncontract PurchaseNFT {\r\n    \r\n    uint private _listingId = 0;\r\n\tmapping(uint => Listing) private _listings; // get the listing from listing id\r\n    // MysteryToken mysteryTokenContract;\r\n    ERC20 mysteryToken; \r\n    OwnedNFTs ownedNFTContract; \r\n\r\n    constructor(OwnedNFTs ownedNFTsAddress) {\r\n        mysteryToken = new ERC20();\r\n        ownedNFTContract = ownedNFTsAddress;\r\n    }\r\n\r\n    enum ListingStatus {\r\n\t\tActive,\r\n\t\tSold\r\n\t}\r\n\r\n\tstruct Listing {\r\n\t\tListingStatus status;\r\n\t\taddress seller;\r\n        address token;\r\n\t\tuint tokenId;\r\n\t\tuint price;\r\n\t}\r\n\r\n    event Listed(\r\n\t\tuint listingId,\r\n\t\taddress seller,\r\n\t\taddress token,\r\n\t\tuint tokenId,\r\n\t\tuint price\r\n\t);\r\n\r\n\tevent Bought(\r\n\t\tuint listingId,\r\n\t\taddress buyer,\r\n\t\taddress token,\r\n\t\tuint tokenId,\r\n\t\tuint price\r\n\t);\r\n\r\n\r\n    function listNFT(address token, uint tokenId, uint price) external {\r\n\t\t//transferring the nft from the seller to the contract\r\n        // IERC721(token).transferFrom(IERC721(token).ownerOf(tokenId), address(this), tokenId);\r\n        \r\n        // create a new listing\r\n\t\tListing memory listing = Listing(\r\n\t\t\tListingStatus.Active,\r\n\t\t\tmsg.sender,\r\n            token,\r\n\t\t\ttokenId,\r\n\t\t\tprice\r\n\t\t);\r\n\r\n\t\t_listingId++;\r\n\r\n\t\t_listings[_listingId] = listing;\r\n\r\n\t\temit Listed(\r\n\t\t\t_listingId,\r\n\t\t\tmsg.sender,\r\n\t\t\ttoken,\r\n\t\t\ttokenId,\r\n\t\t\tprice\r\n\t\t);\r\n\t}\r\n\r\n    function buyNFT(uint listingId) public payable {\r\n\t\t// get the listing \r\n        Listing storage listing = _listings[listingId];\r\n\r\n\t\trequire(msg.sender != listing.seller, \"Buyer cannot be the seller of the NFT\");\r\n\r\n        // check if listing is active \r\n\t\trequire(listing.status == ListingStatus.Active, \"Listing is not available anymore\");\r\n\r\n\t\t//check if enough money \r\n\t\tmysteryToken.mint(msg.sender, msg.value);\r\n\t\trequire(mysteryToken.balanceOf(msg.sender) >= listing.price, 'Not enough money');\r\n\t\r\n\r\n        // set to sold \r\n\t\tlisting.status = ListingStatus.Sold;\r\n\r\n        // transfer the nft to the msg.sender (buyer)\r\n\t\tIERC721(listing.token).transferFrom(address(this), msg.sender, listing.tokenId);\r\n\t\t\r\n        // require(msg.value >= listing.price, \"Insufficient payment\");\r\n\t\t\r\n        mysteryToken.transferFrom(msg.sender, listing.seller, listing.price);\r\n   \r\n\r\n\t\temit Bought(\r\n\t\t\tlistingId,\r\n\t\t\tmsg.sender,\r\n\t\t\tlisting.token,\r\n\t\t\tlisting.tokenId,\r\n\t\t\tlisting.price\r\n\t\t);\r\n\r\n        // add the nft into our own storage \r\n        ownedNFTContract.add(listing.price, listing.token, listing.tokenId, false);\r\n\t}\r\n\r\n}",
  "sourcePath": "C:\\Users\\Kevin\\Documents\\BlockchainMod\\mysterio\\contracts\\PurchaseNFT.sol",
  "compiler": {
    "name": "solc",
    "version": "0.8.13+commit.abaa5c0e.Emscripten.clang"
  },
  "schemaVersion": "3.4.3",
  "updatedAt": "2022-04-06T09:49:25.968Z",
  "devdoc": {
    "kind": "dev",
    "methods": {},
    "version": 1
  },
  "userdoc": {
    "kind": "user",
    "methods": {},
    "version": 1
  }
}